:100000000C9463000C948B000C948B000C94CA0627
:100010000C94CA060C94CA060C948B000C948B00AA
:100020000C948B000C948B000C948B000C948B0024
:100030000C948B000C948B000C948B000C948B0014
:100040000C9439090C948B000C9475080C944F088F
:100050000C948B000C948B000C948B000C948B00F4
:100060000C948B000C948B0000000008000201002F
:100070000003040700000000000000000000000072
:10008000250028002B0000000000240027002A0083
:1000900000000000230026002900040404040404D6
:1000A0000404020202020202030303030303010227
:1000B00004081020408001020408102001020408F6
:1000C0001020A00F840F11241FBECFEFD8E0DEBF99
:1000D000CDBF12E0A0E0B1E0EEE2F5E202C0059093
:1000E0000D92A031B107D9F723E0A0E1B2E001C041
:1000F0001D92A73CB207E1F710E0C2E6D0E004C0D1
:100100002197FE010E945D12C136D107C9F70E94F6
:100110003F110C948A120C940000FC01818D928D89
:100120000895FC0184899589089529E631E0FC0150
:1001300031832083FB014089518962897389FC01E5
:1001400042835383648375830895DC01ED91FC91B0
:10015000008CF18DE02D0994FC019485FB018485D0
:10016000981303C081E0943009F480E0089521E001
:10017000FC018485843009F420E0822F08950895DD
:10018000CF93DF931F92CDB7DEB76983DC01ED918A
:10019000FC910280F381E02D41E050E0BE016F5FF1
:1001A0007F4F09950F90DF91CF910895DC01ED917C
:1001B000FC91048CF58DE02D099591E08927089537
:1001C000862F089581E0862708952091520230916C
:1001D00053022817390771F490915102809150020F
:1001E000981741F0E0915102F0E0E05FFD4F80810F
:1001F00090E008958FEF9FEF089508951F93CF9398
:10020000DF93DC015C962D913C915D9721153105C2
:1002100039F481E090E013969C938E9312973DC041
:100220005196ED91FC91529750969C915097892F41
:1002300080951FB75E964C915E9741FB772770F9CA
:1002400041FD6095F8944081772311F0492B01C05E
:1002500048234083E9012197F1F748E0508160FF8E
:1002600002C0592B01C058235083E9012197F1F7AF
:100270006695415099F7772321F0908189238083F7
:1002800003C08081982B90831FBF5C968D919C91B9
:100290005D970197F1F721E030E0C901DF91CF913F
:1002A0001F91089520915202309153022817390767
:1002B00071F4809150022091510290E0805C9F4F38
:1002C000821B910960E470E00E943512089580E07D
:1002D00090E0089520915202309153022817390777
:1002E000B9F49091510280915002981789F0E091F1
:1002F0005102F0E0E05FFD4F80812091510230E03B
:100300002F5F3F4F2F7333272093510290E00895C2
:100310008FEF9FEF0895FC018485843011F00C94D9
:100320001A0B80E00895CF93DF93FC0124852430DD
:10033000D1F0EC010E948B01843181F0882371F0AF
:10034000883161F08C3161F4E881F9810480F581B4
:10035000E02DCE01099521E0892B19F420E001C0A0
:1003600021E0822F01C080E0DF91CF910895EF92CC
:10037000FF921F93CF93DF93FC01208D243011F067
:1003800080E01CC07B01EC0110E0812F0E941A0B61
:10039000811102C0188F05C08831E1F31F5F14304E
:1003A000A1F7888D843061F3FD86EC861A8E198E54
:1003B00020E0A70162E00E94D60A81E0DF91CF91A0
:1003C0001F91FF90EF9008950F931F93CF93DF93AA
:1003D0001F92CDB7DEB78C01DC01ED91FC9104805A
:1003E000F581E02D0995892B51F0BE016F5F7F4F9C
:1003F000F80184850E94050A898190E002C08FEF90
:100400009FEF0F90DF91CF911F910F910895FC0105
:1004100084850C94520ACF93DF931F92CDB7DEB739
:1004200041E050E0BE016F5F7F4FFC0184850E9478
:10043000520A181619061CF4898190E002C08FEF49
:100440009FEF0F90DF91CF910895FC018485843058
:1004500011F00C94300A80E090E008950F931F9300
:10046000CF93DF931F92CDB7DEB7282F30E02C5FFC
:100470003F4F322F22278901060F171F49830E9401
:10048000850980EF0E949F09812F0E949F09802F7C
:100490000E949F094981842F0E949F090E9483091D
:1004A00081E00F90DF91CF911F910F9108950F93ED
:1004B0001F93CF93DF931F92CDB7DEB790E00496E2
:1004C000982F88278C01060F171F0E9485098FE03F
:1004D0000E949F09812F0E949F09802F0E949F09DF
:1004E00080E00E949F0989830E94830989810F907F
:1004F000DF91CF911F910F910895CF93DF93C82F74
:10050000D62F472F60E170E00E942E024D2F61E14F
:1005100070E08C2FDF91CF910C942E0208958CBD4A
:100520009DBD0895CF92DF92EF92FF921F93CF93DC
:10053000DF93FC011485143099F1EC0180E590E023
:100540000E948F0268E070E0812F0E94AF0C0E9431
:100550002D096B017C01CE010E948B018823B1F033
:1005600061E070E080E090E00E94F3080E942D09B5
:10057000DC01CB018C199D09AE09BF09883E93406F
:10058000A105B10540F38C850E94C20AEC85F0E01C
:10059000EE0FFF1FE154FC4F1182108284E08C8724
:1005A000DF91CF911F91FF90EF90DF90CF90089552
:1005B0008F929F92AF92BF92CF92DF92EF92FF9273
:1005C0000F931F93CF936C015B017A01FC01C485EB
:1005D000C43041F481E090E0F6019383828380E0AF
:1005E00090E04EC08A014130584010F000E018E021
:1005F00080E590E00E948F028C2F0E94930C4C01AA
:1006000063E070E08C2F0E945702873111F08C312B
:1006100021F48016910660F302C000E010E080E54E
:1006200090E00E948F029801A50160E070E08C2F9D
:100630000E942E0C60E270E08C2F0E94AF0C62E0F2
:1006400070E08C2F0E94570284FD10C063E070E0C0
:100650008C2F0E945702811104C08C2F0E94C20A65
:10066000B9CF80E590E00E948F02E9CF40E162E0DF
:1006700070E08C2F0E942E02012B09F4ABCFC70132
:10068000CF911F910F91FF90EF90DF90CF90BF908F
:10069000AF909F908F900895CF92DF92FF920F932B
:1006A0001F93CF93DF93FC012485243009F077C09A
:1006B0006A01EB018C01F12C8F2D0E941A0B811124
:1006C00003C0F801F48607C08B7F8831D1F3F3941F
:1006D000F4E0FF12F1CFF8018485843009F45FC0A3
:1006E00020910001309101012F5F3F4F11F420E074
:1006F00030EC3093010120930001409100015091B2
:10070000010120E061E00E94D60AF801F4848A81A8
:100710008F3F51F48B818F3F91F48C818F3F79F41F
:100720008D818F3F61F438C0811109C08B818111A7
:1007300006C08C81811103C08D81882369F1C114A9
:10074000D10451F180E590E00E948F02BE016E5FFE
:100750007F4F8F2D90E0982F882744E050E0845FF2
:100760009B4F0E94D609B6018F2D0E947D0264E046
:1007700070E08F2D0E94AF0CC8010E948B01873161
:1007800089F061E070E080E090E00E94F308C80129
:100790000E948B018111F0CF84E0F801848780E012
:1007A00090E002C081E090E0DF91CF911F910F9126
:1007B000FF90DF90CF9008952F923F924F925F92DB
:1007C0006F927F928F929F92AF92BF92CF92DF9261
:1007D000EF92FF920F931F93CF93DF93CDB7DEB7C6
:1007E00065970FB6F894DEBF0FBECDBF7C016B01DD
:1007F0003A01FB0120E080E090E06AE03191332390
:1008000009F140ED430F4A3080F4689FA001699FD1
:10081000500D1124CA01C097830F911D37FD9A9581
:100820008F3F910559F350F313C03E3289F42330C2
:1008300079F0D301A20FB11D12968C932F5F80E047
:1008400090E0DCCF233021F4F301858381E021C0E7
:10085000F7014281538164817581809116039091E3
:100860001703A0911803B0911903481759076A0795
:100870007B0709F49EC10E942D098701085F1F4F65
:100880006F7077277C5FC8010E94B701813019F033
:1008900080E090E0F3C189E691E09A838983F701D3
:1008A00082819381A481B5818B839C83AD83BE8338
:1008B00045E350E0BE016F5F7F4FC8010E94840E88
:1008C000892B19F4C12CD12C6FC10E942D09F7017D
:1008D000778366837627672776277A83698342E062
:1008E00050E0BE016F5F7F4FC8010E944C0E81E057
:1008F00090E09E878D8742E050E0BE01635F7F4FAE
:10090000C8010E944C0E80E091E09E878D8742E0F6
:1009100050E0BE01635F7F4FC8010E944C0E1E86EF
:100920001D8642E050E0BE01635F7F4FC8010E9418
:100930004C0E42E050E0BE01635F7F4FC8010E9451
:100940004C0E42E050E0BE01635F7F4FC8010E9441
:100950004C0E5601F5018081882311F1F6015F01EB
:100960008191811115C045018C189D081814190436
:1009700094F48F8641E050E0BE01615F7F4FC80173
:100980000E944C0EA401B601C8010E944C0E03C087
:100990008E3229F7E8CF6501FFEFCF1ADF0ADACFF1
:1009A0001F8641E050E0BE01615F7F4FC8010E9499
:1009B0004C0EC12CDD24D394DE86CD8642E050E07F
:1009C000BE01635F7F4FC8010E944C0EDE86CD865C
:1009D00042E050E0BE01635F7F4FC8010E944C0EB1
:1009E000C8010E94C40E892B09F46CCF63E0A62EC7
:1009F000B12CF2E06F0E711C0E942D091B012C011D
:100A0000C8010E94F30D18161906A4F00E942D09C2
:100A1000DC01CB0182199309A409B50989389341F6
:100A2000A105B105D0F462E370E080E090E00E949F
:100A3000F308E6CFF7014281538164817581808D8F
:100A4000918DA28DB38D481759076A077B0741F432
:100A5000848D958DC59721F406C02FEF3FEF9AC086
:100A60002EEF3FEF97C0F70181A192A10C970CF4F4
:100A7000A6C04CE050E0BE016F5F7F4FC8010E94EE
:100A8000AB0D8B8190E0982F88272C81822B9A8B3D
:100A9000898B298130E0322F22274A81242BF701CC
:100AA000468157814217530709F086C097FF84C0DB
:100AB0008F709270892B09F0DEC0CF80D12CDC2C96
:100AC000CC248885C82AC114D10409F4D1C0812C52
:100AD000912C8D8190E0982F88272E81822B88166B
:100AE000990608F46FC0812C912C41E050E0BE01C2
:100AF0006D5E7F4FC8010E94AB0D8B89982F907C53
:100B000009F093C0811186C08B898111EECF42E03C
:100B100050E0BE01615F7F4FC8010E94AB0D42E013
:100B200050E0BE01635F7F4FC8010E94AB0DC8015A
:100B30000E94CA0DC8010E94CA0DC8010E94CA0DB8
:100B4000C8010E94CA0D42E050E0BE016F5E7F4FB7
:100B5000C8010E94AB0D8F8598898115914009F0DD
:100B600069C02D853E853227232732272130310564
:100B700009F060C089899A898115944009F075C08F
:100B800044E050E0B301C8012C8B3D8B0E94AB0DBB
:100B90002C893D896901F1E0AF1AB10829F02FEFE6
:100BA000C216D20609F428CFC8010E946F0FC601F1
:100BB00065C08EEF9FEF62C02CEF3FEFEBCF2DEFC4
:100BC0003FEFE8CF41E050E0BE01635F7F4FC801D7
:100BD0000E94AB0D8D85811113C08D858111F2CFDF
:100BE000C8010E94CA0DC8010E94CA0DC8010E9416
:100BF000CA0DC8010E94CA0DFFEF8F1A9F0A69CF64
:100C00008D859FEF980F9D87882339F3C8010E9437
:100C1000CA0DF6CF8B899FEF980F9B8B882309F421
:100C200073CFC8010E94CA0DF5CFC8010E94CA0D3A
:100C30001B8A6ACF412C512C89899A899827892748
:100C400098274816590638F4C8010E94CA0D8FEF3C
:100C5000481A580AF1CFEFEF8E1A9E0A8C149D04A1
:100C600009F043CF26EF3FEF95CF27EF3FEF92CF2D
:100C70002AEF3FEF8FCF2BEF3FEF8CCF65960FB66C
:100C8000F894DEBF0FBECDBFDF91CF911F910F91C2
:100C9000FF90EF90DF90CF90BF90AF909F908F909C
:100CA0007F906F905F904F903F902F900895CF92DC
:100CB000DF92EF92FF920F931F93CF93DF93CDB705
:100CC000DEB7AF970FB6F894DEBF0FBECDBF7C0185
:100CD0006A0109E611E01A8309831C861B8688EEE7
:100CE00093E0A0E0B0E08D879E87AF87B88B8FE957
:100CF00091E09A878987188F0F8B198E1A8E1B8E19
:100D00001C8E84E089A31DA30CA31EA21FA218A6FB
:100D100019A680910E0390910F03A0911003B0913A
:100D200011038CA79DA7AEA7BFA78B839C83AD8320
:100D3000BE8318861F82AE014C5D5F4FCE010196C7
:100D40000E94DC0381309105B1F4D701ED91FC9153
:100D50000484F585E02D1BA70AA78EA19FA1A8A555
:100D6000B9A58CA79DA7AEA7BFA7A601BE01665DCA
:100D70007F4FC7010995AF960FB6F894DEBF0FBE3F
:100D8000CDBFDF91CF911F910F91FF90EF90DF903A
:100D9000CF9008951F920F920FB60F9211242F93A8
:100DA0003F934F935F936F937F938F939F93AF93F3
:100DB000BF93EF93FF93E0915202F091530230976B
:100DC00009F451C0968DA685B785858591FF04C02D
:100DD0009C91892329F447C09C91892309F043C041
:100DE000A389B4899C918589809589238C93868970
:100DF00097890197F1F7608D718DA685B785558527
:100E000038E020E0CB010197F1F7822F90E0959533
:100E10008795282F4C91452309F02068315091F790
:100E2000868D81FD20958091500290E001968F7310
:100E3000992730915102381749F0A0915002B0E043
:100E4000A05FBD4F2C938093500203C0868D8160BC
:100E5000868F828D938D0197F1F7A389B4899C9138
:100E60008589892B8C93FF91EF91BF91AF919F91D1
:100E70008F917F916F915F914F913F912F910F9043
:100E80000FBE0F901F901895FC01918D828D9817C1
:100E900061F0828DDF01A80FB11D5D968C91928D5E
:100EA0009F5F9F73928F90E008958FEF9FEF08955B
:100EB000FC01918D828D981731F0828DE80FF11D24
:100EC000858D90E008958FEF9FEF0895FC01918D3F
:100ED000228D892F90E0805C9F4F821B91098F7338
:100EE000992708958FE692E00E94660721E0892BFA
:100EF00009F420E0822F0895FC01848DDF01A80F02
:100F0000B11DA35ABF4F2C91848D90E001968F7331
:100F10009927848FA689B7892C93A089B1898C9150
:100F200080648C93938D848D981306C00288F38916
:100F3000E02D80818F7D80830895EF92FF920F9343
:100F40001F93CF93DF93EC0181E0888F9B8D8C8D75
:100F5000981305C0E889F989808185FD24C0F62EA3
:100F60000B8D10E00F5F1F4F0F731127E02E8C8D3C
:100F7000E8120CC00FB607FCFACFE889F989808126
:100F800085FFF5CFCE010E947C07F1CF8B8DFE014E
:100F9000E80FF11DE35AFF4FF0820B8FEA89FB89BE
:100FA0008081806207C0EE89FF896083E889F989C2
:100FB00080818064808381E090E0DF91CF911F91F8
:100FC0000F91FF90EF900895CF93DF93EC01888D00
:100FD0008823C9F0EA89FB89808185FD05C0A8893D
:100FE000B9898C9186FD0FC00FB607FCF5CF8081C3
:100FF00085FFF2CFA889B9898C9185FFEDCFCE010D
:101000000E947C07E7CFDF91CF91089580E090E0C8
:10101000892B29F00E94720781110C940000089519
:101020003FB7F89480915B0290915C02A0915D02C1
:10103000B0915E0226B5A89B05C02F3F19F001961E
:10104000A11DB11D3FBFBA2FA92F982F8827820F4E
:10105000911DA11DB11DBC01CD0142E0660F771F9E
:10106000881F991F4A95D1F708950E9463121F9314
:10107000CF93DF93182F66E270E00E945702C82FCB
:10108000D0E067E270E0812F0E945702DC2FCC276E
:101090009E01282BC901DF91CF911F9108951F92C6
:1010A0000F920FB60F9211242F933F934F935F939C
:1010B0006F937F938F939F93AF93BF93EF93FF9320
:1010C0008FE692E00E947C07FF91EF91BF91AF9174
:1010D0009F918F917F916F915F914F913F912F9150
:1010E0000F900FBE0F901F9018951F920F920FB682
:1010F0000F9211242F938F939F93EF93FF93E0917F
:101100007F02F09180028081E0918502F091860259
:1011100082FD12C09081809188028F5F8F73209131
:101120008902821751F0E0918802F0E0E159FD4F09
:10113000958F8093880201C08081FF91EF919F91EC
:101140008F912F910F900FBE0F901F90189590E0E8
:10115000FC01E859FF4F3491FC01E255FF4F249107
:10116000FC01E656FF4FE491EE2309F43BC0332324
:1011700039F1333091F038F43130A9F0323001F5E3
:1011800084B58F7D12C0373091F03830A1F0343003
:10119000B9F4809180008F7D03C0809180008F77AB
:1011A000809380000DC084B58F7784BD09C0809185
:1011B000B0008F7703C08091B0008F7D8093B00026
:1011C000F0E0EE0FFF1FE458FF4FA591B4918FB7E9
:1011D000F894EC91611103C020952E2301C02E2BB1
:1011E0002C938FBF08958F929F92AF92BF92CF9210
:1011F000DF92EF92FF926B017C010E9410084B017D
:101200005C01C114D104E104F104F1F00E94100862
:10121000DC01CB0188199909AA09BB09883E9340D2
:10122000A105B10570F321E0C21AD108E108F10867
:1012300088EE880E83E0981EA11CB11CC114D10455
:10124000E104F10419F7DDCFFF90EF90DF90CF902C
:10125000BF90AF909F908F9008952FB7F8946091B2
:101260005702709158028091590290915A022FBFF3
:1012700008951F920F920FB60F9211242F933F9350
:101280008F939F93AF93BF93809157029091580291
:10129000A0915902B0915A023091560223E0230FD7
:1012A0002D3720F40196A11DB11D05C026E8230F9E
:1012B0000296A11DB11D2093560280935702909370
:1012C0005802A0935902B0935A0280915B02909108
:1012D0005C02A0915D02B0915E020196A11DB11D5C
:1012E00080935B0290935C02A0935D02B0935E02D8
:1012F000BF91AF919F918F913F912F910F900FBE12
:101300000F901F9018952A9A08952A9808951F9370
:10131000CF93DF93182F60E270E00E945702C82F2E
:10132000D0E061E270E0812F0E945702DC2FCC27D1
:101330009E01282BC901DF91CF911F9108958EBD89
:1013400000000DB407FEFDCF8EB50895CF92DF9259
:10135000EF92FF920F931F93CF93DF93EC017A01EB
:101360008B016C01C40ED51ECC15DD05A9F00E94C1
:1013700085098FE00E949F098D2F0E949F098C2F65
:101380000E949F09219680E00E949F09F8018193A5
:101390008F010E948309E8CFC701DF91CF911F9190
:1013A0000F91FF90EF90DF90CF900895CF92DF9252
:1013B000EF92FF920F931F93CF93DF93EC017A018B
:1013C0008B016C01C40ED51ECC15DD05A1F00E9469
:1013D000850980EF0E949F098D2F0E949F098C2F05
:1013E0000E949F092196F80181918F010E949F0917
:1013F0000E948309E9CFC701DF91CF911F910F911F
:10140000FF90EF90DF90CF900895EF92FF921F939F
:10141000CF93DF93182F7B0180E590E00E948F022D
:1014200068E270E0812F0E945702C82FD0E069E285
:1014300070E0812F0E945702DC2FCC27BE01682B61
:1014400021E030E0A701812F0E94BF0C0E948E0294
:1014500081E090E0DF91CF911F91FF90EF90089590
:10146000FF920F931F93CF93DF93F82E80E590E0C8
:101470000E948F02C0E0D0E08F2D0E9437088C01BF
:10148000892B21F08F2D0E943708EC01C017D1075E
:1014900099F70E948E02CE01DF91CF911F910F919B
:1014A000FF900895AF92BF92DF92EF92FF920F9359
:1014B0001F93CF93DF93D82E7B018A0180E590E0C4
:1014C0000E948F02C0E0D0E08D2D0E9437085C01A1
:1014D000892B21F08D2D0E943708EC01CA15DB0500
:1014E00099F7209799F463E070E08D2D0E945702E0
:1014F0008431D9F18823C9F1C1E0D0E08C3111F4F5
:10150000C0E0D0E0D195C195D1092FC00C171D07BF
:101510000CF4E8011C161D0644F568E270E08D2D00
:101520000E945702082F10E069E270E08D2D0E94A2
:101530005702102F0027082B9E01A701B8018D2DFF
:101540000E94BF0C0C0F1D1F412F68E270E08D2D13
:101550000E942E02402F69E270E08D2D0E942E0223
:1015600060E470E08D2D0E94AF0C0E948E02CE01CF
:10157000DF91CF911F910F91FF90EF90DF90BF907F
:10158000AF900895CF93C82F80E590E00E948F021E
:1015900060E170E08C2F0E94AF0C4FEF62E070E0D2
:1015A0008C2F0E942E02CF910C948E02FF920F93EB
:1015B0001F93CF93DF9300D0CDB7DEB7F82E8A010B
:1015C0002A8369830E94C20A80E590E00E948F020C
:1015D0002A816981462F422B60E070E08F2D0E94A6
:1015E0002E020115110551F400915402109155027B
:1015F0000F5F1F4F1093550200935402412F64E078
:1016000070E08F2D0E942E02402F65E070E08F2D3C
:101610000E942E0261E070E08F2D0E94AF0C0E94AC
:101620008E0281E00F900F90DF91CF911F910F916B
:10163000FF9008951F93CF93DF931F92CDB7DEB72E
:10164000182F80E590E00E948F0263E070E0812F08
:101650000E94570289830E948E0289810F90DF9138
:10166000CF911F910895EFE6F2E0A089B18982E061
:101670008C93A485B5851C92A685B7858FEC8C9339
:10168000108EA489B58986E08C93A289B3898C9148
:1016900080618C93A289B3898C9188608C93A28994
:1016A000B3898C9180688C930288F389E02D8081C6
:1016B0008F7D80830895CF92DF92EF92FF920F93F8
:1016C0001F93CF93DF936C017A018B01C0E0D0E0D0
:1016D000CE15DF0589F0D8016D918D01D601ED9110
:1016E000FC910190F081E02DC6010995892B11F440
:1016F0007E0102C02196ECCFC701DF91CF911F91EF
:101700000F91FF90EF90DF90CF90089561157105D4
:1017100079F0FB0101900020E9F73197AF01461BFA
:10172000570BDC01ED91FC910280F381E02D0994CF
:1017300080E090E008954F925F926F927F92EF92D7
:10174000FF920F931F93CF93DF93CDB7DEB7A1978F
:101750000FB6F894DEBF0FBECDBF7C01FA01CB01FE
:1017600019A2223008F42AE08E010F5D1F4F422E8D
:10177000512C612C712CBF01A30192010E946812AF
:10178000F901CA01015011096A3014F4605D01C009
:10179000695CD8016C93232B242B252B61F7B801AE
:1017A000C7010E94860BA1960FB6F894DEBF0FBE4C
:1017B000CDBFDF91CF911F910F91FF90EF907F9060
:1017C0006F905F904F9008958F929F92AF92BF92CB
:1017D000CF92DF92EF92FF920F931F93CF93DF93FD
:1017E0007C01EB016C0182E0C80ED11C4701E5E0F1
:1017F0008E0E911C00E010E0F60141916F0150E067
:1018000060E070E02AE0CE010E949B0B5C01E88161
:10181000F9810190F081E02D6EE2CE0109958A0DEB
:101820009B1D080F191FC814D90431F7F701458112
:1018300050E060E070E02AE0CE010E949B0B800F38
:10184000911FDF91CF911F910F91FF90EF90DF904B
:10185000CF90BF90AF909F908F9008959F92AF923E
:10186000BF92CF92DF92EF92FF920F931F93CF938D
:10187000DF93982E8B015A01690164E270E00E94A7
:101880005702E82EF12C65E270E0892D0E94570284
:10189000FE2CEE24E82AE701C00FD11F9E0137700D
:1018A000E92CF12CC701880F991FAC01415A5D4FFB
:1018B0007A01FA0180819181820F931FA9014C0D59
:1018C0005D1D4130584090F000E018E0021B130B02
:1018D000A801B5010E94D609A601401B510BB50114
:1018E000600F711FF7018081918102C0A601B501CF
:1018F0000E94D609CC0DDD1D4D2F64E270E0892DCC
:101900000E942E024C2F65E270E0892DDF91CF916D
:101910001F910F91FF90EF90DF90CF90BF90AF900D
:101920009F900C942E02FF920F931F93CF93DF93FF
:10193000F82EC0E0D0E08F2D0E9487098C01892B02
:1019400021F08F2D0E948709EC01C017D10799F76C
:10195000CE01DF91CF911F910F91FF900895CF930A
:10196000C82F462F61E070E00E942E0261E070E017
:101970008C2F0E9457028111F9CFCF910895AF9219
:10198000BF92CF92DF92EF92FF920F931F93CF936C
:10199000DF9300D0CDB7DEB77A836983BA01A9019E
:1019A000E981FA81F770082F10E0000F111F095923
:1019B0001D4FD8018D919C918E0F9F1F2E0F3F1FA1
:1019C0002130384098F07A015B0120E038E069016D
:1019D000CE1ADF0AA6010E94A609A7014C195D09CB
:1019E000B5016C0D7D1DF801808191810F900F90E4
:1019F000DF91CF911F910F91FF90EF90DF90CF90EB
:101A0000BF90AF900C94A6090895CF93DF931F92D7
:101A1000CDB7DEB76983DC01ED91FC910280F381E3
:101A2000E02D41E050E0BE016F5F7F4F09950F90C0
:101A3000DF91CF910895BF92CF92DF92EF92FF9204
:101A40000F931F93CF93DF9300D000D000D0CDB77A
:101A5000DEB7FC01208D243009F053C06A017B0100
:101A60008C01B12C63E070E08B2D0E945702811134
:101A700003C0F801B08E06C08831D9F3B394F4E006
:101A8000BF12F0CFF801808D8430D9F196E0E1E704
:101A9000F1E0DE01119601900D929A95E1F7F701C0
:101AA00093819F779C8394819D8395819E83B701C9
:101AB0006E5F7F4F90E0982F882744E050E0845F6E
:101AC0009B4F0E94D609B601F801808D0E947D02CD
:101AD000F801808D90E0982F882746E050E0BE0105
:101AE0006F5F7F4F8A5F9B4F0E94D609F801128E6D
:101AF000118E20E8A60162E0808D0E94D60A81E066
:101B000001C080E026960FB6F894DEBF0FBECDBFB1
:101B1000DF91CF911F910F91FF90EF90DF90CF90C9
:101B2000BF900895CF93DF931F92CDB7DEB7FC012E
:101B3000218D328D232B49F0BE016F5F7F4F808D49
:101B40000E94050A898190E002C08FEF9FEF0F90FD
:101B5000DF91CF910895CF93DF93FC01218D328DDA
:101B60002115310519F48FEF9FEF11C0EC014217D9
:101B7000530708F0A901888D0E94520A1816190609
:101B800094F7298D3A8D281B390B3A8F298FDF91D5
:101B9000CF9108950F931F93CF93DF931F92CDB7EB
:101BA000DEB7FC01218D328D232B61F08C0141E0E9
:101BB00050E0BE016F5F7F4F808D0E94520A181661
:101BC00019061CF08FEF9FEF08C0F801818D928DF0
:101BD0000197928F818F898190E00F90DF91CF9153
:101BE0001F910F9108950F931F93CF93DF93CDB75C
:101BF000DEB728970FB6F894DEBF0FBECDBF8C01BD
:101C0000F801818D928D892B49F0D801ED91FC91DD
:101C10000680F781E02DC8010995F2CF808D0E94E2
:101C2000300A181619065CF548E050E0BE016F5FF7
:101C30007F4FD80158968C910E94520A9C01181629
:101C40001906DCF489819A81AB81BC81F801808B13
:101C5000918BA28BB38B8D8190E0982F88272E815A
:101C6000820F911D958B848B2F8130E0322F22279C
:101C70008885280F311D328F218FC90102C080E075
:101C800090E028960FB6F894DEBF0FBECDBFDF916F
:101C9000CF911F910F910895AF92BF92CF92DF9293
:101CA000FF920F931F93CF93DF938C015B01EA01A7
:101CB000FC01C688D788F08C80E590E00E948F02F6
:101CC0008F2D0E94930C8C179D0720F48F2D0E945E
:101CD000930CEC019E01A501B6018F2D0E942E0CE4
:101CE0000E948E02F801868997898C0F9D1F978B21
:101CF000868BCE01DF91CF911F910F91FF90DF90E6
:101D0000CF90BF90AF900895FF920F931F93CF9302
:101D1000DF93FB01DC0157961C921E925697589652
:101D2000FC908281811109C08381811106C0848168
:101D3000811103C085818823F9F041155105E1F037
:101D40008A01EF0180E590E00E948F02BE016E5F84
:101D50007F4F2F2D30E0922F882744E050E0845FA2
:101D60009B4F0E94D609B8018F2D0E947D020E94D0
:101D70008E0281E090E002C080E090E0DF91CF91A0
:101D80001F910F91FF900895CF93FC01C08D80E5C6
:101D900090E00E948F0260E270E08C2F0E94AF0CF6
:101DA00062E070E08C2F0E94570284FD19C062E04F
:101DB00070E08C2F0E94570283FF0BC048E162E065
:101DC00070E08C2F0E942E020E948E0280E090E034
:101DD00011C00E948E0280E590E00E948F02E0CF49
:101DE00040E162E070E08C2F0E942E020E948E0281
:101DF00081E090E0CF910895CF92DF92EF92FF9231
:101E00000F931F93CF93DF93CDB7DEB7AF970FB686
:101E1000F894DEBF0FBECDBF7C016A0109E611E078
:101E20001A8309831C861B8688EE93E0A0E0B0E04D
:101E30008D879E87AF87B88B8FE991E09A878987D6
:101E4000188F0F8B198E1A8E1B8E1C8E84E089A31F
:101E50001DA30CA31EA21FA218A619A680910E03F3
:101E600090910F03A0911003B09111038CA79DA72F
:101E7000AEA7BFA78B839C83AD83BE8318861F82CA
:101E8000AE014C5D5F4FCE0101960E94DC038130B4
:101E90009105B1F4D701ED91FC910088F189E02D15
:101EA0001BA70AA78EA19FA1A8A5B9A58CA79DA72E
:101EB000AEA7BFA7A601BE01665D7F4FC70109950A
:101EC000AF960FB6F894DEBF0FBECDBFDF91CF91B6
:101ED0001F910F91FF90EF90DF90CF900895CF93D7
:101EE000DF93EC01888D843061F00E94C20AE88D96
:101EF000F0E0EE0FFF1FE154FC4F1182108284E0EE
:101F0000888FDF91CF9108958DE191E090931B032D
:101F100080931A0380915202909153028A51934008
:101F200071F4E0912D03F0912E03908180912F03A5
:101F30008095892380831092530210925202089553
:101F40000F931F93CF93DF9389E691E090939C03C7
:101F500080939B0310929D0310929E0310929F0307
:101F60001092A003109272021092710208EE13E018
:101F700020E030E000937302109374022093750206
:101F8000309376024DE051E05093700240936F021F
:101F900045EC50E050937C0240937B0244EC50E0CF
:101FA00050937E0240937D0240EC50E050938002BB
:101FB00040937F0241EC50E05093820240938102B3
:101FC00042EC50E0509384024093830246EC50E090
:101FD00050938602409385021092880210928902E3
:101FE00010928A0210928B029093A2038093A10315
:101FF0001092A3031092A4031092A5031092A603BB
:102000009093A8038093A7031092A9031092AA03A8
:102010001092AB031092AC039093AE038093AD0388
:102020001092AF031092B0031092B1031092B2035A
:102030009093B4038093B3031092B5031092B60348
:102040001092B7031092B80390930D0380930C0382
:1020500010920E0310920F031092100310921103AE
:102060009093150380931403109216031092170394
:1020700010921803109219039093BA038093B90336
:102080001092BB031092BC031092BD031092BE03CA
:1020900090935F0380935E0310926003109261033C
:1020A0001092620310926303909359038093580334
:1020B00040EC40935A0350E850935B0310925C034A
:1020C00061E060935D0390935303809352035FEF4D
:1020D0005093540350935503109256031092570394
:1020E00090934D0380934C0340934E0358EA5093D2
:1020F0004F03109250037AE070935103909347037B
:1021000080934603409348035093490310924A0337
:102110008BE080934B0310923C0310923B0300939F
:102120003D0310933E0320933F033093400385E427
:1021300091E090933A038093390384E080934503C0
:1021400010921D0310921C0300931E0310931F0393
:1021500020932003309321038DE191E090931B03A2
:1021600080931A03109231031092300310923303BC
:1021700010923203109235031092340310923703F9
:1021800010923603809138038E7F8D7F80933803C1
:102190008695817068278BE00E94A708E9EBF0E044
:1021A0002491E5EAF0E08491882399F090E0880F8B
:1021B000991FFC01EA57FF4FA591B491FC01E45827
:1021C000FF4F859194918FB7F894EC91E22BEC93AB
:1021D0008FBFE9EBF0E0E491E0932A03E5EAF0E059
:1021E000E491F0E0EE0FFF1FE458FF4F85919491CA
:1021F00090932C0380932B03E8EBF0E02491E4EA26
:10220000F0E084918823C1F090E0880F991FFC01D1
:10221000EA57FF4FC591D491FC01E458FF4FA591B7
:10222000B4919FB7F8948881E22FE0958E2388833C
:102230008C91E823EC939FBF8091380381FD04C00B
:1022400061E08AE00E94A7088AE080932603E8EB19
:10225000F0E0E491E0932703E4EAF0E0E491F0E0B9
:10226000EE0FFF1FE057FF4F859194919093290344
:1022700080932803DF91CF911F910F910895789457
:1022800084B5826084BD84B5816084BD85B582607B
:1022900085BD85B5816085BD80916E00816080932C
:1022A0006E00109281008091810082608093810095
:1022B00080918100816080938100809180008160A5
:1022C000809380008091B10084608093B100809100
:1022D000B00081608093B00080917A008460809328
:1022E0007A0080917A00826080937A0080917A00EF
:1022F000816080937A0080917A00806880937A0070
:102300001092C100109297031092980310929903B3
:1023100010929A031092650310926603109267035D
:102320001092680360ED77E080E090E00E94F3088F
:102330008FE692E090939603809395030E94330B6F
:102340000E942D0900916503109166032091670397
:1023500030916803DC01CB01801B910BA20BB30B06
:1023600084369105A105B10538F463E070E080E0A2
:1023700090E00E94F308E4CF0E942D09609365036A
:1023800070936603809367039093680361EC71E038
:1023900080919503909196030E94860B6AE070E00D
:1023A00080E090E00E94F30881E0809369030E943E
:1023B000330B8FE692E00E946607EC018FE692E015
:1023C0000E94440721E030E08136910511F020E0C1
:1023D00030E0C223D323CD2B09F444C063ED71E078
:1023E0008FE692E00E94860B60ED71E08FE692E04E
:1023F0000E94860BC2E0D1E08E01499150E060E07E
:1024000070E02AE08AE193E00E949B0B60ED71E0AE
:102410008AE193E00E94860B6DEE71E08FE692E018
:102420000E94860BF801408150E060E070E020E1FE
:102430008FE692E00E949B0B60ED71E08FE692E0E8
:102440000E94860BF1E0C530DF07B1F66DEF71E059
:102450008FE692E00E94860B60ED71E08FE692E0DD
:102460000E94860B0E940608A4CF97FB072E16F445
:10247000009407D077FD09D00E94491207FC05D0CF
:102480003EF4909581959F4F0895709561957F4F8B
:102490000895AA1BBB1B51E107C0AA1FBB1FA617AB
:1024A000B70710F0A61BB70B881F991F5A95A9F7FD
:1024B00080959095BC01CD010895EE0FFF1F05900A
:1024C000F491E02D099481E090E0F8940C948A1244
:1024D000A1E21A2EAA1BBB1BFD010DC0AA1FBB1F28
:1024E000EE1FFF1FA217B307E407F50720F0A21B9A
:1024F000B30BE40BF50B661F771F881F991F1A9407
:1025000069F760957095809590959B01AC01BD0130
:10251000CF01089510E0C2E6D0E004C0FE010E94A1
:0E2520005D122196C336D107C9F7F894FFCF9C
:10252E0000C0A3BCD901000000000000009D075BA5
:10253E000B660744075807E40700000000FE005B27
:10254E000B52016A01E500FD000000000035085B3A
:10255E000B35083508350835080000000035085BD6
:10256E000B00000000C000D80225020B02E401BFE0
:10257E00004C035706070292029301B700E200E0F7
:10258E0000AC00D60000000000E40B000000003597
:10259E000801005E00000000000000350835083517
:1025AE000835083508350835083508350835083535
:1025BE0008350835083508350835080000000005CF
:1025CE000D4C0E8D00CA0D920D040DB7016F0F84C8
:1025DE000EFC0EC40EF30DAB0DA500950091001B65
:1025EE000D564D4450565F317C315F564D4450561A
:1025FE000D0A00507265706172696E6720746F20EB
:10260E0073656E6420646174612E2E2E00446174B5
:10261E00612073656E74206973203A2000446174E2
:10262E006120686173206265656E2073656E74004B
:00000001FF
