:100000000C9463000C948B000C948B000C9498035C
:100010000C9498030C9498030C948B000C948B0014
:100020000C948B000C948B000C948B000C948B0024
:100030000C948B000C948B000C948B000C948B0014
:100040000C944E030C948B000C94D0020C94AA02D6
:100050000C948B000C948B000C948B000C948B00F4
:100060000C948B000C948B0000000008000201002F
:100070000003040700000000000000000000000072
:10008000250028002B0000000000240027002A0083
:1000900000000000230026002900040404040404D6
:1000A0000404020202020202030303030303010227
:1000B00004081020408001020408102001020408F6
:1000C00010200F08050811241FBECFEFD8E0DEBFB7
:1000D000CDBF11E0A0E0B1E0E0E0F9E102C00590A1
:1000E0000D92A43EB107D9F723E0A4EEB1E001C020
:1000F0001D92A636B207E1F710E0C2E6D0E004C0D8
:100100002197FE010E94D309C136D107C9F70E9489
:1001100076050C94730C0C940000FC01918D828D7B
:10012000981761F0828DDF01A80FB11D5D968C914B
:10013000928D9F5F9F73928F90E008958FEF9FEF56
:100140000895FC01918D828D981731F0828DE80F12
:10015000F11D858D90E008958FEF9FEF0895FC01CC
:10016000918D228D892F90E0805C9F4F821B910999
:100170008F739927089588E692E00E94AF0021E0EE
:10018000892B09F420E0822F0895FC01848DDF0182
:10019000A80FB11DA35ABF4F2C91848D90E00196FA
:1001A0008F739927848FA689B7892C93A089B189E9
:1001B0008C9180648C93938D848D981306C00288F3
:1001C000F389E02D80818F7D80830895EF92FF92E7
:1001D0000F931F93CF93DF93EC0181E0888F9B8D6A
:1001E0008C8D981305C0E889F989808185FD24C02C
:1001F000F62E0B8D10E00F5F1F4F0F731127E02EAF
:100200008C8DE8120CC00FB607FCFACFE889F9898B
:10021000808185FFF5CFCE010E94C500F1CF8B8D87
:10022000FE01E80FF11DE35AFF4FF0820B8FEA89C0
:10023000FB898081806207C0EE89FF896083E8893D
:10024000F98980818064808381E090E0DF91CF91A3
:100250001F910F91FF90EF900895CF93DF93EC01E2
:10026000888D8823C9F0EA89FB89808185FD05C0D6
:10027000A889B9898C9186FD0FC00FB607FCF5CF10
:10028000808185FFF2CFA889B9898C9185FFEDCF58
:10029000CE010E94C500E7CFDF91CF91089580E0A5
:1002A00090E0892B29F00E94BB0081110C94000082
:1002B00008953FB7F8948091250290912602A0916D
:1002C0002702B091280226B5A89B05C02F3F19F040
:1002D0000196A11DB11D3FBFBA2FA92F982F8827C6
:1002E000820F911DA11DB11DBC01CD0142E0660F21
:1002F000771F881F991F4A95D1F708958F929F9273
:10030000AF92BF92CF92DF92EF92FF926B017C018E
:100310000E9459014B015C01C114D104E104F104B4
:10032000F1F00E945901DC01CB0188199909AA0951
:10033000BB09883E9340A105B10570F321E0C21AC4
:10034000D108E108F10888EE880E83E0981EA11C10
:10035000B11CC114D104E104F10419F7DDCFFF9001
:10036000EF90DF90CF90BF90AF909F908F900895C7
:1003700020910703309108032817390771F49091F1
:10038000050380910603981741F0E0910503F0E022
:10039000EC51FE4F808190E008958FEF9FEF08951C
:1003A00008951F93CF93DF93DC015C962D913C91D0
:1003B0005D972115310539F481E090E013969C9307
:1003C0008E9312973DC05196ED91FC9152975096A5
:1003D0009C915097892F80951FB75E964C915E97A0
:1003E00041FB772770F941FD6095F89440817723B0
:1003F00011F0492B01C048234083E9012197F1F70F
:1004000048E0508160FF02C0592B01C0582350833F
:10041000E9012197F1F76695415099F7772321F08B
:1004200090818923808303C08081982B90831FBF94
:100430005C968D919C915D970197F1F721E030E0FA
:10044000C901DF91CF911F91089520910703309149
:1004500008032817390771F48091060320910503DA
:1004600090E0805C9F4F821B910960E470E00E94E5
:10047000AB09089580E090E0089520910703309142
:10048000080328173907B9F49091050380910603F2
:10049000981789F0E0910503F0E0EC51FE4F808160
:1004A0002091050330E02F5F3F4F2F7333272093B8
:1004B000050390E008958FEF9FEF08958F929F922C
:1004C000AF92BF92CF92DF92EF92FF920F931F9362
:1004D000CF93DF937C01EB016C0182E0C80ED11C4D
:1004E0004701E5E08E0E911C00E010E0F60141911D
:1004F0006F0150E060E070E02AE0CE010E94CA0483
:100500005C01E881F9810190F081E02D6EE2CE017D
:1005100009958A0D9B1D080F191FC814D90431F7BE
:10052000F701458150E060E070E02AE0CE010E94D2
:10053000CA04800F911FDF91CF911F910F91FF90FF
:10054000EF90DF90CF90BF90AF909F908F900895E5
:100550000E94D00B1F920F920FB60F9211242F936F
:100560003F934F935F936F937F938F939F93AF933B
:10057000BF93EF93FF9388E692E00E94C500FF913E
:10058000EF91BF91AF919F918F917F916F915F910B
:100590004F913F912F910F900FBE0F901F90189584
:1005A0001F920F920FB60F9211242F938F939F9348
:1005B000EF93FF93E0917802F09179028081E091CE
:1005C0007E02F0917F0282FD12C0908180918102B3
:1005D0008F5F8F7320918202821751F0E091810228
:1005E000F0E0E859FD4F958F8093810201C0808132
:1005F000FF91EF919F918F912F910F900FBE0F90D0
:100600001F90189590E0FC01E859FF4F3491FC01D0
:10061000E255FF4F2491FC01E656FF4FE491EE2393
:1006200009F43BC0332339F1333091F038F43130E1
:10063000A9F0323001F584B58F7D12C0373091F0CA
:100640003830A1F03430B9F4809180008F7D03C040
:10065000809180008F77809380000DC084B58F7764
:1006600084BD09C08091B0008F7703C08091B00035
:100670008F7D8093B000F0E0EE0FFF1FE458FF4F36
:10068000A591B4918FB7F894EC91611103C02095B6
:100690002E2301C02E2B2C938FBF08951F920F92F3
:1006A0000FB60F9211242F933F938F939F93AF9385
:1006B000BF938091290290912A02A0912B02B091C0
:1006C0002C023091240223E0230F2D3720F40196D1
:1006D000A11DB11D05C026E8230F0296A11DB11D65
:1006E000209324028093290290932A02A0932B0244
:1006F000B0932C028091250290912602A0912702AE
:10070000B09128020196A11DB11D809325029093FE
:100710002602A0932702B0932802BF91AF919F9128
:100720008F913F912F910F900FBE0F901F901895B2
:100730001F920F920FB60F9211242F933F934F9356
:100740005F936F937F938F939F93AF93BF93EF9339
:10075000FF93E0910703F0910803309709F451C02B
:10076000968DA685B785858591FF04C09C918923C8
:1007700029F447C09C91892309F043C0A389B48917
:100780009C918589809589238C9386899789019787
:10079000F1F7608D718DA685B785558538E020E02D
:1007A000CB010197F1F7822F90E095958795282F3F
:1007B0004C91452309F02068315091F7868D81FDD9
:1007C00020958091060390E001968F7399273091D0
:1007D0000503381749F0A0910603B0E0AC51BE4FB5
:1007E0002C938093060303C0868D8160868F828D53
:1007F000938D0197F1F7A389B4899C918589892B01
:100800008C93FF91EF91BF91AF919F918F917F91C9
:100810006F915F914F913F912F910F900FBE0F906D
:100820001F901895E0910703F0910803E817F90766
:1008300069F4A389B4899C918589809589238C93D7
:10084000109208031092070381E0089580E0089554
:10085000CF92DF92EF92FF920F931F93CF93DF938C
:100860006C017A018B01C0E0D0E0CE15DF0589F084
:10087000D8016D918D01D601ED91FC910190F0812F
:10088000E02DC6010995892B11F47E0102C0219645
:10089000ECCFC701DF91CF911F910F91FF90EF90A7
:1008A000DF90CF900895E8E6F2E0A089B18982E078
:1008B0008C93A485B5851C92A685B78587E08C931B
:1008C000108EA489B58986E08C93A289B3898C9116
:1008D00080618C93A289B3898C9188608C93A28962
:1008E000B3898C9180688C930288F389E02D808194
:1008F0008F7D808308950F931F93CF93DF93EC0137
:1009000088819981009729F02A813B812617370732
:1009100088F48B016F5F7F4F0E94060B009761F098
:10092000998388831B830A832C813D81232B11F4B7
:10093000FC01108281E001C080E0DF91CF911F9126
:100940000F9108956115710579F0FB010190002068
:10095000E9F73197AF01461B570BDC01ED91FC9194
:100960000280F381E02D099480E090E00895CF9318
:10097000DF93BC0188E692E00E94A204EC0165E4EA
:1009800071E088E692E00E94A2048C0F9D1FDF9127
:10099000CF9108954F925F926F927F92EF92FF9264
:1009A0000F931F93CF93DF93CDB7DEB7A1970FB609
:1009B000F894DEBF0FBECDBF7C01FA01CB0119A2B6
:1009C000223008F42AE08E010F5D1F4F422E512C79
:1009D000612C712CBF01A30192010E941A0CF90134
:1009E000CA01015011096A3014F4605D01C0695CEC
:1009F000D8016C93232B242B252B61F7B801C70159
:100A00000E94A204A1960FB6F894DEBF0FBECDBF20
:100A1000DF91CF911F910F91FF90EF907F906F909A
:100A20005F904F900895EF92FF920F931F93CF9393
:100A3000DF93EC018C010D5F1F4F7E01699189E00E
:100A400093E00E94D101F701408150E060E070E046
:100A500020E188E692E00E94CA04C017D10769F736
:100A6000DF91CF911F910F91FF90EF900895CF925A
:100A7000DF92EF92FF92CF93DF936C01990FEE0814
:100A8000FF08F7FE1CC0E0916802F0916902019036
:100A9000F081E02D6DE288E692E00995EC014427B3
:100AA0005527BA014C195D096E097F092AE088E6CD
:100AB00092E00E94CA047C01EC0EFD1E08C02AE0F0
:100AC000B701A60188E692E00E94CA047C0165E4B1
:100AD00071E088E692E00E94A2048E0D9F1DDF91D6
:100AE000CF91FF90EF90DF90CF900895CF93DF9359
:100AF000CDB7DEB72A970FB6F894DEBF0FBECDBFD5
:100B0000789484B5826084BD84B5816084BD85B5E8
:100B1000826085BD85B5816085BD80916E008160F4
:100B200080936E001092810080918100826080939A
:100B3000810080918100816080938100809180009C
:100B40008160809380008091B10084608093B100C7
:100B50008091B00081608093B00080917A008460C1
:100B600080937A0080917A00826080937A008091ED
:100B70007A00816080937A0080917A008068809307
:100B80007A001092C10010926002109261021092DD
:100B900062021092630210922E0210922F021092A3
:100BA00030021092310260ED77E080E090E00E9428
:100BB0007E0188E692E090935F0280935E020E943D
:100BC00053042FB7F8948091290290912A02A091A2
:100BD0002B02B0912C022FBF40912E0250912F0278
:100BE0006091300270913102841B950BA60BB70BFC
:100BF00084369105A105B10538F463E070E080E02A
:100C000090E00E947E01DDCF2FB7F89480912902F9
:100C100090912A02A0912B02B0912C022FBF8093B9
:100C20002E0290932F02A0933002B093310266E31C
:100C300071E080915E0290915F020E94A2046AE0DE
:100C400070E080E090E00E947E0181E080933202BB
:100C50000E94530488E491E00E94B70483E4982E34
:100C600093E0892E772473947E0187E0E80EF11CCF
:100C700020E2622E88E692E00E94AF00892B09F400
:100C8000C1C188E692E00E948D00813609F089C1D9
:100C90008BE591E00E94B70499828A827B82CE0123
:100CA00001960E94130585E791E00E94B70468EE63
:100CB00073E080E090E00E947E01B12CA12C00E066
:100CC00010E089E093E00E942502892B09F46BC0B3
:100CD0000115110531F489E093E00E943D02A82E30
:100CE0005FC00130110531F489E093E00E943D02BC
:100CF000B82E56C002301105C1F54B2D50E060E012
:100D000070E02AE088E692E00E94CA0465E471E09F
:100D100088E692E00E94A20489E093E00E943D02EE
:100D2000582E482F50E060E070E02AE088E692E01C
:100D30000E94CA0465E471E088E692E00E94A20481
:100D40005B9C60011124C6010E943705C6010E9408
:100D5000D909FC019093670280936602A082B18258
:100D60005282C6010E9437051BC0C0906602D09017
:100D70006702C00ED11E89E093E00E943D02F60199
:100D80008083482F50E060E070E020E188E692E048
:100D90000E94CA0465E471E088E692E00E94A20421
:100DA0000F5F1F4F8ECFE0916602F0916702828144
:100DB00090E0909329038093280388E891E00E94B3
:100DC000B704009166021091670289E991E00E94E0
:100DD000B7046801F80181819281899FC0011124C3
:100DE0009601201B310B2817390794F4F601419125
:100DF0006F0150E060E070E020E188E692E00E9440
:100E0000CA0467EA71E088E692E00E94A204E2CF99
:100E100089EA91E00E94B704A0906602B090670250
:100E200088EB91E00E94B7048CE090E00E94D90921
:100E30008C01F501B0966C018CE2A80EB11CD801B2
:100E400081918D93EA15FB05D9F783EC91E00E941F
:100E5000B704109365020093640288ED91E00E944C
:100E6000B704045F1F4FF60141916F0150E060E04D
:100E700070E020E188E692E00E94CA0467EA71E02F
:100E800088E692E00E94A204C016D10661F789EAC2
:100E900091E00E94B704D0906402C09065021A826B
:100EA00019821C821B821E821D8260E070E0CE01CE
:100EB00001960E947B0429813A81811113C021157A
:100EC000310519F0C9010E946E0A1A8219821E8228
:100ED0001D821C821B820D2D1C2D5801FCE0AF0EC3
:100EE000B11C08C01E821D8267E471E0C9010E9426
:100EF000DE0BF1CFF80181918F014AE0B70190E05C
:100F00000E94E50BF70101900020E9F73197EE19F7
:100F1000FF09CD80DE803097A1F0CE0EDF1EB60136
:100F2000CE0101960E947B04882359F029813A81E1
:100F30008D819E81B701820F931F0E94DE0BDE829E
:100F4000CD826F821886CD80DE80FFEFCF1ADF0A58
:100F5000B601CE0101960E947B04882359F02981B5
:100F60003A818D819E81B701820F931F0E94DE0B13
:100F7000DE82CD820A151B0509F0BCCF4D815E8152
:100F800069817A8188E692E00E94280465E471E034
:100F900088E692E00E94A20489819A810E946E0AEA
:100FA00031C0823679F58BE591E00E94B7049982D1
:100FB0008A827B82CE0101960E94130585E791E02B
:100FC0000E94B70468EE73E080E090E00E947E012A
:100FD00089E093E00E942502892BA1F089E093E04B
:100FE0000E943D02AC01990F660B770B20E188E669
:100FF00092E00E94CA0467EA71E088E692E00E94EB
:10100000A204E6CF0E944F0135CE8EE191E090938D
:101010000A038093090389E093E00C941204CF93B0
:10102000DF938EE291E0909331038093300310922E
:10103000320310923303109234031092350310924E
:101040006B0210926A0248EE53E060E070E0409359
:101050006C0250936D0260936E0270936F022EE0EB
:1010600031E0309369022093680225EC30E0309340
:1010700075022093740224EC30E0309377022093C1
:10108000760220EC30E0309379022093780221EC54
:1010900030E030937B0220937A0222EC30E03093F0
:1010A0007D0220937C0226EC30E030937F02209377
:1010B0007E0210928102109282021092830210929C
:1010C0008402909337038093360310923803109272
:1010D000390310923A0310923B0390933D0380939F
:1010E0003C0310923E0310923F0310924003109273
:1010F0004103909343038093420310924403109260
:101100004503109246031092470390935103809336
:1011100050031092520310925303109254031092F2
:101120005503909349038093480310924A03109209
:101130004B0310924C0310924D03909357038093EE
:101140005603109258031092590310925A031092AA
:101150005B0390935D0380935C0310925E03109297
:101160005F03109260031092610390932B038093AE
:101170002A0310922C0310922D0310922E0310922A
:101180002F0310920C0310920B0340930D03509306
:101190000E0360930F03709310038EE191E0909320
:1011A0000A03809309031092200310921F031092E8
:1011B0002203109221031092240310922303109211
:1011C000260310922503609127036E7F6D7F609345
:1011D00027036695617081E0682783E00E9402031F
:1011E000E1EBF0E02491EDE9F0E08491882399F0BF
:1011F00090E0880F991FFC01EA57FF4FA591B49129
:10120000FC01E458FF4F859194918FB7F894EC91CD
:10121000E22BEC938FBFE1EBF0E0E491E093190354
:10122000EDE9F0E0E491F0E0EE0FFF1FE458FF4F2E
:101230008591949190931B0380931A03E0EBF0E067
:101240002491ECE9F0E084918823C1F090E0880FCC
:10125000991FFC01EA57FF4FC591D491FC01E45856
:10126000FF4FA591B4919FB7F8948881E22FE09544
:101270008E2388838C91E823EC939FBF8091270372
:1012800081FD04C061E082E00E94020382E080935D
:101290001503E0EBF0E0E491E0931603ECE9F0E0F5
:1012A000E491F0E0EE0FFF1FE057FF4F859194911E
:1012B00090931803809317038DE991E09093260390
:1012C000809325032DEB30E03093200320931F0300
:1012D0002BE931E030932203209321032CE231E00B
:1012E00030932403209323032091680024602093EB
:1012F00068002DE630E030931D0320931C0324E0AA
:1013000020931E030197F1F7809107039091080342
:1013100023E089309207E1F0009711F00E94120457
:10132000809127038E7F80932703109206031092EB
:10133000050389E093E09093080380930703E0910D
:101340001C03F0911D03908180911E03892B8083E3
:10135000DF91CF91089597FB072E16F4009407D0E4
:1013600077FD09D00E94BF0907FC05D03EF4909597
:1013700081959F4F0895709561957F4F0895AA1BA1
:10138000BB1B51E107C0AA1FBB1FA617B70710F070
:10139000A61BB70B881F991F5A95A9F780959095A2
:1013A000BC01CD010895EE0FFF1F0590F491E02DD3
:1013B0000994CF93DF938230910510F482E090E09E
:1013C000E0916403F091650320E030E0C0E0D0E0FC
:1013D000309711F14081518148175907C0F04817E3
:1013E000590761F482819381209719F09B838A8346
:1013F0002BC0909365038093640326C021153105AB
:1014000019F04217530718F49A01BE01DF01EF01EA
:101410000280F381E02DDCCF2115310509F1281B75
:10142000390B2430310590F412968D919C911397CD
:101430006115710521F0FB019383828304C09093B1
:10144000650380936403FD01329644C0FD01E20F01
:10145000F31F81939193225031092D933C933AC00D
:101460002091620330916303232B41F42091020108
:1014700030910301309363032093620320910001B4
:10148000309101012115310541F42DB73EB740914E
:10149000040150910501241B350BE0916203F0918A
:1014A0006303E217F307A0F42E1B3F0B281739073D
:1014B00078F0AC014E5F5F4F2417350748F04E0FB0
:1014C0005F1F50936303409362038193919302C023
:1014D000E0E0F0E0CF01DF91CF9108950F931F93EB
:1014E000CF93DF93009709F48CC0FC0132971382ED
:1014F000128200916403109165030115110581F4B6
:1015000020813181820F931F209162033091630308
:101510002817390779F5F0936303E093620371C0EC
:10152000D80140E050E0AE17BF0750F412962D915D
:101530003C911397AD012115310509F1D901F3CF84
:101540009D01DA013383228360817181860F971FA9
:101550008217930769F4EC0128813981260F371F20
:101560002E5F3F4F318320838A819B8193838283C7
:10157000452B29F4F0936503E093640342C013966E
:10158000FC93EE931297ED01499159919E01240F1E
:10159000351FE217F30771F480819181840F951F45
:1015A000029611969C938E938281938113969C93BD
:1015B0008E931297E0E0F0E0D80112968D919C9105
:1015C0001397009719F0F8018C01F6CF8D919C913B
:1015D00098012E5F3F4F820F931F2091620330913D
:1015E00063032817390769F4309729F410926503CB
:1015F0001092640302C0138212821093630300935B
:101600006203DF91CF911F910F910895A0E0B0E0A8
:10161000ECE0FBE00C94400CEC01009721F4CB01D2
:101620000E94D909B8C0FC01E60FF71F9C012250A7
:101630003109E217F30708F4ACC0D9010D911C91F0
:10164000119706171707B0F00530110508F49FC071
:10165000C80104978617970708F499C0025011092A
:10166000061B170B019311936D937C93CF010E947E
:101670006E0A8DC05B01A01AB10A4C01800E911E4A
:10168000A0916403B091650340E050E0E12CF12C9F
:10169000109709F44AC0A815B905D1F56D907C9052
:1016A0001197630182E0C80ED11CCA14DB0480F1DB
:1016B000A3014A195B096A0182E0C80ED11C129687
:1016C000BC9012971396AC91B5E0CB16D10440F0C4
:1016D000B282A38351834083D9016D937C930AC066
:1016E0000E5F1F4FC301800F911FF901918380830B
:1016F000EB2DFA2FE114F10431F0D7011396FC938E
:10170000EE93129744C0F0936503E09364033FC0E7
:101710008D919C9111974817590708F4AC017D01F0
:1017200012960D90BC91A02DB3CF80916203909141
:10173000630388159905E1F446175707C8F48091AB
:10174000000190910101009741F48DB79EB740913F
:10175000040150910501841B950BE817F907C8F4A3
:10176000F0936303E0936203F901718360830FC018
:10177000CB010E94D9097C01009759F0A801BE0154
:101780000E94D50BCE010E946E0AC70104C0CE0193
:1017900002C080E090E0CDB7DEB7EEE00C945C0CC8
:1017A00081E090E0F8940C94730CFB01DC0102C022
:1017B00001900D9241505040D8F70895FB01DC0193
:1017C00001900D920020E1F70895BB274A3031F4D3
:1017D000992322F4BDE2909581959F4F0C94F10BD3
:1017E000BB27FB015527AA27880F991FAA1FA417FB
:1017F00010F0A41B83955051B9F7A05DAA3308F0EF
:10180000A95DA193009779F7B111B1931192CB0122
:101810000C940A0CDC01FC01672F71917723E1F72E
:10182000329704C07C916D9370836291AE17BF07AD
:10183000C8F30895A1E21A2EAA1BBB1BFD010DC01F
:10184000AA1FBB1FEE1FFF1FA217B307E407F50770
:1018500020F0A21BB30BE40BF50B661F771F881F4C
:10186000991F1A9469F760957095809590959B01E2
:10187000AC01BD01CF0108952F923F924F925F922C
:101880006F927F928F929F92AF92BF92CF92DF9290
:10189000EF92FF920F931F93CF93DF93CDB7DEB7F5
:1018A000CA1BDB0B0FB6F894DEBF0FBECDBF099489
:1018B0002A88398848885F846E847D848C849B84E0
:1018C000AA84B984C884DF80EE80FD800C811B81EE
:1018D000AA81B981CE0FD11D0FB6F894DEBF0FBE1D
:1018E000CDBFED01089510E0C2E6D0E004C0FE01D6
:1018F0000E94D3092196C336D107C9F7F894FFCFC8
:101900000000660380000100000000000000E60007
:101910002804AF008D00A1002D0100000000D101BE
:10192000280425023D02B801D001000000005E023B
:1019300000000000A802564D4450565F317C315FD4
:10194000564D4450560D0A0053657269616C20690A
:101950006E697469616C697A656400507265706162
:1019600072696E6720746F2073656E6420646174A1
:10197000612E2E2E004461746120686173206265BF
:10198000656E2073656E7400456E64206F6620720C
:101990006563657074696F6E00537461727420645E
:1019A0006973706C6179002C00456E64206F66204D
:1019B00072656164696E670046696E6420612074B7
:1019C000616700456E64206F662066696E64696EAB
:1019D00067206120746167004C6520746167206531
:0419E00073742000FC
:00000001FF
