:100000000C94B4000C94DC000C94DC000C94840779
:100010000C9484070C9484070C94DC000C94DC0092
:100020000C94DC000C94DC000C94DC000C94DC00E0
:100030000C94DC000C94DC000C94DC000C94DC00D0
:100040000C94EA0A0C94DC000C94A0090C947A0934
:100050000C94DC000C94DC000C94DC000C94DC00B0
:100060000C94DC000C94DC005374617469632069A7
:10007000702061646472657373696E6700000000CC
:100080000800020100000304070000000000000057
:1000900000456E64206F6620726563657074696FD9
:1000A0006E00456E64206F662072656164696E67DC
:1000B000002C00537461727420646973706C6179F0
:1000C00000456E64206F662066696E64696E672005
:1000D00061207461670046696E6420612074616705
:1000E00000456E64206F662072656164696E67000A
:1000F0004C652074616720657374200044617461ED
:10010000206269656E20726563756500436F6E6E6F
:10011000656374696F6E206661696C6564000000D8
:100120000000240027002A0000000000250028000D
:100130002B00000000002300260029000404040412
:100140000404040402020202020203030303030381
:10015000010204081020408001020408102001025E
:10016000040810205C16491311241FBECFEFD8E0FD
:10017000DEBFCDBF12E0A0E0B1E0E8E4F6E302C0EC
:1001800005900D92AC3FB107D9F724E0ACEFB2E097
:1001900001C01D92A83DB207E1F710E0C3EBD0E02B
:1001A00004C02197FE010E947718C23BD107C9F70E
:1001B0000E9471130C94171B0C940000FC01818D9C
:1001C000928D0895FC0184899589089520EA31E093
:1001D000FC0131832083FB01408951896289738945
:1001E000FC0142835383648375830895DC01ED91A0
:1001F000FC91008CF18DE02D0994FC019485FB01AC
:100200008485981303C081E0943009F480E0089558
:1002100021E0FC018485843009F420E0822F0895D8
:100220000895CF93DF931F92CDB7DEB76983DC01CA
:10023000ED91FC910280F381E02D41E050E0BE01A0
:100240006F5F7F4F09950F90DF91CF910895DC018B
:10025000ED91FC91048CF58DE02D099591E08927B5
:100260000895862F089581E08627089520914404FB
:10027000309145042817390771F490914204809118
:100280004304981741F0E0914204F0E0E450FD4F40
:10029000808190E008958FEF9FEF089508951F9358
:1002A000CF93DF93DC015C962D913C915D972115F6
:1002B000310539F481E090E013969C938E93129768
:1002C0003DC05196ED91FC91529750969C9150975C
:1002D000892F80951FB75E964C915E9741FB7727DB
:1002E00070F941FD6095F8944081772311F0492B16
:1002F00001C048234083E9012197F1F748E050818C
:1003000060FF02C0592B01C058235083E901219797
:10031000F1F76695415099F7772321F09081892371
:10032000808303C08081982B90831FBF5C968D9142
:100330009C915D970197F1F721E030E0C901DF91D1
:10034000CF911F91089520914404309145042817BE
:10035000390771F4809143042091420490E0805C5D
:100360009F4F821B910960E470E00E944F1808952E
:1003700080E090E0089520914404309145042817CE
:100380003907B9F49091420480914304981789F099
:10039000E0914204F0E0E450FD4F8081209142045E
:1003A00030E02F5F3F4F2F7333272093420490E0BC
:1003B00008958FEF9FEF0895CF93DF93EC01888D21
:1003C000843061F00E946C0CE88DF0E0EE0FFF1FAE
:1003D000E45CFC4F1182108284E0888FDF91CF9122
:1003E0000895FC018485843011F00C94C40C80E0E5
:1003F0000895CF93DF93FC0124852430D1F0EC01E4
:100400000E94F101843181F0882371F0883161F01C
:100410008C3161F4E881F9810480F581E02DCE0111
:10042000099521E0892B19F420E001C021E0822FF9
:1004300001C080E0DF91CF910895EF92FF921F936A
:10044000CF93DF93FC01208D243011F080E01CC09D
:100450007B01EC0110E0812F0E94C40C811102C0CD
:10046000188F05C08831E1F31F5F1430A1F7888D24
:10047000843061F3FD86EC861A8E198E20E0A70188
:1004800062E00E94800C81E0DF91CF911F91FF908C
:10049000EF9008952F923F924F925F926F927F92CA
:1004A0008F929F92AF92BF92CF92DF92EF92FF9284
:1004B0000F931F93CF93DF93CDB7DEB765970FB63A
:1004C000F894DEBF0FBECDBF7C016B013A01FB018A
:1004D00020E080E090E06AE03191332309F140EDC3
:1004E000430F4A3080F4689FA001699F500D11248A
:1004F000CA01C097830F911D37FD9A958F3F9105D3
:1005000059F350F313C03E3289F4233079F0D3010C
:10051000A20FB11D12968C932F5F80E090E0DCCF8C
:10052000233021F4F301858381E021C0F70142816A
:1005300053816481758180913E0490913F04A09124
:100540004004B0914104481759076A077B0709F432
:100550009EC10E94DE0A8701085F1F4F6F707727D8
:100560007C5FC8010E941D02813019F080E090E09C
:10057000F3C180EA91E09A838983F70182819381B4
:10058000A481B5818B839C83AD83BE8345E350E01A
:10059000BE016F5F7F4FC8010E94A912892B19F419
:1005A000C12CD12C6FC10E94DE0AF70177836683CC
:1005B0007627672776277A83698342E050E0BE0179
:1005C0006F5F7F4FC8010E94711281E090E09E87AB
:1005D0008D8742E050E0BE01635F7F4FC8010E94FB
:1005E000711280E091E09E878D8742E050E0BE016D
:1005F000635F7F4FC8010E9471121E861D8642E014
:1006000050E0BE01635F7F4FC8010E94711242E05B
:1006100050E0BE01635F7F4FC8010E94711242E04B
:1006200050E0BE01635F7F4FC8010E947112560106
:10063000F5018081882311F1F6015F01819181111B
:1006400015C045018C189D081814190494F48F8660
:1006500041E050E0BE01615F7F4FC8010E9471120E
:10066000A401B601C8010E94711203C08E3229F79D
:10067000E8CF6501FFEFCF1ADF0ADACF1F8641E02E
:1006800050E0BE01615F7F4FC8010E947112C12C12
:10069000DD24D394DE86CD8642E050E0BE01635F68
:1006A0007F4FC8010E947112DE86CD8642E050E085
:1006B000BE01635F7F4FC8010E947112C8010E9492
:1006C000E912892B09F46CCF63E0A62EB12CF2E07D
:1006D0006F0E711C0E94DE0A1B012C01C8010E94D2
:1006E000181218161906A4F00E94DE0ADC01CB01CC
:1006F00082199309A409B50989389341A105B10567
:10070000D0F462E370E080E090E00E94A40AE6CFBB
:10071000F7014281538164817581808D918DA28D15
:10072000B38D481759076A077B0741F4848D958D6F
:10073000C59721F406C02FEF3FEF9AC02EEF3FEF91
:1007400097C0F70181A192A10C970CF4A6C04CE0D0
:1007500050E0BE016F5F7F4FC8010E94D0118B81B6
:1007600090E0982F88272C81822B9A8B898B298166
:1007700030E0322F22274A81242BF701468157810E
:100780004217530709F086C097FF84C08F7092709C
:10079000892B09F0DEC0CF80D12CDC2CCC248885BD
:1007A000C82AC114D10409F4D1C0812C912C8D81A7
:1007B00090E0982F88272E81822B8816990608F4BE
:1007C0006FC0812C912C41E050E0BE016D5E7F4FE7
:1007D000C8010E94D0118B89982F907C09F093C09A
:1007E000811186C08B898111EECF42E050E0BE01BD
:1007F000615F7F4FC8010E94D01142E050E0BE010E
:10080000635F7F4FC8010E94D011C8010E94EF11A1
:10081000C8010E94EF11C8010E94EF11C8010E9497
:10082000EF1142E050E0BE016F5E7F4FC8010E94B1
:10083000D0118F8598898115914009F069C02D8567
:100840003E853227232732272130310509F060C049
:1008500089899A898115944009F075C044E050E077
:10086000B301C8012C8B3D8B0E94D0112C893D898E
:100870006901F1E0AF1AB10829F02FEFC216D206D4
:1008800009F428CFC8010E94DC01C60165C08EEFC3
:100890009FEF62C02CEF3FEFEBCF2DEF3FEFE8CFA4
:1008A00041E050E0BE01635F7F4FC8010E94D0115C
:1008B0008D85811113C08D858111F2CFC8010E94F1
:1008C000EF11C8010E94EF11C8010E94EF11C80189
:1008D0000E94EF11FFEF8F1A9F0A69CF8D859FEF5E
:1008E000980F9D87882339F3C8010E94EF11F6CF36
:1008F0008B899FEF980F9B8B882309F473CFC801D6
:100900000E94EF11F5CFC8010E94EF111B8A6ACF38
:10091000412C512C89899A8998278927982748162C
:10092000590638F4C8010E94EF118FEF481A580A8F
:10093000F1CFEFEF8E1A9E0A8C149D0409F043CF7D
:1009400026EF3FEF95CF27EF3FEF92CF2AEF3FEF14
:100950008FCF2BEF3FEF8CCF65960FB6F894DEBFAD
:100960000FBECDBFDF91CF911F910F91FF90EF9000
:10097000DF90CF90BF90AF909F908F907F906F90BF
:100980005F904F903F902F900895CF92DF92EF921B
:10099000FF920F931F93CF93DF93CDB7DEB7AF973F
:1009A0000FB6F894DEBF0FBECDBF7C016A0100EA2E
:1009B00011E01A8309831C861B8688EE93E0A0E071
:1009C000B0E08D879E87AF87B88B80E191E09A87F2
:1009D0008987188F0F8B198E1A8E1B8E1C8E84E0C0
:1009E00089A31DA30CA31EA21FA218A619A680915D
:1009F000360490913704A0913804B09139048CA743
:100A00009DA7AEA7BFA78B839C83AD83BE831886AB
:100A10001F82AE014C5D5F4FCE0101960E944A02DB
:100A200081309105B1F4D701ED91FC910088F189F5
:100A3000E02D1BA70AA78EA19FA1A8A5B9A58CA7E9
:100A40009DA7AEA7BFA7A601BE01665D7F4FC701E8
:100A50000995AF960FB6F894DEBF0FBECDBFDF91FC
:100A6000CF911F910F91FF90EF90DF90CF9008955D
:100A7000CF92DF92EF92FF920F931F93CF93DF936A
:100A8000CDB7DEB7AF970FB6F894DEBF0FBECDBFC0
:100A90007C016A0100EA11E01A8309831C861B8627
:100AA00088EE93E0A0E0B0E08D879E87AF87B88B9B
:100AB00080E191E09A878987188F0F8B198E1A8EA3
:100AC0001B8E1C8E84E089A31DA30CA31EA21FA253
:100AD00018A619A68091360490913704A091380485
:100AE000B09139048CA79DA7AEA7BFA78B839C8329
:100AF000AD83BE8318861F82AE014C5D5F4FCE0171
:100B000001960E944A0281309105B1F4D701ED911E
:100B1000FC910484F585E02D1BA70AA78EA19FA157
:100B2000A8A5B9A58CA79DA7AEA7BFA7A601BE0182
:100B3000665D7F4FC7010995AF960FB6F894DEBF8B
:100B40000FBECDBFDF91CF911F910F91FF90EF901E
:100B5000DF90CF9008950F931F93CF93DF931F9251
:100B6000CDB7DEB78C01DC01ED91FC910480F581FD
:100B7000E02D0995892B51F0BE016F5F7F4FF80181
:100B800084850E94D80B898190E002C08FEF9FEF8F
:100B90000F90DF91CF911F910F910895FC018485F3
:100BA0000C94190CCF93DF931F92CDB7DEB741E0C1
:100BB00050E0BE016F5F7F4FFC0184850E94190CDD
:100BC000181619061CF4898190E002C08FEF9FEF80
:100BD0000F90DF91CF910895FC018485843011F04E
:100BE0000C94F70B80E090E008959B0190E0049650
:100BF000982F8827642F820F931F0C94B60B0F93A6
:100C00001F93CF93DF931F92CDB7DEB790E004968A
:100C1000982F88278C01060F171F0E94360B8FE034
:100C20000E94500B812F0E94500B802F0E94500B6E
:100C300080E00E94500B89830E94340B89810F90C1
:100C4000DF91CF911F910F910895CF93DF93C82F1C
:100C5000D62F472F60E170E00E94F5054D2F61E12E
:100C600070E08C2FDF91CF910C94F50508958CBD29
:100C70009DBD0895CF92DF92EF92FF921F93CF9385
:100C8000DF93FC011485143099F1EC0180E590E0CC
:100C90000E94370668E070E0812F0E947A0E0E9461
:100CA000DE0A6B017C01CE010E94F1018823B1F0C4
:100CB00061E070E080E090E00E94A40A0E94DE0AF9
:100CC000DC01CB018C199D09AE09BF09883E934018
:100CD000A105B10540F38C850E946C0CEC85F0E019
:100CE000EE0FFF1FE45CFC4F1182108284E08C87C2
:100CF000DF91CF911F91FF90EF90DF90CF900895FB
:100D00008F929F92AF92BF92CF92DF92EF92FF921B
:100D10000F931F93CF936C015B017A01FC01C48593
:100D2000C43041F481E090E0F6019383828380E057
:100D300090E04EC08A014130584010F000E018E0C9
:100D400080E590E00E9437068C2F0E94570F4C01DF
:100D500063E070E08C2F0E94FF05873111F08C3129
:100D600021F48016910660F302C000E010E080E5F7
:100D700090E00E9437069801A50160E070E08C2F9A
:100D80000E94F20E60E270E08C2F0E947A0E62E008
:100D900070E08C2F0E94FF0584FD10C063E070E0BE
:100DA0008C2F0E94FF05811104C08C2F0E946C0CB7
:100DB000B9CF80E590E00E943706E9CF40E162E0DC
:100DC00070E08C2F0E94F505012B09F4ABCFC70111
:100DD000CF911F910F91FF90EF90DF90CF90BF9038
:100DE000AF909F908F900895CF92DF92FF920F93D4
:100DF0001F93CF93DF93FC012485243009F077C043
:100E00006A01EB018C01F12C8F2D0E94C40C811121
:100E100003C0F801F48607C08B7F8831D1F3F394C7
:100E2000F4E0FF12F1CFF8018485843009F45FC04B
:100E300020910001309101012F5F3F4F11F420E01C
:100E400030EC30930101209300014091000150915A
:100E5000010120E061E00E94800CF801F4848A81A5
:100E60008F3F51F48B818F3F91F48C818F3F79F4C8
:100E70008D818F3F61F438C0811109C08B81811150
:100E800006C08C81811103C08D81882369F1C11452
:100E9000D10451F180E590E00E943706BE016E5FFB
:100EA0007F4F8F2D90E0982F882744E050E0845F9B
:100EB0009B4F0E94870BB6018F2D0E94250664E090
:100EC00070E08F2D0E947A0EC8010E94F1018731D7
:100ED00089F061E070E080E090E00E94A40AC8011F
:100EE0000E94F1018111F0CF84E0F801848780E055
:100EF00090E002C081E090E0DF91CF911F910F91CF
:100F0000FF90DF90CF9008951F920F920FB60F922F
:100F100011242F933F934F935F936F937F938F93FE
:100F20009F93AF93BF93EF93FF93E0914404F091AD
:100F30004504309709F451C0968DA685B7858585FF
:100F400091FF04C09C91892329F447C09C91892377
:100F500009F043C0A389B4899C9185898095892330
:100F60008C93868997890197F1F7608D718DA6859D
:100F7000B785558538E020E0CB010197F1F7822F46
:100F800090E095958795282F4C91452309F020688E
:100F9000315091F7868D81FD20958091430490E03A
:100FA00001968F73992730914204381749F0A09128
:100FB0004304B0E0A450BD4F2C938093430403C07E
:100FC000868D8160868F828D938D0197F1F7A3893D
:100FD000B4899C918589892B8C93FF91EF91BF9166
:100FE000AF919F918F917F916F915F914F913F91C1
:100FF0002F910F900FBE0F901F901895CF92DF92F8
:10100000EF92FF920F931F93CF93DF936C017A01BE
:101010008B01C0E0D0E0CE15DF0589F0D8016D91DD
:101020008D01D601ED91FC910190F081E02DC6017A
:101030000995892B11F47E0102C02196ECCFC701DE
:10104000DF91CF911F910F91FF90EF90DF90CF90A4
:101050000895FC01918D828D981761F0828DDF01DA
:10106000A80FB11D5D968C91928D9F5F9F73928F9B
:1010700090E008958FEF9FEF0895FC01918D828D90
:10108000981731F0828DE80FF11D858D90E008955D
:101090008FEF9FEF0895FC01918D228D892F90E0B5
:1010A000805C9F4F821B91098F739927089587E970
:1010B00093E00E944B0821E0892B09F420E0822F65
:1010C0000895FC01848DDF01A80FB11DA35ABF4F05
:1010D0002C91848D90E001968F739927848FA68937
:1010E000B7892C93A089B1898C9180648C93938D5E
:1010F000848D981306C00288F389E02D80818F7D4E
:1011000080830895EF92FF920F931F93CF93DF9305
:10111000EC0181E0888F9B8D8C8D981305C0E88948
:10112000F989808185FD24C0F62E0B8D10E00F5FBC
:101130001F4F0F731127E02E8C8DE8120CC00FB6D5
:1011400007FCFACFE889F989808185FFF5CFCE01C8
:101150000E946108F1CF8B8DFE01E80FF11DE35A6B
:10116000FF4FF0820B8FEA89FB898081806207C084
:10117000EE89FF896083E889F989808180648083B2
:1011800081E090E0DF91CF911F910F91FF90EF9060
:101190000895CF93DF93EC01888D8823C9F0EA8905
:1011A000FB89808185FD05C0A889B9898C9186FD60
:1011B0000FC00FB607FCF5CF808185FFF2CFA8895D
:1011C000B9898C9185FFEDCFCE010E946108E7CFF0
:1011D000DF91CF91089580E090E0892B29F00E9463
:1011E000570881110C94000008950E944719DC01F2
:1011F000ED91FC910190F081E02D09948F929F92E6
:10120000AF92BF92CF92DF92EF92FF920F931F9314
:10121000CF93DF937C018B016C0182E0C80ED11C5F
:101220004701E5E08E0E911CC0E0D0E0F60141914F
:101230006F0150E060E070E02AE0C8010E94E10F19
:101240005C016EE2C8010E94F7088A0D9B1DC80F61
:10125000D91FC814D90451F7F701458150E060E067
:1012600070E02AE0C8010E94E10F8C0F9D1FDF9102
:10127000CF911F910F91FF90EF90DF90CF90BF9093
:10128000AF909F908F9008956115710579F0FB01E3
:1012900001900020E9F73197AF01461B570BDC01A5
:1012A000ED91FC910280F381E02D099480E090E0C3
:1012B000089567EB71E00C9444090F931F93CF934B
:1012C000DF93EC01E881F981DB0114964D915C918B
:1012D00015976D917C910280F381E02D09958C0129
:1012E000CE010E945909800F911FDF91CF911F916C
:1012F0000F9108951F920F920FB60F9211242F9302
:101300003F934F935F936F937F938F939F93AF938D
:10131000BF93EF93FF9387E993E00E946108FF91E9
:10132000EF91BF91AF919F918F917F916F915F915D
:101330004F913F912F910F900FBE0F901F901895D6
:101340001F920F920FB60F9211242F938F939F939A
:10135000EF93FF93E091A703F091A8038081E091C0
:10136000AD03F091AE0382FD12C090818091B00375
:101370008F5F8F732091B103821751F0E091B0031A
:10138000F0E0E956FC4F958F8093B00301C0808157
:10139000FF91EF919F918F912F910F900FBE0F9022
:1013A0001F9018953FB7F894809182039091830322
:1013B000A0918403B091850326B5A89B05C02F3F5B
:1013C00019F00196A11DB11D3FBFBA2FA92F982F6B
:1013D0008827820F911DA11DB11DBC01CD0142E0E6
:1013E000660F771F881F991F4A95D1F708951F939D
:1013F000CF93DF93182F66E270E00E94FF05C82F9D
:10140000D0E067E270E0812F0E94FF05DC2FCC273F
:101410009E01282BC901DF91CF911F910895833040
:1014200081F028F4813099F08230A1F0089587305E
:10143000A9F08830B9F08430D1F4809180008F7D9C
:1014400003C0809180008F7780938000089584B5D9
:101450008F7702C084B58F7D84BD08958091B000E0
:101460008F7703C08091B0008F7D8093B000089586
:101470001F93CF93DF93282F30E0F901E358FF4FFC
:101480008491F901E05BFE4FD491F901E45CFE4FD9
:10149000C491CC23C9F0162F81110E940F0AEC2FA2
:1014A000F0E0EE0FFF1FE85DFE4FA591B4918FB7FE
:1014B000F894111105C09C91ED2FE095E92302C02D
:1014C000EC91ED2BEC938FBFDF91CF911F9108959D
:1014D000CF93DF9390E0FC01E05BFE4F2491FC0191
:1014E000E45CFE4F8491882361F190E0880F991F9E
:1014F000FC01E25EFE4FC591D491FC01E85DFE4F18
:10150000A591B491611109C09FB7F8948881209585
:1015100082238883EC912E230BC0623061F49FB745
:10152000F8943881822F809583238883EC912E2B29
:101530002C939FBF06C08FB7F894E8812E2B288389
:101540008FBFDF91CF9108958F929F92AF92BF92FC
:10155000CF92DF92EF92FF926B017C010E94D20941
:101560004B015C01C114D104E104F104F1F00E94CB
:10157000D209DC01CB0188199909AA09BB09883E67
:101580009340A105B10570F321E0C21AD108E1082A
:10159000F10888EE880E83E0981EA11CB11CC114CE
:1015A000D104E104F10419F7DDCFFF90EF90DF9053
:1015B000CF90BF90AF909F908F9008952FB7F894E1
:1015C00060917E0370917F038091800390918103ED
:1015D0002FBF08951F920F920FB60F9211242F93D1
:1015E0003F938F939F93AF93BF9380917E0390918E
:1015F0007F03A0918003B091810330917D0323E0AC
:10160000230F2D3720F40196A11DB11D05C026E83A
:10161000230F0296A11DB11D20937D0380937E03AD
:1016200090937F03A0938003B09381038091820302
:1016300090918303A0918403B09185030196A11D2D
:10164000B11D8093820390938303A0938403B0938E
:101650008503BF91AF919F918F913F912F910F90F3
:101660000FBE0F901F9018952A9A08952A980895F2
:101670001F93CF93DF93182F60E270E00E94FF0565
:10168000C82FD0E061E270E0812F0E94FF05DC2FBF
:10169000CC279E01282BC901DF91CF911F9108957E
:1016A0008EBD00000DB407FEFDCF8EB50895CF921C
:1016B000DF92EF92FF920F931F93CF93DF93EC0192
:1016C0007A018B016C01C40ED51ECC15DD05A9F085
:1016D0000E94360B8FE00E94500B8D2F0E94500B02
:1016E0008C2F0E94500B219680E00E94500BF80135
:1016F00081938F010E94340BE8CFC701DF91CF9116
:101700001F910F91FF90EF90DF90CF900895CF92AF
:10171000DF92EF92FF920F931F93CF93DF93EC0131
:101720007A018B016C01C40ED51ECC15DD05A1F02C
:101730000E94360B80EF0E94500B8D2F0E94500BA1
:101740008C2F0E94500B2196F80181918F010E94ED
:10175000500B0E94340BE9CFC701DF91CF911F914D
:101760000F91FF90EF90DF90CF9008951F93CF934C
:10177000DF9300D0CDB7DEB7182F6A8399830E941C
:10178000360B80EF0E94500B9981892F0E94500BDD
:10179000812F0E94500B6A81862F0E94500B0E945D
:1017A000340B81E00F900F90DF91CF911F9108953E
:1017B0001F93CF93DF9300D0CDB7DEB7182F80E50E
:1017C00090E069837A830E94370621E041E050E08F
:1017D00069817A81812F0E948A0E0E94360681E0FB
:1017E00090E00F900F90DF91CF911F910895FF929D
:1017F0000F931F93CF93DF93F82E80E590E00E9424
:101800003706C0E0D0E08F2D0E94F7098C01892BAC
:1018100021F08F2D0E94F709EC01C017D10799F72D
:101820000E943606CE01DF91CF911F910F91FF905C
:101830000895AF92BF92CF92DF92EF92FF921F93E3
:10184000CF93DF93182F5B017A0180E590E00E942F
:101850003706C0E0D0E0812F0E94F7096C01892B88
:1018600021F0812F0E94F709EC01CC15DD0599F7D5
:10187000209799F463E070E0812F0E94FF05843186
:10188000F1F08823E1F0C1E0D0E08C3111F4C0E048
:10189000D0E0D195C195D10912C0EC16FD060CF42B
:1018A000E7011C161D065CF420E0AE01B501812F96
:1018B0000E948A0E60E470E0812F0E947A0E0E94DE
:1018C0003606CE01DF91CF911F91FF90EF90DF9010
:1018D000CF90BF90AF900895CF93C82F80E590E050
:1018E0000E94370660E170E08C2F0E947A0E4FEF65
:1018F00062E070E08C2F0E94F505CF910C943606C3
:10190000FF920F931F93CF93DF9300D0CDB7DEB735
:10191000F82E8A012A8369830E946C0C80E590E08E
:101920000E9437062A816981462F422B60E070E0D1
:101930008F2D0E94F5050115110551F400917B03CF
:1019400010917C030F5F1F4F10937C0300937B0368
:10195000412F64E070E08F2D0E94F505402F65E077
:1019600070E08F2D0E94F50561E070E08F2D0E94E0
:101970007A0E0E94360681E00F900F90DF91CF9192
:101980001F910F91FF9008951F93CF93DF931F92A4
:10199000CDB7DEB7182F80E590E00E94370663E0F0
:1019A00070E0812F0E94FF0589830E94360689819D
:1019B0000F90DF91CF911F9108950F931F93CF93B5
:1019C000DF93EC0188819981009729F02A813B817E
:1019D0002617370788F48B016F5F7F4F0E947D18B1
:1019E000009761F0998388831B830A832C813D8152
:1019F000232B11F4FC01108281E001C080E0DF9113
:101A0000CF911F910F910895CF92DF92EF92FF92A5
:101A10000F931F93CF93DF93CDB7DEB7C254D10995
:101A20000FB6F894DEBF0FBECDBF8C01FB018281E3
:101A30009381A481B58123968CAF9DAFAEAFBFAF2C
:101A4000239721E023962FAF239723964CAD5DADCE
:101A50006EAD7FAD23974BAB5CAB6DAB7EAB89AF0F
:101A60009AAFABAFBCAF8DA79EA7AFA7B8AB28AB63
:101A70004DA55EA56FA578A94FA358A769A77AA71A
:101A80002EAB4BA95CA96DA97EA949A35AA36BA350
:101A90007CA38B8F9C8FAD8FBE8F40EA51E05C8B17
:101AA0004B8B3FEF3D8B3E8B3F8B188E5E874D8778
:101AB0002AA7CFA0D8A4E9A4FAA4CF86D88AE98A15
:101AC000FA8A2CA3C9A0DAA0EBA0FCA0C986DA860A
:101AD000EB86FC865A8349838B839C83AD83BE83CC
:101AE0006CE271E080E090E00E94A40AFFB6F894F6
:101AF00080919603811127C0E6E4F1E08491EAE544
:101B0000F1E09491E82FF0E0EE0FFF1FE25EFE4F50
:101B1000A591B491EC91E92321F461E08AE00E945F
:101B2000380A61E08AE00E94680A8CB580618CBD49
:101B30008CB580648CBD61E08DE00E94680A61E034
:101B40008BE00E94680A809196038F5F80939603D2
:101B5000FFBE229A80E590E00E94370660E880E0B0
:101B600090E00E94B60B65E58BE190E00E94B60B19
:101B700065E58AE190E00E94B60B0E94360680E09F
:101B800090E4909387038093860380E090E690939F
:101B90008F0380938E0380E098E490938903809371
:101BA000880380E098E6909391038093900380E00F
:101BB00090E590938B0380938A0380E090E7909365
:101BC00093038093920380E098E590938D03809334
:101BD0008C0380E098E7909395038093940380E5CD
:101BE00090E00E94370646E050E0B80189E090E0BE
:101BF0000E94870B44E050E0BE016D5F7F4F8FE095
:101C000090E00E94870B44E050E0BE01615F7F4F8F
:101C100081E090E00E94870B44E050E0BE016B5EE3
:101C20007F4F85E090E00E94870B0E94360681E09E
:101C30008C8789859A85AB85BC8580933604909383
:101C40003704A0933804B0933904CE5BDF4F0FB64E
:101C5000F894DEBF0FBECDBFDF91CF911F910F91E2
:101C6000FF90EF90DF90CF9008950F931F93CF9345
:101C7000DF938C01C0E0D0E0F801EC0FFD1F649110
:101C8000662371F0E0919703F09198030190F08141
:101C9000E02D87E993E00995892B11F02196ECCF8F
:101CA000CE01DF91CF911F910F910895CF93DF93D4
:101CB0000E94350EEC0187E993E00E9459098C0FD0
:101CC0009D1FDF91CF9108950F931F93CF93DF93C3
:101CD000EC018C01060F171FC017D10731F0699175
:101CE00089E794E00E944F01F7CFDF91CF911F91D8
:101CF0000F910895CF93C82F462F61E070E00E94A6
:101D0000F50561E070E08C2F0E94FF058111F9CF8D
:101D1000CF9108958F929F92AF92BF92CF92DF9210
:101D2000EF92FF920F931F93CF93DF93B82E4B0147
:101D30008A01A22E68E270E00E94FF05C82FD0E061
:101D400069E270E08B2D0E94FF05DC2FCC27C82BA9
:101D50009E013770CB2CD12CC601880F991FAC0186
:101D600042575C4F6A01FA0180819181820F931F73
:101D7000A801420F531F4130584098F060E078E0CE
:101D80007B01E21AF30AA701B4010E94570BA801D4
:101D90004E195F09B4016E0D7F1DF601808191819E
:101DA00002C0A801B4010E94570BA1100EC0C00FC1
:101DB000D11F4D2F68E270E08B2D0E94F5054C2F4E
:101DC00069E270E08B2D0E94F505DF91CF911F91A4
:101DD0000F91FF90EF90DF90CF90BF90AF909F90CA
:101DE0008F9008959F92AF92BF92CF92DF92EF9221
:101DF000FF920F931F93CF93DF93982E8B015A017D
:101E0000690164E270E00E94FF05E82EF12C65E2B2
:101E100070E0892D0E94FF05FE2CEE24E82AE701E0
:101E2000C00FD11F9E013770E92CF12CC701880F1C
:101E3000991FAC014A575C4F7A01FA018081918168
:101E4000820F931FA9014C0D5D1D4130584090F049
:101E500000E018E0021B130BA801B5010E94870BDC
:101E6000A601401B510BB501600F711FF701808166
:101E7000918102C0A601B5010E94870BCC0DDD1D2A
:101E80004D2F64E270E0892D0E94F5054C2F65E22C
:101E900070E0892DDF91CF911F910F91FF90EF900E
:101EA000DF90CF90BF90AF909F900C94F505FF927C
:101EB0000F931F93CF93DF93F82EC0E0D0E08F2DC8
:101EC0000E94380B8C01892B21F08F2D0E94380B3A
:101ED000EC01C017D10799F7CE01DF91CF911F9187
:101EE0000F91FF900895EF92FF920F931F93CF935E
:101EF000DF93FC01248135816115710511F480E0C7
:101F000019C041155105A9F07B01EC018A01020FAE
:101F1000131FB8010E94DD0C882389F328813981C1
:101F20008C819D81B701820F931F0E9455191D83DB
:101F30000C8381E0DF91CF911F910F91FF90EF9083
:101F40000895EF92FF920F931F93CF93DF93EC01CD
:101F50007B018A01BA010E94DD0C2881398181113F
:101F60000DC02115310519F0C9010E94F11919821E
:101F700018821D821C821B821A8206C01D830C835C
:101F8000B701C9010E945519CE01DF91CF911F9170
:101F90000F91FF90EF900895FC011182108213823F
:101FA0001282158214826115710551F0FB010190B6
:101FB0000020E9F73197AF01461B570B0C94A10F96
:101FC00008954F925F926F927F92EF92FF920F93DC
:101FD0001F93CF93DF93CDB7DEB7A1970FB6F894D9
:101FE000DEBF0FBECDBF7C01FA01CB0119A22230AA
:101FF00008F42AE08E010F5D1F4F422E512C612CF8
:10200000712CBF01A30192010E94BE1AF901CA01FD
:10201000015011096A3014F4605D01C0695CD80197
:102020006C93232B242B252B61F7B801C7010E9449
:102030004409A1960FB6F894DEBF0FBECDBFDF9165
:10204000CF911F910F91FF90EF907F906F905F90D5
:102050004F900895CF92DF92EF92FF92CF93DF934C
:102060006C01990FEE08FF08F7FE16C06DE287E9D4
:1020700093E00E94F708EC0144275527BA014C1958
:102080005D096E097F092AE087E993E00E94E10F6C
:102090007C01EC0EFD1E08C02AE0B701A60187E90D
:1020A00093E00E94E10F7C0187E993E00E945909C7
:1020B0008E0D9F1DDF91CF91FF90EF90DF90CF901D
:1020C00008950F931F93CF93DF93EC01CB01DB01B6
:1020D000ED91FC910190F081E02DBE0109958C01FC
:1020E000CE010E945909800F911FDF91CF911F915E
:1020F0000F9108950F931F93CF93DF93EC010E94EC
:1021000044098C01CE010E945909800F911FDF9173
:10211000CF911F910F9108950F931F93CF93DF934A
:1021200000D000D000D0CDB7DEB78C0180EA91E0BE
:102130009A83898380915C0490915D04A0915E04F0
:10214000B0915F048B839C83AD83BE8348E557E0E9
:10215000BE016F5F7F4F80E694E00E94F406892BFA
:1021600009F448C06EE572E087E993E00E947A10B6
:1021700068E772E080E694E00E94440965E872E056
:1021800080E694E00E947A106FE872E080E694E0C6
:102190000E9444096AE574E080E694E00E946110C0
:1021A00066E972E080E694E00E947A1068EA72E0E4
:1021B00080E694E00E944409F8014481558160E082
:1021C00070E02AE080E694E00E94E10F80E694E06F
:1021D0000E94590969EB72E080E694E00E947A104F
:1021E00080E694E00E945909B80180E694E00E94DC
:1021F0005D0914C08CE091E00E94560E0FC080E68D
:1022000094E00E94EC05892B49F080E694E00E945E
:10221000D205682F87E993E00E94F70880E694E0F2
:102220000E94F9018111EBCF69EE72E087E993E03A
:102230000E947A1080E694E00E943A0626960FB635
:10224000F894DEBF0FBECDBFDF91CF911F910F91EC
:1022500008950895CF93DF931F92CDB7DEB76983BA
:10226000DC01ED91FC910280F381E02D41E050E032
:10227000BE016F5F7F4F09950F90DF91CF91089559
:10228000BF92CF92DF92EF92FF920F931F93CF9363
:10229000DF9300D000D000D0CDB7DEB7FC01208D99
:1022A000243009F053C06A017B018C01B12C63E03A
:1022B00070E08B2D0E94FF05811103C0F801B08EE4
:1022C00006C08831D9F3B394F4E0BF12F0CFF8011F
:1022D000808D8430D9F196E0EAE3F1E0DE011196D9
:1022E00001900D929A95E1F7F70193819F779C8376
:1022F00094819D8395819E83B7016E5F7F4F90E0AF
:10230000982F882744E050E0845F9B4F0E94870B02
:10231000B601F801808D0E942506F801808D90E0BD
:10232000982F882746E050E0BE016F5F7F4F8A5F9D
:102330009B4F0E94870BF801128E118E20E8A60198
:1023400062E0808D0E94800C81E001C080E02696D2
:102350000FB6F894DEBF0FBECDBFDF91CF911F91B6
:102360000F91FF90EF90DF90CF90BF900895CF93A3
:10237000DF931F92CDB7DEB7FC01218D328D232B69
:1023800049F0BE016F5F7F4F808D0E94D80B89811D
:1023900090E002C08FEF9FEF0F90DF91CF910895F3
:1023A000CF93DF93FC01218D328D2115310519F476
:1023B0008FEF9FEF11C0EC014217530708F0A901FE
:1023C000888D0E94190C1816190694F7298D3A8DDC
:1023D000281B390B3A8F298FDF91CF9108950F93E6
:1023E0001F93CF93DF931F92CDB7DEB7FC01218DF2
:1023F000328D232B61F08C0141E050E0BE016F5F14
:102400007F4F808D0E94190C181619061CF08FEF53
:102410009FEF08C0F801818D928D0197928F818F77
:10242000898190E00F90DF91CF911F910F910895D6
:102430000F931F93CF93DF93CDB7DEB728970FB6D7
:10244000F894DEBF0FBECDBF8C01F801818D928D57
:10245000892B49F0D801ED91FC910680F781E02DA0
:10246000C8010995F2CF808D0E94F70B1816190646
:102470005CF548E050E0BE016F5F7F4FD801589691
:102480008C910E94190C9C0118161906DCF48981A4
:102490009A81AB81BC81F801808B918BA28BB38B2D
:1024A0008D8190E0982F88272E81820F911D958B2A
:1024B000848B2F8130E0322F22278885280F311D11
:1024C000328F218FC90102C080E090E028960FB6BC
:1024D000F894DEBF0FBECDBFDF91CF911F910F915A
:1024E0000895AF92BF92CF92DF92FF920F931F9306
:1024F000CF93DF938C015B01EA01FC01C688D7888A
:10250000F08C80E590E00E9437068F2D0E94570FD7
:102510008C179D0720F48F2D0E94570FEC019E0110
:10252000A501B6018F2D0E94F20E0E943606F80119
:10253000868997898C0F9D1F978B868BCE01DF91A3
:10254000CF911F910F91FF90DF90CF90BF90AF90F0
:102550000895FF920F931F93CF93DF93FB01DC014C
:1025600057961C921E9256975896FC908281811124
:1025700009C08381811106C08481811103C08581D6
:102580008823F9F041155105E1F08A01EF0180E55A
:1025900090E00E943706BE016E5F7F4F2F2D30E026
:1025A000922F882744E050E0845F9B4F0E94870B66
:1025B000B8018F2D0E9425060E94360681E090E02A
:1025C00002C080E090E0DF91CF911F910F91FF90CA
:1025D0000895CF93FC01C08D80E590E00E943706FE
:1025E00060E270E08C2F0E947A0E62E070E08C2F27
:1025F0000E94FF0584FD19C062E070E08C2F0E94EC
:10260000FF0583FF0BC048E162E070E08C2F0E9461
:10261000F5050E94360680E090E011C00E94360663
:1026200080E590E00E943706E0CF40E162E070E094
:102630008C2F0E94F5050E94360681E090E0CF9134
:102640000895E7E9F3E0A089B18982E08C93A4853D
:10265000B5851C92A685B78587E08C93108EA489DA
:10266000B58986E08C93A289B3898C9180618C9323
:10267000A289B3898C9188608C93A289B3898C914B
:1026800080688C930288F389E02D80818F7D808320
:10269000089580916D0490916E040E94F1198091CB
:1026A0007304909174040E94F11988E791E090936B
:1026B0007A04809379048091440490914504895769
:1026C000944071F4E0918C04F0918D04908180919C
:1026D0008E048095892380831092450410924404CF
:1026E0000895CF93DF93CDB7DEB760970FB6F89418
:1026F000DEBF0FBECDBF789484B5826084BD84B543
:10270000816084BD85B5826085BD85B5816085BDEC
:1027100080916E00816080936E00109281008091A4
:10272000810082608093810080918100816080932C
:102730008100809180008160809380008091B10051
:1027400084608093B1008091B00081608093B0007C
:1027500080917A00846080937A0080917A00826010
:1027600080937A0080917A00816080937A008091D2
:102770007A00806880937A001092C10010927703EB
:10278000109278031092790310927A031092450305
:1027900010924603109247031092480360ED77E0D1
:1027A00080E090E00E94A40A87E993E0909376038A
:1027B000809375030E9421130E94DE0A0091450355
:1027C000109146032091470330914803DC01CB016F
:1027D000801B910BA20BB30B84369105A105B105AB
:1027E00038F463E070E080E090E00E94A40AE4CF57
:1027F0000E94DE0A6093450370934603809347036B
:102800009093480368EA71E0809175039091760394
:102810000E9444096AE070E080E090E00E94A40A0F
:1028200081E08093490360E085E00E94680A0E948D
:1028300021136AEB71E087E993E00E947A106DEC56
:1028400071E087E993E00E947A1088E690E00E94A8
:10285000560E90EAC92E91E0D92EDA82C982809173
:10286000560490915704A0915804B09159048B8359
:102870009C83AD83BE838E010F5F1F4FB80188E438
:1028800094E00E94040D64EE71E087E993E00E94F9
:102890004409DA82C9821B821C821D821E8280E565
:1028A00090E00E94370644E050E0BE016D5F7F4F2C
:1028B0008FE090E00E94570B0E943606B80187E92E
:1028C00093E00E94611068EE73E080E090E00E9467
:1028D000A40A9801285D3440388B2F875E0139E0C7
:1028E000A30EB11CE2E8F0E08491E5E5F1E0D490BC
:1028F000E1E4F1E0C490CC2009F4E7C081110E942A
:102900000F0AEC2DF0E0EE0FFF1FEE5CFE4FA591DD
:10291000B4918C91D82209F4D8C005C182EA90E024
:102920000E94560E2114310409F4C0C140E050E069
:1029300069EB71E08DE694E00E94A10F812C912C4F
:102940009101215031093E872D8786ED90E00E944C
:10295000560E80E090E0E0914604F0914704E80FC5
:10296000F91FD201A80FB91F1A962C912083019646
:102970008C30910581F781EC90E00E94560E6090BA
:1029800046047090470480EF90E00E94560E630169
:1029900036013CE0630E711CF60141916F0150E07D
:1029A00060E070E020E187E993E00E94E10F64EFCE
:1029B00071E087E993E00E944409C614D70461F7E7
:1029C00081EE90E00E94560EC0904604D0904704DD
:1029D00069EB71E0C8010E94CC0F3601C12CD12CEB
:1029E000F30181913F014AE0B50190E00E94891A0C
:1029F000F50101900020E9F73197AF014A195B0911
:102A0000B501C8010E94730FFBE0CF16D10449F055
:102A100020E229871A8641E050E0B501C8010E94F2
:102A2000730F3FEFC31AD30A8CE0C816D104C1F666
:102A30004D815E8169817A818DE694E00E94730FF9
:102A400089819A810E94F119ED85FE858E169F0677
:102A500041F041E050E064EF71E08DE694E00E94C7
:102A6000730FFFEF8F1A9F0A26E1420E511C82144A
:102A700093040CF46ACF6DE674E087E993E00E945A
:102A80005D091A8219821C821B821E821D8260913E
:102A90006D0470916E046115710539F040917104F7
:102AA00050917204C8010E94A10FC8010E948C10AD
:102AB00089819A810E94F119C7010E94F1196AEF78
:102AC00071E087E993E00E947A1087E993E00E9421
:102AD0004B08892B29F187E993E00E942908813668
:102AE0009105F1F488E1898383E08A838FEF8B83FA
:102AF00063E070E0C8010E94640E88E0E2E3F1E068
:102B0000D80101900D928A95E1F768E070E0C80164
:102B10000E94640E6CE172E087E993E00E947A10F3
:102B20000E94EB08DFCE61E372E087E993E00E9448
:102B30007A1083E4898383E08A8381E08B8363E076
:102B400070E0C8010E94640E6BE472E087E993E0D4
:102B50000E947A1068EE73E080E090E00E94A40A80
:102B6000912C812CC12CD12C89E794E00E94A301E7
:102B7000892B09F469C0C114D10431F489E794E0C8
:102B80000E94BB01882E5CC0F1E0CF16D10431F465
:102B900089E794E00E94BB01982E52C022E0C21641
:102BA000D10409F045C0492D50E060E070E02AE012
:102BB00087E993E00E94E10F87E993E00E945909B9
:102BC00089E794E00E94BB01782E899D7001112451
:102BD0008091D4049091D504009719F48F85988939
:102BE00004C0F801E81BF90BCF019A83898389811E
:102BF0009A810E942A10C7010E945C197C01809171
:102C0000D4049091D504009729F42F8538893A830C
:102C1000298305C0F801E81BF90BFA83E983898150
:102C20009A810E942A10F70180829182728208C0E4
:102C300089E794E00E94BB01F701EC0DFD1D808344
:102C4000FFEFCF1ADF0A90CF81E990E00E94560E85
:102C5000F7018081843409F02FCF9280292C312C08
:102C60008CEF90E00E94560E83EB90E00E94560E8F
:102C700027016701F7018181899DC0011124960117
:102C80002E193F09281739070CF048CEF60141915B
:102C90006F0150E060E070E020E187E993E00E947E
:102CA000E10F81EB90E00E94350EE4CF66EF71E01A
:102CB000C8010E94CC0FF9CE80EA91E090939F0466
:102CC00080939E041092A0041092A1041092A2047A
:102CD0001092A30410929A031092990348EE53E0C5
:102CE00060E070E040939B0350939C0360939D03CE
:102CF00070939E0324E431E030939803209397036C
:102D000025EC30E03093A4032093A30324EC30E0BF
:102D10003093A6032093A50320EC30E03093A80362
:102D20002093A70321EC30E03093AA032093A9035A
:102D300022EC30E03093AC032093AB0326EC30E080
:102D40003093AE032093AD031092B0031092B10301
:102D50001092B2031092B3039093A5048093A4043D
:102D60001092A6041092A7041092A8041092A9042D
:102D70009093AB048093AA041092AC041092AD041B
:102D80001092AE041092AF049093B1048093B004FB
:102D90001092B2041092B3041092B4041092B504CD
:102DA0009093B7048093B6041092B8041092B904BB
:102DB0001092BA041092BB049093BD048093BC049B
:102DC0001092BE041092BF041092C0041092C1046D
:102DD0009093C3048093C2041092C4041092C5045B
:102DE0001092C6041092C7049093C9048093C8043B
:102DF0001092CA041092CB041092CC041092CD040D
:102E00009093350480933404109236041092370462
:102E1000109238041092390490933D0480933C043E
:102E200010923E0410923F0410924004109241040C
:102E30009093CF048093CE041092D0041092D104CA
:102E40001092D2041092D304909399048093980422
:102E500010929A0410929B0410929C0410929D046C
:102E600010927C0410927B0440937D0450937E0466
:102E700060937F047093800488E791E090937A04D4
:102E8000809379041092900410928F04109292040F
:102E9000109291041092940410929304109296044C
:102EA00010929504609197046E7F6D7F60939704F4
:102EB0006695617081E0682783E00E94380A61E0CE
:102EC00083E00E94680AE3E5F1E0E491E09389047D
:102ED000EFE3F1E0E491F0E0EE0FFF1FE85DFE4F5D
:102EE0008591949190938B0480938A0460E082E0B2
:102EF0000E94680A8091970481FD04C061E082E02D
:102F00000E94380A82E080938504E2E5F1E0E491D2
:102F1000E0938604EEE3F1E0E491F0E0EE0FFF1FB2
:102F2000EE5CFE4F85919491909388048093870482
:102F30008DE991E090939604809395042DEB30E019
:102F40003093900420938F042BE931E03093920466
:102F5000209391042CE231E0309394042093930465
:102F6000209168002460209368002DE630E03093C3
:102F70008D0420938C0424E020938E040197F1F7B4
:102F8000E0914404F091450484E0E937F80709F141
:102F9000309739F0A389B4899C91858980958923DC
:102FA0008C93809197048E7F8093970410924304B2
:102FB0001092420489E794E090934504809344047E
:102FC000E0918C04F0918D04908180918E04892B86
:102FD000808369EB71E083E794E00E94CC0F69EB9A
:102FE00071E08DE694E00E94CC0F80EA91E090932E
:102FF00049048093480430EC30934A0428EA209333
:103000004B0410924C0441E040934D0490934F04C4
:1030100080934E044FEF409350044093510410921C
:1030200052041092530490935504809354043093A7
:10303000560420935704109258044AE040935904D0
:1030400090935B0480935A0430935C0420935D0456
:1030500010925E048BE080935F04109263041092E0
:10306000620488EE93E0A0E0B0E080936404909363
:103070006504A0936604B093670484E591E090939F
:1030800061048093600484E080936C048CE090E0A1
:103090000E945C199093470480934604089597FB1F
:1030A000072E16F4009407D077FD09D00E9463180C
:1030B00007FC05D03EF4909581959F4F089570953B
:1030C00061957F4F0895AA1BBB1B51E107C0AA1F42
:1030D000BB1FA617B70710F0A61BB70B881F991FB9
:1030E0005A95A9F780959095BC01CD010895EE0FF2
:1030F000FF1F0590F491E02D0994A0E0B0E0E3E813
:10310000F8E10C94E41AEC01009721F4CB010E9441
:103110005C19B8C0FC01E60FF71F9C012250310971
:10312000E217F30708F4ACC0D9010D911C91119777
:1031300006171707B0F00530110508F49FC0C80145
:1031400004978617970708F499C002501109061BC7
:10315000170B019311936D937C93CF010E94F1198A
:103160008DC05B01A01AB10A4C01800E911EA09186
:10317000D604B091D70440E050E0E12CF12C109738
:1031800009F44AC0A815B905D1F56D907C90119746
:10319000630182E0C80ED11CCA14DB0480F1A301D4
:1031A0004A195B096A0182E0C80ED11C1296BC90D4
:1031B00012971396AC91B5E0CB16D10440F0B282D1
:1031C000A38351834083D9016D937C930AC00E5F22
:1031D0001F4FC301800F911FF90191838083EB2D55
:1031E000FA2FE114F10431F0D7011396FC93EE931A
:1031F000129744C0F093D704E093D6043FC08D915A
:103200009C9111974817590708F4AC017D0112965B
:103210000D90BC91A02DB3CF8091D4049091D50492
:1032200088159905E1F446175707C8F48091020103
:1032300090910301009741F48DB79EB7409106012C
:1032400050910701841B950BE817F907C8F4F09318
:10325000D504E093D404F901718360830FC0CB01DE
:103260000E945C197C01009759F0A801BE010E94E0
:103270004C19CE010E94F119C70104C0CE0102C051
:1032800080E090E0CDB7DEB7EEE00C94001B81E06B
:1032900090E0F8940C94171BFB01DC0102C0019034
:1032A0000D9241505040D8F70895FB01DC01019088
:1032B0000D920020E1F70895CF93DF9382309105BE
:1032C00010F482E090E0E091D604F091D70420E081
:1032D00030E0C0E0D0E0309711F1408151814817D3
:1032E0005907C0F04817590761F4828193812097EC
:1032F00019F09B838A832BC09093D7048093D604C4
:1033000026C02115310519F04217530718F49A0108
:10331000BE01DF01EF010280F381E02DDCCF21153A
:10332000310509F1281B390B2430310590F4129630
:103330008D919C9113976115710521F0FB01938389
:10334000828304C09093D7048093D604FD01329603
:1033500044C0FD01E20FF31F819391932250310984
:103360002D933C933AC02091D4043091D504232B63
:1033700041F420910401309105013093D50420934C
:10338000D40420910201309103012115310541F44B
:103390002DB73EB74091060150910701241B350B14
:1033A000E091D404F091D504E217F307A0F42E1BAA
:1033B0003F0B2817390778F0AC014E5F5F4F241799
:1033C000350748F04E0F5F1F5093D5044093D40447
:1033D0008193919302C0E0E0F0E0CF01DF91CF91C3
:1033E00008950F931F93CF93DF93009709F48CC038
:1033F000FC013297138212820091D6041091D704F7
:103400000115110581F420813181820F931F2091D4
:10341000D4043091D5042817390779F5F093D504F1
:10342000E093D40471C0D80140E050E0AE17BF076C
:1034300050F412962D913C911397AD012115310551
:1034400009F1D901F3CF9D01DA0133832283608131
:103450007181860F971F8217930769F4EC01288109
:103460003981260F371F2E5F3F4F318320838A819A
:103470009B8193838283452B29F4F093D704E093B7
:10348000D60442C01396FC93EE931297ED01499136
:1034900059919E01240F351FE217F30771F48081C3
:1034A0009181840F951F029611969C938E93828131
:1034B000938113969C938E931297E0E0F0E0D801ED
:1034C00012968D919C911397009719F0F8018C0139
:1034D000F6CF8D919C9198012E5F3F4F820F931FE5
:1034E0002091D4043091D5042817390769F4309716
:1034F00029F41092D7041092D60402C013821282CB
:103500001093D5040093D404DF91CF911F910F91B4
:103510000895BB274A3031F4992322F4BDE29095F7
:1035200081959F4F0C94951ABB27FB015527AA271D
:10353000880F991FAA1FA41710F0A41B8395505140
:10354000B9F7A05DAA3308F0A95DA193009779F7B8
:10355000B111B1931192CB010C94AE1ADC01FC01B4
:10356000672F71917723E1F7329704C07C916D93B7
:1035700070836291AE17BF07C8F30895A1E21A2EB7
:10358000AA1BBB1BFD010DC0AA1FBB1FEE1FFF1F07
:10359000A217B307E407F50720F0A21BB30BE40B57
:1035A000F50B661F771F881F991F1A9469F760959E
:1035B0007095809590959B01AC01BD01CF01089558
:1035C0002F923F924F925F926F927F928F929F9233
:1035D000AF92BF92CF92DF92EF92FF920F931F9321
:1035E000CF93DF93CDB7DEB7CA1BDB0B0FB6F894D2
:1035F000DEBF0FBECDBF09942A88398848885F8412
:103600006E847D848C849B84AA84B984C884DF8082
:10361000EE80FD800C811B81AA81B981CE0FD11D66
:103620000FB6F894DEBF0FBECDBFED01089510E0D8
:10363000C3EBD0E004C0FE010E9477182196C43B82
:08364000D107C9F7F894FFCF90
:1036480000C00000D8048000010000000000000055
:103658002A117112DE00EF11B71129111D02DC01C8
:10366800A912C504E9121812D011F600E600E2000A
:103678004011410804543A0DD80101005E000000D1
:10368800000000008208FE074B0829083D08C90809
:103698000000000011018006EC05D205AB05100101
:1036A800F4063805CE053A06F9010801330131015F
:1036B800FD002701000000004F01FE07A301BB0128
:1036C80036014E0100000000F508FE07F508F50870
:1036D800F508F50800000000F508FE0700000000E6
:1036E800FE0800000000F508564D4450565F317C36
:1036F800315F564D4450560D0A0053657269616C2E
:1037080020696E697469616C697A656400536574CF
:1037180074696E672075702045746865726E65748B
:103728002E2E2E004D7920495020616464726573F5
:10373800733A20002C005B305D004D657373616740
:10374800655265636569766564546167206465736D
:1037580074727563746F7220656E64004368616E7D
:1037680067656D656E74206269656E20666169744F
:1037780000507265706172696E6720746F2073659E
:103788006E6420646174612E2E2E00446174612081
:10379800686173206265656E2073656E7400506F92
:1037A8007374696E67206461746120746F2052615C
:1037B8007370626572727900504F5354202F70698C
:1037C800636B69740020485454502F312E310048DF
:1037D8006F73743A2000436F6E6E656374696F6E21
:1037E8003A20636C6F736500436F6E74656E742D59
:1037F8004C656E6774683A2000436F6E74656E742A
:103808002D547970653A206170706C6963617469D0
:103818006F6E2F782D7777772D666F726D2D757295
:103828006C656E636F646564002046696E2064652C
:0C38380020726563657074696F6E20007B
:00000001FF
