:100000000C9463000C948B000C948B000C94720481
:100010000C9472040C9472040C948B000C948B005E
:100020000C948B000C948B000C948B000C948B0024
:100030000C948B000C948B000C948B000C948B0014
:100040000C9428040C948B000C94F6030C94D003AD
:100050000C948B000C948B000C948B000C948B00F4
:100060000C948B000C948B0000000008000201002F
:100070000003040700000000000000000000000072
:10008000250028002B0000000000240027002A0083
:1000900000000000230026002900040404040404D6
:1000A0000404020202020202030303030303010227
:1000B00004081020408001020408102001020408F6
:1000C0001020EC048E0711241FBECFEFD8E0DEBF56
:1000D000CDBF11E0A0E0B1E0E4EFFFE002C0059089
:1000E0000D92A03AB107D9F723E0A0EAB1E001C030
:1000F0001D92A831B207E1F710E0C2E6D0E004C0DB
:100100002197FE010E94C007C136D107C9F70E949E
:1001100088060C94ED070C940000E6E2F2E0A0895A
:10012000B18982E08C93A485B5851C92A685B7859C
:100130008FEC8C93108EA489B58986E08C93A2896C
:10014000B3898C9180618C93A289B3898C918860EA
:100150008C93A289B3898C9180688C930288F389EF
:10016000E02D80818F7D80830895CF92DF92EF9282
:10017000FF920F931F93CF93DF936C017A018B0152
:10018000C0E0D0E0CE15DF0589F0D8016D918D017A
:10019000D601ED91FC910190F081E02DC601099509
:1001A000892B11F47E0102C02196ECCFC701DF91AB
:1001B000CF911F910F91FF90EF90DF90CF90089516
:1001C000FC01918D828D981761F0828DDF01A80F5F
:1001D000B11D5D968C91928D9F5F9F73928F90E081
:1001E00008958FEF9FEF0895FC01918D828D9817F0
:1001F00031F0828DE80FF11D858D90E008958FEF2D
:100200009FEF0895FC01918D228D892F90E0805CF5
:100210009F4F821B91098F739927089586E292E080
:100220000E94020121E0892B09F420E0822F089529
:10023000FC01848DDF01A80FB11DA35ABF4F2C9183
:10024000848D90E001968F739927848FA689B78952
:100250002C93A089B1898C9180648C93938D848D2B
:10026000981306C00288F389E02D80818F7D8083FA
:100270000895EF92FF920F931F93CF93DF93EC01BA
:1002800081E0888F9B8D8C8D981305C0E889F98952
:10029000808185FD24C0F62E0B8D10E00F5F1F4F6F
:1002A0000F731127E02E8C8DE8120CC00FB607FCDF
:1002B000FACFE889F989808185FFF5CFCE010E94C8
:1002C0001801F1CF8B8DFE01E80FF11DE35AFF4FAE
:1002D000F0820B8FEA89FB898081806207C0EE89FA
:1002E000FF896083E889F98980818064808381E067
:1002F00090E0DF91CF911F910F91FF90EF900895C3
:10030000CF93DF93EC01888D8823C9F0EA89FB89BC
:10031000808185FD05C0A889B9898C9186FD0FC0B3
:100320000FB607FCF5CF808185FFF2CFA889B98988
:100330008C9185FFEDCFCE010E941801E7CFDF91B0
:10034000CF91089580E090E0892B29F00E940E0162
:1003500081110C940000089590E0FC01E859FF4FD2
:100360003491FC01E255FF4F2491FC01E656FF4F0A
:10037000E491EE2309F43BC0332339F1333091F09B
:1003800038F43130A9F0323001F584B58F7D12C0D8
:10039000373091F03830A1F03430B9F480918000DA
:1003A0008F7D03C0809180008F77809380000DC087
:1003B00084B58F7784BD09C08091B0008F7703C06A
:1003C0008091B0008F7D8093B000F0E0EE0FFF1FB2
:1003D000E458FF4FA591B4918FB7F894EC91611157
:1003E00003C020952E2301C02E2B2C938FBF089580
:1003F0003FB7F8948091E1019091E201A091E3016F
:10040000B091E40126B5A89B05C02F3F19F00196D5
:10041000A11DB11D3FBFBA2FA92F982F8827820F8A
:10042000911DA11DB11DBC01CD0142E0660F771FDA
:10043000881F991F4A95D1F708958F929F92AF9286
:10044000BF92CF92DF92EF92FF926B017C010E94EC
:10045000F8014B015C01C114D104E104F104F1F095
:100460000E94F801DC01CB0188199909AA09BB098E
:10047000883E9340A105B10570F321E0C21AD1086E
:10048000E108F10888EE880E83E0981EA11CB11CDB
:10049000C114D104E104F10419F7DDCFFF90EF900E
:1004A000DF90CF90BF90AF909F908F900895209154
:1004B000F1023091F2022817390771F49091EF029E
:1004C0008091F002981741F0E091EF02F0E0E056E1
:1004D000FE4F808190E008958FEF9FEF089508957B
:1004E0001F93CF93DF93DC015C962D913C915D9738
:1004F0002115310539F481E090E013969C938E9399
:1005000012973DC05196ED91FC91529750969C9157
:100510005097892F80951FB75E964C915E9741FB4F
:10052000772770F941FD6095F8944081772311F0A9
:10053000492B01C048234083E9012197F1F748E0A6
:10054000508160FF02C0592B01C058235083E9013C
:100550002197F1F76695415099F7772321F0908123
:100560008923808303C08081982B90831FBF5C9672
:100570008D919C915D970197F1F721E030E0C901E1
:10058000DF91CF911F9108952091F1023091F202F5
:100590002817390771F48091F0022091EF0290E062
:1005A000805C9F4F821B910960E470E00E94980775
:1005B000089580E090E008952091F1023091F202D8
:1005C00028173907B9F49091EF028091F00298173B
:1005D00089F0E091EF02F0E0E056FE4F808120913B
:1005E000EF0230E02F5F3F4F2F7333272093EF024E
:1005F00090E008958FEF9FEF0895E091F102F09160
:10060000F202E817F90769F4A389B4899C918589F6
:10061000809589238C931092F2021092F10281E06E
:10062000089580E008956115710579F0FB0101904E
:100630000020E9F73197AF01461B570BDC01ED9124
:10064000FC910280F381E02D099480E090E0089510
:10065000CF93DF93BC0186E292E00E941303EC018A
:100660006CE371E086E292E00E9413038C0F9D1F01
:10067000DF91CF9108954F925F926F927F92EF92A8
:10068000FF920F931F93CF93DF93CDB7DEB7A19760
:100690000FB6F894DEBF0FBECDBF7C01FA01CB01CF
:1006A00019A2223008F42AE08E010F5D1F4F422E5E
:1006B000512C612C712CBF01A30192010E94CB0728
:1006C000F901CA01015011096A3014F4605D01C0DA
:1006D000695CD8016C93232B242B252B61F7B8017F
:1006E000C7010E941303A1960FB6F894DEBF0FBE98
:1006F000CDBFDF91CF911F910F91FF90EF907F9031
:100700006F905F904F9008958F929F92AF92BF929B
:10071000CF92DF92EF92FF920F931F93CF93DF93CD
:100720007C01EB016C0182E0C80ED11C4701E5E0C1
:100730008E0E911C00E010E0F60141916F0150E037
:1007400060E070E02AE0CE010E943B035C01E8819A
:10075000F9810190F081E02D6EE2CE0109958A0DBC
:100760009B1D080F191FC814D90431F7F7014581E3
:1007700050E060E070E02AE0CE010E943B03800F71
:10078000911FDF91CF911F910F91FF90EF90DF901C
:10079000CF90BF90AF909F908F9008950E94C60712
:1007A0001F920F920FB60F9211242F933F934F93E6
:1007B0005F936F937F938F939F93AF93BF93EF93C9
:1007C000FF9386E292E00E941801FF91EF91BF91A2
:1007D000AF919F918F917F916F915F914F913F91D9
:1007E0002F910F900FBE0F901F9018951F920F9290
:1007F0000FB60F9211242F938F939F93EF93FF9334
:10080000E0913602F09137028081E0913C02F09154
:100810003D0282FD12C0908180913F028F5F8F73F5
:1008200020914002821751F0E0913F02F0E0EA5D32
:10083000FD4F958F80933F0201C08081FF91EF9122
:100840009F918F912F910F900FBE0F901F90189531
:100850001F920F920FB60F9211242F933F938F93F5
:100860009F93AF93BF938091E5019091E601A09192
:10087000E701B091E8013091E00123E0230F2D372B
:1008800020F40196A11DB11D05C026E8230F029694
:10089000A11DB11D2093E0018093E5019093E60135
:1008A000A093E701B093E8018091E1019091E2010A
:1008B000A091E301B091E4010196A11DB11D8093C7
:1008C000E1019093E201A093E301B093E401BF91B1
:1008D000AF919F918F913F912F910F900FBE0F90ED
:1008E0001F9018951F920F920FB60F9211242F93FD
:1008F0003F934F935F936F937F938F939F93AF93A8
:10090000BF93EF93FF93E091F102F091F2023097E1
:1009100009F451C0968DA685B785858591FF04C0E1
:100920009C91892329F447C09C91892309F043C0F5
:10093000A389B4899C918589809589238C93868924
:1009400097890197F1F7608D718DA685B7855585DB
:1009500038E020E0CB010197F1F7822F90E09595E8
:100960008795282F4C91452309F02068315091F745
:10097000868D81FD20958091F00290E001968F7325
:1009800099273091EF02381749F0A091F002B0E0BA
:10099000A056BE4F2C938093F00203C0868D8160D9
:1009A000868F828D938D0197F1F7A389B4899C91ED
:1009B0008589892B8C93FF91EF91BF91AF919F9186
:1009C0008F917F916F915F914F913F912F910F90F8
:1009D0000FBE0F901F901895CF93DF938BE291E09D
:1009E00090932102809320021092220210922302FF
:1009F00010922402109225021092290210922802CD
:100A000048EE53E060E070E040932A0250932B02DE
:100A100060932C0270932D022BE031E0309327027B
:100A20002093260225EC30E03093330220933202EB
:100A300024EC30E0309335022093340220EC30E097
:100A4000309337022093360221EC30E030933902A4
:100A50002093380222EC30E030933B0220933A029C
:100A600026EC30E030933D0220933C0210923F028E
:100A70001092400210924102109242029093C402DE
:100A80008093C3021092C5021092C6021092C70250
:100A90001092C8029093CA028093C9021092CB02AE
:100AA0001092CC021092CD021092CE029093D002FE
:100AB0008093CF021092D1021092D2021092D302F0
:100AC0001092D4029093DE028093DD021092DF0236
:100AD0001092E0021092E1021092E2029093D6028C
:100AE0008093D5021092D7021092D8021092D902A8
:100AF0001092DA029093E4028093E3021092E502EE
:100B00001092E6021092E7021092E8029093EA0235
:100B10008093E9021092EB021092EC021092ED0227
:100B20001092EE0290931303809312031092140319
:100B30001092150310921603109217031092F602EA
:100B40001092F5024093F7025093F8026093F90275
:100B50007093FA028BE191E09093F4028093F30298
:100B600010920A031092090310920C0310920B03C7
:100B700010920E0310920D031092100310920F03A7
:100B8000609111036E7F6D7F6093110366956170B4
:100B900081E0682783E00E94AC01E1EBF0E0249162
:100BA000EDE9F0E08491882399F090E0880F991F97
:100BB000FC01EA57FF4FA591B491FC01E458FF4FA7
:100BC000859194918FB7F894EC91E22BEC938FBFC1
:100BD000E1EBF0E0E491E0930303EDE9F0E0E49170
:100BE000F0E0EE0FFF1FE458FF4F85919491909332
:100BF000050380930403E0EBF0E02491ECE9F0E0DE
:100C000084918823C1F090E0880F991FFC01EA5776
:100C1000FF4FC591D491FC01E458FF4FA591B491C9
:100C20009FB7F8948881E22FE0958E2388838C917A
:100C3000E823EC939FBF8091110381FD04C061E024
:100C400082E00E94AC0182E08093FF02E0EBF0E0E2
:100C5000E491E0930003ECE9F0E0E491F0E0EE0FC2
:100C6000FF1FE057FF4F859194919093020380936B
:100C700001038DE991E09093100380930F032DEB16
:100C800030E030930A03209309032BE931E03093DD
:100C90000C0320930B032CE231E030930E032093DE
:100CA0000D03209168002460209368002DE630E059
:100CB000309307032093060324E020930803019751
:100CC000F1F78091F1029091F20222E0833F9207C6
:100CD000E1F0009711F00E94FD02809111038E7FD8
:100CE000809311031092F0021092EF0283EF92E0D2
:100CF0009093F2028093F102E0910603F0910703D2
:100D0000908180910803892B8083DF91CF91089592
:100D1000789484B5826084BD84B5816084BD85B5D6
:100D2000826085BD85B5816085BD80916E008160E2
:100D300080936E0010928100809181008260809388
:100D4000810080918100816080938100809180008A
:100D50008160809380008091B10084608093B100B5
:100D60008091B00081608093B00080917A008460AF
:100D700080937A0080917A00826080937A008091DB
:100D80007A00816080937A0080917A0080688093F5
:100D90007A001092C10010921C0210921D02109253
:100DA0001E0210921F021092EA011092EB011092A3
:100DB000EC011092ED0160ED77E080E090E00E94A0
:100DC0001D0286E292E090931B0280931A020E9419
:100DD0008D002FB7F8948091E5019091E601A091E4
:100DE000E701B091E8012FBF4091EA015091EB017A
:100DF0006091EC017091ED01841B950BA60BB70B74
:100E000084369105A105B10538F463E070E080E017
:100E100090E00E941D02DDCF2FB7F8948091E5018C
:100E20009091E601A091E701B091E8012FBF809376
:100E3000EA019093EB01A093EC01B093ED016DE218
:100E400071E080911A0290911B020E9413036AE0E4
:100E500070E080E090E00E941D0281E08093EE014E
:100E60000E948D008FE391E00E94280386E292E0C9
:100E70000E940201EC0186E292E00E94E00021E083
:100E800030E08136910511F020E030E0C223D32319
:100E9000CD2B09F440C082E591E00E942803C0E018
:100EA000D1E08E01699183EF92E00E947002F80117
:100EB000408150E060E070E020E186E292E00E9434
:100EC0003B03F1E0C330DF0761F78CE691E00E945D
:100ED000280368EE73E080E090E00E941D0283EF3B
:100EE00092E00E94C402892B91F08FE791E00E946A
:100EF000280383EF92E00E94DC02AC01990F660B9D
:100F0000770B20E186E292E00E943B03E8CF8EE877
:100F100091E00E9428030E94A201A8CF8BE191E0FA
:100F20009093F4028093F30283EF92E00C94FD021D
:100F300097FB072E16F4009407D077FD09D00E9486
:100F4000AC0707FC05D03EF4909581959F4F08951E
:100F5000709561957F4F0895AA1BBB1B51E107C097
:100F6000AA1FBB1FA617B70710F0A61BB70B881F39
:100F7000991F5A95A9F780959095BC01CD010895C8
:100F8000EE0FFF1F0590F491E02D099481E090E0B1
:100F9000F8940C94ED07A1E21A2EAA1BBB1BFD01CD
:100FA0000DC0AA1FBB1FEE1FFF1FA217B307E40748
:100FB000F50720F0A21BB30BE40BF50B661F771FA0
:100FC000881F991F1A9469F7609570958095909580
:100FD0009B01AC01BD01CF01089510E0C2E6D0E055
:100FE00004C0FE010E94C0072196C336D107C9F78D
:040FF000F894FFCFA3
:100FF4001803FF01000000000000003901B50002E1
:1010040001E000F4008001000000007002B500C49B
:1010140002DC0257026F02000000008403564D44B4
:1010240050565F317C315F564D4450560D0A005383
:10103400657269616C20696E697469616C697A654D
:101044006400507265706172696E6720746F2073FA
:10105400656E6420646174612E2E2E004461746197
:1010640020686173206265656E2073656E7400523A
:101074006563656976696E67206461746100456EB5
:1010840064206F6620726563657074696F6E00001A
:00000001FF
