:100000000C9463000C948B000C948B000C9498035C
:100010000C9498030C9498030C948B000C948B0014
:100020000C948B000C948B000C948B000C948B0024
:100030000C948B000C948B000C948B000C948B0014
:100040000C944E030C948B000C94D0020C94AA02D6
:100050000C948B000C948B000C948B000C948B00F4
:100060000C948B000C948B0000000008000201002F
:100070000003040700000000000000000000000072
:10008000250028002B0000000000240027002A0083
:1000900000000000230026002900040404040404D6
:1000A0000404020202020202030303030303010227
:1000B00004081020408001020408102001020408F6
:1000C000102037082D0811241FBECFEFD8E0DEBF67
:1000D000CDBF11E0A0E0B1E0E0E5F9E102C005909C
:1000E0000D92AC3FB107D9F723E0ACEFB1E001C00E
:1000F0001D92AE37B207E1F710E0C2E6D0E004C0CF
:100100002197FE010E94FB09C136D107C9F70E9461
:1001100077050C949B0C0C940000FC01918D828D52
:10012000981761F0828DDF01A80FB11D5D968C914B
:10013000928D9F5F9F73928F90E008958FEF9FEF56
:100140000895FC01918D828D981731F0828DE80F12
:10015000F11D858D90E008958FEF9FEF0895FC01CC
:10016000918D228D892F90E0805C9F4F821B910999
:100170008F73992708958EE792E00E94AF0021E0E7
:10018000892B09F420E0822F0895FC01848DDF0182
:10019000A80FB11DA35ABF4F2C91848D90E00196FA
:1001A0008F739927848FA689B7892C93A089B189E9
:1001B0008C9180648C93938D848D981306C00288F3
:1001C000F389E02D80818F7D80830895EF92FF92E7
:1001D0000F931F93CF93DF93EC0181E0888F9B8D6A
:1001E0008C8D981305C0E889F989808185FD24C02C
:1001F000F62E0B8D10E00F5F1F4F0F731127E02EAF
:100200008C8DE8120CC00FB607FCFACFE889F9898B
:10021000808185FFF5CFCE010E94C500F1CF8B8D87
:10022000FE01E80FF11DE35AFF4FF0820B8FEA89C0
:10023000FB898081806207C0EE89FF896083E8893D
:10024000F98980818064808381E090E0DF91CF91A3
:100250001F910F91FF90EF900895CF93DF93EC01E2
:10026000888D8823C9F0EA89FB89808185FD05C0D6
:10027000A889B9898C9186FD0FC00FB607FCF5CF10
:10028000808185FFF2CFA889B9898C9185FFEDCF58
:10029000CE010E94C500E7CFDF91CF91089580E0A5
:1002A00090E0892B29F00E94BB0081110C94000082
:1002B00008953FB7F89480913D0290913E02A0913D
:1002C0003F02B091400226B5A89B05C02F3F19F010
:1002D0000196A11DB11D3FBFBA2FA92F982F8827C6
:1002E000820F911DA11DB11DBC01CD0142E0660F21
:1002F000771F881F991F4A95D1F708958F929F9273
:10030000AF92BF92CF92DF92EF92FF926B017C018E
:100310000E9459014B015C01C114D104E104F104B4
:10032000F1F00E945901DC01CB0188199909AA0951
:10033000BB09883E9340A105B10570F321E0C21AC4
:10034000D108E108F10888EE880E83E0981EA11C10
:10035000B11CC114D104E104F10419F7DDCFFF9001
:10036000EF90DF90CF90BF90AF909F908F900895C7
:1003700020911D0330911E032817390771F49091C5
:100380001B0380911C03981741F0E0911B03F0E0E0
:10039000E450FE4F808190E008958FEF9FEF089525
:1003A00008951F93CF93DF93DC015C962D913C91D0
:1003B0005D972115310539F481E090E013969C9307
:1003C0008E9312973DC05196ED91FC9152975096A5
:1003D0009C915097892F80951FB75E964C915E97A0
:1003E00041FB772770F941FD6095F89440817723B0
:1003F00011F0492B01C048234083E9012197F1F70F
:1004000048E0508160FF02C0592B01C0582350833F
:10041000E9012197F1F76695415099F7772321F08B
:1004200090818923808303C08081982B90831FBF94
:100430005C968D919C915D970197F1F721E030E0FA
:10044000C901DF91CF911F91089520911D03309133
:100450001E032817390771F480911C0320911B0398
:1004600090E0805C9F4F821B910960E470E00E94E5
:10047000D309089580E090E0089520911D03309104
:100480001E0328173907B9F490911B0380911C03B0
:10049000981789F0E0911B03F0E0E450FE4F808153
:1004A00020911B0330E02F5F3F4F2F7333272093A2
:1004B0001B0390E008958FEF9FEF08958F929F9216
:1004C000AF92BF92CF92DF92EF92FF920F931F9362
:1004D000CF93DF937C01EB016C0182E0C80ED11C4D
:1004E0004701E5E08E0E911C00E010E0F60141911D
:1004F0006F0150E060E070E02AE0CE010E94CA0483
:100500005C01E881F9810190F081E02D6EE2CE017D
:1005100009958A0D9B1D080F191FC814D90431F7BE
:10052000F701458150E060E070E02AE0CE010E94D2
:10053000CA04800F911FDF91CF911F910F91FF90FF
:10054000EF90DF90CF90BF90AF909F908F900895E5
:100550000E94F80B1F920F920FB60F9211242F9347
:100560003F934F935F936F937F938F939F93AF933B
:10057000BF93EF93FF938EE792E00E94C500FF9137
:10058000EF91BF91AF919F918F917F916F915F910B
:100590004F913F912F910F900FBE0F901F90189584
:1005A0001F920F920FB60F9211242F938F939F9348
:1005B000EF93FF93E0918E02F0918F028081E091A2
:1005C0009402F091950282FD12C090818091970271
:1005D0008F5F8F7320919802821751F0E0919702FC
:1005E000F0E0E258FD4F958F8093970201C0808123
:1005F000FF91EF919F918F912F910F900FBE0F90D0
:100600001F90189590E0FC01E859FF4F3491FC01D0
:10061000E255FF4F2491FC01E656FF4FE491EE2393
:1006200009F43BC0332339F1333091F038F43130E1
:10063000A9F0323001F584B58F7D12C0373091F0CA
:100640003830A1F03430B9F4809180008F7D03C040
:10065000809180008F77809380000DC084B58F7764
:1006600084BD09C08091B0008F7703C08091B00035
:100670008F7D8093B000F0E0EE0FFF1FE458FF4F36
:10068000A591B4918FB7F894EC91611103C02095B6
:100690002E2301C02E2B2C938FBF08951F920F92F3
:1006A0000FB60F9211242F933F938F939F93AF9385
:1006B000BF938091410290914202A0914302B09178
:1006C000440230913C0223E0230F2D3720F40196A1
:1006D000A11DB11D05C026E8230F0296A11DB11D65
:1006E00020933C028093410290934202A0934302E4
:1006F000B093440280913D0290913E02A0913F024E
:10070000B09140020196A11DB11D80933D029093CE
:100710003E02A0933F02B0934002BF91AF919F91E0
:100720008F913F912F910F900FBE0F901F901895B2
:100730001F920F920FB60F9211242F933F934F9356
:100740005F936F937F938F939F93AF93BF93EF9339
:10075000FF93E0911D03F0911E03309709F451C0FF
:10076000968DA685B785858591FF04C09C918923C8
:1007700029F447C09C91892309F043C0A389B48917
:100780009C918589809589238C9386899789019787
:10079000F1F7608D718DA685B785558538E020E02D
:1007A000CB010197F1F7822F90E095958795282F3F
:1007B0004C91452309F02068315091F7868D81FDD9
:1007C000209580911C0390E001968F7399273091BA
:1007D0001B03381749F0A0911C03B0E0A450BE4F92
:1007E0002C9380931C0303C0868D8160868F828D3D
:1007F000938D0197F1F7A389B4899C918589892B01
:100800008C93FF91EF91BF91AF919F918F917F91C9
:100810006F915F914F913F912F910F900FBE0F906D
:100820001F901895E0911D03F0911E03E817F9073A
:1008300069F4A389B4899C918589809589238C93D7
:1008400010921E0310921D0381E0089580E0089528
:10085000CF92DF92EF92FF920F931F93CF93DF938C
:100860006C017A018B01C0E0D0E0CE15DF0589F084
:10087000D8016D918D01D601ED91FC910190F0812F
:10088000E02DC6010995892B11F47E0102C0219645
:10089000ECCFC701DF91CF911F910F91FF90EF90A7
:1008A000DF90CF900895EEE7F2E0A089B18982E071
:1008B0008C93A485B5851C92A685B78587E08C931B
:1008C000108EA489B58986E08C93A289B3898C9116
:1008D00080618C93A289B3898C9188608C93A28962
:1008E000B3898C9180688C930288F389E02D808194
:1008F0008F7D808308950F931F93CF93DF93EC0137
:1009000088819981009729F02A813B812617370732
:1009100088F48B016F5F7F4F0E942E0B009761F070
:10092000998388831B830A832C813D81232B11F4B7
:10093000FC01108281E001C080E0DF91CF911F9126
:100940000F9108956115710579F0FB010190002068
:10095000E9F73197AF01461B570BDC01ED91FC9194
:100960000280F381E02D099480E090E00895CF9318
:10097000DF93BC018EE792E00E94A204EC016DE4DB
:1009800071E08EE792E00E94A2048C0F9D1FDF9120
:10099000CF9108954F925F926F927F92EF92FF9264
:1009A0000F931F93CF93DF93CDB7DEB7A1970FB609
:1009B000F894DEBF0FBECDBF7C01FA01CB0119A2B6
:1009C000223008F42AE08E010F5D1F4F422E512C79
:1009D000612C712CBF01A30192010E94420CF9010C
:1009E000CA01015011096A3014F4605D01C0695CEC
:1009F000D8016C93232B242B252B61F7B801C70159
:100A00000E94A204A1960FB6F894DEBF0FBECDBF20
:100A1000DF91CF911F910F91FF90EF907F906F909A
:100A20005F904F900895EF92FF920F931F93CF9393
:100A3000DF93EC018C01060F171FC017D10789F057
:100A40007E01699183E293E00E94D101F701408128
:100A500050E060E070E020E18EE792E00E94CA047E
:100A6000ECCFDF91CF911F910F91FF90EF90089500
:100A7000CF92DF92EF92FF92CF93DF936C01990FA9
:100A8000EE08FF08F7FE1CC0E0917E02F0917F02A5
:100A90000190F081E02D6DE28EE792E00995EC0186
:100AA00044275527BA014C195D096E097F092AE0D0
:100AB0008EE792E00E94CA047C01EC0EFD1E08C085
:100AC0002AE0B701A6018EE792E00E94CA047C01E9
:100AD0006DE471E08EE792E00E94A2048E0D9F1DEE
:100AE000DF91CF91FF90EF90DF90CF900895CF935B
:100AF000DF93CDB7DEB72C970FB6F894DEBF0FBEED
:100B0000CDBF789484B5826084BD84B5816084BD96
:100B100085B5826085BD85B5816085BD80916E009B
:100B2000816080936E0010928100809181008260CC
:100B30008093810080918100816080938100809109
:100B400080008160809380008091B10084608093F8
:100B5000B1008091B00081608093B00080917A00F4
:100B6000846080937A0080917A00826080937A001A
:100B700080917A00816080937A0080917A00806809
:100B800080937A001092C10010927802109279023C
:100B900010927A0210927B02109246021092470243
:100BA000109248021092490260ED77E080E090E0F8
:100BB0000E947E018EE792E0909377028093760206
:100BC0000E9453042FB7F894809141029091420201
:100BD000A0914302B09144022FBF40914602509130
:100BE00047026091480270914902841B950BA60B45
:100BF000B70B84369105A105B10538F463E070E0C8
:100C000080E090E00E947E01DDCF2FB7F8948091C4
:100C1000410290914202A0914302B09144022FBF41
:100C20008093460290934702A0934802B0934902F2
:100C30006EE371E080917602909177020E94A204A7
:100C40006AE070E080E090E00E947E0181E08093A5
:100C50004A020E94530480E591E00E94B70483E4B5
:100C6000282E93E0392E442443947E0189E0E80E37
:100C7000F11C20E2522E8EE792E00E94AF00892BF9
:100C800009F4E8C18EE792E00E948D00813609F0F8
:100C9000A8C183E691E00E94B70429823A824B8280
:100CA00063E070E0CE0101960E9413058DE791E0AC
:100CB0000E94B70468EE73E080E090E00E947E013D
:100CC000B12CA12C00E010E083E293E00E94250209
:100CD000892B09F46BC00115110531F483E293E00F
:100CE0000E943D02A82E5FC00130110531F483E25D
:100CF00093E00E943D02B82E56C002301105C1F5A6
:100D00004B2D50E060E070E02AE08EE792E00E9418
:100D1000CA046DE471E08EE792E00E94A20483E2CF
:100D200093E00E943D02982E482F50E060E070E072
:100D30002AE08EE792E00E94CA046DE471E08EE73B
:100D400092E00E94A2049B9C60011124C6010E94B3
:100D50003805C6010E94010AFC019093220380938A
:100D60002103A082B1829282C6010E9438051BC075
:100D7000C0902103D0902203C00ED11E83E293E0E5
:100D80000E943D02F6018083482F50E060E070E051
:100D900020E18EE792E00E94CA046DE471E08EE7E4
:100DA00092E00E94A2040F5F1F4F8ECF80E991E076
:100DB0000E94B704E0912103F091220381818434E1
:100DC00009F448C1828190E09093200380931F032F
:100DD00081EA91E00E94B70400912103109122035F
:100DE00081EB91E00E94B7046801F8018181928152
:100DF000899FC00111249601201B310B2817390748
:100E000094F4F60141916F0150E060E070E020E160
:100E10008EE792E00E94CA046FEB71E08EE792E0E9
:100E20000E94A204E2CF81EC91E00E94B704812CE1
:100E3000912CA12CB12C80911F0390912003A81616
:100E4000B9060CF007C180ED91E00E94B7048CE078
:100E500090E00E94010A8C0120912103309122032D
:100E60006C01DC0180E090E0FC01E80DF91DE20F6F
:100E7000F31F42854D9301968C309105A9F78BEDB8
:100E800091E00E94B70410937D0200937C0280EFF2
:100E900091E00E94B704045F1F4FF60141916F017A
:100EA00050E060E070E020E18EE792E00E94CA042A
:100EB0006FEB71E08EE792E00E94A204C016D106AB
:100EC00061F781EC91E00E94B704D0907C02C09061
:100ED0007D021A8219821C821B821E821D8260E0A2
:100EE00070E0CE0101960E947B0429813A81811134
:100EF00013C02115310519F0C9010E94960A1A8202
:100F000019821E821D821C821B820D2D1C2D380110
:100F1000FCE06F0E711C08C01E821D826FE471E040
:100F2000C9010E94060CF1CFF80181918F014AE0BE
:100F3000B70190E00E940D0CF70101900020E9F745
:100F40003197EE19FF09CD80DE803097A1F0CE0EEB
:100F5000DF1EB601CE0101960E947B04882359F062
:100F600029813A818D819E81B701820F931F0E9452
:100F7000060CDE82CD8259861A86CD80DE80FFEF98
:100F8000CF1ADF0AB601CE0101960E947B048823A6
:100F900059F029813A818D819E81B701820F931F7B
:100FA0000E94060CDE82CD820615170509F0BCCF23
:100FB0004D815E8169817A818EE792E00E942804EA
:100FC0006DE471E08EE792E00E94A20489819A812B
:100FD0000E94960A8FEFA81AB80AE6E18E0E911CBD
:100FE0002ACF8236B9F583E691E00E94B704EAE0A1
:100FF000F1E0DE01119688E001900D928A95E1F70B
:1010000068E070E0CE0101960E9413058DE791E043
:101010000E94B70468EE73E080E090E00E947E01D9
:1010200083E293E00E942502892BA1F083E293E002
:101030000E943D02AC01990F660B770B20E18EE711
:1010400092E00E94CA046FEB71E08EE792E00E948A
:10105000A204E6CF0E944F010ECE86E291E090936B
:1010600024038093230383E293E00C941204CF9330
:10107000DF9386E391E090934903809348031092B5
:101080004A0310924B0310924C0310924D0310929E
:1010900081021092800248EE53E060E070E04093DD
:1010A000820250938302609384027093850226E14A
:1010B00031E030937F0220937E0225EC30E03093C4
:1010C0008B0220938A0224EC30E030938D0220932F
:1010D0008C0220EC30E030938F0220938E0221ECC2
:1010E00030E0309391022093900222EC30E0309374
:1010F00093022093920226EC30E0309395022093E5
:1011000094021092970210929802109299021092F3
:101110009A0290934F0380934E03109250031092C3
:1011200051031092520310925303909355038093EE
:1011300054031092560310925703109258031092C2
:10114000590390935B0380935A0310925C031092AF
:101150005D0310925E0310925F0390936903809386
:10116000680310926A0310926B0310926C03109242
:101170006D03909361038093600310926203109259
:101180006303109264031092650390936F0380933E
:101190006E031092700310927103109272031092FA
:1011A00073039093750380937403109276031092E7
:1011B00077031092780310927903909343038093FE
:1011C000420310924403109245031092460310927A
:1011D0004703109226031092250340932703509350
:1011E00028036093290370932A0386E291E0909389
:1011F00024038093230310923A0310923903109230
:101200003C0310923B0310923E0310923D03109258
:10121000400310923F03609141036E7F6D7F6093A6
:1012200041036695617081E0682783E00E940203B4
:10123000E1EBF0E02491EDE9F0E08491882399F06E
:1012400090E0880F991FFC01EA57FF4FA591B491D8
:10125000FC01E458FF4F859194918FB7F894EC917D
:10126000E22BEC938FBFE1EBF0E0E491E0933303EA
:10127000EDE9F0E0E491F0E0EE0FFF1FE458FF4FDE
:10128000859194919093350380933403E0EBF0E0E3
:101290002491ECE9F0E084918823C1F090E0880F7C
:1012A000991FFC01EA57FF4FC591D491FC01E45806
:1012B000FF4FA591B4919FB7F8948881E22FE095F4
:1012C0008E2388838C91E823EC939FBF8091410308
:1012D00081FD04C061E082E00E94020382E080930D
:1012E0002F03E0EBF0E0E491E0933003ECE9F0E071
:1012F000E491F0E0EE0FFF1FE057FF4F85919491CE
:1013000090933203809331038DE991E090934003F1
:1013100080933F032DEB30E030933A032093390361
:101320002BE931E030933C0320933B032CE231E086
:1013300030933E0320933D03209168002460209366
:1013400068002DE630E0309337032093360324E025
:10135000209338030197F1F780911D0390911E03AC
:1013600023E083329207E1F0009711F00E9412040B
:10137000809141038E7F8093410310921C03109251
:101380001B0383E293E090931E0380931D03E0917F
:101390003603F0913703908180913803892B808345
:1013A000DF91CF91089597FB072E16F4009407D094
:1013B00077FD09D00E94E70907FC05D03EF490951F
:1013C00081959F4F0895709561957F4F0895AA1B51
:1013D000BB1B51E107C0AA1FBB1FA617B70710F020
:1013E000A61BB70B881F991F5A95A9F78095909552
:1013F000BC01CD010895EE0FFF1F0590F491E02D83
:101400000994CF93DF938230910510F482E090E04D
:10141000E0917C03F0917D0320E030E0C0E0D0E07B
:10142000309711F14081518148175907C0F0481792
:10143000590761F482819381209719F09B838A83F5
:101440002BC090937D0380937C0326C0211531052A
:1014500019F04217530718F49A01BE01DF01EF019A
:101460000280F381E02DDCCF2115310509F1281B25
:10147000390B2430310590F412968D919C9113977D
:101480006115710521F0FB019383828304C0909361
:101490007D0380937C03FD01329644C0FD01E20F81
:1014A000F31F81939193225031092D933C933AC0BD
:1014B00020917A0330917B03232B41F42091020188
:1014C0003091030130937B0320937A032091000134
:1014D000309101012115310541F42DB73EB74091FE
:1014E000040150910501241B350BE0917A03F09122
:1014F0007B03E217F307A0F42E1B3F0B28173907D5
:1015000078F0AC014E5F5F4F2417350748F04E0F5F
:101510005F1F50937B0340937A038193919302C0A2
:10152000E0E0F0E0CF01DF91CF9108950F931F939A
:10153000CF93DF93009709F48CC0FC01329713829C
:10154000128200917C0310917D030115110581F435
:1015500020813181820F931F20917A0330917B0388
:101560002817390779F5F0937B03E0937A0371C06C
:10157000D80140E050E0AE17BF0750F412962D910D
:101580003C911397AD012115310509F1D901F3CF34
:101590009D01DA013383228360817181860F971F59
:1015A0008217930769F4EC0128813981260F371FD0
:1015B0002E5F3F4F318320838A819B819383828377
:1015C000452B29F4F0937D03E0937C0342C01396EE
:1015D000FC93EE931297ED01499159919E01240FCE
:1015E000351FE217F30771F480819181840F951FF5
:1015F000029611969C938E938281938113969C936D
:101600008E931297E0E0F0E0D80112968D919C91B4
:101610001397009719F0F8018C01F6CF8D919C91EA
:1016200098012E5F3F4F820F931F20917A033091D4
:101630007B032817390769F4309729F410927D034A
:1016400010927C0302C01382128210937B030093DA
:101650007A03DF91CF911F910F910895A0E0B0E040
:10166000E4E3FBE00C94680CEC01009721F4CB015F
:101670000E94010AB8C0FC01E60FF71F9C0122502E
:101680003109E217F30708F4ACC0D9010D911C91A0
:10169000119706171707B0F00530110508F49FC021
:1016A000C80104978617970708F499C002501109DA
:1016B000061B170B019311936D937C93CF010E942E
:1016C000960A8DC05B01A01AB10A4C01800E911ED2
:1016D000A0917C03B0917D0340E050E0E12CF12C1F
:1016E000109709F44AC0A815B905D1F56D907C9002
:1016F0001197630182E0C80ED11CCA14DB0480F18B
:10170000A3014A195B096A0182E0C80ED11C129636
:10171000BC9012971396AC91B5E0CB16D10440F073
:10172000B282A38351834083D9016D937C930AC015
:101730000E5F1F4FC301800F911FF90191838083BA
:10174000EB2DFA2FE114F10431F0D7011396FC933D
:10175000EE93129744C0F0937D03E0937C033FC067
:101760008D919C9111974817590708F4AC017D01A0
:1017700012960D90BC91A02DB3CF80917A039091D9
:101780007B0388159905E1F446175707C8F4809143
:10179000000190910101009741F48DB79EB74091EF
:1017A000040150910501841B950BE817F907C8F453
:1017B000F0937B03E0937A03F901718360830FC098
:1017C000CB010E94010A7C01009759F0A801BE01DB
:1017D0000E94FD0BCE010E94960AC70104C0CE01F3
:1017E00002C080E090E0CDB7DEB7EEE00C94840C50
:1017F00081E090E0F8940C949B0CFB01DC0102C0AA
:1018000001900D9241505040D8F70895FB01DC0142
:1018100001900D920020E1F70895BB274A3031F482
:10182000992322F4BDE2909581959F4F0C94190C59
:10183000BB27FB015527AA27880F991FAA1FA417AA
:1018400010F0A41B83955051B9F7A05DAA3308F09E
:10185000A95DA193009779F7B111B1931192CB01D2
:101860000C94320CDC01FC01672F71917723E1F7B6
:10187000329704C07C916D9370836291AE17BF075D
:10188000C8F30895A1E21A2EAA1BBB1BFD010DC0CF
:10189000AA1FBB1FEE1FFF1FA217B307E407F50720
:1018A00020F0A21BB30BE40BF50B661F771F881FFC
:1018B000991F1A9469F760957095809590959B0192
:1018C000AC01BD01CF0108952F923F924F925F92DC
:1018D0006F927F928F929F92AF92BF92CF92DF9240
:1018E000EF92FF920F931F93CF93DF93CDB7DEB7A5
:1018F000CA1BDB0B0FB6F894DEBF0FBECDBF099439
:101900002A88398848885F846E847D848C849B848F
:10191000AA84B984C884DF80EE80FD800C811B819D
:10192000AA81B981CE0FD11D0FB6F894DEBF0FBECC
:10193000CDBFED01089510E0C2E6D0E004C0FE0185
:101940000E94FB092196C336D107C9F7F894FFCF4F
:1019500000007E03800001000000410804A4350D52
:10196000D80100000000E6002804AF008D00A100AF
:101970002D0100000000D101280425023D02B8011C
:10198000D001000000005E0200000000A802564DD9
:101990004450565F317C315F564D4450560D0A001D
:1019A00053657269616C20696E697469616C697AEA
:1019B000656400507265706172696E6720746F2093
:1019C00073656E6420646174612E2E2E0044617410
:1019D0006120686173206265656E2073656E7400B6
:1019E000456E64206F6620726563657074696F6E02
:1019F0000044617461206269656E2072656375657B
:101A000000537461727420646973706C6179002C86
:101A100000456E64206F662072656164696E6700C0
:101A200046696E6420612074616700456E64206FB2
:101A3000662066696E64696E672061207461670064
:0C1A40004C652074616720657374200001
:00000001FF
