:100000000C9479000C94A1000C94A1000C94A10014
:100010000C94A1000C94A1000C94A1000C94A100DC
:100020000C94A1000C94A1000C94A1000C94A100CC
:100030000C94A1000C94A1000C94A1000C94A100BC
:100040000C94D1080C94A1000C9459080C9433081A
:100050000C94A1000C94A1000C94A1000C94A1009C
:100060000C94A1000C94A100FB06FE0616074307A2
:10007000AD07BF07E6075374617469632069702098
:1000800061646472657373696E6700000000002527
:100090000028002B0000000000240027002A000494
:1000A000040404040404040202020202020303031F
:1000B0000303030102040810204080010204081019
:1000C00020010204081020436F6E6E656374696F2F
:1000D0006E206661696C6564000000000800020122
:1000E00000000304070000000000000000000716E5
:1000F000101411241FBECFEFD8E0DEBFCDBF12E039
:10010000A0E0B1E0E4E5F6E302C005900D92A43D65
:10011000B107D9F724E0A4EDB2E001C01D92A434E8
:10012000B207E1F710E0C8E7D0E004C02197FE0174
:100130000E94D816C737D107C9F70E9416140C942D
:100140001D1B0C940000FC019485FB018485981311
:1001500003C081E0943009F480E0089521E0FC01BF
:100160008485843009F420E0822F08950895CF9388
:10017000DF931F92CDB7DEB76983DC01ED91FC916F
:100180000280F381E02D41E050E0BE016F5F7F4FC0
:1001900009950F90DF91CF910895DC01ED91FC91CD
:1001A000048CF58DE02D099591E089270895862F1F
:1001B000089581E086270895FC018485843011F03C
:1001C0000C94EA0C80E00895CF93DF93FC01248522
:1001D0002430D1F0EC010E94DC00843181F08823CE
:1001E00071F0883161F08C3161F4E881F98104802B
:1001F000F581E02DCE01099521E0892B19F420E04D
:1002000001C021E0822F01C080E0DF91CF910895ED
:100210000F931F93CF93DF931F92CDB7DEB78C015F
:10022000DC01ED91FC910480F581E02D0995892B8D
:1002300051F0BE016F5F7F4FF80184850E944F0B24
:10024000898190E002C08FEF9FEF0F90DF91CF91F7
:100250001F910F910895FC0184850C94A90BCF93F5
:10026000DF931F92CDB7DEB741E050E0BE016F5F74
:100270007F4FFC0184850E94A90B181619061CF4F7
:10028000898190E002C08FEF9FEF0F90DF91CF91B7
:100290000895FC018485843011F00C94870B80E074
:1002A00090E00895CF93DF93C82FD62F472F60E1BA
:1002B00070E00E949C104D2F61E170E08C2FDF9167
:1002C000CF910C949C1008958CBD9DBD0895CF9244
:1002D000DF92EF92FF921F93CF93DF93FC0114857F
:1002E000143099F1EC0180E590E00E94640168E02F
:1002F00070E0812F0E94030D0E94C5086B017C01F4
:10030000CE010E94DC008823B1F061E070E080E063
:1003100090E00E948B080E94C508DC01CB018C197B
:100320009D09AE09BF09883E9340A105B10540F380
:100330008C850E941B0CEC85F0E0EE0FFF1FE95C42
:10034000FB4F1182108284E08C87DF91CF911F9147
:10035000FF90EF90DF90CF9008958F929F92AF9291
:10036000BF92CF92DF92EF92FF920F931F93CF93A2
:100370006C015B017A01FC01C485C43041F481E069
:1003800090E0F6019383828380E090E04EC08A0182
:100390004130584010F000E018E080E590E00E9405
:1003A00064018C2F0E9401134C0163E070E08C2FDC
:1003B0000E94A610873111F08C3121F4801691062D
:1003C00060F302C000E010E080E590E00E9464016C
:1003D0009801A50160E070E08C2F0E949C1260E201
:1003E00070E08C2F0E94030D62E070E08C2F0E9461
:1003F000A61084FD10C063E070E08C2F0E94A61050
:10040000811104C08C2F0E941B0CB9CF80E590E0B5
:100410000E946401E9CF40E162E070E08C2F0E940D
:100420009C10012B09F4ABCFC701CF911F910F9105
:10043000FF90EF90DF90CF90BF90AF909F908F9004
:100440000895CF92DF92FF920F931F93CF93DF9384
:10045000FC012485243009F077C06A01EB018C018E
:10046000F12C8F2D0E94EA0C811103C0F801F48653
:1004700007C08B7F8831D1F3F394F4E0FF12F1CF02
:10048000F8018485843009F45FC020910001309127
:1004900001012F5F3F4F11F420E030EC3093010158
:1004A00020930001409100015091010120E061E0A2
:1004B0000E942F0CF801F4848A818F3F51F48B81C4
:1004C0008F3F91F48C818F3F79F48D818F3F61F460
:1004D00038C0811109C08B81811106C08C818111C6
:1004E00003C08D81882369F1C114D10451F180E5E5
:1004F00090E00E946401BE016E5F7F4F8F2D90E0FF
:10050000982F882744E050E0845F9B4F0E94FE0AAA
:10051000B6018F2D0E94520164E070E08F2D0E9481
:10052000030DC8010E94DC00873189F061E070E0B2
:1005300080E090E00E948B08C8010E94DC008111DD
:10054000F0CF84E0F801848780E090E002C081E091
:1005500090E0DF91CF911F910F91FF90DF90CF90AE
:1005600008952F923F924F925F926F927F928F9257
:100570009F92AF92BF92CF92DF92EF92FF920F9332
:100580001F93CF93DF93CDB7DEB765970FB6F8947F
:10059000DEBF0FBECDBF7C016B013A01FB0120E045
:1005A00080E090E06AE03191332309F140ED430FA0
:1005B0004A3080F4689FA001699F500D1124CA0140
:1005C000C097830F911D37FD9A958F3F910559F381
:1005D00050F313C03E3289F4233079F0D301A20FD7
:1005E000B11D12968C932F5F80E090E0DCCF23301A
:1005F00021F4F301858381E021C0F7014281538119
:10060000648175818091D2039091D303A091D4032A
:10061000B091D503481759076A077B0709F49EC1B3
:100620000E94C5088701085F1F4F6F7077277C5FA6
:10063000C8010E946F10813019F080E090E0F3C192
:1006400084E791E09A838983F70182819381A48171
:10065000B5818B839C83AD83BE8345E350E0BE01AF
:100660006F5F7F4FC8010E94A70F892B19F4C12C1F
:10067000D12C6FC10E94C508F70177836683762766
:10068000672776277A83698342E050E0BE016F5F77
:100690007F4FC8010E946F0F81E090E09E878D8799
:1006A00042E050E0BE01635F7F4FC8010E946F0FC0
:1006B00080E091E09E878D8742E050E0BE01635F5D
:1006C0007F4FC8010E946F0F1E861D8642E050E0DA
:1006D000BE01635F7F4FC8010E946F0F42E050E090
:1006E000BE01635F7F4FC8010E946F0F42E050E080
:1006F000BE01635F7F4FC8010E946F0F5601F50175
:100700008081882311F1F6015F018191811115C06B
:1007100045018C189D081814190494F48F8641E043
:1007200050E0BE01615F7F4FC8010E946F0FA401BE
:10073000B601C8010E946F0F03C08E3229F7E8CFBF
:100740006501FFEFCF1ADF0ADACF1F8641E050E0E4
:10075000BE01615F7F4FC8010E946F0FC12CDD2475
:10076000D394DE86CD8642E050E0BE01635F7F4FCA
:10077000C8010E946F0FDE86CD8642E050E0BE01C8
:10078000635F7F4FC8010E946F0FC8010E94CC10A9
:10079000892B09F46CCF63E0A62EB12CF2E06F0E2A
:1007A000711C0E94C5081B012C01C8010E94160F74
:1007B00018161906A4F00E94C508DC01CB018219A5
:1007C0009309A409B50989389341A105B105D0F46D
:1007D00062E370E080E090E00E948B08E6CFF701D2
:1007E0004281538164817581808D918DA28DB38DFD
:1007F000481759076A077B0741F4848D958DC59783
:1008000021F406C02FEF3FEF9AC02EEF3FEF97C0C5
:10081000F70181A192A10C970CF4A6C04CE050E026
:10082000BE016F5F7F4FC8010E94FC0B8B8190E07F
:10083000982F88272C81822B9A8B898B298130E0F5
:10084000322F22274A81242BF701468157814217F4
:10085000530709F086C097FF84C08F709270892B70
:1008600009F0DEC0CF80D12CDC2CCC248885C82AAE
:10087000C114D10409F4D1C0812C912C8D8190E058
:10088000982F88272E81822B8816990608F46FC02E
:10089000812C912C41E050E0BE016D5E7F4FC8017C
:1008A0000E94FC0B8B89982F907C09F093C08111DA
:1008B00086C08B898111EECF42E050E0BE01615FBE
:1008C0007F4FC8010E94FC0B42E050E0BE01635F15
:1008D0007F4FC8010E94FC0BC8010E94ED0EC801A9
:1008E0000E94ED0EC8010E94ED0EC8010E94ED0E9F
:1008F00042E050E0BE016F5E7F4FC8010E94FC0BDA
:100900008F8598898115914009F069C02D853E85B4
:100910003227232732272130310509F060C0898929
:100920009A898115944009F075C044E050E0B30104
:10093000C8012C8B3D8B0E94FC0B2C893D896901E1
:10094000F1E0AF1AB10829F02FEFC216D20609F470
:1009500028CFC8010E945A10C60165C08EEF9FEFD4
:1009600062C02CEF3FEFEBCF2DEF3FEFE8CF41E040
:1009700050E0BE01635F7F4FC8010E94FC0B8D8574
:10098000811113C08D858111F2CFC8010E94ED0E37
:10099000C8010E94ED0EC8010E94ED0EC8010E9420
:1009A000ED0EFFEF8F1A9F0A69CF8D859FEF980F8D
:1009B0009D87882339F3C8010E94ED0EF6CF8B89FD
:1009C0009FEF980F9B8B882309F473CFC8010E9477
:1009D000ED0EF5CFC8010E94ED0E1B8A6ACF412CA7
:1009E000512C89899A89982789279827481659066A
:1009F00038F4C8010E94ED0E8FEF481A580AF1CF63
:100A0000EFEF8E1A9E0A8C149D0409F043CF26EF57
:100A10003FEF95CF27EF3FEF92CF2AEF3FEF8FCFFA
:100A20002BEF3FEF8CCF65960FB6F894DEBF0FBE6D
:100A3000CDBFDF91CF911F910F91FF90EF90DF908D
:100A4000CF90BF90AF909F908F907F906F905F906E
:100A50004F903F902F900895CF92DF92EF92FF92A8
:100A60000F931F93CF93DF93CDB7DEB7AF970FB63A
:100A7000F894DEBF0FBECDBF7C016A0104E711E030
:100A80001A8309831C861B8688EE93E0A0E0B0E001
:100A90008D879E87AF87B88B84EA91E09A87898794
:100AA000188F0F8B198E1A8E1B8E1C8E84E089A3D3
:100AB0001DA30CA31EA21FA218A619A68091CA03EB
:100AC0009091CB03A091CC03B091CD038CA79DA7AF
:100AD000AEA7BFA78B839C83AD83BE8318861F827E
:100AE000AE014C5D5F4FCE0101960E94B102813094
:100AF0009105B1F4D701ED91FC910484F585E02DC9
:100B00001BA70AA78EA19FA1A8A5B9A58CA79DA7E1
:100B1000AEA7BFA7A601BE01665D7F4FC7010995BD
:100B2000AF960FB6F894DEBF0FBECDBFDF91CF9169
:100B30001F910F91FF90EF90DF90CF900895FC01EF
:100B4000918D828D981761F0828DDF01A80FB11D04
:100B50005D968C91928D9F5F9F73928F90E0089528
:100B60008FEF9FEF0895FC01918D828D981731F0E2
:100B7000828DE80FF11D858D90E008958FEF9FEF36
:100B80000895FC01918D228D892F90E0805C9F4F0C
:100B9000821B91098F73992708958BE293E00E943D
:100BA000C10521E0892B09F420E0822F0895FC0182
:100BB000848DDF01A80FB11DA35ABF4F2C91848DE6
:100BC00090E001968F739927848FA689B7892C931B
:100BD000A089B1898C9180648C93938D848D9813B6
:100BE00006C00288F389E02D80818F7D808308957F
:100BF000EF92FF920F931F93CF93DF93EC0181E06D
:100C0000888F9B8D8C8D981305C0E889F989808128
:100C100085FD24C0F62E0B8D10E00F5F1F4F0F7364
:100C20001127E02E8C8DE8120CC00FB607FCFACF0E
:100C3000E889F989808185FFF5CFCE010E94D7052B
:100C4000F1CF8B8DFE01E80FF11DE35AFF4FF082CB
:100C50000B8FEA89FB898081806207C0EE89FF895A
:100C60006083E889F98980818064808381E090E0F5
:100C7000DF91CF911F910F91FF90EF900895CF9347
:100C8000DF93EC01888D8823C9F0EA89FB89808194
:100C900085FD05C0A889B9898C9186FD0FC00FB666
:100CA00007FCF5CF808185FFF2CFA889B9898C91A7
:100CB00085FFEDCFCE010E94D705E7CFDF91CF9121
:100CC000089580E090E0892B29F00E94CD058111E4
:100CD0000C94000008953FB7F8948091D902909148
:100CE000DA02A091DB02B091DC0226B5A89B05C018
:100CF0002F3F19F00196A11DB11D3FBFBA2FA92F9B
:100D0000982F8827820F911DA11DB11DBC01CD0117
:100D100042E0660F771F881F991F4A95D1F7089503
:100D20008F929F92AF92BF92CF92DF92EF92FF92FB
:100D30000F931F93CF93DF937C018B016C0182E0B3
:100D4000C80ED11C4701E5E08E0E911CC0E0D0E03A
:100D5000F60141916F0150E060E070E02AE0C801C7
:100D60000E9479135C016EE2C8010E945D138A0D36
:100D70009B1DC80FD91FC814D90451F7F70145812D
:100D800050E060E070E02AE0C8010E9479138C0F07
:100D90009D1FDF91CF911F910F91FF90EF90DF90FA
:100DA000CF90BF90AF909F908F9008950E9471193F
:100DB0008F929F92AF92BF92CF92DF92EF92FF926B
:100DC0000F931F93CF93DF936115710509F43CC115
:100DD000DB011896EC9118970E2FEE0F110B220BDA
:100DE000330B0730110508F02FC1EC010C5C1F4FCD
:100DF000F8010C94D81666EC71E006C019968C9137
:100E0000882389F06BEC71E0CE01DF91CF911F91C7
:100E10000F91FF90EF90DF90CF90BF90AF909F9099
:100E20008F900C94641360ED71E0EECF1996CD9025
:100E3000DC901A970D2C000CEE08FF08F7FE12C08C
:100E40006DE20E945D138C0144275527BA014C19AD
:100E50005D096E097F092AE0CE010E947913800F97
:100E6000911FF4C02AE0B701A601DF91CF911F9135
:100E70000F91FF90EF90DF90CF90BF90AF909F9039
:100E80008F900C9479131996CD90DD90ED90FC9095
:100E90001C9720E030E0A901C701B6010E94A0190B
:100EA00087FF09C066ED71E0CE010E940E14F7FACB
:100EB000F094F7F8F094C701B6010E944B174B016C
:100EC0005C012AE0AB01BC01CE010E9479136FEFF7
:100ED00071E0CE010E940E14C501B4010E94A51953
:100EE0009B01AC01C701B6010E94DE162CEA35EC6D
:100EF00047EA56E30E94DF166B017C0105E010E033
:100F000020E030E040E251E4C701B6010E94061A39
:100F10004B015C010E944B176B01E12CF12C2AE084
:100F2000B701A601CE010E947913C701B6010E9444
:100F3000A5199B01AC01C501B4010E94DE166B012D
:100F40007C0120E030E0A9010E94A019882309F467
:100F50007BC001501109A1F677C019966D917C9163
:100F60001A97DF91CF911F910F91FF90EF90DF9033
:100F7000CF90BF90AF909F908F900C94500A169690
:100F80000D911C9117976BE50E945D13019689F4F2
:100F90008FEF9FEF5BC0B801CE010E94D80601968B
:100FA000B9F3D80112960D911C91139701151105F3
:100FB00021F40115110579F707C06CE2CE010E94FA
:100FC0005D130196B1F7E4CF6DE530C016960D9133
:100FD0001C9117976BE70E945D130196C9F20115EA
:100FE000110519F1D8016D917C91CE010E94500A32
:100FF000019671F26AE3CE010E945D13019641F2FF
:10100000B801CE010E94D806019611F2D8011296BD
:101010000D911C9113970115110509F36CE2CE0196
:101020000E945D130196D9F6B3CF6DE7CE010E9401
:101030005D1321E030E0019611F020E030E08827D8
:101040009927821B930B02C080E090E0DF91CF9143
:101050001F910F91FF90EF90DF90CF90BF90AF90D6
:101060009F908F9008951F920F920FB60F921124A8
:101070002F933F934F935F936F937F938F939F93A0
:10108000AF93BF93EF93FF938BE293E00E94D7055A
:10109000FF91EF91BF91AF919F918F917F916F9150
:1010A0005F914F913F912F910F900FBE0F901F9026
:1010B00018951F920F920FB60F9211242F938F93B2
:1010C0009F93EF93FF93E0913B03F0913C0380816A
:1010D000E0914103F091420382FD12C09081809122
:1010E00044038F5F8F7320914503821751F0E09185
:1010F0004403F0E0E55DFC4F958F8093440301C00D
:101100008081FF91EF919F918F912F910F900FBE52
:101110000F901F9018958F929F92AF92BF92CF928F
:10112000DF92EF92FF926B017C010E946B064B01F4
:101130005C01C114D104E104F104F1F00E946B06DA
:10114000DC01CB0188199909AA09BB09883E9340A3
:10115000A105B10570F321E0C21AD108E108F10838
:1011600088EE880E83E0981EA11CB11CC114D10426
:10117000E104F10419F7DDCFFF90EF90DF90CF90FD
:10118000BF90AF909F908F9008952FB7F894609183
:10119000D5027091D6028091D7029091D8022FBFCC
:1011A00008951F920F920FB60F9211242F933F9321
:1011B0008F939F93AF93BF938091D5029091D60266
:1011C000A091D702B091D8023091D40223E0230F2E
:1011D0002D3720F40196A11DB11D05C026E8230F6F
:1011E0000296A11DB11D2093D4028093D502909345
:1011F000D602A093D702B093D8028091D9029091E1
:10120000DA02A091DB02B091DC020196A11DB11DB2
:101210008093D9029093DA02A093DB02B093DC02B0
:10122000BF91AF919F918F913F912F910F900FBEE2
:101230000F901F901895FC01A285B3851097A9F017
:1012400086859785029788F0CD01019693878287DE
:101250006C93868597850197978786870284F385A7
:10126000E02D108281E090E0089580E090E0089504
:10127000FC01868197818F3F2FEF920729F02FEF96
:101280003FEF378326830895A085B185109789F0B5
:10129000248535852115310561F0CD0101969187B1
:1012A00080878C912150310935872487082E000CC6
:1012B000990B0895FC0186819781019639F481E0AC
:1012C00024853585232B19F480E0089581E0089565
:1012D000CF92DF92EF92FF920F931F93CF93DF9302
:1012E0007C016A018B01C0E0D0E0CC15DD0589F0FE
:1012F000D701ED91FC910680F781E02DC70109959A
:101300008F3FBFEF9B0729F0F80181938F01219652
:10131000ECCFCE01DF91CF911F910F91FF90EF9015
:10132000DF90CF900895CF93DF931F92CDB7DEB7B4
:10133000DC01ED91FC910484F585E02D698309952C
:10134000DC01ED91FC910190F081E02D69810F901D
:10135000DF91CF910994062E000C770BFC01778367
:1013600066830895CF93DF93DC0116962D913C910F
:1013700017972F3F3F4F31F5EC01E881F981048445
:10138000F585E02DCE010995DC01ED91FC910480FD
:10139000F581E02D0995892B99F0E881F981068086
:1013A000F781E02DCE0109958132910534F3E88172
:1013B000F9810284F385E02D682FCE01099502C0E2
:1013C00080E001C081E0DF91CF910895FC0184812C
:1013D000958108950895CF92DF92EF92FF92CF9377
:1013E000DF93EC018E819F818F3F2FEF920759F0A1
:1013F0002FEF3FEF3F832E83DF91CF91FF90EF9050
:10140000DF90CF9008950E94C5086B017C01A4EF86
:10141000CA0EA1E0DA1EE11CF11CE881F981048406
:10142000F585E02DCE010995DC01ED91FC9104805C
:10143000F581E02D0995892B39F40E94C5086C15BA
:101440007D058E059F0548F3E881F9810484F585C3
:10145000E02DCE010995DC01ED91FC910680F7812C
:10146000E02DDF91CF91FF90EF90DF90CF90099426
:101470001F93CF93DF93182F66E270E00E94A610AF
:10148000C82FD0E067E270E0812F0E94A610DC2F09
:10149000CC279E01282BC901DF91CF911F91089580
:1014A0000F931F93CF93DF93EC018B0163E372E003
:1014B0000E940E1401151105B9F1F80161918F0117
:1014C000662391F1603220F0623211F06C3541F503
:1014D0006CE5CE010E945D13F801319780818C305C
:1014E000D1F044F48930D9F08A30B9F0883029F746
:1014F00062E616C0823259F024F48D30F1F662E7CC
:101500000FC08F3231F08C35C1F66CE509C062E254
:1015100007C06FE205C066E603C06EE601C064E77F
:10152000CE010E945D13C9CF62E2CE010E945D131D
:1015300080E090E0DF91CF911F910F9108958DE0B1
:1015400090E00E947A17009729F02DE0FC0111929B
:101550002A95E9F708952A9A08952A9808951F93DD
:10156000CF93DF93182F60E270E00E94A610C82F7F
:10157000D0E061E270E0812F0E94A610DC2FCC2722
:101580009E01282BC901DF91CF911F9108958EBD37
:1015900000000DB407FEFDCF8EB50895CF92DF9207
:1015A000EF92FF920F931F93CF93DF93EC017A0199
:1015B0008B016C01C40ED51ECC15DD05A9F00E946F
:1015C000AD0A8FE00E94C70A8D2F0E94C70A8C2F98
:1015D0000E94C70A219680E00E94C70AF801819301
:1015E0008F010E94AB0AE8CFC701DF91CF911F9115
:1015F0000F91FF90EF90DF90CF900895CF92DF9200
:10160000EF92FF920F931F93CF93DF93EC017A0138
:101610008B016C01C40ED51ECC15DD05A1F00E9416
:10162000AD0A80EF0E94C70A8D2F0E94C70A8C2F37
:101630000E94C70A2196F80181918F010E94C70A72
:101640000E94AB0AE9CFC701DF91CF911F910F91A3
:10165000FF90EF90DF90CF9008951F93CF93DF938B
:1016600000D0CDB7DEB7182F6A8399830E94AD0AE8
:1016700080EF0E94C70A9981892F0E94C70A812F93
:101680000E94C70A6A81862F0E94C70A0E94AB0A7D
:1016900081E00F900F90DF91CF911F9108951F93DC
:1016A000CF93DF9300D0CDB7DEB7182F80E590E061
:1016B00069837A830E94640121E041E050E06981FE
:1016C0007A81812F0E94130D0E94630181E090E0D6
:1016D0000F900F90DF91CF911F910895CF93DF93DB
:1016E0001F92CDB7DEB7FC01218D328D232B49F03F
:1016F000BE016F5F7F4F808D0E944F0B898190E00C
:1017000002C08FEF9FEF0F90DF91CF910895FF926E
:101710000F931F93CF93DF93F82E80E590E00E9404
:101720006401C0E0D0E08F2D0E94380A8C01892B23
:1017300021F08F2D0E94380AEC01C017D10799F7CC
:101740000E946301CE01DF91CF911F910F91FF9015
:101750000895AF92BF92CF92DF92EF92FF921F93C4
:10176000CF93DF93182F5B017A0180E590E00E9410
:101770006401C0E0D0E0812F0E94380A6C01892BFF
:1017800021F0812F0E94380AEC01CC15DD0599F774
:10179000209799F463E070E0812F0E94A6108431B5
:1017A000F1F08823E1F0C1E0D0E08C3111F4C0E029
:1017B000D0E0D195C195D10912C0EC16FD060CF40C
:1017C000E7011C161D065CF420E0AE01B501812F77
:1017D0000E94130D60E470E0812F0E94030D0E94AF
:1017E0006301CE01DF91CF911F91FF90EF90DF90C9
:1017F000CF90BF90AF900895CF93DF93FC01218DE0
:10180000328D2115310519F48FEF9FEF11C0EC01D6
:101810004217530708F0A901888D0E94A90B1816DA
:10182000190694F7298D3A8D281B390B3A8F298F89
:10183000DF91CF910895CF93C82F80E590E00E946B
:10184000640160E170E08C2F0E94030D4FEF62E0B5
:1018500070E08C2F0E949C10CF910C946301FF923A
:101860000F931F93CF93DF9300D0CDB7DEB7F82E41
:101870008A012A8369830E941B0C80E590E00E9404
:1018800064012A816981462F422B60E070E08F2D30
:101890000E949C100115110551F40091180310913C
:1018A00019030F5F1F4F1093190300931803412F63
:1018B00064E070E08F2D0E949C10402F65E070E086
:1018C0008F2D0E949C1061E070E08F2D0E94030D0F
:1018D0000E94630181E00F900F90DF91CF911F91E3
:1018E0000F91FF900895BF92CF92DF92EF92FF92F7
:1018F0000F931F93CF93DF9300D000D000D0CDB7CC
:10190000DEB7FC01208D243009F053C06A017B0151
:101910008C01B12C63E070E08B2D0E94A610811128
:1019200003C0F801B08E06C08831D9F3B394F4E057
:10193000BF12F0CFF801808D8430D9F196E0EEE14E
:10194000F1E0DE01119601900D929A95E1F7F70111
:1019500093819F779C8394819D8395819E83B7011A
:101960006E5F7F4F90E0982F882744E050E0845FBF
:101970009B4F0E94FE0AB601F801808D0E94520121
:10198000F801808D90E0982F882746E050E0BE0156
:101990006F5F7F4F8A5F9B4F0E94FE0AF801128E95
:1019A000118E20E8A60162E0808D0E942F0C81E05C
:1019B00001C080E026960FB6F894DEBF0FBECDBF03
:1019C000DF91CF911F910F91FF90EF90DF90CF901B
:1019D000BF9008951F93CF93DF931F92CDB7DEB7CB
:1019E000182F80E590E00E94640163E070E0812F91
:1019F0000E94A61089830E94630189810F90DF9164
:101A0000CF911F910895CF93C82F462F61E070E0CA
:101A10000E949C1061E070E08C2F0E94A610811142
:101A2000F9CFCF9108958F929F92AF92BF92CF92AC
:101A3000DF92EF92FF920F931F93CF93DF93B82E15
:101A40004B018A01A22E68E270E00E94A610C82F06
:101A5000D0E069E270E08B2D0E94A610DC2FCC272D
:101A6000C82B9E013770CB2CD12CC601880F991F33
:101A7000AC014D5D5C4F6A01FA0180819181820F5A
:101A8000931FA801420F531F4130584098F060E067
:101A900078E07B01E21AF30AA701B4010E94CE0AA2
:101AA000A8014E195F09B4016E0D7F1DF6018081FA
:101AB000918102C0A801B4010E94CE0AA1100EC0FB
:101AC000C00FD11F4D2F68E270E08B2D0E949C103B
:101AD0004C2F69E270E08B2D0E949C10DF91CF911A
:101AE0001F910F91FF90EF90DF90CF90BF90AF903C
:101AF0009F908F9008950F931F93CF93DF938C0146
:101B0000C0E0D0E0F801EC0FFD1F6491662371F096
:101B1000E0912B03F0912C030190F081E02D8BE2FA
:101B200093E00995892B11F02196ECCFCE01DF913E
:101B3000CF911F910F9108950F931F93CF93DF9330
:101B400000D000D000D0CDB7DEB78C0184E791E0A3
:101B50009A8389838091EA039091EB03A091EC032F
:101B6000B091ED038B839C83AD83BE8348E557E042
:101B7000BE016F5F7F4F8EEE93E00E942102892BA2
:101B800009F448C065E372E08BE293E00E94DF1342
:101B90006FE472E08EEE93E00E940E146CE572E04A
:101BA0008EEE93E00E94DF1366E672E08EEE93E025
:101BB0000E940E1468EE73E08EEE93E00E94C6134E
:101BC0006DE672E08EEE93E00E94DF136FE772E045
:101BD0008EEE93E00E940E14F8014481558160E07E
:101BE00070E02AE08EEE93E00E9479138EEE93E08F
:101BF0000E94C21360E972E08EEE93E00E94DF1350
:101C00008EEE93E00E94C213B8018EEE93E00E9424
:101C1000F11318C087EC90E00E947B0D8BE293E0FB
:101C20000E94C2130FC08EEE93E00E944901892BDF
:101C300049F08EEE93E00E942F01682F8BE293E033
:101C40000E945D138EEE93E00E94E4008111EBCFC1
:101C500060EC72E08BE293E00E94DF138EEE93E083
:101C60000E94670126960FB6F894DEBF0FBECDBF67
:101C7000DF91CF911F910F910895EBE2F3E0A089DE
:101C8000B18982E08C93A485B5851C92A685B78521
:101C90008FEC8C93108EA489B58986E08C93A289F1
:101CA000B3898C9180618C93A289B3898C9188606F
:101CB0008C93A289B3898C9180688C930288F38974
:101CC000E02D80818F7D80830895EF92FF920F93A6
:101CD0001F93CF93DF934115510521F1EA017B0159
:101CE0008C0188819981009711F00E940F18C7011B
:101CF0000E94761999838883D8011696ED91FC91FC
:101D00001797309729F41796DC93CE9316970AC04D
:101D100082819381009711F0FC01FACFD383C283B3
:101D2000FD83EC83DF91CF911F910F91FF90EF9096
:101D3000089590E0FC01ED54FF4F2491FC01E15621
:101D4000FF4F8491882399F090E0880F991FFC0140
:101D5000EB56FF4FA591B491FC01E557FF4F8591DC
:101D600094918FB7F894EC91E22BEC938FBF089588
:101D7000CF93DF931F92CDB7DEB76983DC01ED917E
:101D8000FC910280F381E02D41E050E0BE016F5FE5
:101D90007F4F09950F90DF91CF910895FC01818DC0
:101DA000928D0895FC0184899589089524E731E096
:101DB000FC0131832083FB01408951896289738949
:101DC000FC0142835383648375830895DC01ED91A4
:101DD000FC91008CF18DE02D09940F931F93CF930C
:101DE000DF931F92CDB7DEB7FC01218D328D232BFF
:101DF00061F08C0141E050E0BE016F5F7F4F808D4C
:101E00000E94A90B181619061CF08FEF9FEF08C04F
:101E1000F801818D928D0197928F818F898190E059
:101E20000F90DF91CF911F910F9108950F931F9302
:101E3000CF93DF93CDB7DEB728970FB6F894DEBF08
:101E40000FBECDBF8C01F801818D928D892B49F099
:101E5000D801ED91FC910680F781E02DC80109952C
:101E6000F2CF808D0E94870B181619065CF548E0AA
:101E700050E0BE016F5F7F4FD80158968C910E9451
:101E8000A90B9C0118161906DCF489819A81AB8193
:101E9000BC81F801808B918BA28BB38B8D8190E0FC
:101EA000982F88272E81820F911D958B848B2F81EF
:101EB00030E0322F22278885280F311D328F218F65
:101EC000C90102C080E090E028960FB6F894DEBF0A
:101ED0000FBECDBFDF91CF911F910F910895AF92AB
:101EE000BF92CF92DF92FF920F931F93CF93DF9316
:101EF0008C015B01EA01FC01C688D788F08C80E583
:101F000090E00E9464018F2D0E9401138C179D07A1
:101F100020F48F2D0E940113EC019E01A501B60152
:101F20008F2D0E949C120E946301F8018689978977
:101F30008C0F9D1F978B868BCE01DF91CF911F91C8
:101F40000F91FF90DF90CF90BF90AF900895FF92D8
:101F50000F931F93CF93DF93FB01DC0157961C92E5
:101F60001E9256975896FC908281811109C08381F8
:101F7000811106C08481811103C085818823F9F015
:101F800041155105E1F08A01EF0180E590E00E94E2
:101F90006401BE016E5F7F4F2F2D30E0922F8827A6
:101FA00044E050E0845F9B4F0E94FE0AB8018F2DF1
:101FB0000E9452010E94630181E090E002C080E033
:101FC00090E0DF91CF911F910F91FF900895CF92F4
:101FD000DF92EF92FF920F931F93CF93DF93CDB7D2
:101FE000DEB7AF970FB6F894DEBF0FBECDBF7C0152
:101FF0006A0104E711E01A8309831C861B8688EEB8
:1020000093E0A0E0B0E08D879E87AF87B88B84EA2D
:1020100091E09A878987188F0F8B198E1A8E1B8EE5
:102020001C8E84E089A31DA30CA31EA21FA218A6C8
:1020300019A68091CA039091CB03A091CC03B091D3
:10204000CD038CA79DA7AEA7BFA78B839C83AD8331
:10205000BE8318861F82AE014C5D5F4FCE01019694
:102060000E94B10281309105B1F4D701ED91FC914C
:102070000088F189E02D1BA70AA78EA19FA1A8A522
:10208000B9A58CA79DA7AEA7BFA7A601BE01665D97
:102090007F4FC7010995AF960FB6F894DEBF0FBE0C
:1020A000CDBFDF91CF911F910F91FF90EF90DF9007
:1020B000CF900895CF93DF93EC01888D843061F049
:1020C0000E941B0CE88DF0E0EE0FFF1FE95CFB4F58
:1020D0001182108284E0888FDF91CF910895EF9272
:1020E000FF921F93CF93DF93FC01208D243011F0DA
:1020F00080E01CC07B01EC0110E0812F0E94EA0C03
:10210000811102C0188F05C08831E1F31F5F1430C0
:10211000A1F7888D843061F3FD86EC861A8E198EC6
:1021200020E0A70162E00E942F0C81E0DF91CF91B7
:102130001F91FF90EF9008959B0190E00496982FD7
:102140008827642F820F931F0C942D0B0F931F93DE
:10215000CF93DF931F92CDB7DEB790E00496982F10
:1021600088278C01060F171F0E94AD0A8FE00E947E
:10217000C70A812F0E94C70A802F0E94C70A80E0E9
:102180000E94C70A89830E94AB0A89810F90DF9160
:10219000CF911F910F910895CF93FC01C08D80E5E1
:1021A00090E00E94640160E270E08C2F0E94030DB9
:1021B00062E070E08C2F0E94A61084FD19C062E0DE
:1021C00070E08C2F0E94A61083FF0BC048E162E0F4
:1021D00070E08C2F0E949C100E94630180E090E0D0
:1021E00011C00E94630180E590E00E946401E0CF8D
:1021F00040E162E070E08C2F0E949C100E9463011D
:1022000081E090E0CF910895CF92DF92EF92FF921C
:102210000F931F93CF93DF936C017A018B01C0E082
:10222000D0E0CE15DF0589F0D8016D918D01D60182
:10223000ED91FC910190F081E02DC6010995892B6B
:1022400011F47E0102C02196ECCFC701DF91CF913E
:102250001F910F91FF90EF90DF90CF900895CF9254
:10226000DF92EF92FF920F931F93CF93DF93CDB73F
:10227000DEB7C254D1090FB6F894DEBF0FBECDBF92
:102280008C01FB0182819381A481B58123968CAF5F
:102290009DAFAEAFBFAF239721E023962FAF23971B
:1022A00023964CAD5DAD6EAD7FAD23974BAB5CAB74
:1022B0006DAB7EAB89AF9AAFABAFBCAF8DA79EA71E
:1022C000AFA7B8AB28AB4DA55EA56FA578A94FA366
:1022D00058A769A77AA72EAB4BA95CA96DA97EA9BF
:1022E00049A35AA36BA37CA38B8F9C8FAD8FBE8F0A
:1022F00044E751E05C8B4B8B3FEF3D8B3E8B3F8B3C
:10230000188E5E874D872AA7CFA0D8A4E9A4FAA487
:10231000CF86D88AE98AFA8A2CA3C9A0DAA0EBA0D2
:10232000FCA0C986DA86EB86FC865A8349838B83B8
:102330009C83AD83BE836CE271E080E090E00E94FC
:102340008B08FFB6F89480913F04811163C029EA9D
:1023500030E0F90184914DEB50E0FA01649190E096
:10236000880F991F8B569F4FFC01A591B4918C91BA
:10237000682309F040C0E3EEF0E08491FA01449153
:10238000F90124912223B9F1882339F1833091F0A6
:1023900038F48130A9F0823001F584B58F7D12C008
:1023A000873091F08830A1F08430B9F480918000BA
:1023B0008F7D03C0809180008F77809380000DC057
:1023C00084B58F7784BD09C08091B0008F7703C03A
:1023D0008091B0008F7D8093B000E22FF0E0EE0F8F
:1023E000FF1FE557FF4FA591B4918FB7F8949C91CB
:1023F000492B4C938FBF8AE00E94990E8CB5806167
:102400008CBD8CB580648CBD8DE00E94990E8BE0F4
:102410000E94990E80913F048F5F80933F04FFBE1E
:10242000229A80E590E00E94640160E880E090E0FC
:102430000E942D0B65E58BE190E00E942D0B65E578
:102440008AE190E00E942D0B0E94630180E090E4FD
:1024500090931C0380931B0380E090E690932403E9
:102460008093230380E098E490931E0380931D03E0
:1024700080E098E6909326038093250380E090E522
:102480009093200380931F0380E090E790932803AC
:102490008093270380E098E59093220380932103A3
:1024A00080E098E790932A038093290380E590E0E9
:1024B0000E94640146E050E0B80189E090E00E948B
:1024C000FE0A44E050E0BE016D5F7F4F8FE090E078
:1024D0000E94FE0A44E050E0BE01615F7F4F81E050
:1024E00090E00E94FE0A44E050E0BE016B5E7F4F28
:1024F00085E090E00E94FE0A0E94630181E08C87E3
:1025000089859A85AB85BC858093CA039093CB035C
:10251000A093CC03B093CD03CE5BDF4F0FB6F894FE
:10252000DEBF0FBECDBFDF91CF911F910F91FF9006
:10253000EF90DF90CF9008959F92AF92BF92CF928D
:10254000DF92EF92FF920F931F93CF93DF93982E1A
:102550008B015A01690164E270E00E94A610E82E26
:10256000F12C65E270E0892D0E94A610FE2CEE246D
:10257000E82AE701C00FD11F9E013770E92CF12C2A
:10258000C701880F991FAC01455E5C4F7A01FA01C3
:1025900080819181820F931FA9014C0D5D1D4130F7
:1025A000584090F000E018E0021B130BA801B501A1
:1025B0000E94FE0AA601401B510BB501600F711F5E
:1025C000F7018081918102C0A601B5010E94FE0A37
:1025D000CC0DDD1D4D2F64E270E0892D0E949C1012
:1025E0004C2F65E270E0892DDF91CF911F910F9103
:1025F000FF90EF90DF90CF90BF90AF909F900C94A2
:102600009C10FF920F931F93CF93DF93F82EC0E09F
:10261000D0E08F2D0E94AF0A8C01892B21F08F2DE5
:102620000E94AF0AEC01C017D10799F7CE01DF91E4
:10263000CF911F910F91FF900895EF92FF920F930A
:102640001F93CF93DF93EC017B018A0188819981ED
:10265000009729F02A813B8124173507F8F4B80147
:102660006F5F7F4F0E94A718009759F09983888366
:102670001B830A832C813D81232B81F4FC01108272
:102680000DC088819981009711F00E940F1819825E
:1026900018821D821C821B821A8207C01D830C8334
:1026A000B701888199810E949919CE01DF91CF915C
:1026B0001F910F91FF90EF900895DC01ED91FC9137
:1026C0000190F081E02D09946115710579F0FB010D
:1026D00001900020E9F73197AF01461B570BDC0151
:1026E000ED91FC910280F381E02D099480E090E06F
:1026F00008954F925F926F927F92EF92FF920F93A5
:102700001F93CF93DF93CDB7DEB7A1970FB6F894A1
:10271000DEBF0FBECDBF7C01FA01CB0119A2223072
:1027200008F42AE08E010F5D1F4F422E512C612CC0
:10273000712CBF01A30192010E94C41AF901CA01C0
:10274000015011096A3014F4605D01C0695CD80160
:102750006C93232B242B252B61F7B801C7010E9412
:102760006413A1960FB6F894DEBF0FBECDBFDF9104
:10277000CF911F910F91FF90EF907F906F905F909E
:102780004F90089567EE71E00C9464130F931F93BC
:10279000CF93DF93EC01CB01DB01ED91FC91019034
:1027A000F081E02DBE0109958C01CE010E94C2137B
:1027B000800F911FDF91CF911F910F9108950F937B
:1027C0001F93CF93DF93EC010E9464138C01CE0121
:1027D0000E94C213800F911FDF91CF911F910F9123
:1027E00008950F931F93CF93DF93EC01E881F98154
:1027F000DB0114964D915C9115976D917C9102804F
:10280000F381E02D09958C01CE010E94C213800F47
:10281000911FDF91CF911F910F9108950C94641334
:102820008091FB039091FC030C940F18CF93DF93DE
:10283000CDB7DEB760970FB6F894DEBF0FBECDBF41
:10284000789484B5826084BD84B5816084BD85B58B
:10285000826085BD85B5816085BD80916E00816097
:1028600080936E001092810080918100826080933D
:10287000810080918100816080938100809180003F
:102880008160809380008091B10084608093B1006A
:102890008091B00081608093B00080917A00846064
:1028A00080937A0080917A00826080937A00809190
:1028B0007A00816080937A0080917A0080688093AA
:1028C0007A001092C100109212031092130310921A
:1028D0001403109215031092E0021092E10210927C
:1028E000E2021092E30260ED77E080E090E00E9467
:1028F0008B088BE293E090931103809310030E9466
:102900003D0E0E94C5080091E0021091E102209165
:10291000E2023091E302DC01CB01801B910BA20BA0
:10292000B30B84369105A105B10538F463E070E07E
:1029300080E090E00E948B08E4CF0E94C50860937D
:10294000E0027093E1028093E2029093E30268ED6B
:1029500071E080911003909111030E940E146AE0BF
:1029600070E080E090E00E948B0881E08093E402B8
:102970000E949F0A009719F026E0FC01208790939F
:10298000DE028093DD020E943D0E6AEE71E08BE272
:1029900093E00E94DF1386E790E00E947B0D8BE2BC
:1029A00093E00E94C21304E711E01A830983809127
:1029B000E4039091E503A091E603B091E7038B83D4
:1029C0009C83AD83BE83BE016F5F7F4F86ED93E036
:1029D0000E942F1161E072E08BE293E00E940E14DE
:1029E0001A8309831B821C821D821E8280E590E06F
:1029F0000E94640144E050E0BE016D5F7F4F8FE0B4
:102A000090E00E94CE0A0E946301BE016F5F7F4F7B
:102A10008BE293E00E94C61368EE73E080E090E0E2
:102A20000E948B080E949F0A7C01892B51F084E050
:102A3000F701808781E192E00E947619F701928781
:102A40008187C090DD02D090DE02A70161E272E0D2
:102A5000C6010E94650E0E949F0A7C01892B51F0DD
:102A600084E0F701808788E192E00E947619F701FF
:102A700092878187A7016EE172E0C6010E94650E10
:102A80000E949F0A009739F022E0FC01208729EB81
:102A900030E032872187AC0166E272E0C6010E9415
:102AA000650E0E949F0A009739F022E0FC01208702
:102AB0002CE030E032872187AC016BE272E0C60186
:102AC0000E94650E80E091E00E947A177C01892BBC
:102AD000D9F01C821B821E821D828FEF9FEF988788
:102AE0008F8380E191E09A8389831A861986FC8618
:102AF000EB8680E091E0988B8F871E861D86B6015D
:102B0000CE0101960E94D806E114F10471F0F7019C
:102B100001900020E9F73197AF014E195F09B70125
:102B20008BEF93E00E941D1314C08091FB039091E2
:102B3000FC03009711F00E940F181092FC031092F2
:102B4000FB03109200041092FF031092FE031092F8
:102B5000FD038BE293E00E94C105892B09F454C068
:102B60008BE293E00E949F058136910509F04CC0ED
:102B70006BEF73E08BE293E00E94F1131A821982EB
:102B80001C821B821E821D826091FB037091FC03DC
:102B90006115710541F04091FF0350910004CE0191
:102BA00001960E941D13CE0101960E949C0D898101
:102BB0009A810E940F18C0901603D0901703C60187
:102BC000019690931703809316030D2C000CEE08CA
:102BD000FF08F7FE0EC06DE28BE293E00E945D13EA
:102BE00044275527BA014C195D096E097F092AE06F
:102BF00003C02AE0B701A6018BE293E00E9479139B
:102C00008BE293E00E94C2130E946106A2CFCF9292
:102C1000DF92EF92FF92CF93DF93E7E0F4E0C4E717
:102C2000D1E0D183C0831282138214821582EBE239
:102C3000F3E01382128288EEC82E83E0D82EE12CB6
:102C4000F12CC482D582E682F78288E291E09183FA
:102C5000808385EC90E09587848784EC90E097876B
:102C6000868780EC90E0918B808B81EC90E0938B59
:102C7000828B82EC90E0958B848B86EC90E0978B36
:102C8000868B118E128E138E148EEDE0F4E0D183BC
:102C9000C0831282138214821582E3E1F4E0D183AF
:102CA000C0831282138214821582E9E1F4E0D18399
:102CB000C0831282138214821582EFE1F4E0D18383
:102CC000C0831282138214821582E5E2F4E0D1837C
:102CD000C0831282138214821582EBE2F4E0D18366
:102CE000C0831282138214821582E8ECF3E0D18350
:102CF000C0831282138214821582E0EDF3E0D18347
:102D0000C0831282138214821582E1E3F4E0D1833E
:102D1000C0831282138214821582E1E0F4E0D18331
:102D2000C0831282138214821582EBEFF3E01182CA
:102D30001082138212821582148240E050E069EE04
:102D400071E0CF010E941D13E6EDF3E0D183C08353
:102D500080EC828390E89383148291E09583D783FB
:102D6000C6839FEF9087918712861386D587C48785
:102D7000868798EA9787108A2AE0218BD38BC28BAB
:102D8000848B958B168A8BE0878B138E128EC48E64
:102D9000D58EE68EF78E80E591E0918F808F84E06E
:102DA00084A3DF91CF91FF90EF90DF90CF900895B3
:102DB000EE0FFF1F0590F491E02D09945058BB27AA
:102DC000AA270E94F6160C948A1A0E947C1A38F0E0
:102DD0000E94831A20F039F49F3F19F426F40C94D2
:102DE000791A0EF4E095E7FB0C94731AE92F0E9410
:102DF0009B1A58F3BA17620773078407950720F0E8
:102E000079F4A6F50C94BD1A0EF4E0950B2EBA2FAA
:102E1000A02D0B01B90190010C01CA01A0011124E0
:102E2000FF27591B99F0593F50F4503E68F11A168C
:102E3000F040A22F232F342F4427585FF3CF46951D
:102E400037952795A795F0405395C9F77EF41F163F
:102E5000BA0B620B730B840BBAF09150A1F0FF0F09
:102E6000BB1F661F771F881FC2F70EC0BA0F621FF5
:102E7000731F841F48F4879577956795B795F795E5
:102E80009E3F08F0B0CF9395880F08F09927EE0F7A
:102E90009795879508950E94A31A88F09F5798F0F8
:102EA000B92F9927B751B0F0E1F0660F771F881F4F
:102EB000991F1AF0BA95C9F714C0B13091F00E9469
:102EC000BD1AB1E008950C94BD1A672F782F88279A
:102ED000B85F39F0B93FCCF3869577956795B39590
:102EE000D9F73EF490958095709561957F4F8F4FFF
:102EF0009F4F0895CF93DF938230910510F482E0C5
:102F000090E0E0914204F091430420E030E0C0E022
:102F1000D0E0309711F14081518148175907C0F036
:102F20004817590761F482819381209719F09B8398
:102F30008A832BC0909343048093420426C02115BA
:102F4000310519F04217530718F49A01BE01DF0149
:102F5000EF010280F381E02DDCCF2115310509F16D
:102F6000281B390B2430310590F412968D919C91D9
:102F700013976115710521F0FB019383828304C0CF
:102F80009093430480934204FD01329644C0FD01B6
:102F9000E20FF31F81939193225031092D933C93BB
:102FA0003AC02091400430914104232B41F42091F8
:102FB0000401309105013093410420934004209195
:102FC0000201309103012115310541F42DB73EB7BF
:102FD0004091060150910701241B350BE0914004FC
:102FE000F0914104E217F307A0F42E1B3F0B2817C2
:102FF000390778F0AC014E5F5F4F2417350748F072
:103000004E0F5F1F5093410440934004819391936E
:1030100002C0E0E0F0E0CF01DF91CF9108950F937F
:103020001F93CF93DF93009709F48CC0FC01329774
:10303000138212820091420410914304011511057C
:1030400081F420813181820F931F209140043091BF
:1030500041042817390779F5F0934104E0934004BF
:1030600071C0D80140E050E0AE17BF0750F412968F
:103070002D913C911397AD012115310509F1D9012D
:10308000F3CF9D01DA013383228360817181860F42
:10309000971F8217930769F4EC0128813981260F65
:1030A000371F2E5F3F4F318320838A819B8193831B
:1030B0008283452B29F4F0934304E093420442C0F9
:1030C0001396FC93EE931297ED01499159919E014D
:1030D000240F351FE217F30771F480819181840F6B
:1030E000951F029611969C938E93828193811396DD
:1030F0009C938E931297E0E0F0E0D80112968D91A8
:103100009C911397009719F0F8018C01F6CF8D91DF
:103110009C9198012E5F3F4F820F931F2091400496
:10312000309141042817390769F4309729F4109237
:1031300043041092420402C013821282109341048D
:1031400000934004DF91CF911F910F910895A0E06B
:10315000B0E0EDEAF8E10C94EA1AEC01009721F4F2
:10316000CB010E947A17B8C0FC01E60FF71F9C0143
:1031700022503109E217F30708F4ACC0D9010D91D0
:103180001C91119706171707B0F00530110508F4C8
:103190009FC0C80104978617970708F499C002508A
:1031A0001109061B170B019311936D937C93CF01AB
:1031B0000E940F188DC05B01A01AB10A4C01800E4D
:1031C000911EA0914204B091430440E050E0E12CF4
:1031D000F12C109709F44AC0A815B905D1F56D90E6
:1031E0007C901197630182E0C80ED11CCA14DB04E5
:1031F00080F1A3014A195B096A0182E0C80ED11C63
:103200001296BC9012971396AC91B5E0CB16D104F0
:1032100040F0B282A38351834083D9016D937C93A4
:103220000AC00E5F1F4FC301800F911FF9019183E8
:103230008083EB2DFA2FE114F10431F0D7011396BE
:10324000FC93EE93129744C0F0934304E09342043E
:103250003FC08D919C9111974817590708F4AC0114
:103260007D0112960D90BC91A02DB3CF80914004AA
:103270009091410488159905E1F446175707C8F461
:103280008091020190910301009741F48DB79EB7A0
:103290004091060150910701841B950BE817F9072F
:1032A000C8F4F0934104E0934004F9017183608312
:1032B0000FC0CB010E947A177C01009759F0A8013A
:1032C000BE010E949019CE010E940F18C70104C0D0
:1032D000CE0102C080E090E0CDB7DEB7EEE00C9406
:1032E000061B81E090E0F8940C941D1B0F931F9334
:1032F000CF93DF938C01FC0101900020E9F7CF010F
:10330000801B910B0E947A17EC01009719F0B8010D
:103310000E949919CE01DF91CF911F910F910895CD
:10332000FB01DC0102C001900D9241505040D8F7E2
:103330000895FB01DC0101900D920020E1F7089552
:103340000E94E21908F481E00895E89409C097FB0F
:103350003EF490958095709561957F4F8F4F9F4F6C
:103360009923A9F0F92F96E9BB279395F6958795B0
:1033700077956795B795F111F8CFFAF4BB0F11F473
:1033800060FF1BC06F5F7F4F8F4F9F4F16C088231A
:1033900011F096E911C0772321F09EE8872F762F50
:1033A00005C0662371F096E8862F70E060E02AF091
:1033B0009A95660F771F881FDAF7880F969587957D
:1033C00097F90895990F0008550FAA0BE0E8FEEF52
:1033D00016161706E807F907C0F012161306E407D9
:1033E000F50798F0621B730B840B950B39F40A26D2
:1033F00061F0232B242B252B21F408950A2609F4B0
:10340000A140A6958FEF811D811D08950E94191A74
:103410000C948A1A0E947C1A38F00E94831A20F0B9
:10342000952311F00C94731A0C94791A11240C94AE
:10343000BE1A0E949B1A70F3959FC1F3950F50E03E
:10344000551F629FF001729FBB27F00DB11D639F56
:10345000AA27F00DB11DAA1F649F6627B00DA11DFC
:10346000661F829F2227B00DA11D621F739FB00DA2
:10347000A11D621F839FA00D611D221F749F332712
:10348000A00D611D231F849F600D211D822F762FAB
:103490006A2F11249F5750409AF0F1F088234AF088
:1034A000EE0FFF1FBB1F661F771F881F91505040F4
:1034B000A9F79E3F510580F00C94731A0C94BE1A24
:1034C0005F3FE4F3983ED4F3869577956795B7957B
:1034D000F795E7959F5FC1F7FE2B880F911D969595
:1034E000879597F9089597F99F6780E870E060E005
:1034F00008959FEF80EC089500240A94161617068D
:1035000018060906089500240A94121613061406D4
:1035100005060895092E0394000C11F4882352F037
:10352000BB0F40F4BF2B11F460FF04C06F5F7F4FEF
:103530008F4F9F4F089557FD9058440F551F59F0D6
:103540005F3F71F04795880F97FB991F61F09F3F90
:1035500079F087950895121613061406551FF2CFB9
:103560004695F1DF08C0161617061806991FF1CF09
:1035700086957105610508940895E894BB27662730
:103580007727CB0197F90895A1E21A2EAA1BBB1B3E
:10359000FD010DC0AA1FBB1FEE1FFF1FA217B3071F
:1035A000E407F50720F0A21BB30BE40BF50B661F35
:1035B000771F881F991F1A9469F7609570958095F9
:1035C00090959B01AC01BD01CF0108952F923F92D0
:1035D0004F925F926F927F928F929F92AF92BF9223
:1035E000CF92DF92EF92FF920F931F93CF93DF93CF
:1035F000CDB7DEB7CA1BDB0B0FB6F894DEBF0FBE2C
:10360000CDBF09942A88398848885F846E847D8478
:103610008C849B84AA84B984C884DF80EE80FD807A
:103620000C811B81AA81B981CE0FD11D0FB6F894F0
:10363000DEBF0FBECDBFED01089510E0C8E7D0E0BA
:1036400004C0FE010E94D8162196C937D107C9F7D8
:04365000F894FFCF1C
:1036540000C00000440480000100000000000000DD
:103664001B0904115A0938096809AB09E609010064
:103674005E00000000000000F8050411C1059F056C
:10368400B3053F0600000000D6060411D606D60690
:10369400D606D60600000000D6060411000000007D
:1036A400B700AD0149012F010801B60021022C0524
:1036B4002B016701E400AE00D900D700A300CD00C0
:1036C40000000000900600000000D6060000000084
:1036D400D606D606D606D606D606D606D606D60606
:1036E400D606D606D606D606D606D606D606D606F6
:1036F40000000000B80E6F0FCE0EED0E6E0BEA093F
:103704006F105A10A70FE70FCC10160FFC0BE60E24
:10371400D60ED20E730C6E756C6C007472756500E7
:1037240066616C7365002D00564D4450565F317CC4
:10373400315F564D4450560D0A0053657474696EDA
:10374400672075702045746865726E65742E2E2E20
:10375400004D7920495020616464726573733A2086
:103764000050657069746F004465206C7500537572
:10377400726E616D650052464944006E625F736506
:103784006E74002200506F7374696E6720646174F4
:103794006120746F20526173706265727279005097
:1037A4004F5354202F7069636B697400204854543C
:1037B400502F312E3100486F73743A2000436F6EDE
:1037C4006E656374696F6E3A20636C6F7365004352
:1037D4006F6E74656E742D4C656E6774683A200064
:1037E400436F6E74656E742D547970653A20617000
:1037F400706C69636174696F6E2F782D7777772D9C
:10380400666F726D2D75726C656E636F64656400AE
:103814002046696E20646520726563657074696F03
:043824006E20000012
:00000001FF
