:100000000C943D000C9465000C9465000C94650004
:100010000C9465000C9465000C9465000C946500CC
:100020000C9465000C9465000C9465000C946500BC
:100030000C9465000C9465000C9465000C946500AC
:100040000C940A090C9465000C9492080C946C08AA
:100050000C9465000C9465000C9465000C9465008C
:100060000C9465000C946500320735074D077A073C
:10007000E407F6071D080013511111241FBECFEF2E
:10008000D8E0DEBFCDBF12E0A0E0B1E0E2E8F1E3EE
:1000900002C005900D92A830B107D9F723E0A8E07F
:1000A000B2E001C01D92AF37B207E1F710E0CCE338
:1000B000D0E004C02197FE010E946F14CB33D1071A
:1000C000C9F70E9457110C94B4180C940000FC015D
:1000D0009485FB018485981303C081E0943009F472
:1000E00080E0089521E0FC018485843009F420E05B
:1000F000822F08950895CF93DF931F92CDB7DEB777
:100100006983DC01ED91FC910280F381E02D41E0F7
:1001100050E0BE016F5F7F4F09950F90DF91CF9147
:100120000895DC01ED91FC91048CF58DE02D09958D
:1001300091E089270895862F089581E08627089504
:10014000FC018485843011F00C94B20B80E008959A
:10015000CF93DF93FC0124852430D1F0EC010E9481
:10016000A000843181F0882371F0883161F08C31F6
:1001700061F4E881F9810480F581E02DCE010995D3
:1001800021E0892B19F420E001C021E0822F01C079
:1001900080E0DF91CF9108950F931F93CF93DF936A
:1001A0001F92CDB7DEB78C01DC01ED91FC9104808C
:1001B000F581E02D0995892B51F0BE016F5F7F4FCE
:1001C000F80184850E949410898190E002C08FEF2D
:1001D0009FEF0F90DF91CF911F910F910895FC0138
:1001E00084850C94E110CF93DF931F92CDB7DEB7D7
:1001F00041E050E0BE016F5F7F4FFC0184850E94AB
:10020000E110181619061CF4898190E002C08FEFE6
:100210009FEF0F90DF91CF910895FC01848584308A
:1002200011F00C94BF1080E090E008950F931F939D
:10023000CF93DF931F92CDB7DEB790E00496982F4F
:1002400088278C01060F171F0E94D00F8FE00E9495
:10025000EA0F812F0E94EA0F802F0E94EA0F80E0B0
:100260000E94EA0F89830E94CE0F89810F90DF914F
:10027000CF911F910F910895CF93DF93C82FD62F61
:10028000472F60E170E00E94F80B4D2F61E170E0B4
:100290008C2FDF91CF910C94F80B08958CBD9DBDF0
:1002A0000895CF92DF92EF92FF921F93CF93DF9347
:1002B000FC011485143099F1EC0180E590E00E9476
:1002C0004E0168E070E0812F0E94880D0E94FE08B8
:1002D0006B017C01CE010E94A0008823B1F061E097
:1002E00070E080E090E00E94C4080E94FE08DC01FB
:1002F000CB018C199D09AE09BF09883E9340A10529
:10030000B10540F38C850E94210CEC85F0E0EE0FE6
:10031000FF1FE65BFD4F1182108284E08C87DF9126
:10032000CF911F91FF90EF90DF90CF9008958F9223
:100330009F92AF92BF92CF92DF92EF92FF920F9374
:100340001F93CF936C015B017A01FC01C485C4301B
:1003500041F481E090E0F6019383828380E090E0B5
:100360004EC08A014130584010F000E018E080E5AE
:1003700090E00E944E018C2F0E946C0D4C0163E0B6
:1003800070E08C2F0E941601873111F08C3121F41E
:100390008016910660F302C000E010E080E590E076
:1003A0000E944E019801A50160E070E08C2F0E9430
:1003B000070D60E270E08C2F0E94880D62E070E013
:1003C0008C2F0E94160184FD10C063E070E08C2F1A
:1003D0000E941601811104C08C2F0E94210CB9CFFC
:1003E00080E590E00E944E01E9CF40E162E070E0DC
:1003F0008C2F0E94F80B012B09F4ABCFC701CF91D2
:100400001F910F91FF90EF90DF90CF90BF90AF9032
:100410009F908F900895CF92DF92FF920F931F933A
:10042000CF93DF93FC012485243009F077C06A0163
:10043000EB018C01F12C8F2D0E94B20B811103C0B6
:10044000F801F48607C08B7F8831D1F3F394F4E090
:10045000FF12F1CFF8018485843009F45FC0209148
:100460000001309101012F5F3F4F11F420E030EC8B
:10047000309301012093000140910001509101014E
:1004800020E061E00E945010F801F4848A818F3FDF
:1004900051F48B818F3F91F48C818F3F79F48D8162
:1004A0008F3F61F438C0811109C08B81811106C072
:1004B0008C81811103C08D81882369F1C114D1041D
:1004C00051F180E590E00E944E01BE016E5F7F4FCA
:1004D0008F2D90E0982F882744E050E0845F9B4F59
:1004E0000E942110B6018F2D0E943C0164E070E053
:1004F0008F2D0E94880DC8010E94A000873189F0CD
:1005000061E070E080E090E00E94C408C8010E94B1
:10051000A0008111F0CF84E0F801848780E090E0B2
:1005200002C081E090E0DF91CF911F910F91FF9089
:10053000DF90CF9008952F923F924F925F926F92EB
:100540007F928F929F92AF92BF92CF92DF92EF9263
:10055000FF920F931F93CF93DF93CDB7DEB76597CD
:100560000FB6F894DEBF0FBECDBF7C016B013A0120
:10057000FB0120E080E090E06AE03191332309F153
:1005800040ED430F4A3080F4689FA001699F500DF1
:100590001124CA01C097830F911D37FD9A958F3F93
:1005A000910559F350F313C03E3289F4233079F0AA
:1005B000D301A20FB11D12968C932F5F80E090E0C3
:1005C000DCCF233021F4F301858381E021C0F701E2
:1005D00042815381648175818091090390910A035E
:1005E000A0910B03B0910C03481759076A077B07CA
:1005F00009F49EC10E94FE088701085F1F4F6F70BB
:1006000077277C5FC8010E94CB0B813019F080E016
:1006100090E0F3C18EEB91E09A838983F7018281A8
:100620009381A481B5818B839C83AD83BE8345E395
:1006300050E0BE016F5F7F4FC8010E949609892B71
:1006400019F4C12CD12C6FC10E94FE08F7017783E9
:1006500066837627672776277A83698342E050E0AE
:10066000BE016F5F7F4FC8010E94070B81E090E0E1
:100670009E878D8742E050E0BE01635F7F4FC801D7
:100680000E94070B80E091E09E878D8742E050E05A
:10069000BE01635F7F4FC8010E94070B1E861D8647
:1006A00042E050E0BE01635F7F4FC8010E94070B2C
:1006B00042E050E0BE01635F7F4FC8010E94070B1C
:1006C00042E050E0BE01635F7F4FC8010E94070B0C
:1006D0005601F5018081882311F1F6015F018191B6
:1006E000811115C045018C189D081814190494F443
:1006F0008F8641E050E0BE01615F7F4FC8010E94DC
:10070000070BA401B601C8010E94070B03C08E327B
:1007100029F7E8CF6501FFEFCF1ADF0ADACF1F868E
:1007200041E050E0BE01615F7F4FC8010E94070BAE
:10073000C12CDD24D394DE86CD8642E050E0BE019C
:10074000635F7F4FC8010E94070BDE86CD8642E0C3
:1007500050E0BE01635F7F4FC8010E94070BC801D4
:100760000E944A0C892B09F46CCF63E0A62EB12CB1
:10077000F2E06F0E711C0E94FE081B012C01C801E3
:100780000E94AE0A18161906A4F00E94FE08DC01A9
:10079000CB0182199309A409B50989389341A105B0
:1007A000B105D0F462E370E080E090E00E94C408FC
:1007B000E6CFF7014281538164817581808D918DEF
:1007C000A28DB38D481759076A077B0741F4848DC2
:1007D000958DC59721F406C02FEF3FEF9AC02EEFFD
:1007E0003FEF97C0F70181A192A10C970CF4A6C02E
:1007F0004CE050E0BE016F5F7F4FC8010E94660A67
:100800008B8190E0982F88272C81822B9A8B898B63
:10081000298130E0322F22274A81242BF70146819B
:1008200057814217530709F086C097FF84C08F7025
:100830009270892B09F0DEC0CF80D12CDC2CCC2427
:100840008885C82AC114D10409F4D1C0812C912C07
:100850008D8190E0982F88272E81822B881699060B
:1008600008F46FC0812C912C41E050E0BE016D5E18
:100870007F4FC8010E94660A8B89982F907C09F0EF
:1008800093C0811186C08B898111EECF42E050E088
:10089000BE01615F7F4FC8010E94660A42E050E0DE
:1008A000BE01635F7F4FC8010E94660AC8010E94B3
:1008B000850AC8010E94850AC8010E94850AC801EC
:1008C0000E94850A42E050E0BE016F5E7F4FC80182
:1008D0000E94660A8F8598898115914009F069C048
:1008E0002D853E853227232732272130310509F017
:1008F00060C089899A898115944009F075C044E0E7
:1009000050E0B301C8012C8B3D8B0E94660A2C89F4
:100910003D896901F1E0AF1AB10829F02FEFC21645
:10092000D20609F428CFC8010E94350CC60165C063
:100930008EEF9FEF62C02CEF3FEFEBCF2DEF3FEF3D
:10094000E8CF41E050E0BE01635F7F4FC8010E94E5
:10095000660A8D85811113C08D858111F2CFC80182
:100960000E94850AC8010E94850AC8010E94850A62
:10097000C8010E94850AFFEF8F1A9F0A69CF8D85F3
:100980009FEF980F9D87882339F3C8010E94850A3D
:10099000F6CF8B899FEF980F9B8B882309F473CF39
:1009A000C8010E94850AF5CFC8010E94850A1B8AEA
:1009B0006ACF412C512C89899A89982789279827B1
:1009C0004816590638F4C8010E94850A8FEF481A64
:1009D000580AF1CFEFEF8E1A9E0A8C149D0409F08D
:1009E00043CF26EF3FEF95CF27EF3FEF92CF2AEF90
:1009F0003FEF8FCF2BEF3FEF8CCF65960FB6F8947C
:100A0000DEBF0FBECDBFDF91CF911F910F91FF9041
:100A1000EF90DF90CF90BF90AF909F908F907F909E
:100A20006F905F904F903F902F900895CF92DF92FC
:100A3000EF92FF920F931F93CF93DF93CDB7DEB763
:100A4000AF970FB6F894DEBF0FBECDBF7C016A0131
:100A50000EEB11E01A8309831C861B8688EE93E057
:100A6000A0E0B0E08D879E87AF87B88B8CE491E0E3
:100A70009A878987188F0F8B198E1A8E1B8E1C8E62
:100A800084E089A31DA30CA31EA21FA218A619A669
:100A90008091010390910203A0910303B09104039C
:100AA0008CA79DA7AEA7BFA78B839C83AD83BE8376
:100AB00018861F82AE014C5D5F4FCE0101960E94E9
:100AC0009B0281309105B1F4D701ED91FC91048432
:100AD000F585E02D1BA70AA78EA19FA1A8A5B9A502
:100AE0008CA79DA7AEA7BFA7A601BE01665D7F4FDD
:100AF000C7010995AF960FB6F894DEBF0FBECDBF04
:100B0000DF91CF911F910F91FF90EF90DF90CF90E9
:100B10000895FC01918D828D981761F0828DDF011F
:100B2000A80FB11D5D968C91928D9F5F9F73928FE0
:100B300090E008958FEF9FEF0895FC01918D828DD5
:100B4000981731F0828DE80FF11D858D90E00895A2
:100B50008FEF9FEF0895FC01918D228D892F90E0FA
:100B6000805C9F4F821B91098F739927089582E6BD
:100B700092E00E94AB0521E0892B09F420E0822F4E
:100B80000895FC01848DDF01A80FB11DA35ABF4F4A
:100B90002C91848D90E001968F739927848FA6897C
:100BA000B7892C93A089B1898C9180648C93938DA3
:100BB000848D981306C00288F389E02D80818F7D93
:100BC00080830895EF92FF920F931F93CF93DF934B
:100BD000EC0181E0888F9B8D8C8D981305C0E8898E
:100BE000F989808185FD24C0F62E0B8D10E00F5F02
:100BF0001F4F0F731127E02E8C8DE8120CC00FB61B
:100C000007FCFACFE889F989808185FFF5CFCE010D
:100C10000E94C105F1CF8B8DFE01E80FF11DE35A53
:100C2000FF4FF0820B8FEA89FB898081806207C0C9
:100C3000EE89FF896083E889F989808180648083F7
:100C400081E090E0DF91CF911F910F91FF90EF90A5
:100C50000895CF93DF93EC01888D8823C9F0EA894A
:100C6000FB89808185FD05C0A889B9898C9186FDA5
:100C70000FC00FB607FCF5CF808185FFF2CFA889A2
:100C8000B9898C9185FFEDCFCE010E94C105E7CFD8
:100C9000DF91CF91089580E090E0892B29F00E94A8
:100CA000B70581110C94000008953FB7F894809126
:100CB0000D0290910E02A0910F02B091100226B584
:100CC000A89B05C02F3F19F00196A11DB11D3FBF84
:100CD000BA2FA92F982F8827820F911DA11DB11D12
:100CE000BC01CD0142E0660F771F881F991F4A950E
:100CF000D1F708958F929F92AF92BF92CF92DF92D9
:100D0000EF92FF920F931F93CF93DF937C018B01A0
:100D10006C0182E0C80ED11C4701E5E08E0E911CEB
:100D2000C0E0D0E0F60141916F0150E060E070E07A
:100D30002AE0C8010E94510E5C016EE2C8010E94C7
:100D40001D0E8A0D9B1DC80FD91FC814D90451F759
:100D5000F701458150E060E070E02AE0C8010E94A0
:100D6000510E8C0F9D1FDF91CF911F910F91FF901E
:100D7000EF90DF90CF90BF90AF909F908F900895AD
:100D80000F931F93CF93DF93EC018B0166EC71E01F
:100D90000E94240E01151105B9F1F80161918F012E
:100DA000662391F1603220F0623211F06C3541F52A
:100DB0006CE5CE010E941D0EF801319780818C30C8
:100DC000D1F044F48930D9F08A30B9F0883029F76D
:100DD00062E616C0823259F024F48D30F1F662E7F3
:100DE0000FC08F3231F08C35C1F66CE509C062E27C
:100DF00007C06FE205C066E603C06EE601C064E7A7
:100E0000CE010E941D0EC9CF62E2CE010E941D0ECE
:100E100080E090E0DF91CF911F910F9108958F9224
:100E20009F92AF92BF92CF92DF92EF92FF920F9379
:100E30001F93CF93DF936115710509F43CC1DB016A
:100E40001896EC9118970E2FEE0F110B220B330B07
:100E50000730110508F02FC1EC010C5C1F4FF801A1
:100E60000C946F1468EC71E006C019968C9188237D
:100E700089F06DEC71E0CE01DF91CF911F910F9160
:100E8000FF90EF90DF90CF90BF90AF909F908F90AA
:100E90000C94240E62ED71E0EECF1996CD90DC90AB
:100EA0001A970D2C000CEE08FF08F7FE12C06DE239
:100EB0000E941D0E8C0144275527BA014C195D096B
:100EC0006E097F092AE0CE010E94510E800F911F0A
:100ED000F4C02AE0B701A601DF91CF911F910F91D5
:100EE000FF90EF90DF90CF90BF90AF909F908F904A
:100EF0000C94510E1996CD90DD90ED90FC901C97BE
:100F000020E030E0A901C701B6010E94371787FF32
:100F100009C068ED71E0CE010E94240EF7FAF0944A
:100F2000F7F8F094C701B6010E94E2144B015C018E
:100F30002AE0AB01BC01CE010E94510E6AED71E0C6
:100F4000CE010E94240EC501B4010E943C179B01F2
:100F5000AC01C701B6010E9475142CEA35EC47EAD2
:100F600056E30E9476146B017C0105E010E020E05E
:100F700030E040E251E4C701B6010E949D174B01E9
:100F80005C010E94E2146B01E12CF12C2AE0B70114
:100F9000A601CE010E94510EC701B6010E943C1766
:100FA0009B01AC01C501B4010E9475146B017C0169
:100FB00020E030E0A9010E943717882309F47BC0A4
:100FC00001501109A1F677C019966D917C911A977D
:100FD000DF91CF911F910F91FF90EF90DF90CF9015
:100FE000BF90AF909F908F900C94C00616960D9175
:100FF0001C9117976BE50E941D0E019689F48FEFE7
:101000009FEF5BC0B801CE010E940F070196B9F3B4
:10101000D80112960D911C9113970115110521F419
:101020000115110579F707C06CE2CE010E941D0E73
:101030000196B1F7E4CF6DE530C016960D911C9185
:1010400017976BE70E941D0E0196C9F20115110555
:1010500019F1D8016D917C91CE010E94C0060196D4
:1010600071F26AE3CE010E941D0E019641F2B801B1
:10107000CE010E940F07019611F2D80112960D9130
:101080001C9113970115110509F36CE2CE010E9422
:101090001D0E0196D9F6B3CF6DE7CE010E941D0E4D
:1010A00021E030E0019611F020E030E08827992718
:1010B000821B930B02C080E090E0DF91CF911F91E3
:1010C0000F91FF90EF90DF90CF90BF90AF909F90E7
:1010D0008F9008950E9408171F920F920FB60F92DB
:1010E00011242F933F934F935F936F937F938F932D
:1010F0009F93AF93BF93EF93FF9382E692E00E949A
:10110000C105FF91EF91BF91AF919F918F917F9119
:101110006F915F914F913F912F910F900FBE0F9064
:101120001F9018951F920F920FB60F9211242F93B4
:101130008F939F93EF93FF93E0917202F09173026C
:101140008081E0917802F091790282FD12C0908155
:1011500080917B028F5F8F7320917C02821751F008
:10116000E0917B02F0E0EE59FD4F958F80937B027A
:1011700001C08081FF91EF919F918F912F910F90EE
:101180000FBE0F901F9018958F929F92AF92BF92B3
:10119000CF92DF92EF92FF926B017C010E94550685
:1011A0004B015C01C114D104E104F104F1F00E948F
:1011B0005506DC01CB0188199909AA09BB09883EAB
:1011C0009340A105B10570F321E0C21AD108E108EE
:1011D000F10888EE880E83E0981EA11CB11CC11492
:1011E000D104E104F10419F7DDCFFF90EF90DF9017
:1011F000CF90BF90AF909F908F9008952FB7F894A5
:101200006091090270910A0280910B0290910C0288
:101210002FBF08951F920F920FB60F9211242F9394
:101220003F938F939F93AF93BF93809109029091C7
:101230000A02A0910B02B0910C023091080223E047
:10124000230F2D3720F40196A11DB11D05C026E8FE
:10125000230F0296A11DB11D20930802809309025D
:1012600090930A02A0930B02B0930C0280910D029E
:1012700090910E02A0910F02B09110020196A11D53
:10128000B11D80930D0290930E02A0930F02B093B4
:101290001002BF91AF919F918F913F912F910F902D
:1012A0000FBE0F901F9018958DE090E00E941115D1
:1012B000009729F02DE0FC0111922A95E9F7089595
:1012C0000895CF93DF931F92CDB7DEB76983DC011A
:1012D000ED91FC910280F381E02D41E050E0BE01F0
:1012E0006F5F7F4F09950F90DF91CF910895FC01BB
:1012F000818D928D0895FC018489958908952EEB46
:1013000031E0FC0131832083FB01408951896289EE
:101310007389FC0142835383648375830895DC01E0
:10132000ED91FC91008CF18DE02D0994FF920F93CB
:101330001F93CF93DF93FB01DC0157961C921E9203
:1013400056975896FC908281811109C08381811142
:1013500006C08481811103C085818823F9F041157D
:101360005105E1F08A01EF0180E590E00E944E0115
:10137000BE016E5F7F4F2F2D30E0922F882744E013
:1013800050E0845F9B4F0E942110B8018F2D0E9476
:101390003C010E944D0181E090E002C080E090E0BD
:1013A000DF91CF911F910F91FF900895BF92CF923F
:1013B000DF92EF92FF920F931F93CF93DF9300D0B2
:1013C00000D000D0CDB7DEB7FC01208D243009F06D
:1013D00053C06A017B018C01B12C63E070E08B2D5E
:1013E0000E941601811103C0F801B08E06C0883139
:1013F000D9F3B394F4E0BF12F0CFF801808D8430BC
:10140000D9F196E0EEE1F1E0DE01119601900D9246
:101410009A95E1F7F70193819F779C8394819D834F
:1014200095819E83B7016E5F7F4F90E0982F88274C
:1014300044E050E0845F9B4F0E942110B601F80108
:10144000808D0E943C01F801808D90E0982F8827C4
:1014500046E050E0BE016F5F7F4F8A5F9B4F0E9466
:101460002110F801128E118E20E8A60162E0808D15
:101470000E94501081E001C080E026960FB6F894DB
:10148000DEBF0FBECDBFDF91CF911F910F91FF90B7
:10149000EF90DF90CF90BF900895CF93DF931F928E
:1014A000CDB7DEB7FC01218D328D232B49F0BE0173
:1014B0006F5F7F4F808D0E949410898190E002C001
:1014C0008FEF9FEF0F90DF91CF910895CF93DF9330
:1014D000FC01218D328D2115310519F48FEF9FEF1D
:1014E00011C0EC014217530708F0A901888D0E9432
:1014F000E1101816190694F7298D3A8D281B390B1F
:101500003A8F298FDF91CF9108950F931F93CF9337
:10151000DF931F92CDB7DEB7FC01218D328D232BD7
:1015200061F08C0141E050E0BE016F5F7F4F808D24
:101530000E94E110181619061CF08FEF9FEF08C0EB
:10154000F801818D928D0197928F818F898190E032
:101550000F90DF91CF911F910F9108950F931F93DB
:10156000CF93DF93CDB7DEB728970FB6F894DEBFE1
:101570000FBECDBF8C01F801818D928D892B49F072
:10158000D801ED91FC910680F781E02DC801099505
:10159000F2CF808D0E94BF10181619065CF548E046
:1015A00050E0BE016F5F7F4FD80158968C910E942A
:1015B000E1109C0118161906DCF489819A81AB812F
:1015C000BC81F801808B918BA28BB38B8D8190E0D5
:1015D000982F88272E81820F911D958B848B2F81C8
:1015E00030E0322F22278885280F311D328F218F3E
:1015F000C90102C080E090E028960FB6F894DEBFE3
:101600000FBECDBFDF91CF911F910F910895AF9283
:10161000BF92CF92DF92FF920F931F93CF93DF93EE
:101620008C015B01EA01FC01C688D788F08C80E55B
:1016300090E00E944E018F2D0E946C0D8C179D072B
:1016400020F48F2D0E946C0DEC019E01A501B601C6
:101650008F2D0E94070D0E944D01F8018689978900
:101660008C0F9D1F978B868BCE01DF91CF911F91A1
:101670000F91FF90DF90CF90BF90AF900895CF92E1
:10168000DF92EF92FF920F931F93CF93DF93CDB72B
:10169000DEB7AF970FB6F894DEBF0FBECDBF7C01AB
:1016A0006A010EEB11E01A8309831C861B8688EE03
:1016B00093E0A0E0B0E08D879E87AF87B88B8CE485
:1016C00091E09A878987188F0F8B198E1A8E1B8E3F
:1016D0001C8E84E089A31DA30CA31EA21FA218A622
:1016E00019A68091010390910203A0910303B09188
:1016F00004038CA79DA7AEA7BFA78B839C83AD8354
:10170000BE8318861F82AE014C5D5F4FCE010196ED
:101710000E949B0281309105B1F4D701ED91FC91BB
:101720000088F189E02D1BA70AA78EA19FA1A8A57B
:10173000B9A58CA79DA7AEA7BFA7A601BE01665DF0
:101740007F4FC7010995AF960FB6F894DEBF0FBE65
:10175000CDBFDF91CF911F910F91FF90EF90DF9060
:10176000CF9008951F93CF93DF931F92CDB7DEB72D
:10177000182F80E590E00E944E0163E070E0812F19
:101780000E94160189830E944D0189810F90DF918B
:10179000CF911F910895EF92FF921F93CF93DF9304
:1017A000FC01208D243011F080E01CC07B01EC0195
:1017B00010E0812F0E94B20B811102C0188F05C06A
:1017C0008831E1F31F5F1430A1F7888D843061F315
:1017D000FD86EC861A8E198E20E0A70162E00E9439
:1017E000501081E0DF91CF911F91FF90EF9008950D
:1017F0000F931F93CF93DF931F92CDB7DEB7282FA0
:1018000030E02C5F3F4F322F22278901060F171F30
:1018100049830E94D00F80EF0E94EA0F812F0E941F
:10182000EA0F802F0E94EA0F4981842F0E94EA0F5D
:101830000E94CE0F81E00F90DF91CF911F910F9109
:101840000895CF93C82F80E590E00E944E0160E19B
:1018500070E08C2F0E94880D4FEF62E070E08C2FBB
:101860000E94F80BCF910C944D01CF93DF93EC01C4
:10187000888D843061F00E94210CE88DF0E0EE0F3D
:10188000FF1FE65BFD4F1182108284E0888FDF919D
:10189000CF910895CF93FC01C08D80E590E00E9428
:1018A0004E0160E270E08C2F0E94880D62E070E0D3
:1018B0008C2F0E94160184FD19C062E070E08C2F0D
:1018C0000E94160183FF0BC048E162E070E08C2F9C
:1018D0000E94F80B0E944D0180E090E011C00E9430
:1018E0004D0180E590E00E944E01E0CF40E162E0D2
:1018F00070E08C2F0E94F80B0E944D0181E090E077
:10190000CF9108950895CF92DF92EF92FF920F93B7
:101910001F93CF93DF936C017A018B01C0E0D0E07D
:10192000CE15DF0589F0D8016D918D01D601ED91BD
:10193000FC910190F081E02DC6010995892B11F4ED
:101940007E0102C02196ECCFC701DF91CF911F919C
:101950000F91FF90EF90DF90CF900895E2E6F2E0D4
:10196000A089B18982E08C93A485B5851C92A68557
:10197000B7858FEC8C93108EA489B58986E08C9303
:10198000A289B3898C9180618C93A289B3898C914F
:1019900088608C93A289B3898C9180688C9302882B
:1019A000F389E02D80818F7D808308950F931F93AD
:1019B000CF93DF938C010E945409EC01892B39F0FD
:1019C00084E08887C8010E940D179A878987A091B3
:1019D0001003B09111031696ED91FC911797209783
:1019E00089F0309729F41796DC93CE9316970AC0A6
:1019F00082819381009711F0FC01FACFD383C283D7
:101A0000FD83EC83DF91CF911F910F9108959F92F9
:101A1000AF92BF92CF92DF92EF92FF920F931F93FC
:101A2000CF93DF93982E8B015A01690164E270E035
:101A30000E941601E82EF12C65E270E0892D0E94CB
:101A40001601FE2CEE24E82AE701C00FD11F9E01EB
:101A50003770E92CF12CC701880F991FAC014E5A41
:101A60005D4F7A01FA0180819181820F931FA90154
:101A70004C0D5D1D4130584090F000E018E0021B15
:101A8000130BA801B5010E942110A601401B510BA8
:101A9000B501600F711FF7018081918102C0A6011D
:101AA000B5010E942110CC0DDD1D4D2F64E270E0C8
:101AB000892D0E94F80B4C2F65E270E0892DDF9193
:101AC000CF911F910F91FF90EF90DF90CF90BF903B
:101AD000AF909F900C94F80BFF920F931F93CF93AE
:101AE000DF93F82EC0E0D0E08F2D0E94D20F8C0142
:101AF000892B21F08F2D0E94D20FEC01C017D10746
:101B000099F7CE01DF91CF911F910F91FF9008952A
:101B1000CF93C82F462F61E070E00E94F80B61E080
:101B200070E08C2F0E9416018111F9CFCF9108959A
:101B3000AF92BF92CF92DF92EF92FF920F931F93DB
:101B4000CF93DF9300D0CDB7DEB77A836983BA0134
:101B5000A901E981FA81F770082F10E0000F111F29
:101B6000065A1D4FD8018D919C918E0F9F1F2E0FED
:101B70003F1F2130384098F07A015B0120E038E0C7
:101B80006901CE1ADF0AA6010E94F10FA7014C19C4
:101B90005D09B5016C0D7D1DF801808191810F906B
:101BA0000F90DF91CF911F910F91FF90EF90DF90F9
:101BB000CF90BF90AF900C94F10FEF92FF920F93E4
:101BC0001F93CF93DF93EC017B018A018881998178
:101BD000009729F02A813B8124173507F8F4B801D2
:101BE0006F5F7F4F0E943E16009759F0998388835C
:101BF0001B830A832C813D81232B81F4FC011082FD
:101C00000DC088819981009711F00E94A615198254
:101C100018821D821C821B821A8207C01D830C83BE
:101C2000B701888199810E943017CE01DF91CF9151
:101C30001F910F91FF90EF900895DC01ED91FC91C1
:101C40000190F081E02D09946115710579F0FB0197
:101C500001900020E9F73197AF01461B570BDC01DB
:101C6000ED91FC910280F381E02D099480E090E0F9
:101C70000895CF93DF93E7E3F3E0448155816081DA
:101C8000718182E692E00E94830CEC016BEE71E0C0
:101C900082E692E00E94240E8C0F9D1FDF91CF916F
:101CA00008954F925F926F927F92EF92FF920F93FF
:101CB0001F93CF93DF93CDB7DEB7A1970FB6F894FC
:101CC000DEBF0FBECDBF7C01FA01CB0119A22230CD
:101CD00008F42AE08E010F5D1F4F422E512C612C1B
:101CE000712CBF01A30192010E945B18F901CA0186
:101CF000015011096A3014F4605D01C0695CD801BB
:101D00006C93232B242B252B61F7B801C7010E946C
:101D1000240EA1960FB6F894DEBF0FBECDBFDF91A3
:101D2000CF911F910F91FF90EF907F906F905F90F8
:101D30004F900895FC01A285B3851097A9F0868580
:101D40009785029788F0CD010196938782876C93DF
:101D5000868597850197978786870284F385E02D8E
:101D6000108281E090E0089580E090E00895FC0109
:101D7000868197818F3F2FEF920729F02FEF3FEF5A
:101D8000378326830895A085B185109789F024852F
:101D900035852115310561F0CD0101969187808748
:101DA0008C912150310935872487082E000C990B1E
:101DB0000895FC0186819781019639F481E024859C
:101DC0003585232B19F480E0089581E00895CF92A2
:101DD000DF92EF92FF920F931F93CF93DF937C01DB
:101DE0006A018B01C0E0D0E0CC15DD0589F0D70198
:101DF000ED91FC910680F781E02DC70109958F3F99
:101E0000BFEF9B0729F0F80181938F012196ECCF5A
:101E1000CE01DF91CF911F910F91FF90EF90DF9056
:101E2000CF900895CF93DF931F92CDB7DEB7DC013B
:101E3000ED91FC910484F585E02D69830995DC0121
:101E4000ED91FC910190F081E02D69810F90DF917F
:101E5000CF910994062E000C770BFC0177836683E3
:101E60000895CF93DF93DC0116962D913C9117973F
:101E70002F3F3F4F31F5EC01E881F9810484F5856E
:101E8000E02DCE010995DC01ED91FC910480F581F6
:101E9000E02D0995892B99F0E881F9810680F78179
:101EA000E02DCE0109958132910534F3E881F98165
:101EB0000284F385E02D682FCE01099502C080E0F1
:101EC00001C081E0DF91CF910895FC01848195816B
:101ED0000895CF92DF92EF92FF92CF93DF93EC01C0
:101EE0008E819F818F3F2FEF920759F02FEF3FEFA9
:101EF0003F832E83DF91CF91FF90EF90DF90CF90C3
:101F000008950E94FE086B017C01A4EFCA0EA1E0B7
:101F1000DA1EE11CF11CE881F9810484F585E02DCD
:101F2000CE010995DC01ED91FC910480F581E02D55
:101F30000995892B39F40E94FE086C157D058E05E4
:101F40009F0548F3E881F9810484F585E02DCE01F1
:101F50000995DC01ED91FC910680F781E02DDF9180
:101F6000CF91FF90EF90DF90CF9009941F93CF9384
:101F7000DF93182F66E270E00E941601C82FD0E0B0
:101F800067E270E0812F0E941601DC2FCC279E01B2
:101F9000282BC901DF91CF911F9108952A9A0895A6
:101FA0002A9808951F93CF93DF93182F60E270E073
:101FB0000E941601C82FD0E061E270E0812F0E94DC
:101FC0001601DC2FCC279E01282BC901DF91CF9170
:101FD0001F9108958EBD00000DB407FEFDCF8EB594
:101FE0000895CF92DF92EF92FF920F931F93CF93BA
:101FF000DF93EC017A018B016C01C40ED51ECC1568
:10200000DD05A9F00E94D00F8FE00E94EA0F8D2F0E
:102010000E94EA0F8C2F0E94EA0F219680E00E9416
:10202000EA0FF80181938F010E94CE0FE8CFC7011C
:10203000DF91CF911F910F91FF90EF90DF90CF90A4
:102040000895CF92DF92EF92FF920F931F93CF9359
:10205000DF93EC017A018B016C01C40ED51ECC1507
:10206000DD05A1F00E94D00F80EF0E94EA0F8D2FB6
:102070000E94EA0F8C2F0E94EA0F2196F8018191AD
:102080008F010E94EA0F0E94CE0FE9CFC701DF91B6
:10209000CF911F910F91FF90EF90DF90CF90089517
:1020A000FF920F931F93CF93DF9300D0CDB7DEB78E
:1020B000F82E8A012A8369830E94210C80E590E032
:1020C0000E944E012A816981462F422B60E070E018
:1020D0008F2D0E94F80B0115110551F40091790321
:1020E00010917A030F5F1F4F10937A0300937903C7
:1020F000412F64E070E08F2D0E94F80B402F65E0C7
:1021000070E08F2D0E94F80B61E070E08F2D0E942F
:10211000880D0E944D0181E00F900F90DF91CF91CB
:102120001F910F91FF900895EF92FF921F93CF930D
:10213000DF93182F7B0180E590E00E944E0168E25A
:1021400070E0812F0E941601C82FD0E069E270E094
:10215000812F0E941601DC2FCC27BE01682B21E0C5
:1021600030E0A701812F0E94980D0E944D0181E06F
:1021700090E0DF91CF911F91FF90EF900895FF9233
:102180000F931F93CF93DF93F82E80E590E00E948A
:102190004E01C0E0D0E08F2D0E94B60F8C01892B3C
:1021A00021F08F2D0E94B60FEC01C017D10799F7CF
:1021B0000E944D01CE01DF91CF911F910F91FF90B1
:1021C0000895AF92BF92DF92EF92FF920F931F9309
:1021D000CF93DF93D82E7B018A0180E590E00E94A7
:1021E0004E01C0E0D0E08D2D0E94B60F5C01892B1E
:1021F00021F08D2D0E94B60FEC01CA15DB0599F771
:10220000209799F463E070E08D2D0E9416018431CF
:10221000D9F18823C9F1C1E0D0E08C3111F4C0E0DC
:10222000D0E0D195C195D1092FC00C171D070CF432
:10223000E8011C161D0644F568E270E08D2D0E9431
:102240001601082F10E069E270E08D2D0E94160142
:10225000102F0027082B9E01A701B8018D2D0E9489
:10226000980D0C0F1D1F412F68E270E08D2D0E940C
:10227000F80B402F69E270E08D2D0E94F80B60E4AE
:1022800070E08D2D0E94880D0E944D01CE01DF91DE
:10229000CF911F910F91FF90EF90DF90BF90AF9083
:1022A000089580913703909138030C94A615CF932D
:1022B000DF93CDB7DEB766970FB6F894DEBF0FBEDB
:1022C000CDBF789484B5826084BD84B5816084BDBF
:1022D00085B5826085BD85B5816085BD80916E00C4
:1022E000816080936E0010928100809181008260F5
:1022F0008093810080918100816080938100809132
:1023000080008160809380008091B1008460809320
:10231000B1008091B00081608093B00080917A001C
:10232000846080937A0080917A00826080937A0042
:1023300080917A00816080937A0080917A00806831
:1023400080937A001092C1001092440210924502CC
:10235000109246021092470210921202109213023B
:10236000109214021092150260ED77E080E090E088
:102370000E94C40882E692E0909343028093420256
:102380000E94AE0C0E94FE08C0901202D090130270
:10239000E0901402F0901502DC01CB018C199D092C
:1023A000AE09BF0984369105A105B10538F463E093
:1023B00070E080E090E00E94C408E4CF0E94FE0834
:1023C000609312027093130280931402909315028B
:1023D0006CED71E080914202909143020E94240EC4
:1023E0006AE070E080E090E00E94C40881E08093A1
:1023F00016020E94AE0C8EEE91E00E94D60C88EF81
:1024000091E00E94D60CE0901003F0901103C09070
:102410000E03D0900F03E114F10439F1D7018D912F
:102420009C91009711F00E94A61582E092E00E9414
:102430000D17F70191838083D6011696ED91FC91DB
:102440001797309729F41796FC92EE9216970DC0C5
:1024500082819381009711F0FC01FACFF382E2822E
:10246000D7011596FC93EE9314971A8A198A1C8A41
:102470001B8A1E8A1D8A40E050E06DEE71E0CE019D
:1024800041960E94DD0DC0900E03D0900F0380E0B6
:1024900091E00E9411157C01892BD9F01C821B82CE
:1024A0001E821D828FEF9FEF98878F8380E191E0DE
:1024B0009A8389831A861986FC86EB8680E091E0F0
:1024C000988B8F871E861D86B601CE0101960E94CD
:1024D0000F07E114F10471F0F70101900020E9F712
:1024E0003197AF014E195F09B701CE0141960E94A5
:1024F000DD0D0CC089899A89009711F00E94A615FC
:102500001A8A198A1E8A1D8A1C8A1B8A809137039F
:10251000909138030097C9F069897A89611571052E
:1025200091F04091390350913A032D893E89421729
:10253000530748F00E9430178D899E8990933C0381
:1025400080933B0318C00E94A61589899A899093AD
:102550003803809337038B899C8990933A03809347
:1025600039038D899E8990933C0380933B031A8A9B
:10257000198A1C8A1B8A1E8A1D8A89899A890E9447
:10258000A6150E94390E82E692E00E94AB05892BC7
:10259000A1F182E692E00E9489058136910569F5F4
:1025A0000E94390EC0904802D0904902C60101969F
:1025B00090934902809348020D2C000CEE08FF080E
:1025C000F7FE0EC06DE282E692E00E941D0E4427E7
:1025D0005527BA014C195D096E097F092AE003C02D
:1025E0002AE0B701A60182E692E00E94510E6BEE4E
:1025F00071E082E692E00E94240E0E944B06C3CF57
:10260000CF92DF92EF92FF92CF93DF93CEEBD1E0A8
:10261000D0934403C09343031092450310924603A2
:1026200010924703109248031092650210926402C0
:1026300088EEC82E83E0D82EE12CF12CC0926602E1
:10264000D0926702E0926802F092690282E791E01C
:10265000909363028093620285EC90E090936F0206
:1026600080936E0284EC90E09093710280937002EC
:1026700080EC90E0909373028093720281EC90E082
:10268000909375028093740282EC90E090937702AD
:102690008093760286EC90E09093790280937802A2
:1026A00010927B0210927C0210927D0210927E02A8
:1026B000D0934A03C093490310924B0310924C03EA
:1026C00010924D0310924E03D0935003C0934F03CA
:1026D000109251031092520310925303109254031C
:1026E000D0935603C093550310925703109258038A
:1026F0001092590310925A03D0935C03C0935B036A
:1027000010925D0310925E0310925F0310926003BB
:10271000D0936203C0936103109263031092640329
:102720001092650310926603D0936803C093670309
:102730001092690310926A0310926B0310926C035B
:10274000D0936E03C0936D0310926F0310927003C9
:102750001092710310927203D0930003C093FF0292
:1027600010920103109202031092030310920403CB
:10277000D0930803C09307031092090310920A0331
:1027800010920B0310920C03D0937403C093730345
:1027900010927503109276031092770310927803CB
:1027A000D0933E03C0933D0310923F031092400329
:1027B0001092410310924203109238031092370393
:1027C00010923A031092390310923C0310923B038B
:1027D00040E050E06DEE71E087E393E00E94DD0D94
:1027E000D0931303C093120380EC8093140390E8FA
:1027F000909315031092160391E090931703D093D2
:102800001903C09318039FEF90931A0390931B032F
:1028100010921C0310921D03D0931F03C0931E033C
:102820008093200398EA90932103109222032AE0D8
:1028300020932303D0932503C0932403809326037E
:1028400090932703109228038BE080932903109222
:102850002D0310922C03C0922E03D0922F03E092EE
:102860003003F09231038AE991E090932B03809337
:102870002A0384E0809336030E945409009719F0DC
:1028800026E0FC01208790930F0380930E030E94A3
:102890005409009719F025E0FC012087909311035B
:1028A000809310030E945409009719F026E0FC0160
:1028B000208790930F0380930E030E945409009782
:1028C00019F025E0FC0120879093110380931003F9
:1028D000DF91CF91FF90EF90DF90CF900895EE0FB2
:1028E000FF1F0590F491E02D09945058BB27AA27AB
:1028F0000E948D140C9421180E94131838F00E9425
:102900001A1820F039F49F3F19F426F40C9410188B
:102910000EF4E095E7FB0C940A18E92F0E94321898
:1029200058F3BA17620773078407950720F079F404
:10293000A6F50C9454180EF4E0950B2EBA2FA02D8A
:102940000B01B90190010C01CA01A0011124FF275C
:10295000591B99F0593F50F4503E68F11A16F04057
:10296000A22F232F342F4427585FF3CF4695379556
:102970002795A795F0405395C9F77EF41F16BA0B1B
:10298000620B730B840BBAF09150A1F0FF0FBB1FC9
:10299000661F771F881FC2F70EC0BA0F621F731F12
:1029A000841F48F4879577956795B795F7959E3F6F
:1029B00008F0B0CF9395880F08F09927EE0F979500
:1029C000879508950E943A1888F09F5798F0B92F7C
:1029D0009927B751B0F0E1F0660F771F881F991F54
:1029E0001AF0BA95C9F714C0B13091F00E9454188A
:1029F000B1E008950C945418672F782F8827B85F9A
:102A000039F0B93FCCF3869577956795B395D9F7AB
:102A10003EF490958095709561957F4F8F4F9F4FB5
:102A20000895CF93DF938230910510F482E090E017
:102A3000E0917D03F0917E0320E030E0C0E0D0E043
:102A4000309711F14081518148175907C0F048175C
:102A5000590761F482819381209719F09B838A83BF
:102A60002BC090937E0380937D0326C021153105F2
:102A700019F04217530718F49A01BE01DF01EF0164
:102A80000280F381E02DDCCF2115310509F1281BEF
:102A9000390B2430310590F412968D919C91139747
:102AA0006115710521F0FB019383828304C090932B
:102AB0007E0380937D03FD01329644C0FD01E20F49
:102AC000F31F81939193225031092D933C933AC087
:102AD00020917B0330917C03232B41F4209104014E
:102AE0003091050130937C0320937B0320910201F8
:102AF000309103012115310541F42DB73EB74091C6
:102B0000060150910701241B350BE0917B03F091E6
:102B10007C03E217F307A0F42E1B3F0B281739079D
:102B200078F0AC014E5F5F4F2417350748F04E0F29
:102B30005F1F50937C0340937B038193919302C06A
:102B4000E0E0F0E0CF01DF91CF9108950F931F9364
:102B5000CF93DF93009709F48CC0FC013297138266
:102B6000128200917D0310917E030115110581F4FD
:102B700020813181820F931F20917B0330917C0350
:102B80002817390779F5F0937C03E0937B0371C034
:102B9000D80140E050E0AE17BF0750F412962D91D7
:102BA0003C911397AD012115310509F1D901F3CFFE
:102BB0009D01DA013383228360817181860F971F23
:102BC0008217930769F4EC0128813981260F371F9A
:102BD0002E5F3F4F318320838A819B819383828341
:102BE000452B29F4F0937E03E0937D0342C01396B6
:102BF000FC93EE931297ED01499159919E01240F98
:102C0000351FE217F30771F480819181840F951FBE
:102C1000029611969C938E938281938113969C9336
:102C20008E931297E0E0F0E0D80112968D919C917E
:102C30001397009719F0F8018C01F6CF8D919C91B4
:102C400098012E5F3F4F820F931F20917B0330919D
:102C50007C032817390769F4309729F410927E0312
:102C600010927D0302C01382128210937C030093A2
:102C70007B03DF91CF911F910F910895A0E0B0E009
:102C8000E4E4F6E10C948118EC01009721F4CB0107
:102C90000E941115B8C0FC01E60FF71F9C012250DD
:102CA0003109E217F30708F4ACC0D9010D911C916A
:102CB000119706171707B0F00530110508F49FC0EB
:102CC000C80104978617970708F499C002501109A4
:102CD000061B170B019311936D937C93CF010E94F8
:102CE000A6158DC05B01A01AB10A4C01800E911E81
:102CF000A0917D03B0917E0340E050E0E12CF12CE7
:102D0000109709F44AC0A815B905D1F56D907C90CB
:102D10001197630182E0C80ED11CCA14DB0480F154
:102D2000A3014A195B096A0182E0C80ED11C129600
:102D3000BC9012971396AC91B5E0CB16D10440F03D
:102D4000B282A38351834083D9016D937C930AC0DF
:102D50000E5F1F4FC301800F911FF9019183808384
:102D6000EB2DFA2FE114F10431F0D7011396FC9307
:102D7000EE93129744C0F0937E03E0937D033FC02F
:102D80008D919C9111974817590708F4AC017D016A
:102D900012960D90BC91A02DB3CF80917B039091A2
:102DA0007C0388159905E1F446175707C8F480910C
:102DB000020190910301009741F48DB79EB74091B5
:102DC000060150910701841B950BE817F907C8F419
:102DD000F0937C03E0937B03F901718360830FC060
:102DE000CB010E9411157C01009759F0A801BE018A
:102DF0000E942717CE010E94A615C70104C0CE016C
:102E000002C080E090E0CDB7DEB7EEE00C949D18F4
:102E100081E090E0F8940C94B4180F931F93CF9333
:102E2000DF938C01FC0101900020E9F7CF01801BAA
:102E3000910B0E941115EC01009719F0B8010E9446
:102E40003017CE01DF91CF911F910F910895FB01B3
:102E5000DC0102C001900D9241505040D8F7089516
:102E6000FB01DC0101900D920020E1F708950E9422
:102E7000791708F481E00895E89409C097FB3EF4BF
:102E800090958095709561957F4F8F4F9F4F9923B7
:102E9000A9F0F92F96E9BB279395F6958795779535
:102EA0006795B795F111F8CFFAF4BB0F11F460FFF5
:102EB0001BC06F5F7F4F8F4F9F4F16C0882311F04D
:102EC00096E911C0772321F09EE8872F762F05C061
:102ED000662371F096E8862F70E060E02AF09A95FC
:102EE000660F771F881FDAF7880F9695879597F9F1
:102EF0000895990F0008550FAA0BE0E8FEEF16168B
:102F00001706E807F907C0F012161306E407F507DD
:102F100098F0621B730B840B950B39F40A2661F051
:102F2000232B242B252B21F408950A2609F4A140F4
:102F3000A6958FEF811D811D08950E94B0170C94F6
:102F400021180E94131838F00E941A1820F09523B7
:102F500011F00C940A180C94101811240C945518A4
:102F60000E94321870F3959FC1F3950F50E0551FE2
:102F7000629FF001729FBB27F00DB11D639FAA27CE
:102F8000F00DB11DAA1F649F6627B00DA11D661F1D
:102F9000829F2227B00DA11D621F739FB00DA11D3E
:102FA000621F839FA00D611D221F749F3327A00DF8
:102FB000611D231F849F600D211D822F762F6A2F94
:102FC00011249F5750409AF0F1F088234AF0EE0FF9
:102FD000FF1FBB1F661F771F881F91505040A9F726
:102FE0009E3F510580F00C940A180C9455185F3FD1
:102FF000E4F3983ED4F3869577956795B795F79562
:10300000E7959F5FC1F7FE2B880F911D96958795D9
:1030100097F9089597F99F6780E870E060E0089558
:103020009FEF80EC089500240A94161617061806E0
:103030000906089500240A941216130614060506BC
:103040000895092E0394000C11F4882352F0BB0F4D
:1030500040F4BF2B11F460FF04C06F5F7F4F8F4FB0
:103060009F4F089557FD9058440F551F59F05F3FEB
:1030700071F04795880F97FB991F61F09F3F79F09A
:1030800087950895121613061406551FF2CF46951C
:10309000F1DF08C0161617061806991FF1CF86959E
:1030A0007105610508940895E894BB276627772782
:1030B000CB0197F90895A1E21A2EAA1BBB1BFD01B3
:1030C0000DC0AA1FBB1FEE1FFF1FA217B307E40707
:1030D000F50720F0A21BB30BE40BF50B661F771F5F
:1030E000881F991F1A9469F760957095809590953F
:1030F0009B01AC01BD01CF0108952F923F924F92E9
:103100005F926F927F928F929F92AF92BF92CF9277
:10311000DF92EF92FF920F931F93CF93DF93CDB780
:10312000DEB7CA1BDB0B0FB6F894DEBF0FBECDBFF8
:1031300009942A88398848885F846E847D848C84C9
:103140009B84AA84B984C884DF80EE80FD800C81D2
:103150001B81AA81B981CE0FD11D0FB6F894DEBFB5
:103160000FBECDBFED01089510E0CCE3D0E004C068
:10317000FE010E946F142196CD33D107C9F7F89450
:02318000FFCF7F
:1031820000C000007F03800001000000000000007A
:103192009A0E830CD90EB70EE70E2A0F650F0100A7
:1031A2005E000000000000006A086A086A086A08F7
:1031B2006A086A086A086A086A086A086A086A087D
:1031C2006A086A086A086A08000000006109070BB9
:1031D2007709850A4D0A6009CB0B350C96093F0B1E
:1031E2004A0CAE0A660A8F097F097B09D6090000DC
:1031F2000000E205830CAB0589059D052906000048
:1032020000006A08830C6A086A086A086A080000F3
:1032120000006A08830C000000007B0097010D018A
:10322200F300CC007A000B021605EF005101A80052
:1032320072009D009B0067009100000000007A066A
:10324200000000006A0822006E756C6C00747275D2
:10325200650066616C7365002D002E00564D44506A
:10326200565F317C315F564D4450560D0A00313263
:10327200203435203738200034352035362038398F
:083282002000524649440000FF
:00000001FF
