:100000000C94B4000C94DC000C94DC000C94A80557
:100010000C94A8050C94A8050C94DC000C94DC004E
:100020000C94DC000C94DC000C94DC000C94DC00E0
:100030000C94DC000C94DC000C94DC000C94DC00D0
:100040000C940F090C94DC000C94B8070C949207E4
:100050000C94DC000C94DC000C94DC000C94DC00B0
:100060000C94DC000C94DC005374617469632069A7
:10007000702061646472657373696E6700000000CC
:100080000800020100000304070000000000000057
:1000900000456E64206F662072656164696E67005A
:1000A0004C6520746167206573742000456E642080
:1000B0006F662066696E64696E672061207461678F
:1000C0000046696E6420612074616700456E64209B
:1000D0006F662072656164696E67002C00537461FD
:1000E000727420646973706C617900456E64206F6E
:1000F0006620726563657074696F6E004461746137
:10010000206269656E2072656375650000000000FD
:10011000250028002B0000000000230026002900F5
:10012000040404040404040402020202020203039D
:1001300003030303010204081020408001020408A5
:1001400010200102040810200000000024002700F5
:100150002A00436F6E6E656374696F6E2066616915
:100160006C6564002116351311241FBECFEFD8E053
:10017000DEBFCDBF13E0A0E0B1E0E2EDF5E302C0E9
:1001800005900D92A430B107D9F724E0A4E0B3E0C4
:1001900001C01D92A03EB207E1F710E0C3EBD0E032
:1001A00004C02197FE010E943C18C23BD107C9F749
:1001B0000E945D130C94DC1A0C940000CF93DF9323
:1001C0001F92CDB7DEB76983DC01ED91FC9102800F
:1001D000F381E02D41E050E0BE016F5F7F4F099554
:1001E0000F90DF91CF910895DC01ED91FC91048C8B
:1001F000F58DE02D099591E089270895862F0895C2
:1002000081E08627089520914B0430914C042817F3
:10021000390771F49091490480914A04981741F08C
:10022000E0914904F0E0EC5FFC4F808190E008959C
:100230008FEF9FEF089508951F93CF93DF93DC0115
:100240005C962D913C915D972115310539F481E043
:1002500090E013969C938E9312973DC05196ED912A
:10026000FC91529750969C915097892F80951FB77B
:100270005E964C915E9741FB772770F941FD609542
:10028000F8944081772311F0492B01C04823408323
:10029000E9012197F1F748E0508160FF02C0592B36
:1002A00001C058235083E9012197F1F76695415029
:1002B00099F7772321F090818923808303C080817F
:1002C000982B90831FBF5C968D919C915D970197B1
:1002D000F1F721E030E0C901DF91CF911F9108953E
:1002E00020914B0430914C042817390771F4809108
:1002F0004A042091490490E0805C9F4F821B910941
:1003000060E470E00E941418089580E090E0089581
:1003100020914B0430914C0428173907B9F490917F
:10032000490480914A04981789F0E0914904F0E06B
:10033000EC5FFC4F80812091490430E02F5F3F4FFC
:100340002F7333272093490490E008958FEF9FEF98
:100350000895FC018485843011F00C94350A80E006
:1003600090E0089508958CBD9DBD08958F929F9251
:10037000AF92BF92CF92DF92EF92FF920F931F93B3
:10038000CF936C015B017A01FC01C485C43041F458
:1003900081E090E0F6019383828380E090E04EC09C
:1003A0008A014130584010F000E018E080E590E00C
:1003B0000E94B3018C2F0E949A114C0163E070E0FF
:1003C0008C2F0E94B40D873111F08C3121F48016EE
:1003D000910660F302C000E010E080E590E00E942A
:1003E000B3019801A50160E070E08C2F0E943511E7
:1003F00060E270E08C2F0E943D0F62E070E08C2F75
:100400000E94B40D84FD10C063E070E08C2F0E9448
:10041000B40D811104C08C2F0E944B0BB9CF80E525
:1004200090E00E94B301E9CF40E162E070E08C2FE0
:100430000E94AA0D012B09F4ABCFC701CF911F91E8
:100440000F91FF90EF90DF90CF90BF90AF909F9073
:100450008F900895CF92DF92FF920F931F93CF93C7
:10046000DF93FC012485243009F077C06A01EB0199
:100470008C01F12C8F2D0E941A0C811103C0F80100
:10048000F48607C08B7F8831D1F3F394F4E0FF1238
:10049000F1CFF8018485843009F45FC02091000118
:1004A000309101012F5F3F4F11F420E030EC309389
:1004B000010120930001409100015091010120E0D1
:1004C00061E00E945F0BF801F4848A818F3F51F450
:1004D0008B818F3F91F48C818F3F79F48D818F3F99
:1004E00061F438C0811109C08B81811106C08C81F3
:1004F000811103C08D81882369F1C114D10451F1A8
:1005000080E590E00E94B301BE016E5F7F4F8F2DAA
:1005100090E0982F882744E050E0845F9B4F0E9432
:10052000AC09B6018F2D0E94120E64E070E08F2D91
:100530000E943D0FC8010E94630E873189F061E07F
:1005400070E080E090E00E94C908C8010E94630E3C
:100550008111F0CF84E0F801848780E090E002C050
:1005600081E090E0DF91CF911F910F91FF90DF909C
:10057000CF9008952F923F924F925F926F927F9209
:100580008F929F92AF92BF92CF92DF92EF92FF92A3
:100590000F931F93CF93DF93CDB7DEB765970FB659
:1005A000F894DEBF0FBECDBF7C016B013A01FB01A9
:1005B00020E080E090E06AE03191332309F140EDE2
:1005C000430F4A3080F4689FA001699F500D1124A9
:1005D000CA01C097830F911D37FD9A958F3F9105F2
:1005E00059F350F313C03E3289F4233079F0D3012C
:1005F000A20FB11D12968C932F5F80E090E0DCCFAC
:10060000233021F4F301858381E021C0F701428189
:100610005381648175818091450490914604A09135
:100620004704B0914804481759076A077B0709F443
:100630009EC10E9403098701085F1F4F6F707727D3
:100640007C5FC8010E943C0D813019F080E090E091
:10065000F3C18CEB91E09A838983F70182819381C6
:10066000A481B5818B839C83AD83BE8345E350E039
:10067000BE016F5F7F4FC8010E94230E892B19F4C2
:10068000C12CD12C6FC10E940309F70177836683C7
:100690007627672776277A83698342E050E0BE0198
:1006A0006F5F7F4FC8010E947C0C81E090E09E87C5
:1006B0008D8742E050E0BE01635F7F4FC8010E941A
:1006C0007C0C80E091E09E878D8742E050E0BE0187
:1006D000635F7F4FC8010E947C0C1E861D8642E02E
:1006E00050E0BE01635F7F4FC8010E947C0C42E076
:1006F00050E0BE01635F7F4FC8010E947C0C42E066
:1007000050E0BE01635F7F4FC8010E947C0C560120
:10071000F5018081882311F1F6015F01819181113A
:1007200015C045018C189D081814190494F48F867F
:1007300041E050E0BE01615F7F4FC8010E947C0C28
:10074000A401B601C8010E947C0C03C08E3229F7B7
:10075000E8CF6501FFEFCF1ADF0ADACF1F8641E04D
:1007600050E0BE01615F7F4FC8010E947C0CC12C2C
:10077000DD24D394DE86CD8642E050E0BE01635F87
:100780007F4FC8010E947C0CDE86CD8642E050E09F
:10079000BE01635F7F4FC8010E947C0CC8010E94AC
:1007A000DA0D892B09F46CCF63E0A62EB12CF2E0B0
:1007B0006F0E711C0E9403091B012C01C8010E94CD
:1007C000F20A18161906A4F00E940309DC01CB01F5
:1007D00082199309A409B50989389341A105B10586
:1007E000D0F462E370E080E090E00E94C908E6CFB8
:1007F000F7014281538164817581808D918DA28D35
:10080000B38D481759076A077B0741F4848D958D8E
:10081000C59721F406C02FEF3FEF9AC02EEF3FEFB0
:1008200097C0F70181A192A10C970CF4A6C04CE0EF
:1008300050E0BE016F5F7F4FC8010E94AA0A8B8102
:1008400090E0982F88272C81822B9A8B898B298185
:1008500030E0322F22274A81242BF701468157812D
:100860004217530709F086C097FF84C08F709270BB
:10087000892B09F0DEC0CF80D12CDC2CCC248885DC
:10088000C82AC114D10409F4D1C0812C912C8D81C6
:1008900090E0982F88272E81822B8816990608F4DD
:1008A0006FC0812C912C41E050E0BE016D5E7F4F06
:1008B000C8010E94AA0A8B89982F907C09F093C0E6
:1008C000811186C08B898111EECF42E050E0BE01DC
:1008D000615F7F4FC8010E94AA0A42E050E0BE015A
:1008E000635F7F4FC8010E94AA0AC8010E94C90A1B
:1008F000C8010E94C90AC8010E94C90AC8010E9411
:10090000C90A42E050E0BE016F5E7F4FC8010E94FD
:10091000AA0A8F8598898115914009F069C02D85B3
:100920003E853227232732272130310509F060C068
:1009300089899A898115944009F075C044E050E096
:10094000B301C8012C8B3D8B0E94AA0A2C893D89DA
:100950006901F1E0AF1AB10829F02FEFC216D206F3
:1009600009F428CFC8010E94270DC60165C08EEF8B
:100970009FEF62C02CEF3FEFEBCF2DEF3FEFE8CFC3
:1009800041E050E0BE01635F7F4FC8010E94AA0AA8
:100990008D85811113C08D858111F2CFC8010E9410
:1009A000C90AC8010E94C90AC8010E94C90AC8012F
:1009B0000E94C90AFFEF8F1A9F0A69CF8D859FEFAA
:1009C000980F9D87882339F3C8010E94C90AF6CF82
:1009D0008B899FEF980F9B8B882309F473CFC801F5
:1009E0000E94C90AF5CFC8010E94C90A1B8A6ACFB2
:1009F000412C512C89899A8998278927982748164C
:100A0000590638F4C8010E94C90A8FEF481A580ADB
:100A1000F1CFEFEF8E1A9E0A8C149D0409F043CF9C
:100A200026EF3FEF95CF27EF3FEF92CF2AEF3FEF33
:100A30008FCF2BEF3FEF8CCF65960FB6F894DEBFCC
:100A40000FBECDBFDF91CF911F910F91FF90EF901F
:100A5000DF90CF90BF90AF909F908F907F906F90DE
:100A60005F904F903F902F900895CF92DF92EF923A
:100A7000FF920F931F93CF93DF93CDB7DEB7AF975E
:100A80000FB6F894DEBF0FBECDBF7C016A010CEB40
:100A900011E01A8309831C861B8688EE93E0A0E090
:100AA000B0E08D879E87AF87B88B8AE391E09A8705
:100AB0008987188F0F8B198E1A8E1B8E1C8E84E0DF
:100AC00089A31DA30CA31EA21FA218A619A680917C
:100AD0003D0490913E04A0913F04B09140048CA746
:100AE0009DA7AEA7BFA78B839C83AD83BE831886CB
:100AF0001F82AE014C5D5F4FCE0101960E94BA028B
:100B000081309105B1F4D701ED91FC910484F58514
:100B1000E02D1BA70AA78EA19FA1A8A5B9A58CA708
:100B20009DA7AEA7BFA7A601BE01665D7F4FC70107
:100B30000995AF960FB6F894DEBF0FBECDBFDF911B
:100B4000CF911F910F91FF90EF90DF90CF9008957C
:100B50001F920F920FB60F9211242F933F934F9332
:100B60005F936F937F938F939F93AF93BF93EF9315
:100B7000FF93E0914B04F0914C04309709F451C07D
:100B8000968DA685B785858591FF04C09C918923A4
:100B900029F447C09C91892309F043C0A389B489F3
:100BA0009C918589809589238C9386899789019763
:100BB000F1F7608D718DA685B785558538E020E009
:100BC000CB010197F1F7822F90E095958795282F1B
:100BD0004C91452309F02068315091F7868D81FDB5
:100BE000209580914A0490E001968F739927309167
:100BF0004904381749F0A0914A04B0E0AC5FBC4FFB
:100C00002C9380934A0403C0868D8160868F828DE9
:100C1000938D0197F1F7A389B4899C918589892BDC
:100C20008C93FF91EF91BF91AF919F918F917F91A5
:100C30006F915F914F913F912F910F900FBE0F9049
:100C40001F901895CF92DF92EF92FF920F931F9310
:100C5000CF93DF936C017A018B01C0E0D0E0CE1519
:100C6000DF0589F0D8016D918D01D601ED91FC91E0
:100C70000190F081E02DC6010995892B11F47E01C8
:100C800002C02196ECCFC701DF91CF911F910F9148
:100C9000FF90EF90DF90CF900895FC01918D828DB1
:100CA000981761F0828DDF01A80FB11D5D968C91C0
:100CB000928D9F5F9F73928F90E008958FEF9FEFCB
:100CC0000895FC01918D828D981731F0828DE80F87
:100CD000F11D858D90E008958FEF9FEF0895FC0141
:100CE000918D228D892F90E0805C9F4F821B91090E
:100CF0008F73992708958EE993E00E946F0621E093
:100D0000892B09F420E0822F0895FC01848DDF01F6
:100D1000A80FB11DA35ABF4F2C91848D90E001966E
:100D20008F739927848FA689B7892C93A089B1895D
:100D30008C9180648C93938D848D981306C0028867
:100D4000F389E02D80818F7D80830895EF92FF925B
:100D50000F931F93CF93DF93EC0181E0888F9B8DDE
:100D60008C8D981305C0E889F989808185FD24C0A0
:100D7000F62E0B8D10E00F5F1F4F0F731127E02E23
:100D80008C8DE8120CC00FB607FCFACFE889F98900
:100D9000808185FFF5CFCE010E948506F1CF8B8D36
:100DA000FE01E80FF11DE35AFF4FF0820B8FEA8935
:100DB000FB898081806207C0EE89FF896083E889B2
:100DC000F98980818064808381E090E0DF91CF9118
:100DD0001F910F91FF90EF900895CF93DF93EC0157
:100DE000888D8823C9F0EA89FB89808185FD05C04B
:100DF000A889B9898C9186FD0FC00FB607FCF5CF85
:100E0000808185FFF2CFA889B9898C9185FFEDCFCC
:100E1000CE010E948506E7CFDF91CF910895DC01D6
:100E2000ED91FC910190F081E02D09948F929F92B9
:100E3000AF92BF92CF92DF92EF92FF920F931F93E8
:100E4000CF93DF937C018B016C0182E0C80ED11C33
:100E50004701E5E08E0E911CC0E0D0E0F601419123
:100E60006F0150E060E070E02AE0C8010E942412A7
:100E70005C016EE2C8010E940F078A0D9B1DC80F1E
:100E8000D91FC814D90451F7F701458150E060E03B
:100E900070E02AE0C8010E9424128C0F9D1FDF9190
:100EA000CF911F910F91FF90EF90DF90CF90BF9067
:100EB000AF909F908F9008956115710579F0FB01B7
:100EC00001900020E9F73197AF01461B570BDC0179
:100ED000ED91FC910280F381E02D099480E090E097
:100EE000089563ED71E00C945C070F931F93CF930B
:100EF000DF93EC01E881F981DB0114964D915C915F
:100F000015976D917C910280F381E02D09958C01FC
:100F1000CE010E947107800F911FDF91CF911F9129
:100F20000F9108951F920F920FB60F9211242F93D5
:100F30003F934F935F936F937F938F939F93AF9361
:100F4000BF93EF93FF938EE993E00E948506FF9194
:100F5000EF91BF91AF919F918F917F916F915F9131
:100F60004F913F912F910F900FBE0F901F901895AA
:100F70001F920F920FB60F9211242F938F939F936E
:100F8000EF93FF93E091AE03F091AF038081E09186
:100F9000B403F091B50382FD12C090818091B70334
:100FA0008F5F8F732091B803821751F0E091B703E0
:100FB000F0E0E256FC4F958F8093B70301C080812B
:100FC000FF91EF919F918F912F910F900FBE0F90F6
:100FD0001F90189580E090E0892B29F00E947B06F5
:100FE00081110C94000008953FB7F894809182031A
:100FF00090918303A0918403B091850326B5A89BAB
:1010000005C02F3F19F00196A11DB11D3FBFBA2F9A
:10101000A92F982F8827820F911DA11DB11DBC01FA
:10102000CD0142E0660F771F881F991F4A95D1F7BF
:10103000089508950E940C191F93CF93DF93182FE2
:1010400066E270E00E94B40DC82FD0E067E270E065
:10105000812F0E94B40DDC2FCC279E01282BC901C3
:10106000DF91CF911F910895833081F028F4813072
:1010700099F08230A1F008958730A9F08830B9F056
:101080008430D1F4809180008F7D03C080918000F6
:101090008F7780938000089584B58F7702C084B5E0
:1010A0008F7D84BD08958091B0008F7703C08091BB
:1010B000B0008F7D8093B00008951F93CF93DF938E
:1010C000282F30E0F901E358FF4F8491F901EC5CDF
:1010D000FE4FD491F901E05EFE4FC491CC23C9F0DC
:1010E000162F81110E943408EC2FF0E0EE0FFF1F45
:1010F000E45FFE4FA591B4918FB7F894111105C02C
:101100009C91ED2FE095E92302C0EC91ED2BEC933F
:101110008FBFDF91CF911F910895CF93DF9390E020
:10112000FC01EC5CFE4F2491FC01E05EFE4F8491DB
:10113000882361F190E0880F991FFC01E85BFE4F66
:10114000C591D491FC01E45FFE4FA591B49161116A
:1011500009C09FB7F8948881209582238883EC91F9
:101160002E230BC0623061F49FB7F8943881822F30
:10117000809583238883EC912E2B2C939FBF06C0F0
:101180008FB7F894E8812E2B28838FBFDF91CF9102
:1011900008958F929F92AF92BF92CF92DF92EF927B
:1011A000FF926B017C010E94F4074B015C01C114AA
:1011B000D104E104F104F1F00E94F407DC01CB0159
:1011C00088199909AA09BB09883E9340A105B10570
:1011D00070F321E0C21AD108E108F10888EE880E08
:1011E00083E0981EA11CB11CC114D104E104F104D8
:1011F00019F7DDCFFF90EF90DF90CF90BF90AF90C9
:101200009F908F9008952FB7F89460917E0370910E
:101210007F0380918003909181032FBF08951F92D7
:101220000F920FB60F9211242F933F938F939F939A
:10123000AF93BF9380917E0390917F03A091800331
:10124000B091810330917D0323E0230F2D3720F4EB
:101250000196A11DB11D05C026E8230F0296A11D10
:10126000B11D20937D0380937E0390937F03A09311
:101270008003B09381038091820390918303A091B6
:101280008403B09185030196A11DB11D8093820353
:1012900090938303A0938403B0938503BF91AF9190
:1012A0009F918F913F912F910F900FBE0F901F90A4
:1012B00018952A9A08952A9808951F93CF93DF933B
:1012C000182F60E270E00E94B40DC82FD0E061E2F8
:1012D00070E0812F0E94B40DDC2FCC279E01282BBB
:1012E000C901DF91CF911F9108958EBD00000DB40B
:1012F00007FEFDCF8EB50895CF92DF92EF92FF9259
:101300000F931F93CF93DF93EC017A018B016C0154
:10131000C40ED51ECC15DD05A9F00E945B098FE037
:101320000E9475098D2F0E9475098C2F0E947509E6
:10133000219680E00E947509F80181938F010E9437
:101340005909E8CFC701DF91CF911F910F91FF900D
:10135000EF90DF90CF900895CF92DF92EF92FF92BF
:101360000F931F93CF93DF93EC017A018B016C01F4
:10137000C40ED51ECC15DD05A1F00E945B0980EFDF
:101380000E9475098D2F0E9475098C2F0E94750986
:101390002196F80181918F010E9475090E945909D7
:1013A000E9CFC701DF91CF911F910F91FF90EF908F
:1013B000DF90CF9008951F93CF93DF9300D0CDB7E8
:1013C000DEB7182F6A8399830E945B0980EF0E9421
:1013D00075099981892F0E947509812F0E947509CD
:1013E0006A81862F0E9475090E94590981E00F9039
:1013F0000F90DF91CF911F9108951F93CF93DF93AB
:1014000000D0CDB7DEB7182F80E590E069837A83EE
:101410000E94B30121E041E050E069817A81812F8F
:101420000E944D0F0E94B20181E090E00F900F905A
:10143000DF91CF911F910895CF93DF931F92CDB786
:10144000DEB7FC01218D328D232B49F0BE016F5F89
:101450007F4F808D0E94FD09898190E002C08FEF4F
:101460009FEF0F90DF91CF910895FF920F931F93FD
:10147000CF93DF93F82E80E590E00E94B301C0E0A7
:10148000D0E08F2D0E941C088C01892B21F08F2D1C
:101490000E941C08EC01C017D10799F70E94B20105
:1014A000CE01DF91CF911F910F91FF900895AF92E0
:1014B000BF92CF92DF92EF92FF921F93CF93DF9371
:1014C000182F5B017A0180E590E00E94B301C0E033
:1014D000D0E0812F0E941C086C01892B21F0812F04
:1014E0000E941C08EC01CC15DD0599F7209799F4B2
:1014F00063E070E0812F0E94B40D8431F1F0882305
:10150000E1F0C1E0D0E08C3111F4C0E0D0E0D19541
:10151000C195D10912C0EC16FD060CF4E7011C16AA
:101520001D065CF420E0AE01B501812F0E944D0F35
:1015300060E470E0812F0E943D0F0E94B201CE0155
:10154000DF91CF911F91FF90EF90DF90CF90BF90F0
:10155000AF900895CF93DF93FC01218D328D21153B
:10156000310519F48FEF9FEF11C0EC0142175307BB
:1015700008F0A901888D0E94570A1816190694F7D9
:10158000298D3A8D281B390B3A8F298FDF91CF9106
:1015900008950F931F93CF93DF931F92CDB7DEB7BC
:1015A000FC01218D328D232B61F08C0141E050E054
:1015B000BE016F5F7F4F808D0E94570A1816190673
:1015C0001CF08FEF9FEF08C0F801818D928D01977D
:1015D000928F818F898190E00F90DF91CF911F9141
:1015E0000F9108950F931F93CF93DF93CDB7DEB77D
:1015F00028970FB6F894DEBF0FBECDBF8C01F8015F
:10160000818D928D892B49F0D801ED91FC91068056
:10161000F781E02DC8010995F2CF808D0E94350A2F
:10162000181619065CF548E050E0BE016F5F7F4F69
:10163000D80158968C910E94570A9C0118161906D9
:10164000DCF489819A81AB81BC81F801808B918B1C
:10165000A28BB38B8D8190E0982F88272E81820FEB
:10166000911D958B848B2F8130E0322F2227888526
:10167000280F311D328F218FC90102C080E090E018
:1016800028960FB6F894DEBF0FBECDBFDF91CF9185
:101690001F910F910895CF93C82F80E590E00E948D
:1016A000B30160E170E08C2F0E943D0F4FEF62E0CC
:1016B00070E08C2F0E94AA0DCF910C94B201FF9282
:1016C0000F931F93CF93DF9300D0CDB7DEB7F82EE3
:1016D0008A012A8369830E944B0B80E590E00E9477
:1016E000B3012A816981462F422B60E070E08F2D83
:1016F0000E94AA0D0115110551F400917B03109170
:101700007C030F5F1F4F10937C0300937B03412FDB
:1017100064E070E08F2D0E94AA0D402F65E070E01C
:101720008F2D0E94AA0D61E070E08F2D0E943D0F69
:101730000E94B20181E00F900F90DF91CF911F9135
:101740000F91FF900895BF92CF92DF92EF92FF9298
:101750000F931F93CF93DF9300D000D000D0CDB76D
:10176000DEB7FC01208D243009F053C06A017B01F3
:101770008C01B12C63E070E08B2D0E94B40D8111BF
:1017800003C0F801B08E06C08831D9F3B394F4E0F9
:10179000BF12F0CFF801808D8430D9F196E0ECE0F3
:1017A000F1E0DE01119601900D929A95E1F7F701B3
:1017B00093819F779C8394819D8395819E83B701BC
:1017C0006E5F7F4F90E0982F882744E050E0845F61
:1017D0009B4F0E94AC09B601F801808D0E94120E49
:1017E000F801808D90E0982F882746E050E0BE01F8
:1017F0006F5F7F4F8A5F9B4F0E94AC09F801128E8A
:10180000118E20E8A60162E0808D0E945F0B81E0CE
:1018100001C080E026960FB6F894DEBF0FBECDBFA4
:10182000DF91CF911F910F91FF90EF90DF90CF90BC
:10183000BF9008951F93CF93DF931F92CDB7DEB76C
:10184000182F80E590E00E94B30163E070E0812FE3
:101850000E94B40D89830E94B20189810F90DF91AB
:10186000CF911F910895CF93DF931F92CDB7DEB72D
:101870006983DC01ED91FC910280F381E02D41E070
:1018800050E0BE016F5F7F4F09950F90DF91CF91C0
:101890000895FC01818D928D0895FC0184899589BC
:1018A00008952CEB31E0FC0131832083FB0140895A
:1018B000518962897389FC014283538364837583F0
:1018C0000895DC01ED91FC91008CF18DE02D0994DF
:1018D000FC019485FB018485981303C081E094305A
:1018E00009F480E0089521E0FC018485843009F446
:1018F00020E0822F08950895AF92BF92CF92DF9299
:10190000FF920F931F93CF93DF938C015B01EA014A
:10191000FC01C688D788F08C80E590E00E94B30176
:101920008F2D0E949A118C179D0720F48F2D0E94F5
:101930009A11EC019E01A501B6018F2D0E9435116F
:101940000E94B201F801868997898C0F9D1F978BA1
:10195000868BCE01DF91CF911F910F91FF90DF9089
:10196000CF90BF90AF900895CF92DF92EF92FF9209
:101970000F931F93CF93DF93CDB7DEB7AF970FB61B
:10198000F894DEBF0FBECDBF7C016A010CEB11E005
:101990001A8309831C861B8688EE93E0A0E0B0E0E2
:1019A0008D879E87AF87B88B8AE391E09A87898776
:1019B000188F0F8B198E1A8E1B8E1C8E84E089A3B4
:1019C0001DA30CA31EA21FA218A619A680913D0458
:1019D00090913E04A0913F04B09140048CA79DA734
:1019E000AEA7BFA78B839C83AD83BE8318861F825F
:1019F000AE014C5D5F4FCE0101960E94BA0281306C
:101A00009105B1F4D701ED91FC910088F189E02DA9
:101A10001BA70AA78EA19FA1A8A5B9A58CA79DA7C2
:101A2000AEA7BFA7A601BE01665D7F4FC70109959E
:101A3000AF960FB6F894DEBF0FBECDBFDF91CF914A
:101A40001F910F91FF90EF90DF90CF900895CF936B
:101A5000DF93EC01888D843061F00E944B0BE88DA0
:101A6000F0E0EE0FFF1FEA57FC4F1182108284E076
:101A7000888FDF91CF910895EF92FF921F93CF93BC
:101A8000DF93FC01208D243011F080E01CC07B012D
:101A9000EC0110E0812F0E941A0C811102C0188FF6
:101AA00005C08831E1F31F5F1430A1F7888D8430C1
:101AB00061F3FD86EC861A8E198E20E0A70162E0A4
:101AC0000E945F0B81E0DF91CF911F91FF90EF901B
:101AD00008950F931F93CF93DF931F92CDB7DEB777
:101AE0008C01DC01ED91FC910480F581E02D0995DC
:101AF000892B51F0BE016F5F7F4FF80184850E94F2
:101B0000FD09898190E002C08FEF9FEF0F90DF9178
:101B1000CF911F910F910895FC0184850C94570A71
:101B2000CF93DF931F92CDB7DEB741E050E0BE0107
:101B30006F5F7F4FFC0184850E94570A18161906B3
:101B40001CF4898190E002C08FEF9FEF0F90DF912E
:101B5000CF9108959B0190E00496982F8827642FD9
:101B6000820F931F0C94DB090F931F93CF93DF9386
:101B70001F92CDB7DEB790E00496982F88278C018E
:101B8000060F171F0E945B098FE00E947509812FC5
:101B90000E947509802F0E94750980E00E947509D6
:101BA00089830E94590989810F90DF91CF911F91FC
:101BB0000F910895CF93FC01C08D80E590E00E94C5
:101BC000B30160E270E08C2F0E943D0F62E070E094
:101BD0008C2F0E94B40D84FD19C062E070E08C2F40
:101BE0000E94B40D83FF0BC048E162E070E08C2FCF
:101BF0000E94AA0D0E94B20180E090E011C00E94F4
:101C0000B20180E590E00E94B301E0CF40E162E0E4
:101C100070E08C2F0E94AA0D0E94B20181E090E03A
:101C2000CF910895CF93DF93C82FD62F472F60E130
:101C300070E00E94AA0D4D2F61E170E08C2FDF91C2
:101C4000CF910C94AA0DFF920F931F93CF93DF9324
:101C5000FB01DC0157961C921E9256975896FC90F9
:101C60008281811109C08381811106C08481811123
:101C700003C085818823F9F041155105E1F08A01FF
:101C8000EF0180E590E00E94B301BE016E5F7F4FDF
:101C90002F2D30E0922F882744E050E0845F9B4F47
:101CA0000E94AC09B8018F2D0E94120E0E94B20151
:101CB00081E090E002C080E090E0DF91CF911F9141
:101CC0000F91FF900895FC018485843011F00C94ED
:101CD0001A0C80E00895CF93DF93FC012485243013
:101CE000D1F0EC010E94630E843181F0882371F001
:101CF000883161F08C3161F4E881F9810480F581EB
:101D0000E02DCE01099521E0892B19F420E001C0D6
:101D100021E0822F01C080E0DF91CF910895CF9222
:101D2000DF92EF92FF921F93CF93DF93FC01148514
:101D30001430A9F1EC0180E590E00E94B30168E065
:101D400070E0812F0E943D0F0E94B2010E940309A2
:101D50006B017C01CE010E94630E8823B1F061E02B
:101D600070E080E090E00E94C9080E940309DC0155
:101D7000CB018C199D09AE09BF09883E9340A1058E
:101D8000B10540F38C850E944B0BEC85F0E0EE0F23
:101D9000FF1FEA57FC4F1182108284E08C87DF918D
:101DA000CF911F91FF90EF90DF90CF9008950F9308
:101DB0001F93CF93DF938C01C0E0D0E0F801EC0FCC
:101DC000FD1F6491662371F0E0919E03F0919F03E3
:101DD0000190F081E02D8EE993E00995892B11F0B7
:101DE0002196ECCFCE01DF91CF911F910F910895F5
:101DF000CF93DF930E94D70EEC018EE993E00E940F
:101E000071078C0F9D1FDF91CF910895CF92DF92C4
:101E1000EF92FF92CF93DF936C01990FEE08FF08CA
:101E2000F7FE16C06DE28EE993E00E940F07EC0109
:101E300044275527BA014C195D096E097F092AE02C
:101E40008EE993E00E9424127C01EC0EFD1E08C076
:101E50002AE0B701A6018EE993E00E9424127C01DA
:101E60008EE993E00E9471078E0D9F1DDF91CF9147
:101E7000FF90EF90DF90CF900895CF93C82F462F1B
:101E800061E070E00E94AA0D61E070E08C2F0E947A
:101E9000B40D8111F9CFCF9108958F929F92AF9297
:101EA000BF92CF92DF92EF92FF920F931F93CF9347
:101EB000DF93B82E4B018A01A22E68E270E00E94E7
:101EC000B40DC82FD0E069E270E08B2D0E94B40DF4
:101ED000DC2FCC27C82B9E013770CB2CD12CC60110
:101EE000880F991FAC014A565C4F6A01FA01808144
:101EF0009181820F931FA801420F531F4130584018
:101F000098F060E078E07B01E21AF30AA701B401DF
:101F10000E947C09A8014E195F09B4016E0D7F1D56
:101F2000F6018081918102C0A801B4010E947C0960
:101F3000A1100EC0C00FD11F4D2F68E270E08B2D95
:101F40000E94AA0D4C2F69E270E08B2D0E94AA0D11
:101F5000DF91CF911F910F91FF90EF90DF90CF9085
:101F6000BF90AF909F908F9008950F931F93CF9342
:101F7000DF93EC0188819981009729F02A813B81C8
:101F80002617370788F48B016F5F7F4F0E94421836
:101F9000009761F0998388831B830A832C813D819C
:101FA000232B11F4FC01108281E001C080E0DF915D
:101FB000CF911F910F910895EEE9F3E0A089B189C7
:101FC00082E08C93A485B5851C92A685B78587E0B1
:101FD0008C93108EA489B58986E08C93A289B389ED
:101FE0008C9180618C93A289B3898C9188608C9349
:101FF000A289B3898C9180688C930288F389E02D43
:1020000080818F7D80830895CF92DF92EF92FF923F
:102010000F931F93CF93DF93CDB7DEB7C254D1098F
:102020000FB6F894DEBF0FBECDBF8C01FB018281DD
:102030009381A481B58123968CAF9DAFAEAFBFAF26
:10204000239721E023962FAF239723964CAD5DADC8
:102050006EAD7FAD23974BAB5CAB6DAB7EAB89AF09
:102060009AAFABAFBCAF8DA79EA7AFA7B8AB28AB5D
:102070004DA55EA56FA578A94FA358A769A77AA714
:102080002EAB4BA95CA96DA97EA949A35AA36BA34A
:102090007CA38B8F9C8FAD8FBE8F4CEB51E05C8B04
:1020A0004B8B3FEF3D8B3E8B3F8B188E5E874D8772
:1020B0002AA7CFA0D8A4E9A4FAA4CF86D88AE98A0F
:1020C000FA8A2CA3C9A0DAA0EBA0FCA0C986DA8604
:1020D000EB86FC865A8349838B839C83AD83BE83C6
:1020E0006CE271E080E090E00E94C908FFB6F894CD
:1020F0008091DB04811127C0EAE2F1E08491EEE3F4
:10210000F1E09491E82FF0E0EE0FFF1FE85BFE4F47
:10211000A591B491EC91E92321F461E08AE00E9459
:102120005D0861E08AE00E948D088CB580618CBDFD
:102130008CB580648CBD61E08DE00E948D0861E00B
:102140008BE00E948D088091DB048F5F8093DB041D
:10215000FFBE229A80E590E00E94B30160E880E033
:1021600090E00E94DB0965E58BE190E00E94DB09CD
:1021700065E58AE190E00E94DB090E94B20180E0FF
:1021800090E490938F0380938E0380E090E6909389
:1021900097038093960380E098E490939103809353
:1021A000900380E098E6909399038093980380E0F1
:1021B00090E5909393038093920380E090E790934F
:1021C0009B0380939A0380E098E590939503809316
:1021D000940380E098E790939D0380939C0380E5AF
:1021E00090E00E94B30146E050E0B80189E090E041
:1021F0000E94AC0944E050E0BE016D5F7F4F8FE06C
:1022000090E00E94AC0944E050E0BE01615F7F4F66
:1022100081E090E00E94AC0944E050E0BE016B5EBA
:102220007F4F85E090E00E94AC090E94B20181E0FE
:102230008C8789859A85AB85BC8580933D04909376
:102240003E04A0933F04B0934004CE5BDF4F0FB633
:10225000F894DEBF0FBECDBFDF91CF911F910F91DC
:10226000FF90EF90DF90CF9008959F92AF92BF9232
:10227000CF92DF92EF92FF920F931F93CF93DF9352
:10228000982E8B015A01690164E270E00E94B40D3E
:10229000E82EF12C65E270E0892D0E94B40DFE2C31
:1022A000EE24E82AE701C00FD11F9E013770E92C08
:1022B000F12CC701880F991FAC0142575C4F7A017E
:1022C000FA0180819181820F931FA9014C0D5D1D40
:1022D0004130584090F000E018E0021B130BA801B9
:1022E000B5010E94AC09A601401B510BB501600F5E
:1022F000711FF7018081918102C0A601B5010E9482
:10230000AC09CC0DDD1D4D2F64E270E0892D0E94DB
:10231000AA0D4C2F65E270E0892DDF91CF911F91BE
:102320000F91FF90EF90DF90CF90BF90AF909F9074
:102330000C94AA0DFF920F931F93CF93DF93F82E67
:10234000C0E0D0E08F2D0E945D098C01892B21F027
:102350008F2D0E945D09EC01C017D10799F7CE01BE
:10236000DF91CF911F910F91FF900895EF92FF920F
:102370000F931F93CF93DF93FC0124813581611567
:10238000710511F480E019C041155105A9F07B01D8
:10239000EC018A01020F131FB8010E94B50F8823B8
:1023A00089F3288139818C819D81B701820F931F28
:1023B0000E941A191D830C8381E0DF91CF911F9138
:1023C0000F91FF90EF900895EF92FF920F931F935C
:1023D000CF93DF93EC017B018A01BA010E94B50F14
:1023E0002881398181110DC02115310519F0C901EC
:1023F0000E94B619198218821D821C821B821A82C1
:1024000006C01D830C83B701C9010E941A19CE01B1
:10241000DF91CF911F910F91FF90EF900895FC01F4
:102420001182108213821282158214826115710545
:1024300051F0FB0101900020E9F73197AF01461BF5
:10244000570B0C94E41108954F925F926F927F9214
:10245000EF92FF920F931F93CF93DF93CDB7DEB729
:10246000A1970FB6F894DEBF0FBECDBF7C01FA0175
:10247000CB0119A2223008F42AE08E010F5D1F4F14
:10248000422E512C612C712CBF01A30192010E949C
:10249000831AF901CA01015011096A3014F4605D10
:1024A00001C0695CD8016C93232B242B252B61F789
:1024B000B801C7010E945C07A1960FB6F894DEBF71
:1024C0000FBECDBFDF91CF911F910F91FF90EF9085
:1024D0007F906F905F904F9008950F931F93CF93CD
:1024E000DF93EC01CB01DB01ED91FC910190F081D8
:1024F000E02DBE0109958C01CE010E947107800F6D
:10250000911FDF91CF911F910F9108950F931F930A
:10251000CF93DF93EC010E945C078C01CE010E94F7
:102520007107800F911FDF91CF911F910F91089537
:102530000F931F93CF93DF9300D000D000D0CDB77F
:10254000DEB78C018CEB91E09A83898380916304E0
:1025500090916404A0916504B09166048B839C8380
:10256000AD83BE8348E557E0BE016F5F7F4F87E6CE
:1025700094E00E942A02892B09F448C065E672E0C3
:102580008EE993E00E9486126FE772E087E694E09E
:102590000E945C076CE872E087E694E00E94861275
:1025A00066E972E087E694E00E945C0761E674E009
:1025B00087E694E00E946D126DE972E087E694E090
:1025C0000E9486126FEA72E087E694E00E945C0740
:1025D000F8014481558160E070E02AE087E694E0EC
:1025E0000E94241287E694E00E94710760EC72E07A
:1025F00087E694E00E94861287E694E00E947107C5
:10260000B80187E694E00E94750714C082E591E066
:102610000E94F80E0FC087E694E00E94A901892B62
:1026200049F087E694E00E94900D682F8EE993E0D0
:102630000E940F0787E694E00E946B0E8111EBCF9A
:1026400060EF72E08EE993E00E94861287E694E0E4
:102650000E948F0E26960FB6F894DEBF0FBECDBF38
:10266000DF91CF911F910F91089580917404909103
:1026700075040E94B61980917A0490917B040E949F
:10268000B61984E991E0909381048093800480914D
:102690004B0490914C048058944071F4E091930461
:1026A000F091940490818091950480958923808392
:1026B00010924C0410924B040895CF93DF93CDB742
:1026C000DEB72E970FB6F894DEBF0FBECDBF78945D
:1026D00084B5826084BD84B5816084BD85B5826027
:1026E00085BD85B5816085BD80916E0081608093D8
:1026F0006E00109281008091810082608093810041
:102700008091810081608093810080918000816050
:10271000809380008091B10084608093B1008091AB
:10272000B00081608093B00080917A0084608093D3
:102730007A0080917A00826080937A0080917A009A
:10274000816080937A0080917A00806880937A001B
:102750001092C100109277031092780310927903BF
:1027600010927A0310924503109246031092470389
:102770001092480360ED77E080E090E00E94C90885
:102780008EE993E090937603809375030E94DC0FAB
:102790000E940309009145031091460320914703CD
:1027A00030914803DC01CB01801B910BA20BB30BD2
:1027B00084369105A105B10538F463E070E080E04E
:1027C00090E00E94C908E4CF0E940309609345038A
:1027D00070934603809347039093480364EC71E041
:1027E00080917503909176030E945C076AE070E027
:1027F00080E090E00E94C90881E08093490360E096
:1028000085E00E948D080E94DC0F66ED71E08EE984
:1028100093E00E94861269EE71E08EE993E00E94D7
:10282000861288E690E00E94F80E9CEBC92E91E09B
:10283000D92EDA82C98280915D0490915E04A091C4
:102840005F04B09160048B839C83AD83BE838E0153
:102850000F5F1F4FB8018FE494E00E94041060E006
:1028600072E08EE993E00E945C07DA82C9821B82E3
:102870001C821D821E8280E590E00E94B30144E02C
:1028800050E0BE016D5F7F4F8FE090E00E947C09B9
:102890000E94B201B8018EE993E00E946D1268EEC9
:1028A00073E080E090E00E94C9089801205E344007
:1028B0003E872D875E0137E0A30EB11CE2E8F0E011
:1028C0008491E9E3F1E0D490E5E2F1E0C490CC201A
:1028D00009F4E7C081110E943408EC2DF0E0EE0FFE
:1028E000FF1FEA5EFE4FA591B4918C91D82209F4A6
:1028F000D8C0DAC08CEC90E00E94F80E21143104AC
:1029000009F499C140E050E065ED71E084E794E09E
:102910000E94E411812C912C9101215031093C87B6
:102920002B8781EC90E00E94F80E80E090E0E0912F
:102930004D04F0914E04E80FF91FD201A80FB91F02
:102940001A962C91208301968C30910581F78CEAA0
:1029500090E00E94F80E60904D0470904E0480EA62
:1029600090E00E94F80E630136013CE0630E711C9A
:10297000F60141916F0150E060E070E020E18EE9E6
:1029800093E00E94241260E172E08EE993E00E94DD
:102990005C07C614D70461F781E990E00E94F80E45
:1029A000C0904D04D0904E0465ED71E0C8010E94C6
:1029B0000F123601C12CD12CF30181913F014AE065
:1029C000B50190E00E944E1AF50101900020E9F750
:1029D0003197AF014A195B09B501C8010E94B611D0
:1029E000FBE0CF16D10449F020E22F83188641E0A6
:1029F00050E0B501C8010E94B6113FEFC31AD30AD7
:102A00008CE0C816D104C1F64D815E8169817A815E
:102A100084E794E00E94B61189819A810E94B619D8
:102A2000EB85FC858E169F0641F041E050E060E1A9
:102A300072E084E794E00E94B611FFEF8F1A9F0ABC
:102A400026E1420E511C821493040CF46ACF64E711
:102A500074E08EE993E00E9475071A8219821C8245
:102A60001B821E821D826091740470917504611531
:102A7000710539F04091780450917904C8010E94A1
:102A8000E411C8010E94981289819A810E94B619A6
:102A9000C7010E94B61966E172E08EE993E00E94D8
:102AA00086120E94EA070ACF68E372E08EE993E09B
:102AB0000E94861263E480E894E00E941C0163E0B7
:102AC00080E894E00E941C0161E080E894E00E94AC
:102AD0001C0162E572E08EE993E00E94861268EEC6
:102AE00073E080E090E00E94C908912C812CC12CF9
:102AF000D12C80E894E00E947001892B09F469C010
:102B0000C114D10431F480E894E00E948801882E39
:102B10005CC0F1E0CF16D10431F480E894E00E946B
:102B20008801982E52C022E0C216D10409F045C097
:102B3000492D50E060E070E02AE08EE993E00E94C9
:102B400024128EE993E00E94710780E894E00E94CD
:102B50008801782E899D700111248091DC04909168
:102B6000DD04009719F48D859E8504C0F801E81BEB
:102B7000F90BCF019A83898389819A810E94060F7C
:102B8000C7010E9421197C018091DC049091DD0431
:102B9000009729F42D853E853A83298305C0F801E5
:102BA000E81BF90BFA83E98389819A810E94060F59
:102BB000F70180829182728208C080E894E00E94CE
:102BC0008801F701EC0DFD1D8083FFEFCF1ADF0AAE
:102BD00090CF8BEE90E00E94F80EF7018081843454
:102BE00009F056CF9280292C312C8CEF90E00E9476
:102BF000F80E8DED90E00E94F80E27016701F701B5
:102C00008181899DC001112496012E193F09281741
:102C100039070CF06FCEF60141916F0150E060E092
:102C200070E020E18EE993E00E9424128BED90E0A9
:102C30000E94D70EE4CF62E172E0C8010E940F1239
:102C400020CF8CEB91E09093A6048093A504109282
:102C5000A7041092A8041092A9041092AA0410923A
:102C6000A1031092A00348EE53E060E070E04093AF
:102C7000A2035093A3036093A4037093A50320E6DB
:102C800031E030939F0320939E0325EC30E0309396
:102C9000AB032093AA0324EC30E03093AD032093E0
:102CA000AC0320EC30E03093AF032093AE0321EC73
:102CB00030E03093B1032093B00322EC30E0309346
:102CC000B3032093B20326EC30E03093B503209396
:102CD000B4031092B7031092B8031092B903109284
:102CE000BA039093AC048093AB041092AD0410929D
:102CF000AE041092AF041092B0049093B20480938B
:102D0000B1041092B3041092B4041092B50410925E
:102D1000B6049093B8048093B7041092B90410924B
:102D2000BA041092BB041092BC049093BE0480932A
:102D3000BD041092BF041092C0041092C1041092FE
:102D4000C2049093C4048093C3041092C5041092EB
:102D5000C6041092C7041092C8049093CA048093CA
:102D6000C9041092CB041092CC041092CD0410929E
:102D7000CE049093D0048093CF041092D10410928B
:102D8000D2041092D3041092D40490933C04809304
:102D90003B0410923D0410923E0410923F041092A6
:102DA000400490934404809343041092450410928D
:102DB000460410924704109248049093D6048093DE
:102DC000D5041092D7041092D8041092D90410920E
:102DD000DA049093A00480939F041092A1041092AF
:102DE000A2041092A3041092A404109283041092DF
:102DF0008204409384045093850460938604709306
:102E0000870484E991E09093810480938004109278
:102E100097041092960410929904109298041092BC
:102E20009B0410929A0410929D0410929C0460914D
:102E30009E046E7F6D7F60939E046695617081E055
:102E4000682783E00E945D0861E083E00E948D08AE
:102E5000E7E3F1E0E491E0939004E3E2F1E0E49150
:102E6000F0E0EE0FFF1FE45FFE4F85919491909389
:102E700092048093910460E082E00E948D0880912A
:102E80009E0481FD04C061E082E00E945D0882E052
:102E900080938C04E6E3F1E0E491E0938D04E2E2B8
:102EA000F1E0E491F0E0EE0FFF1FEA5EFE4F859146
:102EB000949190938F0480938E048DE991E0909388
:102EC0009D0480939C042DEB30E030939704209375
:102ED00096042BE931E030939904209398042CE276
:102EE00031E030939B0420939A0420916800246081
:102EF000209368002DE630E03093940420939304EF
:102F000024E0209395040197F1F7E0914B04F091B0
:102F10004C0484E0E038F80709F1309739F0A389D0
:102F2000B4899C918589809589238C9380919E0496
:102F30008E7F80939E0410924A041092490480E888
:102F400094E090934C0480934B04E0919304F091AF
:102F50009404908180919504892B808365ED71E0C4
:102F60008AE794E00E940F1265ED71E084E794E037
:102F70000E940F128CEB91E09093500480934F04C9
:102F800030EC3093510428EA2093520410925304F9
:102F900041E04093540490935604809355044FEFBE
:102FA00040935704409358041092590410925A04C5
:102FB00090935C0480935B0430935D0420935E04E3
:102FC00010925F044AE040936004909362048093FF
:102FD00061043093630420936404109265048BE0D1
:102FE0008093660410926A041092690488EE93E05C
:102FF000A0E0B0E080936B0490936C04A0936D0408
:10300000B0936E0480E791E0909368048093670426
:1030100084E0809373048CE090E00E9421199093E7
:103020004E0480934D04089597FB072E16F40094E8
:1030300007D077FD09D00E94281807FC05D03EF480
:10304000909581959F4F0895709561957F4F089554
:10305000AA1BBB1B51E107C0AA1FBB1FA617B707BE
:1030600010F0A61BB70B881F991F5A95A9F78095DA
:103070009095BC01CD010895EE0FFF1F0590F491CE
:10308000E02D0994A0E0B0E0E8E4F8E10C94A91A7E
:10309000EC01009721F4CB010E942119B8C0FC017A
:1030A000E60FF71F9C0122503109E217F30708F4DD
:1030B000ACC0D9010D911C91119706171707B0F0FC
:1030C0000530110508F49FC0C801049786179707BB
:1030D00008F499C002501109061B170B01931193B4
:1030E0006D937C93CF010E94B6198DC05B01A01A2D
:1030F000B10A4C01800E911EA091DE04B091DF0454
:1031000040E050E0E12CF12C109709F44AC0A815DA
:10311000B905D1F56D907C901197630182E0C80EDE
:10312000D11CCA14DB0480F1A3014A195B096A01AE
:1031300082E0C80ED11C1296BC9012971396AC91E7
:10314000B5E0CB16D10440F0B282A3835183408313
:10315000D9016D937C930AC00E5F1F4FC301800F8E
:10316000911FF90191838083EB2DFA2FE114F10473
:1031700031F0D7011396FC93EE93129744C0F0936D
:10318000DF04E093DE043FC08D919C9111974817B6
:10319000590708F4AC017D0112960D90BC91A02D49
:1031A000B3CF8091DC049091DD0488159905E1F49A
:1031B00046175707C8F480910201909103010097C8
:1031C00041F48DB79EB74091060150910701841BD1
:1031D000950BE817F907C8F4F093DD04E093DC04DD
:1031E000F901718360830FC0CB010E9421197C011A
:1031F000009759F0A801BE010E941119CE010E944A
:10320000B619C70104C0CE0102C080E090E0CDB77E
:10321000DEB7EEE00C94C51A81E090E0F8940C94CF
:10322000DC1AFB01DC0102C001900D9241505040BC
:10323000D8F70895FB01DC0101900D920020E1F721
:103240000895CF93DF938230910510F482E090E0EF
:10325000E091DE04F091DF0420E030E0C0E0D0E057
:10326000309711F14081518148175907C0F0481734
:10327000590761F482819381209719F09B838A8397
:103280002BC09093DF048093DE0426C02115310506
:1032900019F04217530718F49A01BE01DF01EF013C
:1032A0000280F381E02DDCCF2115310509F1281BC7
:1032B000390B2430310590F412968D919C9113971F
:1032C0006115710521F0FB019383828304C0909303
:1032D000DF048093DE04FD01329644C0FD01E20F5D
:1032E000F31F81939193225031092D933C933AC05F
:1032F0002091DC043091DD04232B41F42091040162
:10330000309105013093DD042093DC04209102010B
:10331000309103012115310541F42DB73EB740919D
:10332000060150910701241B350BE091DC04F0915C
:10333000DD04E217F307A0F42E1B3F0B2817390713
:1033400078F0AC014E5F5F4F2417350748F04E0F01
:103350005F1F5093DD044093DC048193919302C07E
:10336000E0E0F0E0CF01DF91CF9108950F931F933C
:10337000CF93DF93009709F48CC0FC01329713823E
:1033800012820091DE041091DF040115110581F411
:1033900020813181820F931F2091DC043091DD0464
:1033A0002817390779F5F093DD04E093DC0471C048
:1033B000D80140E050E0AE17BF0750F412962D91AF
:1033C0003C911397AD012115310509F1D901F3CFD6
:1033D0009D01DA013383228360817181860F971FFB
:1033E0008217930769F4EC0128813981260F371F72
:1033F0002E5F3F4F318320838A819B819383828319
:10340000452B29F4F093DF04E093DE0442C01396C9
:10341000FC93EE931297ED01499159919E01240F6F
:10342000351FE217F30771F480819181840F951F96
:10343000029611969C938E938281938113969C930E
:103440008E931297E0E0F0E0D80112968D919C9156
:103450001397009719F0F8018C01F6CF8D919C918C
:1034600098012E5F3F4F820F931F2091DC04309113
:10347000DD042817390769F4309729F41092DF0426
:103480001092DE0402C0138212821093DD040093B6
:10349000DC04DF91CF911F910F910895BB274A3033
:1034A00031F4992322F4BDE2909581959F4F0C94BD
:1034B0005A1ABB27FB015527AA27880F991FAA1F55
:1034C000A41710F0A41B83955051B9F7A05DAA333F
:1034D00008F0A95DA193009779F7B111B19311920A
:1034E000CB010C94731ADC01FC01672F71917723D7
:1034F000E1F7329704C07C916D9370836291AE17AF
:10350000BF07C8F30895A1E21A2EAA1BBB1BFD0139
:103510000DC0AA1FBB1FEE1FFF1FA217B307E407B2
:10352000F50720F0A21BB30BE40BF50B661F771F0A
:10353000881F991F1A9469F76095709580959095EA
:103540009B01AC01BD01CF0108952F923F924F9294
:103550005F926F927F928F929F92AF92BF92CF9223
:10356000DF92EF92FF920F931F93CF93DF93CDB72C
:10357000DEB7CA1BDB0B0FB6F894DEBF0FBECDBFA4
:1035800009942A88398848885F846E847D848C8475
:103590009B84AA84B984C884DF80EE80FD800C817E
:1035A0001B81AA81B981CE0FD11D0FB6F894DEBF61
:1035B0000FBECDBFED01089510E0C3EBD0E004C015
:1035C000FE010E943C182196C43BD107C9F7F8942C
:0235D000FFCF2B
:1035D20000C00000E00480000100000001005E0065
:1035E2000000000000001A081A081A081A081A082F
:1035F2001A081A081A081A081A081A081A081A08B9
:103602001A081A081A0800000000330C7C0C490C36
:10361200C90A1C0A19083C0D270D230EB40CDA0D39
:10362200F20AAA0A610C510C4D0CA30B0000000017
:10363200A60622066F064D066106ED060000000092
:10364200DE00B601A901900D690D7B0C2A02350539
:103652008C0D8F0E6B0E730C0001FE00680CF400D3
:10366200000000001C0122067001880103011B01F9
:10367200000000001A0822061A081A081A081A0876
:10368200000000001A0822060000000016070000D1
:1036920000001A08564D4450565F317C315F564D3A
:1036A2004450560D0A0053657269616C20696E6957
:1036B2007469616C697A65640053657474696E67D4
:1036C2002075702045746865726E65742E2E2E000A
:1036D2004D7920495020616464726573733A200009
:1036E2002C005B305D004D657373616765526563E5
:1036F2006569766564546167206465737472756385
:10370200746F7220656E6400507265706172696ECA
:103712006720746F2073656E6420646174612E2E5D
:103722002E004461746120686173206265656E20B9
:1037320073656E7400506F7374696E672064617490
:103742006120746F205261737062657272790050E9
:103752004F5354202F7069636B697400204854548E
:10376200502F312E3100486F73743A2000436F6E30
:103772006E656374696F6E3A20636C6F73650043A4
:103782006F6E74656E742D4C656E6774683A2000B6
:10379200436F6E74656E742D547970653A20617052
:1037A200706C69636174696F6E2F782D7777772DEE
:1037B200666F726D2D75726C656E636F6465640001
:1037C2002046696E20646520726563657074696F56
:0437D2006E20000065
:00000001FF
