:100000000C9463000C948B000C948B000C9498035C
:100010000C9498030C9498030C948B000C948B0014
:100020000C948B000C948B000C948B000C948B0024
:100030000C948B000C948B000C948B000C948B0014
:100040000C944E030C948B000C94D0020C94AA02D6
:100050000C948B000C948B000C948B000C948B00F4
:100060000C948B000C948B0000000008000201002F
:100070000003040700000000000000000000000072
:10008000250028002B0000000000240027002A0083
:1000900000000000230026002900040404040404D6
:1000A0000404020202020202030303030303010227
:1000B00004081020408001020408102001020408F6
:1000C00010202F08250811241FBECFEFD8E0DEBF77
:1000D000CDBF11E0A0E0B1E0E0E4F9E102C005909D
:1000E0000D92A43FB107D9F723E0A4EFB1E001C01E
:1000F0001D92A637B207E1F710E0C2E6D0E004C0D7
:100100002197FE010E94F309C136D107C9F70E9469
:1001100089050C94930C0C940000FC01918D828D48
:10012000981761F0828DDF01A80FB11D5D968C914B
:10013000928D9F5F9F73928F90E008958FEF9FEF56
:100140000895FC01918D828D981731F0828DE80F12
:10015000F11D858D90E008958FEF9FEF0895FC01CC
:10016000918D228D892F90E0805C9F4F821B910999
:100170008F739927089586E792E00E94AF0021E0EF
:10018000892B09F420E0822F0895FC01848DDF0182
:10019000A80FB11DA35ABF4F2C91848D90E00196FA
:1001A0008F739927848FA689B7892C93A089B189E9
:1001B0008C9180648C93938D848D981306C00288F3
:1001C000F389E02D80818F7D80830895EF92FF92E7
:1001D0000F931F93CF93DF93EC0181E0888F9B8D6A
:1001E0008C8D981305C0E889F989808185FD24C02C
:1001F000F62E0B8D10E00F5F1F4F0F731127E02EAF
:100200008C8DE8120CC00FB607FCFACFE889F9898B
:10021000808185FFF5CFCE010E94C500F1CF8B8D87
:10022000FE01E80FF11DE35AFF4FF0820B8FEA89C0
:10023000FB898081806207C0EE89FF896083E8893D
:10024000F98980818064808381E090E0DF91CF91A3
:100250001F910F91FF90EF900895CF93DF93EC01E2
:10026000888D8823C9F0EA89FB89808185FD05C0D6
:10027000A889B9898C9186FD0FC00FB607FCF5CF10
:10028000808185FFF2CFA889B9898C9185FFEDCF58
:10029000CE010E94C500E7CFDF91CF91089580E0A5
:1002A00090E0892B29F00E94BB0081110C94000082
:1002B00008953FB7F8948091350290913602A0914D
:1002C0003702B091380226B5A89B05C02F3F19F020
:1002D0000196A11DB11D3FBFBA2FA92F982F8827C6
:1002E000820F911DA11DB11DBC01CD0142E0660F21
:1002F000771F881F991F4A95D1F708958F929F9273
:10030000AF92BF92CF92DF92EF92FF926B017C018E
:100310000E9459014B015C01C114D104E104F104B4
:10032000F1F00E945901DC01CB0188199909AA0951
:10033000BB09883E9340A105B10570F321E0C21AC4
:10034000D108E108F10888EE880E83E0981EA11C10
:10035000B11CC114D104E104F10419F7DDCFFF9001
:10036000EF90DF90CF90BF90AF909F908F900895C7
:1003700020911503309116032817390771F49091D5
:10038000130380911403981741F0E0911303F0E0F8
:10039000EC50FE4F808190E008958FEF9FEF08951D
:1003A00008951F93CF93DF93DC015C962D913C91D0
:1003B0005D972115310539F481E090E013969C9307
:1003C0008E9312973DC05196ED91FC9152975096A5
:1003D0009C915097892F80951FB75E964C915E97A0
:1003E00041FB772770F941FD6095F89440817723B0
:1003F00011F0492B01C048234083E9012197F1F70F
:1004000048E0508160FF02C0592B01C0582350833F
:10041000E9012197F1F76695415099F7772321F08B
:1004200090818923808303C08081982B90831FBF94
:100430005C968D919C915D970197F1F721E030E0FA
:10044000C901DF91CF911F9108952091150330913B
:1004500016032817390771F48091140320911303B0
:1004600090E0805C9F4F821B910960E470E00E94E5
:10047000CB09089580E090E0089520911503309114
:10048000160328173907B9F49091130380911403C8
:10049000981789F0E0911303F0E0EC50FE4F808153
:1004A0002091130330E02F5F3F4F2F7333272093AA
:1004B000130390E008958FEF9FEF08958F929F921E
:1004C000AF92BF92CF92DF92EF92FF920F931F9362
:1004D000CF93DF937C01EB016C0182E0C80ED11C4D
:1004E0004701E5E08E0E911C00E010E0F60141911D
:1004F0006F0150E060E070E02AE0CE010E94CA0483
:100500005C01E881F9810190F081E02D6EE2CE017D
:1005100009958A0D9B1D080F191FC814D90431F7BE
:10052000F701458150E060E070E02AE0CE010E94D2
:10053000CA04800F911FDF91CF911F910F91FF90FF
:10054000EF90DF90CF90BF90AF909F908F900895E5
:100550000E94F00B1F920F920FB60F9211242F934F
:100560003F934F935F936F937F938F939F93AF933B
:10057000BF93EF93FF9386E792E00E94C500FF913F
:10058000EF91BF91AF919F918F917F916F915F910B
:100590004F913F912F910F900FBE0F901F90189584
:1005A0001F920F920FB60F9211242F938F939F9348
:1005B000EF93FF93E0918602F09187028081E091B2
:1005C0008C02F0918D0282FD12C0908180918F0289
:1005D0008F5F8F7320919002821751F0E0918F020C
:1005E000F0E0EA58FD4F958F80938F0201C0808123
:1005F000FF91EF919F918F912F910F900FBE0F90D0
:100600001F90189590E0FC01E859FF4F3491FC01D0
:10061000E255FF4F2491FC01E656FF4FE491EE2393
:1006200009F43BC0332339F1333091F038F43130E1
:10063000A9F0323001F584B58F7D12C0373091F0CA
:100640003830A1F03430B9F4809180008F7D03C040
:10065000809180008F77809380000DC084B58F7764
:1006600084BD09C08091B0008F7703C08091B00035
:100670008F7D8093B000F0E0EE0FFF1FE458FF4F36
:10068000A591B4918FB7F894EC91611103C02095B6
:100690002E2301C02E2B2C938FBF08951F920F92F3
:1006A0000FB60F9211242F933F938F939F93AF9385
:1006B000BF938091390290913A02A0913B02B09190
:1006C0003C023091340223E0230F2D3720F40196B1
:1006D000A11DB11D05C026E8230F0296A11DB11D65
:1006E000209334028093390290933A02A0933B0204
:1006F000B0933C028091350290913602A09137026E
:10070000B09138020196A11DB11D809335029093DE
:100710003602A0933702B0933802BF91AF919F91F8
:100720008F913F912F910F900FBE0F901F901895B2
:100730001F920F920FB60F9211242F933F934F9356
:100740005F936F937F938F939F93AF93BF93EF9339
:10075000FF93E0911503F0911603309709F451C00F
:10076000968DA685B785858591FF04C09C918923C8
:1007700029F447C09C91892309F043C0A389B48917
:100780009C918589809589238C9386899789019787
:10079000F1F7608D718DA685B785558538E020E02D
:1007A000CB010197F1F7822F90E095958795282F3F
:1007B0004C91452309F02068315091F7868D81FDD9
:1007C00020958091140390E001968F7399273091C2
:1007D0001303381749F0A0911403B0E0AC50BE4F9A
:1007E0002C938093140303C0868D8160868F828D45
:1007F000938D0197F1F7A389B4899C918589892B01
:100800008C93FF91EF91BF91AF919F918F917F91C9
:100810006F915F914F913F912F910F900FBE0F906D
:100820001F901895E0911503F0911603E817F9074A
:1008300069F4A389B4899C918589809589238C93D7
:10084000109216031092150381E0089580E0089538
:10085000CF92DF92EF92FF920F931F93CF93DF938C
:100860006C017A018B01C0E0D0E0CE15DF0589F084
:10087000D8016D918D01D601ED91FC910190F0812F
:10088000E02DC6010995892B11F47E0102C0219645
:10089000ECCFC701DF91CF911F910F91FF90EF90A7
:1008A000DF90CF900895E6E7F2E0A089B18982E079
:1008B0008C93A485B5851C92A685B78587E08C931B
:1008C000108EA489B58986E08C93A289B3898C9116
:1008D00080618C93A289B3898C9188608C93A28962
:1008E000B3898C9180688C930288F389E02D808194
:1008F0008F7D808308950F931F93CF93DF93EC0137
:1009000088819981009729F02A813B812617370732
:1009100088F48B016F5F7F4F0E94260B009761F078
:10092000998388831B830A832C813D81232B11F4B7
:10093000FC01108281E001C080E0DF91CF911F9126
:100940000F9108956115710579F0FB010190002068
:10095000E9F73197AF01461B570BDC01ED91FC9194
:100960000280F381E02D099480E090E00895CF9318
:10097000DF93BC0186E792E00E94A204EC0165E4EB
:1009800071E086E792E00E94A2048C0F9D1FDF9128
:10099000CF9108954F925F926F927F92EF92FF9264
:1009A0000F931F93CF93DF93CDB7DEB7A1970FB609
:1009B000F894DEBF0FBECDBF7C01FA01CB0119A2B6
:1009C000223008F42AE08E010F5D1F4F422E512C79
:1009D000612C712CBF01A30192010E943A0CF90114
:1009E000CA01015011096A3014F4605D01C0695CEC
:1009F000D8016C93232B242B252B61F7B801C70159
:100A00000E94A204A1960FB6F894DEBF0FBECDBF20
:100A1000DF91CF911F910F91FF90EF907F906F909A
:100A20005F904F900895DF92EF92FF920F931F9384
:100A3000CF93DF9300D01F92CDB7DEB783E48983D5
:100A400083E08A8381E08B838E010F5F1F4F7E01DD
:100A500084E0E80EF11CF801D1908F016D2D8BE13F
:100A600093E00E94D1014D2D50E060E070E020E164
:100A700086E792E00E94CA040E151F0561F70F90E9
:100A80000F900F90DF91CF911F910F91FF90EF90FA
:100A9000DF900895CF92DF92EF92FF92CF93DF9392
:100AA0006C01990FEE08FF08F7FE1CC0E09176027A
:100AB000F09177020190F081E02D6DE286E792E0FF
:100AC0000995EC0144275527BA014C195D096E09B7
:100AD0007F092AE086E792E00E94CA047C01EC0EBE
:100AE000FD1E08C02AE0B701A60186E792E00E9439
:100AF000CA047C0165E471E086E792E00E94A204EA
:100B00008E0D9F1DDF91CF91FF90EF90DF90CF90E2
:100B10000895CF93DF93CDB7DEB72A970FB6F89439
:100B2000DEBF0FBECDBF789484B5826084BD84B52E
:100B3000816084BD85B5826085BD85B5816085BDD8
:100B400080916E00816080936E0010928100809190
:100B50008100826080938100809181008160809318
:100B60008100809180008160809380008091B1003D
:100B700084608093B1008091B00081608093B00068
:100B800080917A00846080937A0080917A008260FC
:100B900080937A0080917A00816080937A008091BE
:100BA0007A00806880937A001092C10010927002DF
:100BB00010927102109272021092730210923E0211
:100BC00010923F02109240021092410260ED77E0D5
:100BD00080E090E00E947E0186E792E090936F02B1
:100BE00080936E020E9453042FB7F89480913902CB
:100BF00090913A02A0913B02B0913C022FBF4091EC
:100C00003E0250913F026091400270914102841B6C
:100C1000950BA60BB70B84369105A105B10538F4E9
:100C200063E070E080E090E00E947E01DDCF2FB7AE
:100C3000F8948091390290913A02A0913B02B091D0
:100C40003C022FBF80933E0290933F02A09340024C
:100C5000B093410266E371E080916E0290916F0261
:100C60000E94A2046AE070E080E090E00E947E01B1
:100C700081E0809342020E94530488E491E00E9444
:100C8000B7047E0187E0E80EF11C80E2582E86E76B
:100C900092E00E94AF00892B09F4D4C186E792E06C
:100CA0000E948D00813609F0A1C18BE591E00E9480
:100CB000B7040E94130585E791E00E94B70468EE2F
:100CC00073E080E090E00E947E01D12CC12C00E016
:100CD00010E08BE193E00E942502892B09F46BC0A0
:100CE0000115110531F48BE193E00E943D02C82EFD
:100CF0005FC00130110531F48BE193E00E943D02A9
:100D0000D82E56C002301105C1F54D2D50E060E0DF
:100D100070E02AE086E792E00E94CA0465E471E090
:100D200086E792E00E94A2048BE193E00E943D02DC
:100D3000982E482F50E060E070E02AE086E792E0CD
:100D40000E94CA0465E471E086E792E00E94A20472
:100D50009D9C50011124C5010E944A05C5010E94B5
:100D6000F909FC0190931A0380931903C082D18280
:100D70009282C5010E944A051BC0A0901903B09041
:100D80001A03A00EB11E8BE193E00E943D02F50113
:100D90008083482F50E060E070E020E186E792E039
:100DA0000E94CA0465E471E086E792E00E94A20412
:100DB0000F5F1F4F8ECF88E891E00E94B704E0914B
:100DC0001903F0911A038181843409F43BC18281B3
:100DD00090E0909318038093170389E991E00E94B3
:100DE000B7040091190310911A0389EA91E00E9457
:100DF000B7046801F80181819281899FC0011124A3
:100E00009601201B310B2817390794F4F601419104
:100E10006F0150E060E070E020E186E792E00E9420
:100E2000CA0467EB71E086E792E00E94A204E2CF79
:100E300089EB91E00E94B704812C912CA12CB12C5C
:100E40008091170390911803A816B9060CF0FAC008
:100E500088EC91E00E94B7048CE090E00E94F909D0
:100E60008C012091190330911A036C01DC0180E0A0
:100E700090E0FC01E80DF91DE20FF31F42854D9350
:100E800001968C309105A9F783ED91E00E94B7049B
:100E9000109375020093740288EE91E00E94B704EB
:100EA000045F1F4FF60141916F0150E060E070E078
:100EB00020E186E792E00E94CA0467EB71E086E7D2
:100EC00092E00E94A204C016D10661F789EB91E07E
:100ED0000E94B704D0907402C09075021A821982E1
:100EE0001C821B821E821D8260E070E0CE01019692
:100EF0000E947B0429813A81811113C0211531059B
:100F000019F0C9010E948E0A1A8219821E821D825E
:100F10001C821B820D2D1C2D3801FCE06F0E711CF4
:100F200008C01E821D8267E471E0C9010E94FE0BA9
:100F3000F1CFF80181918F014AE0B70190E00E9462
:100F4000050CF70101900020E9F73197EE19FF0930
:100F5000CD80DE803097A1F0CE0EDF1EB601CE012F
:100F600001960E947B04882359F029813A818D8162
:100F70009E81B701820F931F0E94FE0BDE82CD82FD
:100F80005F821886CD80DE80FFEFCF1ADF0AB601C0
:100F9000CE0101960E947B04882359F029813A8171
:100FA0008D819E81B701820F931F0E94FE0BDE820E
:100FB000CD820615170509F0BCCF4D815E81698190
:100FC0007A8186E792E00E94280465E471E086E772
:100FD00092E00E94A20489819A810E948E0A8FEF7A
:100FE000A81AB80AE6E18E0E911C2ACF823651F576
:100FF0008BE591E00E94B7040E94130585E791E01C
:101000000E94B70468EE73E080E090E00E947E01E9
:101010008BE193E00E942502892BA1F08BE193E004
:101020000E943D02AC01990F660B770B20E186E729
:1010300092E00E94CA0467EB71E086E792E00E94AA
:10104000A204E6CF0E944F0122CE8EE191E0909360
:101050001C0380931B038BE193E00C941204CF9349
:10106000DF938EE291E090934103809340031092CE
:1010700042031092430310924403109245031092CE
:1010800079021092780248EE53E060E070E04093FD
:101090007A0250937B0260937C0270937D022EE073
:1010A00031E0309377022093760225EC30E03093E4
:1010B00083022093820224EC30E030938502209357
:1010C000840220EC30E0309387022093860221ECEA
:1010D00030E0309389022093880222EC30E0309394
:1010E0008B0220938A0226EC30E030938D0220930D
:1010F0008C0210928F021092900210929102109224
:1011000092029093470380934603109248031092F3
:10111000490310924A0310924B0390934D0380931E
:101120004C0310924E0310924F03109250031092F2
:1011300051039093530380935203109254031092DF
:1011400055031092560310925703909361038093B6
:101150006003109262031092630310926403109272
:101160006503909359038093580310925A03109289
:101170005B0310925C0310925D039093670380936E
:101180006603109268031092690310926A0310922A
:101190006B0390936D0380936C0310926E03109217
:1011A0006F03109270031092710390933B0380932E
:1011B0003A0310923C0310923D0310923E031092AA
:1011C0003F0310921E0310921D0340931F03509380
:1011D000200360932103709322038EE191E09093AA
:1011E0001C0380931B031092320310923103109260
:1011F0003403109233031092360310923503109289
:10120000380310923703609139036E7F6D7F6093CE
:1012100039036695617081E0682783E00E940203CC
:10122000E1EBF0E02491EDE9F0E08491882399F07E
:1012300090E0880F991FFC01EA57FF4FA591B491E8
:10124000FC01E458FF4F859194918FB7F894EC918D
:10125000E22BEC938FBFE1EBF0E0E491E0932B0302
:10126000EDE9F0E0E491F0E0EE0FFF1FE458FF4FEE
:101270008591949190932D0380932C03E0EBF0E003
:101280002491ECE9F0E084918823C1F090E0880F8C
:10129000991FFC01EA57FF4FC591D491FC01E45816
:1012A000FF4FA591B4919FB7F8948881E22FE09504
:1012B0008E2388838C91E823EC939FBF8091390320
:1012C00081FD04C061E082E00E94020382E080931D
:1012D0002703E0EBF0E0E491E0932803ECE9F0E091
:1012E000E491F0E0EE0FFF1FE057FF4F85919491DE
:1012F00090932A03809329038DE991E0909338031A
:10130000809337032DEB30E0309332032093310389
:101310002BE931E030933403209333032CE231E0A6
:101320003093360320933503209168002460209386
:1013300068002DE630E030932F0320932E0324E045
:10134000209330030197F1F78091150390911603D4
:1013500023E08B319207E1F0009711F00E94120414
:10136000809139038E7F8093390310921403109279
:1013700013038BE193E09093160380931503E091A0
:101380002E03F0912F03908180913003892B80836D
:10139000DF91CF91089597FB072E16F4009407D0A4
:1013A00077FD09D00E94DF0907FC05D03EF4909537
:1013B00081959F4F0895709561957F4F0895AA1B61
:1013C000BB1B51E107C0AA1FBB1FA617B70710F030
:1013D000A61BB70B881F991F5A95A9F78095909562
:1013E000BC01CD010895EE0FFF1F0590F491E02D93
:1013F0000994CF93DF938230910510F482E090E05E
:10140000E0917403F091750320E030E0C0E0D0E09B
:10141000309711F14081518148175907C0F04817A2
:10142000590761F482819381209719F09B838A8305
:101430002BC0909375038093740326C0211531054A
:1014400019F04217530718F49A01BE01DF01EF01AA
:101450000280F381E02DDCCF2115310509F1281B35
:10146000390B2430310590F412968D919C9113978D
:101470006115710521F0FB019383828304C0909371
:10148000750380937403FD01329644C0FD01E20FA1
:10149000F31F81939193225031092D933C933AC0CD
:1014A0002091720330917303232B41F420910201A8
:1014B0003091030130937303209372032091000154
:1014C000309101012115310541F42DB73EB740910E
:1014D000040150910501241B350BE0917203F0913A
:1014E0007303E217F307A0F42E1B3F0B28173907ED
:1014F00078F0AC014E5F5F4F2417350748F04E0F70
:101500005F1F50937303409372038193919302C0C2
:10151000E0E0F0E0CF01DF91CF9108950F931F93AA
:10152000CF93DF93009709F48CC0FC0132971382AC
:10153000128200917403109175030115110581F455
:1015400020813181820F931F2091720330917303A8
:101550002817390779F5F0937303E093720371C08C
:10156000D80140E050E0AE17BF0750F412962D911D
:101570003C911397AD012115310509F1D901F3CF44
:101580009D01DA013383228360817181860F971F69
:101590008217930769F4EC0128813981260F371FE0
:1015A0002E5F3F4F318320838A819B819383828387
:1015B000452B29F4F0937503E093740342C013960E
:1015C000FC93EE931297ED01499159919E01240FDE
:1015D000351FE217F30771F480819181840F951F05
:1015E000029611969C938E938281938113969C937D
:1015F0008E931297E0E0F0E0D80112968D919C91C5
:101600001397009719F0F8018C01F6CF8D919C91FA
:1016100098012E5F3F4F820F931F209172033091EC
:1016200073032817390769F4309729F4109275036A
:101630001092740302C013821282109373030093FA
:101640007203DF91CF911F910F910895A0E0B0E058
:10165000ECE2FBE00C94600CEC01009721F4CB0170
:101660000E94F909B8C0FC01E60FF71F9C01225047
:101670003109E217F30708F4ACC0D9010D911C91B0
:10168000119706171707B0F00530110508F49FC031
:10169000C80104978617970708F499C002501109EA
:1016A000061B170B019311936D937C93CF010E943E
:1016B0008E0A8DC05B01A01AB10A4C01800E911EEA
:1016C000A0917403B091750340E050E0E12CF12C3F
:1016D000109709F44AC0A815B905D1F56D907C9012
:1016E0001197630182E0C80ED11CCA14DB0480F19B
:1016F000A3014A195B096A0182E0C80ED11C129647
:10170000BC9012971396AC91B5E0CB16D10440F083
:10171000B282A38351834083D9016D937C930AC025
:101720000E5F1F4FC301800F911FF90191838083CA
:10173000EB2DFA2FE114F10431F0D7011396FC934D
:10174000EE93129744C0F0937503E09374033FC087
:101750008D919C9111974817590708F4AC017D01B0
:1017600012960D90BC91A02DB3CF809172039091F1
:10177000730388159905E1F446175707C8F480915B
:10178000000190910101009741F48DB79EB74091FF
:10179000040150910501841B950BE817F907C8F463
:1017A000F0937303E0937203F901718360830FC0B8
:1017B000CB010E94F9097C01009759F0A801BE01F4
:1017C0000E94F50BCE010E948E0AC70104C0CE0113
:1017D00002C080E090E0CDB7DEB7EEE00C947C0C68
:1017E00081E090E0F8940C94930CFB01DC0102C0C2
:1017F00001900D9241505040D8F70895FB01DC0153
:1018000001900D920020E1F70895BB274A3031F492
:10181000992322F4BDE2909581959F4F0C94110C71
:10182000BB27FB015527AA27880F991FAA1FA417BA
:1018300010F0A41B83955051B9F7A05DAA3308F0AE
:10184000A95DA193009779F7B111B1931192CB01E2
:101850000C942A0CDC01FC01672F71917723E1F7CE
:10186000329704C07C916D9370836291AE17BF076D
:10187000C8F30895A1E21A2EAA1BBB1BFD010DC0DF
:10188000AA1FBB1FEE1FFF1FA217B307E407F50730
:1018900020F0A21BB30BE40BF50B661F771F881F0C
:1018A000991F1A9469F760957095809590959B01A2
:1018B000AC01BD01CF0108952F923F924F925F92EC
:1018C0006F927F928F929F92AF92BF92CF92DF9250
:1018D000EF92FF920F931F93CF93DF93CDB7DEB7B5
:1018E000CA1BDB0B0FB6F894DEBF0FBECDBF099449
:1018F0002A88398848885F846E847D848C849B84A0
:10190000AA84B984C884DF80EE80FD800C811B81AD
:10191000AA81B981CE0FD11D0FB6F894DEBF0FBEDC
:10192000CDBFED01089510E0C2E6D0E004C0FE0195
:101930000E94F3092196C336D107C9F7F894FFCF67
:101940000000760380000100000000000000E600B7
:101950002804AF008D00A1002D0100000000D1017E
:10196000280425023D02B801D001000000005E02FB
:1019700000000000A802564D4450565F317C315F94
:10198000564D4450560D0A0053657269616C2069CA
:101990006E697469616C697A656400507265706122
:1019A00072696E6720746F2073656E642064617461
:1019B000612E2E2E0044617461206861732062657F
:1019C000656E2073656E7400456E64206F662072CC
:1019D0006563657074696F6E00446174612062694B
:1019E000656E20726563756500537461727420645E
:1019F0006973706C6179002C00456E64206F6620FD
:101A000072656164696E670046696E642061207466
:101A1000616700456E64206F662066696E64696E5A
:101A200067206120746167004C65207461672065E0
:041A300073742000AB
:00000001FF
