:100000000C9479000C94A1000C94A1000C94A10014
:100010000C94A1000C94A1000C94A1000C94A100DC
:100020000C94A1000C94A1000C94A1000C94A100CC
:100030000C94A1000C94A1000C94A1000C94A100BC
:100040000C947C0A0C94A1000C94E30E0C94BD0E4D
:100050000C94A1000C94A1000C94A1000C94A1009C
:100060000C94A1000C94A100E90AEC0A040B310BDA
:100070009B0BAD0BD40B53746174696320697020C2
:1000800061646472657373696E6700436F6E6E6559
:100090006374696F6E206661696C656400000000BE
:1000A0000800020100000304070000000000000037
:1000B0000000000000250028002B000000000024A4
:1000C0000027002A000404040404040404020202B9
:1000D0000202020303030303030102040810204089
:1000E0008001020408102001020408102000D0152D
:1000F0006F1311241FBECFEFD8E0DEBFCDBF12E0DB
:10010000A0E0B1E0E8ECF5E302C005900D92AE3D51
:10011000B107D9F724E0AEEDB2E001C01D92A834DA
:10012000B207E1F710E0C8E7D0E004C02197FE0174
:100130000E949216C737D107C9F70E9475130C9415
:10014000D71A0C9400000895CF93DF931F92CDB778
:10015000DEB76983DC01ED91FC910280F381E02D33
:1001600041E050E0BE016F5F7F4F09950F90DF9136
:10017000CF910895DC01ED91FC91048CF58DE02D7B
:10018000099591E089270895862F089581E08627B3
:1001900008950F931F93CF93DF931F92CDB7DEB7D0
:1001A0008C01DC01ED91FC910480F581E02D099535
:1001B000892B51F0BE016F5F7F4FF80184850E944B
:1001C000150D898190E002C08FEF9FEF0F90DF91B6
:1001D000CF911F910F910895FC0184850C94560DC9
:1001E000CF93DF931F92CDB7DEB741E050E0BE0161
:1001F0006F5F7F4FFC0184850E94560D181619060B
:100200001CF4898190E002C08FEF9FEF0F90DF9187
:10021000CF910895FC018485843011F00C94340D45
:1002200080E090E0089508958CBD9DBD0895CF9223
:10023000DF92EF92FF921F93CF93DF93FC0114851F
:10024000143099F1EC0180E590E00E94140168E01F
:1002500070E0812F0E9411110E94230A6B017C0122
:10026000CE010E949C088823B1F061E070E080E03C
:1002700090E00E94150F0E94230ADC01CB018C192B
:100280009D09AE09BF09883E9340A105B10540F321
:100290008C850E940707EC85F0E0EE0FFF1FE2520D
:1002A000FD4F1182108284E08C87DF91CF911F91E6
:1002B000FF90EF90DF90CF9008958F929F92AF9232
:1002C000BF92CF92DF92EF92FF920F931F93CF9343
:1002D0006C015B017A01FC01C485C43041F481E00A
:1002E00090E0F6019383828380E090E04EC08A0123
:1002F0004130584010F000E018E080E590E00E94A6
:1003000014018C2F0E940B124C0163E070E08C2FC3
:100310000E943007873111F08C3121F4801691064C
:1003200060F302C000E010E080E590E00E9414015C
:100330009801A50160E070E08C2F0E94A61160E298
:1003400070E08C2F0E94111162E070E08C2F0E94EF
:10035000300784FD10C063E070E08C2F0E943007EE
:10036000811104C08C2F0E940707B9CF80E590E06F
:100370000E941401E9CF40E162E070E08C2F0E94FE
:10038000FD06012B09F4ABCFC701CF911F910F914F
:10039000FF90EF90DF90CF90BF90AF909F908F90A5
:1003A0000895CF92DF92FF920F931F93CF93DF9325
:1003B000FC012485243009F077C06A01EB018C012F
:1003C000F12C8F2D0E945607811103C0F801F4868D
:1003D00007C08B7F8831D1F3F394F4E0FF12F1CFA3
:1003E000F8018485843009F45FC0209100013091C8
:1003F00001012F5F3F4F11F420E030EC30930101F9
:1004000020930001409100015091010120E061E042
:100410000E94D10CF801F4848A818F3F51F48B81C2
:100420008F3F91F48C818F3F79F48D818F3F61F400
:1004300038C0811109C08B81811106C08C81811166
:1004400003C08D81882369F1C114D10451F180E585
:1004500090E00E941401BE016E5F7F4F8F2D90E0EF
:10046000982F882744E050E0845F9B4F0E94800CC7
:10047000B6018F2D0E94D40764E070E08F2D0E949A
:100480001111C8010E949C08873189F061E070E079
:1004900080E090E00E94150FC8010E949C08811125
:1004A000F0CF84E0F801848780E090E002C081E032
:1004B00090E0DF91CF911F910F91FF90DF90CF904F
:1004C00008952F923F924F925F926F927F928F92F8
:1004D0009F92AF92BF92CF92DF92EF92FF920F93D3
:1004E0001F93CF93DF93CDB7DEB765970FB6F89420
:1004F000DEBF0FBECDBF7C016B013A01FB0120E0E6
:1005000080E090E06AE03191332309F140ED430F40
:100510004A3080F4689FA001699F500D1124CA01E0
:10052000C097830F911D37FD9A958F3F910559F321
:1005300050F313C03E3289F4233079F0D301A20F77
:10054000B11D12968C932F5F80E090E0DCCF2330BA
:1005500021F4F301858381E021C0F70142815381B9
:10056000648175818091E5039091E603A091E70392
:10057000B091E803481759076A077B0709F49EC141
:100580000E94230A8701085F1F4F6F7077277C5FE7
:10059000C8010E946F07813019F080E090E0F3C13C
:1005A00088EC91E09A838983F70182819381A48109
:1005B000B5818B839C83AD83BE8345E350E0BE0150
:1005C0006F5F7F4FC8010E945C08892B19F4C12C12
:1005D000D12C6FC10E94230AF701778366837627A7
:1005E000672776277A83698342E050E0BE016F5F18
:1005F0007F4FC8010E94520681E090E09E878D8760
:1006000042E050E0BE01635F7F4FC8010E94520686
:1006100080E091E09E878D8742E050E0BE01635FFD
:100620007F4FC8010E9452061E861D8642E050E0A0
:10063000BE01635F7F4FC8010E94520642E050E056
:10064000BE01635F7F4FC8010E94520642E050E046
:10065000BE01635F7F4FC8010E9452065601F5013B
:100660008081882311F1F6015F018191811115C00C
:1006700045018C189D081814190494F48F8641E0E4
:1006800050E0BE01615F7F4FC8010E945206A40185
:10069000B601C8010E94520603C08E3229F7E8CF86
:1006A0006501FFEFCF1ADF0ADACF1F8641E050E085
:1006B000BE01615F7F4FC8010E945206C12CDD243C
:1006C000D394DE86CD8642E050E0BE01635F7F4F6B
:1006D000C8010E945206DE86CD8642E050E0BE018F
:1006E000635F7F4FC8010E945206C8010E949C07A9
:1006F000892B09F46CCF63E0A62EB12CF2E06F0ECB
:10070000711C0E94230A1B012C01C8010E94F905DB
:1007100018161906A4F00E94230ADC01CB018219E5
:100720009309A409B50989389341A105B105D0F40D
:1007300062E370E080E090E00E94150FE6CFF701E1
:100740004281538164817581808D918DA28DB38D9D
:10075000481759076A077B0741F4848D958DC59723
:1007600021F406C02FEF3FEF9AC02EEF3FEF97C066
:10077000F70181A192A10C970CF4A6C04CE050E0C7
:10078000BE016F5F7F4FC8010E94B1058B8190E071
:10079000982F88272C81822B9A8B898B298130E096
:1007A000322F22274A81242BF70146815781421795
:1007B000530709F086C097FF84C08F709270892B11
:1007C00009F0DEC0CF80D12CDC2CCC248885C82A4F
:1007D000C114D10409F4D1C0812C912C8D8190E0F9
:1007E000982F88272E81822B8816990608F46FC0CF
:1007F000812C912C41E050E0BE016D5E7F4FC8011D
:100800000E94B1058B89982F907C09F093C08111CB
:1008100086C08B898111EECF42E050E0BE01615F5E
:100820007F4FC8010E94B10542E050E0BE01635F06
:100830007F4FC8010E94B105C8010E94D005C801C0
:100840000E94D005C8010E94D005C8010E94D005B1
:1008500042E050E0BE016F5E7F4FC8010E94B105CB
:100860008F8598898115914009F069C02D853E8555
:100870003227232732272130310509F060C08989CA
:100880009A898115944009F075C044E050E0B301A5
:10089000C8012C8B3D8B0E94B1052C893D896901D3
:1008A000F1E0AF1AB10829F02FEFC216D20609F411
:1008B00028CFC8010E941B07C60165C08EEF9FEFBD
:1008C00062C02CEF3FEFEBCF2DEF3FEFE8CF41E0E1
:1008D00050E0BE01635F7F4FC8010E94B1058D8566
:1008E000811113C08D858111F2CFC8010E94D005FE
:1008F000C8010E94D005C8010E94D005C8010E940D
:10090000D005FFEF8F1A9F0A69CF8D859FEF980F53
:100910009D87882339F3C8010E94D005F6CF8B89C3
:100920009FEF980F9B8B882309F473CFC8010E9417
:10093000D005F5CFC8010E94D0051B8A6ACF412C93
:10094000512C89899A89982789279827481659060A
:1009500038F4C8010E94D0058FEF481A580AF1CF29
:10096000EFEF8E1A9E0A8C149D0409F043CF26EFF8
:100970003FEF95CF27EF3FEF92CF2AEF3FEF8FCF9B
:100980002BEF3FEF8CCF65960FB6F894DEBF0FBE0E
:10099000CDBFDF91CF911F910F91FF90EF90DF902E
:1009A000CF90BF90AF909F908F907F906F905F900F
:1009B0004F903F902F900895CF92DF92EF92FF9249
:1009C0000F931F93CF93DF93CDB7DEB7AF970FB6DB
:1009D000F894DEBF0FBECDBF7C016A0108EC11E0C8
:1009E0001A8309831C861B8688EE93E0A0E0B0E0A2
:1009F0008D879E87AF87B88B84E491E09A8789873B
:100A0000188F0F8B198E1A8E1B8E1C8E84E089A373
:100A10001DA30CA31EA21FA218A619A68091DD0378
:100A20009091DE03A091DF03B091E0038CA79DA716
:100A3000AEA7BFA78B839C83AD83BE8318861F821E
:100A4000AE014C5D5F4FCE0101960E946102813084
:100A50009105B1F4D701ED91FC910484F585E02D69
:100A60001BA70AA78EA19FA1A8A5B9A58CA79DA782
:100A7000AEA7BFA7A601BE01665D7F4FC70109955E
:100A8000AF960FB6F894DEBF0FBECDBFDF91CF910A
:100A90001F910F91FF90EF90DF90CF9008950895F0
:100AA000CF93DF931F92CDB7DEB76983DC01ED9161
:100AB000FC910280F381E02D41E050E0BE016F5FC8
:100AC0007F4F09950F90DF91CF910895FC01818DA3
:100AD000928D0895FC0184899589089528EC31E070
:100AE000FC0131832083FB0140895189628973892C
:100AF000FC0142835383648375830895DC01ED9187
:100B0000FC91008CF18DE02D0994FC019485FB0192
:100B10008485981303C081E0943009F480E008953F
:100B200021E0FC018485843009F420E0822F0895BF
:100B3000CF93DF931F92CDB7DEB7FC01218D328DAD
:100B4000232B49F0BE016F5F7F4F808D0E94150DF2
:100B5000898190E002C08FEF9FEF0F90DF91CF91DE
:100B60000895CF93DF93FC01218D328D211531053E
:100B700019F48FEF9FEF11C0EC014217530708F0F3
:100B8000A901888D0E94560D1816190694F7298D13
:100B90003A8D281B390B3A8F298FDF91CF91089519
:100BA0000F931F93CF93DF931F92CDB7DEB7FC0156
:100BB000218D328D232B61F08C0141E050E0BE018C
:100BC0006F5F7F4F808D0E94560D181619061CF01E
:100BD0008FEF9FEF08C0F801818D928D0197928F62
:100BE000818F898190E00F90DF91CF911F910F91BC
:100BF00008950F931F93CF93DF93CDB7DEB7289758
:100C00000FB6F894DEBF0FBECDBF8C01F801818D09
:100C1000928D892B49F0D801ED91FC910680F781E6
:100C2000E02DC8010995F2CF808D0E94340D181671
:100C300019065CF548E050E0BE016F5F7F4FD801B8
:100C400058968C910E94560D9C0118161906DCF4DA
:100C500089819A81AB81BC81F801808B918BA28BB9
:100C6000B38B8D8190E0982F88272E81820F911D64
:100C7000958B848B2F8130E0322F22278885280F97
:100C8000311D328F218FC90102C080E090E028968B
:100C90000FB6F894DEBF0FBECDBFDF91CF911F918D
:100CA0000F910895AF92BF92CF92DF92FF920F9370
:100CB0001F93CF93DF938C015B01EA01FC01C6888F
:100CC000D788F08C80E590E00E9414018F2D0E945F
:100CD0000B128C179D0720F48F2D0E940B12EC0134
:100CE0009E01A501B6018F2D0E94A6110E9413013D
:100CF000F801868997898C0F9D1F978B868BCE0173
:100D0000DF91CF911F910F91FF90DF90CF90BF9017
:100D1000AF900895CF92DF92EF92FF920F931F93BF
:100D2000CF93DF93CDB7DEB7AF970FB6F894DEBFA2
:100D30000FBECDBF7C016A0108EC11E01A83098364
:100D40001C861B8688EE93E0A0E0B0E08D879E872E
:100D5000AF87B88B84E491E09A878987188F0F8BCF
:100D6000198E1A8E1B8E1C8E84E089A31DA30CA3E2
:100D70001EA21FA218A619A68091DD039091DE0382
:100D8000A091DF03B091E0038CA79DA7AEA7BFA7FA
:100D90008B839C83AD83BE8318861F82AE014C5D1E
:100DA0005F4FCE0101960E94610281309105B1F43E
:100DB000D701ED91FC910088F189E02D1BA70AA7CE
:100DC0008EA19FA1A8A5B9A58CA79DA7AEA7BFA7D7
:100DD000A601BE01665D7F4FC7010995AF960FB6AC
:100DE000F894DEBF0FBECDBFDF91CF911F910F9161
:100DF000FF90EF90DF90CF9008959B0190E00496D4
:100E0000982F8827642F820F931F0C94AF0CCF93D9
:100E1000C82F80E590E00E94140160E170E08C2F03
:100E20000E9411114FEF62E070E08C2F0E94FD06CE
:100E3000CF910C941301CF93DF93EC01888D843014
:100E400061F00E940707E88DF0E0EE0FFF1FE2520D
:100E5000FD4F1182108284E0888FDF91CF91089539
:100E60000F931F93CF93DF931F92CDB7DEB790E020
:100E70000496982F88278C01060F171F0E942F0CAD
:100E80008FE00E94490C812F0E94490C802F0E9404
:100E9000490C80E00E94490C89830E942D0C8981B5
:100EA0000F90DF91CF911F910F9108951F93CF93D2
:100EB000DF931F92CDB7DEB7182F80E590E00E9438
:100EC000140163E070E0812F0E94300789830E9443
:100ED000130189810F90DF91CF911F910895EF92B7
:100EE000FF921F93CF93DF93FC01208D243011F0EC
:100EF00080E01CC07B01EC0110E0812F0E945607AE
:100F0000811102C0188F05C08831E1F31F5F1430D2
:100F1000A1F7888D843061F3FD86EC861A8E198ED8
:100F200020E0A70162E00E94D10C81E0DF91CF9127
:100F30001F91FF90EF900895CF93FC01C08D80E545
:100F400090E00E94140160E270E08C2F0E94111169
:100F500062E070E08C2F0E94300784FD19C062E0CF
:100F600070E08C2F0E94300783FF0BC048E162E0E5
:100F700070E08C2F0E94FD060E94130180E090E03B
:100F800011C00E94130180E590E00E941401E0CF9F
:100F900040E162E070E08C2F0E94FD060E94130188
:100FA00081E090E0CF910895CF93DF93C82FD62FA3
:100FB000472F60E170E00E94FD064D2F61E170E077
:100FC0008C2FDF91CF910C94FD06BF92CF92DF92D0
:100FD000EF92FF920F931F93CF93DF9300D000D037
:100FE00000D0CDB7DEB7FC01208D243009F053C00E
:100FF0006A017B018C01B12C63E070E08B2D0E94B3
:101000003007811103C0F801B08E06C08831D9F3D2
:10101000B394F4E0BF12F0CFF801808D8430D9F1A1
:1010200096E0E6E1F1E0DE01119601900D929A95CD
:10103000E1F7F70193819F779C8394819D8395814C
:101040009E83B7016E5F7F4F90E0982F882744E022
:1010500050E0845F9B4F0E94800CB601F801808DA8
:101060000E94D407F801808D90E0982F882746E0F1
:1010700050E0BE016F5F7F4F8A5F9B4F0E94800CE4
:10108000F801128E118E20E8A60162E0808D0E9488
:10109000D10C81E001C080E026960FB6F894DEBF47
:1010A0000FBECDBFDF91CF911F910F91FF90EF90B9
:1010B000DF90CF90BF900895FF920F931F93CF932F
:1010C000DF93FB01DC0157961C921E9256975896AF
:1010D000FC908281811109C08381811106C08481C5
:1010E000811103C085818823F9F041155105E1F094
:1010F0008A01EF0180E590E00E941401BE016E5F5D
:101100007F4F2F2D30E0922F882744E050E0845FFE
:101110009B4F0E94800CB8018F2D0E94D4070E9423
:10112000130181E090E002C080E090E0DF91CF9178
:101130001F910F91FF900895FC018485843011F078
:101140000C94560780E00895CF93DF93FC0124852B
:101150002430D1F0EC010E949C08843181F0882376
:1011600071F0883161F08C3161F4E881F98104809B
:10117000F581E02DCE01099521E0892B19F420E0BD
:1011800001C021E0822F01C080E0DF91CF9108955E
:10119000FC01A285B3851097A9F0868597850297F3
:1011A00088F0CD010196938782876C938685978519
:1011B0000197978786870284F385E02D108281E06E
:1011C00090E0089580E090E00895FC018681978189
:1011D0008F3F2FEF920729F02FEF3FEF37832683C2
:1011E0000895A085B185109789F02485358521154E
:1011F000310561F0CD010196918780878C91215056
:10120000310935872487082E000C990B0895FC01BD
:1012100086819781019639F481E024853585232BD9
:1012200019F480E0089581E00895CF92DF92EF9263
:10123000FF920F931F93CF93DF937C016A018B0181
:10124000C0E0D0E0CC15DD0589F0D701ED91FC912F
:101250000680F781E02DC70109958F3FBFEF9B07FF
:1012600029F0F80181938F012196ECCFCE01DF9117
:10127000CF911F910F91FF90EF90DF90CF90089545
:10128000CF93DF931F92CDB7DEB7DC01ED91FC91D8
:101290000484F585E02D69830995DC01ED91FC91CD
:1012A0000190F081E02D69810F90DF91CF91099439
:1012B000062E000C770BFC01778366830895CF938D
:1012C000DF93DC0116962D913C9117972F3F3F4FEE
:1012D00031F5EC01E881F9810484F585E02DCE013A
:1012E0000995DC01ED91FC910480F581E02D0995D3
:1012F000892B99F0E881F9810680F781E02DCE01F4
:1013000009958132910534F3E881F9810284F385EE
:10131000E02D682FCE01099502C080E001C081E078
:10132000DF91CF910895FC018481958108950F93F9
:101330001F93CF93DF93EC018B0160ED71E00E946E
:101340006D1301151105B9F1F80161918F01662343
:1013500091F1603220F0623211F06C3541F56CE5AC
:10136000CE010E942213F801319780818C30D1F098
:1013700044F48930D9F08A30B9F0883029F762E630
:1013800016C0823259F024F48D30F1F662E70FC0B6
:101390008F3231F08C35C1F66CE509C062E207C0CE
:1013A0006FE205C066E603C06EE601C064E7CE01E9
:1013B0000E942213C9CF62E2CE010E94221380E074
:1013C00090E0DF91CF911F910F9108951F93CF93DC
:1013D000DF93182F66E270E00E943007C82FD0E03C
:1013E00067E270E0812F0E943007DC2FCC279E013E
:1013F000282BC901DF91CF911F9108953FB7F89431
:101400008091ED029091EE02A091EF02B091F00276
:1014100026B5A89B05C02F3F19F00196A11DB11D4F
:101420003FBFBA2FA92F982F8827820F911DA11D8A
:10143000B11DBC01CD0142E0660F771F881F991FC7
:101440004A95D1F708952FB7F8946091E902709109
:10145000EA028091EB029091EC022FBF0895CF92A7
:10146000DF92EF92FF92CF93DF93EC018E819F8109
:101470008F3F2FEF920759F02FEF3FEF3F832E83DF
:10148000DF91CF91FF90EF90DF90CF9008950E9471
:10149000230A6B017C01A4EFCA0EA1E0DA1EE11C55
:1014A000F11CE881F9810484F585E02DCE010995D0
:1014B000DC01ED91FC910480F581E02D0995892BEB
:1014C00039F40E94230A6C157D058E059F0548F3AB
:1014D000E881F9810484F585E02DCE010995DC01D0
:1014E000ED91FC910680F781E02DDF91CF91FF9087
:1014F000EF90DF90CF9009941F920F920FB60F924A
:1015000011242F933F938F939F93AF93BF93809119
:10151000E9029091EA02A091EB02B091EC023091C5
:10152000E80223E0230F2D3720F40196A11DB11D01
:1015300005C026E8230F0296A11DB11D2093E802E5
:101540008093E9029093EA02A093EB02B093EC023D
:101550008091ED029091EE02A091EF02B091F00225
:101560000196A11DB11D8093ED029093EE02A09310
:10157000EF02B093F002BF91AF919F918F913F9195
:101580002F910F900FBE0F901F9018958F929F92E2
:10159000AF92BF92CF92DF92EF92FF920F931F9381
:1015A000CF93DF936115710509F43CC1DB011896F7
:1015B000EC9118970E2FEE0F110B220B330B073007
:1015C000110508F02FC1EC010C5C1F4FF8010C94C1
:1015D000921662ED71E006C019968C91882389F00D
:1015E00067ED71E0CE01DF91CF911F910F91FF90D8
:1015F000EF90DF90CF90BF90AF909F908F900C9422
:1016000029136CED71E0EECF1996CD90DC901A970E
:101610000D2C000CEE08FF08F7FE12C06DE20E94D0
:1016200022138C0144275527BA014C195D096E0914
:101630007F092AE0CE010E946712800F911FF4C03B
:101640002AE0B701A601DF91CF911F910F91FF9082
:10165000EF90DF90CF90BF90AF909F908F900C94C1
:1016600067121996CD90DD90ED90FC901C9720E0CC
:1016700030E0A901C701B6010E945A1987FF09C0CD
:1016800062EE71E0CE010E946D13F7FAF094F7F864
:10169000F094C701B6010E9405174B015C012AE0D6
:1016A000AB01BC01CE010E9467126BE072E0CE017B
:1016B0000E946D13C501B4010E945F199B01AC012A
:1016C000C701B6010E9498162CEA35EC47EA56E3AA
:1016D0000E9499166B017C0105E010E020E030E0EB
:1016E00040E251E4C701B6010E94C0194B015C0100
:1016F0000E9405176B01E12CF12C2AE0B701A6012D
:10170000CE010E946712C701B6010E945F199B01BA
:10171000AC01C501B4010E9498166B017C0120E068
:1017200030E0A9010E945A19882309F47BC00150B6
:101730001109A1F677C019966D917C911A97DF91E6
:10174000CF911F910F91FF90EF90DF90CF90BF90BE
:10175000AF909F908F900C94970916960D911C91C5
:1017600017976BE50E942213019689F48FEF9FEF84
:101770005BC0B801CE010E94C60A0196B9F3D80138
:1017800012960D911C9113970115110521F4011565
:10179000110579F707C06CE2CE010E942213019671
:1017A000B1F7E4CF6DE530C016960D911C911797F7
:1017B0006BE70E9422130196C9F20115110519F178
:1017C000D8016D917C91CE010E949709019671F22A
:1017D0006AE3CE010E942213019641F2B801CE01C4
:1017E0000E94C60A019611F2D80112960D911C9121
:1017F00013970115110509F36CE2CE010E94221323
:101800000196D9F6B3CF6DE7CE010E94221321E0F5
:1018100030E0019611F020E030E088279927821B04
:10182000930B02C080E090E0DF91CF911F910F9168
:10183000FF90EF90DF90CF90BF90AF909F908F90F0
:1018400008958DE090E00E943417009729F02DE074
:10185000FC0111922A95E9F708952A9A08952A9889
:1018600008951F93CF93DF93182F60E270E00E94DA
:101870003007C82FD0E061E270E0812F0E9430076E
:10188000DC2FCC279E01282BC901DF91CF911F911E
:1018900008958EBD00000DB407FEFDCF8EB50895EE
:1018A000CF92DF92EF92FF920F931F93CF93DF932C
:1018B000EC017A018B016C01C40ED51ECC15DD053F
:1018C000A9F00E942F0C8FE00E94490C8D2F0E94DE
:1018D000490C8C2F0E94490C219680E00E94490CF3
:1018E000F80181938F010E942D0CE8CFC701DF9191
:1018F000CF911F910F91FF90EF90DF90CF900895BF
:10190000CF92DF92EF92FF920F931F93CF93DF93CB
:10191000EC017A018B016C01C40ED51ECC15DD05DE
:10192000A1F00E942F0C80EF0E94490C8D2F0E9485
:10193000490C8C2F0E94490C2196F80181918F014E
:101940000E94490C0E942D0CE9CFC701DF91CF9175
:101950001F910F91FF90EF90DF90CF9008951F930C
:10196000CF93DF9300D0CDB7DEB7182F6A8399836A
:101970000E942F0C80EF0E94490C9981892F0E94B0
:10198000490C812F0E94490C6A81862F0E94490CC4
:101990000E942D0C81E00F900F90DF91CF911F914D
:1019A0000895FF920F931F93CF93DF9300D0CDB78D
:1019B000DEB7F82E8A012A8369830E94070780E533
:1019C00090E00E9414012A816981462F422B60E039
:1019D00070E08F2D0E94FD060115110551F4009154
:1019E000E6021091E7020F5F1F4F1093E70200938A
:1019F000E602412F64E070E08F2D0E94FD06402F2B
:101A000065E070E08F2D0E94FD0661E070E08F2D93
:101A10000E9411110E94130181E00F900F90DF913D
:101A2000CF911F910F91FF9008951F93CF93DF9354
:101A300000D0CDB7DEB7182F80E590E069837A83B8
:101A40000E94140121E041E050E069817A81812FF8
:101A50000E9421110E94130181E090E00F900F90ED
:101A6000DF91CF911F910895FF920F931F93CF9312
:101A7000DF93F82E80E590E00E941401C0E0D0E0F2
:101A80008F2D0E94E6098C01892B21F08F2D0E9459
:101A9000E609EC01C017D10799F70E941301CE01A6
:101AA000DF91CF911F910F91FF900895AF92BF9258
:101AB000CF92DF92EF92FF921F93CF93DF93182F75
:101AC0005B017A0180E590E00E941401C0E0D0E063
:101AD000812F0E94E6096C01892B21F0812F0E9441
:101AE000E609EC01CC15DD0599F7209799F463E040
:101AF00070E0812F0E9430078431F1F08823E1F0FB
:101B0000C1E0D0E08C3111F4C0E0D0E0D195C195B6
:101B1000D10912C0EC16FD060CF4E7011C161D06D7
:101B20005CF420E0AE01B501812F0E94211160E438
:101B300070E0812F0E9411110E941301CE01DF91EC
:101B4000CF911F91FF90EF90DF90CF90BF90AF901B
:101B50000895FC01918D828D981761F0828DDF01CF
:101B6000A80FB11D5D968C91928D9F5F9F73928F90
:101B700090E008958FEF9FEF0895FC01918D828D85
:101B8000981731F0828DE80FF11D858D90E0089552
:101B90008FEF9FEF0895FC01918D228D892F90E0AA
:101BA000805C9F4F821B91098F73992708958EE364
:101BB00093E00E94CB0D21E0892B09F420E0822FD5
:101BC0000895FC01848DDF01A80FB11DA35ABF4FFA
:101BD0002C91848D90E001968F739927848FA6892C
:101BE000B7892C93A089B1898C9180648C93938D53
:101BF000848D981306C00288F389E02D80818F7D43
:101C000080830895EF92FF920F931F93CF93DF93FA
:101C1000EC0181E0888F9B8D8C8D981305C0E8893D
:101C2000F989808185FD24C0F62E0B8D10E00F5FB1
:101C30001F4F0F731127E02E8C8DE8120CC00FB6CA
:101C400007FCFACFE889F989808185FFF5CFCE01BD
:101C50000E94E10DF1CF8B8DFE01E80FF11DE35ADB
:101C6000FF4FF0820B8FEA89FB898081806207C079
:101C7000EE89FF896083E889F989808180648083A7
:101C800081E090E0DF91CF911F910F91FF90EF9055
:101C90000895CF93DF93EC01888D8823C9F0EA89FA
:101CA000FB89808185FD05C0A889B9898C9186FD55
:101CB0000FC00FB607FCF5CF808185FFF2CFA88952
:101CC000B9898C9185FFEDCFCE010E94E10DE7CF60
:101CD000DF91CF91089580E090E0892B29F00E9458
:101CE000D70D81110C94000008958F929F92AF92AE
:101CF000BF92CF92DF92EF92FF920F931F93CF93F9
:101D0000DF937C018B016C0182E0C80ED11C47017E
:101D1000E5E08E0E911CC0E0D0E0F60141916F012C
:101D200050E060E070E02AE0C8010E9467125C01A8
:101D30006EE2C8010E9422138A0D9B1DC80FD91F95
:101D4000C814D90451F7F701458150E060E070E014
:101D50002AE0C8010E9467128C0F9D1FDF91CF916E
:101D60001F910F91FF90EF90DF90CF90BF90AF90B9
:101D70009F908F9008950E942B191F920F920FB67B
:101D80000F9211242F933F934F935F936F937F9301
:101D90008F939F93AF93BF93EF93FF938EE393E063
:101DA0000E94E10DFF91EF91BF91AF919F918F91B3
:101DB0007F916F915F914F913F912F910F900FBE47
:101DC0000F901F9018951F920F920FB60F9211242B
:101DD0002F938F939F93EF93FF93E0914E03F09196
:101DE0004F038081E0915403F091550382FD12C0AE
:101DF0009081809157038F5F8F73209158038217D2
:101E000051F0E0915703F0E0E25CFC4F958F809336
:101E1000570301C08081FF91EF919F918F912F9186
:101E20000F900FBE0F901F9018958F929F92AF92B8
:101E3000BF92CF92DF92EF92FF926B017C010E94E2
:101E4000FE094B015C01C114D104E104F104F1F07D
:101E50000E94FE09DC01CB0188199909AA09BB0976
:101E6000883E9340A105B10570F321E0C21AD10864
:101E7000E108F10888EE880E83E0981EA11CB11CD1
:101E8000C114D104E104F10419F7DDCFFF90EF9004
:101E9000DF90CF90BF90AF909F908F900895CF929A
:101EA000DF92EF92FF920F931F93CF93DF93CDB703
:101EB000DEB7C254D1090FB6F894DEBF0FBECDBF56
:101EC000FC0182819381A481B58123968CAF9DAF63
:101ED000AEAFBFAF239721E023962FAF2397239672
:101EE0004CAD5DAD6EAD7FAD23974BAB5CAB6DABD9
:101EF0007EAB89AF9AAFABAFBCAF8DA79EA7AFA7A4
:101F0000B8AB28AB4DA55EA56FA578A94FA358A780
:101F100069A77AA72EAB4BA95CA96DA97EA949A395
:101F20005AA36BA37CA38B8F9C8FAD8FBE8F48EC85
:101F300051E05C8B4B8B3FEF3D8B3E8B3F8B188E84
:101F40005E874D872AA7CFA0D8A4E9A4FAA4CF869C
:101F5000D88AE98AFA8A2CA309A11AA12BA13CA14B
:101F600009871A872B873C875A8349838B839C83F5
:101F7000AD83BE836CE271E080E090E00E94150FBB
:101F80001FB7F89480913D03811163C08FEC90E0FE
:101F9000FC01249143EE50E0FA01649130E0220FFD
:101FA000331F25543F4FF901A591B4912C91622321
:101FB00009F040C0E7EAF0E02491FA014491FC0105
:101FC00094919923B9F1222339F1233091F038F417
:101FD0002130A9F0223001F584B58F7D12C0273061
:101FE00091F02830A1F02430B9F4809180008F7DE9
:101FF00003C0809180008F77809380000DC084B5EE
:102000008F7784BD09C08091B0008F7703C0809125
:10201000B0008F7D8093B000E92FF0E0EE0FFF1F3E
:10202000EF54FF4FA591B4918FB7F8949C91492B31
:102030004C938FBF8AE00E94D8128CB580618CBD12
:102040008CB580648CBD8DE00E94D8128BE00E941C
:10205000D81280913D038F5F80933D031FBF229A6A
:1020600080E590E00E94140160E880E090E00E942A
:10207000AF0C65E58BE190E00E94AF0C65E58AE16D
:1020800090E00E94AF0C0E94130180E090E49093D6
:102090002E0380932D0380E090E690933603809387
:1020A000350380E098E49093300380932F0380E021
:1020B00098E6909338038093370380E090E59093FF
:1020C00032038093310380E090E790933A0380934A
:1020D000390380E098E5909334038093330380E0E4
:1020E00098E790933C0380933B0380E590E00E9447
:1020F000140146E050E066E071E089E090E00E9463
:10210000800C44E050E0BE016D5F7F4F8FE090E0B7
:102110000E94800C44E050E0BE01615F7F4F81E08F
:1021200090E00E94800C44E050E0BE016B5E7F4F67
:1021300085E090E00E94800C0E94130181E08C8772
:1021400089859A85AB85BC858093DD039093DE03FA
:10215000A093DF03B093E003CE5BDF4F0FB6F8949C
:10216000DEBF0FBECDBFDF91CF911F910F91FF90CA
:10217000EF90DF90CF9008950F931F93CF93DF934D
:102180008C01C0E0D0E0F801EC0FFD1F64916623E4
:1021900071F0E0913E03F0913F030190F081E02D5A
:1021A0008EE393E00995892B11F02196ECCFCE01B7
:1021B000DF91CF911F910F910895EF92FF920F93AE
:1021C0001F93CF93DF934115510521F1EA017B0164
:1021D0008C0188819981009711F00E94C917C7016D
:1021E0000E94301999838883D8011696ED91FC914D
:1021F0001797309729F41796DC93CE9316970AC059
:1022000082819381009711F0FC01FACFD383C283BE
:10221000FD83EC83DF91CF911F910F91FF90EF90A1
:102220000895CF93C82F462F61E070E00E94FD060D
:1022300061E070E08C2F0E9430078111F9CFCF91BF
:1022400008958F929F92AF92BF92CF92DF92EF92BA
:10225000FF920F931F93CF93DF93B82E4B018A0108
:10226000A22E68E270E00E943007C82FD0E069E239
:1022700070E08B2D0E943007DC2FCC27C82B9E01ED
:102280003770CB2CD12CC601880F991FAC014B5C49
:102290005C4F6A01FA0180819181820F931FA8012E
:1022A000420F531F4130584098F060E078E07B01C6
:1022B000E21AF30AA701B4010E94500CA8014E19BA
:1022C0005F09B4016E0D7F1DF6018081918102C00E
:1022D000A801B4010E94500CA1100EC0C00FD11F64
:1022E0004D2F68E270E08B2D0E94FD064C2F69E2B5
:1022F00070E08B2D0E94FD06DF91CF911F910F9111
:10230000FF90EF90DF90CF90BF90AF909F908F9015
:1023100008950F931F93CF93DF93EC01A881B981A8
:10232000E9EEF3E044815581608171811296ED916F
:10233000FC91139709958C01CE010E943E13800FEA
:10234000911FDF91CF911F910F9108959F92AF92AE
:10235000BF92CF92DF92EF92FF920F931F93CF9392
:10236000DF93982E8B015A01690164E270E00E94AC
:102370003007E82EF12C65E270E0892D0E943007CD
:10238000FE2CEE24E82AE701C00FD11F9E01377012
:10239000E92CF12CC701880F991FAC01435D5C4FFC
:1023A0007A01FA0180819181820F931FA9014C0D5E
:1023B0005D1D4130584090F000E018E0021B130B07
:1023C000A801B5010E94800CA601401B510BB5016C
:1023D000600F711FF7018081918102C0A601B501D4
:1023E0000E94800CCC0DDD1D4D2F64E270E0892D24
:1023F0000E94FD064C2F65E270E0892DDF91CF91A0
:102400001F910F91FF90EF90DF90CF90BF90AF9012
:102410009F900C94FD06FF920F931F93CF93DF9331
:10242000F82EC0E0D0E08F2D0E94310C8C01892B5A
:1024300021F08F2D0E94310CEC01C017D10799F7C4
:10244000CE01DF91CF911F910F91FF900895EF92F0
:10245000FF920F931F93CF93DF93EC017B018A01CF
:1024600088819981009729F02A813B8124173507BB
:10247000F8F4B8016F5F7F4F0E946118009759F020
:10248000998388831B830A832C813D81232B81F4CC
:10249000FC0110820DC088819981009711F00E9483
:1024A000C917198218821D821C821B821A8207C0DA
:1024B0001D830C83B701888199810E945319CE0135
:1024C000DF91CF911F910F91FF90EF9008954F9260
:1024D0005F926F927F92EF92FF920F931F93CF9331
:1024E000DF93CDB7DEB7A1970FB6F894DEBF0FBE6E
:1024F000CDBF7C01FA01CB0119A2223008F42AE0F9
:102500008E010F5D1F4F422E512C612C712CBF018B
:10251000A30192010E947E1AF901CA01015011091A
:102520006A3014F4605D01C0695CD8016C93232BA0
:10253000242B252B61F7B801C7010E942913A1960E
:102540000FB6F894DEBF0FBECDBFDF91CF911F91C4
:102550000F91FF90EF907F906F905F904F90089554
:10256000EEE3F3E0A089B18982E08C93A485B58580
:102570001C92A685B7858FEC8C93108EA489B589A3
:1025800086E08C93A289B3898C9180618C93A28917
:10259000B3898C9188608C93A289B3898C9180686F
:1025A0008C930288F389E02D80818F7D808308954C
:1025B00090E0FC01E752FF4F2491FC01EB53FF4FE9
:1025C0008491882399F090E0880F991FFC01E554CD
:1025D000FF4FA591B491FC01EF54FF4F8591949169
:1025E0008FB7F894EC91E22BEC938FBF0895CF92C4
:1025F000DF92EF92FF920F931F93CF93DF936C01C3
:102600007A018B01C0E0D0E0CE15DF0589F0D8015A
:102610006D918D01D601ED91FC910190F081E02D3D
:10262000C6010995892B11F47E0102C02196ECCFD9
:10263000C701DF91CF911F910F91FF90EF90DF9035
:10264000CF900895DC01ED91FC910190F081E02D97
:1026500009946115710579F0FB0101900020E9F7FB
:102660003197AF01461B570BDC01ED91FC910280C5
:10267000F381E02D099480E090E0089563EF71E02C
:102680000C9429130F931F93CF93DF93EC01CB018D
:10269000DB01ED91FC910190F081E02DBE010995E7
:1026A0008C01CE010E943E13800F911FDF91CF91CC
:1026B0001F910F9108950F931F93CF93DF93EC0118
:1026C0000E9429138C01CE010E943E13800F911F9E
:1026D000DF91CF911F910F9108950C942913809150
:1026E000E9039091EA030C94C917CF93DF93CDB718
:1026F000DEB760970FB6F894DEBF0FBECDBF7894FB
:1027000084B5826084BD84B5816084BD85B58260F6
:1027100085BD85B5816085BD80916E0081608093A7
:102720006E00109281008091810082608093810010
:102730008091810081608093810080918000816020
:10274000809380008091B10084608093B10080917B
:10275000B00081608093B00080917A0084608093A3
:102760007A0080917A00826080937A0080917A006A
:10277000816080937A0080917A00806880937A00EB
:102780001092C10010922603109227031092280382
:10279000109229031092F4021092F5021092F602A0
:1027A0001092F70260ED77E080E090E00E94150F54
:1027B0008EE393E090932503809324030E94B0124C
:1027C0000E94230A0091F4021091F5022091F60272
:1027D0003091F702DC01CB01801B910BA20BB30BF4
:1027E00084369105A105B10538F463E070E080E01E
:1027F00090E00E94150FE4CF0E94230A6093F40238
:102800007093F5028093F6029093F70264EE71E004
:1028100080912403909125030E946D136AE070E07B
:1028200080E090E00E94150F81E08093F8020E9402
:10283000210C009719F026E0FC0120879093F2020A
:102840008093F1020E94B01266EF71E08EE393E094
:102850000E945B1386E790E00E94BC108EE393E039
:102860000E943E1308EC11E01A830983809104044E
:1028700090910504A0910604B09107048B839C837A
:10288000AD83BE83CE0101960E944F0F6DE072E0D2
:102890008EE393E00E946D131A8309831B821C82CE
:1028A0001D821E8280E590E00E94140144E050E009
:1028B000BE016D5F7F4F8FE090E00E94500C0E9440
:1028C0001301BE016F5F7F4F8EE393E00E944213BE
:1028D00068EE73E080E090E00E94150F0E94210CEA
:1028E0008C01892B51F084E0F80180878DE192E022
:1028F0000E943019F80192878187E090F102F090F0
:10290000F202A8016DE272E0C7010E94DD100E9490
:10291000210C8C01892B51F084E0F801808784E23E
:1029200092E00E943019F80192878187A8016AE23B
:1029300072E0C7010E94DD100E94210C009739F05F
:1029400022E0FC01208729EB30E032872187AC01AF
:1029500062E372E0C7010E94DD100E94210C009723
:1029600039F022E0FC0120872CE030E0328721871B
:10297000AC0167E372E0C7010E94DD1080E091E0E6
:102980000E9434178C01892BD9F01C821B821E8275
:102990001D828FEF9FEF98878F838AE691E09A835D
:1029A00089831A8619861C870B8780E091E0988BB3
:1029B0008F871E861D86B701CE0101960E94C60A2A
:1029C0000115110581F0F80101900020E9F7319718
:1029D000AF01401B510BB80189EE93E00E94271212
:1029E00008EC11E01EC08091E9039091EA03009782
:1029F00011F00E94C9171092EA031092E903109295
:102A0000EE031092ED031092EC031092EB03E8CF6B
:102A10008EE393E00E94A90D8136910549F00E9452
:102A20006B0E8EE393E00E94CB0D892BC1F3F0CFA8
:102A30008EE393E00E9489111A8309838091020139
:102A400090910301A0910401B09105018B839C83B7
:102A5000AD83BE8348E557E0BE016F5F7F4F8FEEC9
:102A600093E00E94D101892B09F448C06FE372E022
:102A70008EE393E00E945B1369E572E08FEE93E0D2
:102A80000E946D1366E672E08FEE93E00E945B1386
:102A900060E772E08FEE93E00E946D136CEF73E0DD
:102AA0008FEE93E00E94421367E772E08FEE93E0AF
:102AB0000E945B1369E872E08FEE93E00E946D1351
:102AC0004091ED035091EE0360E070E02AE08FEE5C
:102AD00093E00E9467128FEE93E00E943E136AE932
:102AE00072E08FEE93E00E945B138FEE93E00E9402
:102AF0003E138FEE93E00E94891118C08BE890E09E
:102B00000E94BC108EE393E00E943E130FC08FEE34
:102B100093E00E940A01892B49F08FEE93E00E9416
:102B2000F000682F8EE393E00E9422138FEE93E073
:102B30000E94A4088111EBCF6AEC72E08EE393E06F
:102B40000E945B138FEE93E00E941701C0902A034E
:102B5000D0902B03C601019690932B0380932A03F8
:102B60000D2C000CEE08FF08F7FE0EC06DE28EE3A0
:102B700093E00E94221344275527BA014C195D099E
:102B80006E097F092AE003C02AE0B701A6018EE39F
:102B900093E00E9467128EE393E00E943E133FCFC2
:102BA000EAE1F4E088EC91E0918380831282138261
:102BB00014821582EEE3F3E01382128248EE53E0B2
:102BC00060E070E044835583668377832CE731E0CF
:102BD0003183208325EC30E03587248724EC30E0F6
:102BE0003787268720EC30E0318B208B21EC30E0DA
:102BF000338B228B22EC30E0358B248B26EC30E0BB
:102C0000378B268B118E128E138E148EE0E2F4E039
:102C1000918380831282138214821582E6E2F4E0AB
:102C2000918380831282138214821582ECE2F4E095
:102C3000918380831282138214821582E2E3F4E08E
:102C4000918380831282138214821582E8E3F4E078
:102C5000918380831282138214821582EBEDF3E05C
:102C6000918380831282138214821582E3EEF3E053
:102C7000918380831282138214821582EEE3F4E042
:102C8000918380831282138214821582E4E1F4E03E
:102C9000918380831282138214821582EEE0F4E025
:102CA0009183808320EC228330E83383148231E0E7
:102CB0003583E8E0F4E0918380833FEF3283338310
:102CC00014821582E2E0F4E091838083228338EA63
:102CD00033831482AAE0A583ECEFF3E09183808331
:102CE0002283338314828BE08583EFEEF3E013823B
:102CF0001282448355836683778384EA91E09183CB
:102D0000808384E08487E9EEF3E0118210821382ED
:102D100012821582148240E050E065EF71E0CF012D
:102D20000C942712EE0FFF1F0590F491E02D0994EB
:102D30005058BB27AA270E94B0160C94441A0E9430
:102D4000361A38F00E943D1A20F039F49F3F19F4EA
:102D500026F40C94331A0EF4E095E7FB0C942D1A2C
:102D6000E92F0E94551A58F3BA17620773078407B0
:102D7000950720F079F4A6F50C94771A0EF4E095F7
:102D80000B2EBA2FA02D0B01B90190010C01CA0125
:102D9000A0011124FF27591B99F0593F50F4503ED0
:102DA00068F11A16F040A22F232F342F4427585FC2
:102DB000F3CF469537952795A795F0405395C9F7DA
:102DC0007EF41F16BA0B620B730B840BBAF0915092
:102DD000A1F0FF0FBB1F661F771F881FC2F70EC031
:102DE000BA0F621F731F841F48F487957795679504
:102DF000B795F7959E3F08F0B0CF9395880F08F0F0
:102E00009927EE0F9795879508950E945D1A88F08F
:102E10009F5798F0B92F9927B751B0F0E1F0660F9E
:102E2000771F881F991F1AF0BA95C9F714C0B130DF
:102E300091F00E94771AB1E008950C94771A672FE9
:102E4000782F8827B85F39F0B93FCCF3869577950E
:102E50006795B395D9F73EF49095809570956195F7
:102E60007F4F8F4F9F4F0895CF93DF93823091050F
:102E700010F482E090E0E0914604F091470420E0F5
:102E800030E0C0E0D0E0309711F140815181481727
:102E90005907C0F04817590761F482819381209740
:102EA00019F09B838A832BC0909347048093460438
:102EB00026C02115310519F04217530718F49A015D
:102EC000BE01DF01EF010280F381E02DDCCF21158F
:102ED000310509F1281B390B2430310590F4129685
:102EE0008D919C9113976115710521F0FB019383DE
:102EF000828304C09093470480934604FD01329678
:102F000044C0FD01E20FF31F8193919322503109D8
:102F10002D933C933AC02091440430914504232BD7
:102F200041F420910E0130910F013093450420931C
:102F3000440420910C0130910D012115310541F41B
:102F40002DB73EB74091100150911101241B350B54
:102F5000E0914404F0914504E217F307A0F42E1B1E
:102F60003F0B2817390778F0AC014E5F5F4F2417ED
:102F7000350748F04E0F5F1F5093450440934404BB
:102F80008193919302C0E0E0F0E0CF01DF91CF9117
:102F900008950F931F93CF93DF93009709F48CC08C
:102FA000FC0132971382128200914604109147046B
:102FB0000115110581F420813181820F931F209129
:102FC0004404309145042817390779F5F0934504F6
:102FD000E093440471C0D80140E050E0AE17BF0751
:102FE00050F412962D913C911397AD0121153105A6
:102FF00009F1D901F3CF9D01DA0133832283608186
:103000007181860F971F8217930769F4EC0128815D
:103010003981260F371F2E5F3F4F318320838A81EE
:103020009B8193838283452B29F4F0934704E0939B
:10303000460442C01396FC93EE931297ED0149911A
:1030400059919E01240F351FE217F30771F4808117
:103050009181840F951F029611969C938E93828185
:10306000938113969C938E931297E0E0F0E0D80141
:1030700012968D919C911397009719F0F8018C018D
:10308000F6CF8D919C9198012E5F3F4F820F931F39
:1030900020914404309145042817390769F430978A
:1030A00029F4109247041092460402C0138212823F
:1030B0001093450400934404DF91CF911F910F9129
:1030C0000895A0E0B0E0E7E6F8E10C94A41AEC0162
:1030D000009721F4CB010E943417B8C0FC01E60F21
:1030E000F71F9C0122503109E217F30708F4ACC026
:1030F000D9010D911C91119706171707B0F00530F3
:10310000110508F49FC0C80104978617970708F4B3
:1031100099C002501109061B170B019311936D936F
:103120007C93CF010E94C9178DC05B01A01AB10A20
:103130004C01800E911EA0914604B091470440E0DE
:1031400050E0E12CF12C109709F44AC0A815B905FC
:10315000D1F56D907C901197630182E0C80ED11C6F
:10316000CA14DB0480F1A3014A195B096A0182E0F9
:10317000C80ED11C1296BC9012971396AC91B5E074
:10318000CB16D10440F0B282A38351834083D9018E
:103190006D937C930AC00E5F1F4FC301800F911F78
:1031A000F90191838083EB2DFA2FE114F10431F0C2
:1031B000D7011396FC93EE93129744C0F093470403
:1031C000E09346043FC08D919C9111974817590791
:1031D00008F4AC017D0112960D90BC91A02DB3CFE7
:1031E000809144049091450488159905E1F44617AF
:1031F0005707C8F480910C0190910D01009741F49C
:103200008DB79EB74091100150911101841B950B11
:10321000E817F907C8F4F0934504E0934404F90172
:10322000718360830FC0CB010E9434177C0100972B
:1032300059F0A801BE010E944A19CE010E94C91787
:10324000C70104C0CE0102C080E090E0CDB7DEB778
:10325000EEE00C94C01A81E090E0F8940C94D71A38
:103260000F931F93CF93DF938C01FC0101900020FB
:10327000E9F7CF01801B910B0E943417EC010097F6
:1032800019F0B8010E945319CE01DF91CF911F911F
:103290000F910895FB01DC0102C001900D92415095
:1032A0005040D8F70895FB01DC0101900D920020F9
:1032B000E1F708950E949C1908F481E00895E894CC
:1032C00009C097FB3EF490958095709561957F4F6E
:1032D0008F4F9F4F9923A9F0F92F96E9BB2793951C
:1032E000F695879577956795B795F111F8CFFAF42C
:1032F000BB0F11F460FF1BC06F5F7F4F8F4F9F4F5D
:1033000016C0882311F096E911C0772321F09EE8BA
:10331000872F762F05C0662371F096E8862F70E020
:1033200060E02AF09A95660F771F881FDAF7880FFA
:103330009695879597F90895990F0008550FAA0B50
:10334000E0E8FEEF16161706E807F907C0F01216B8
:103350001306E407F50798F0621B730B840B950BBB
:1033600039F40A2661F0232B242B252B21F4089510
:103370000A2609F4A140A6958FEF811D811D0895AD
:103380000E94D3190C94441A0E94361A38F00E94F5
:103390003D1A20F0952311F00C942D1A0C94331A39
:1033A00011240C94781A0E94551A70F3959FC1F35A
:1033B000950F50E0551F629FF001729FBB27F00DE3
:1033C000B11D639FAA27F00DB11DAA1F649F662738
:1033D000B00DA11D661F829F2227B00DA11D621F87
:1033E000739FB00DA11D621F839FA00D611D221F41
:1033F000749F3327A00D611D231F849F600D211D25
:10340000822F762F6A2F11249F5750409AF0F1F0A7
:1034100088234AF0EE0FFF1FBB1F661F771F881F10
:1034200091505040A9F79E3F510580F00C942D1A01
:103430000C94781A5F3FE4F3983ED4F38695779521
:103440006795B795F795E7959F5FC1F7FE2B880FB6
:10345000911D9695879597F9089597F99F6780E84C
:1034600070E060E008959FEF80EC089500240A94D6
:103470001616170618060906089500240A9412164F
:103480001306140605060895092E0394000C11F482
:10349000882352F0BB0F40F4BF2B11F460FF04C02F
:1034A0006F5F7F4F8F4F9F4F089557FD9058440F88
:1034B000551F59F05F3F71F04795880F97FB991F93
:1034C00061F09F3F79F08795089512161306140650
:1034D000551FF2CF4695F1DF08C0161617061806DD
:1034E000991FF1CF86957105610508940895E894B8
:1034F000BB2766277727CB0197F90895A1E21A2EFB
:10350000AA1BBB1BFD010DC0AA1FBB1FEE1FFF1F87
:10351000A217B307E407F50720F0A21BB30BE40BD7
:10352000F50B661F771F881F991F1A9469F760951E
:103530007095809590959B01AC01BD01CF010895D8
:103540002F923F924F925F926F927F928F929F92B3
:10355000AF92BF92CF92DF92EF92FF920F931F93A1
:10356000CF93DF93CDB7DEB7CA1BDB0B0FB6F89452
:10357000DEBF0FBECDBF09942A88398848885F8492
:103580006E847D848C849B84AA84B984C884DF8003
:10359000EE80FD800C811B81AA81B981CE0FD11DE7
:1035A0000FB6F894DEBF0FBECDBFED01089510E059
:1035B000C8E7D0E004C0FE010E9492162196C937E8
:0835C000D107C9F7F894FFCF11
:1035C80000C0C0A8000B18037352069C00004804F2
:1035D80080000100000001005E0000000000000003
:1035E800BB0EBB0EBB0EBB0EBB0EBB0EBB0EBB0E8B
:1035F800BB0EBB0EBB0EBB0EBB0EBB0EBB0EBB0E7B
:1036080000000000500552066605D00598054F05D4
:103618006F071B075C088A069C07F905B1057E053C
:103628006E056A05E50700000000C808F7120709DB
:10363800E50815095809930900000000020EF71261
:10364800CB0DA90DBD0D490E00000000BB0EF712F1
:10365800BB0EBB0EBB0EBB0E00000000BB0EF7126C
:1036680000000000A4005D010A01F000C900A300E9
:10367800D101DC04EC001701A4089005C600C400C1
:103688008505BA0000000000750E00000000BB0EA2
:1036980022006E756C6C00747275650066616C73DF
:1036A80065002D00564D4450565F317C315F564DB4
:1036B8004450560D0A0053657474696E672075701E
:1036C8002045746865726E65742E2E2E004D792023
:1036D800495020616464726573733A2000506570C4
:1036E80069746F004465206C75005375726E616D66
:1036F800650052464944006E625F73656E740050FF
:103708006F7374696E67206461746120746F2052EE
:10371800617370626572727900504F5354202F7034
:1037280069636B69740020485454502F312E31005E
:10373800486F73743A2000436F6E6E656374696FE7
:103748006E3A20636C6F736500436F6E74656E74B8
:103758002D4C656E6774683A2000436F6E74656E11
:10376800742D547970653A206170706C6963617466
:10377800696F6E2F782D7777772D666F726D2D753F
:10378800726C656E636F646564002046696E2064C0
:0E3798006520726563657074696F6E200000B5
:00000001FF
