:100000000C9471000C9499000C9499000C94990034
:100010000C9499000C9499000C9499000C949900FC
:100020000C9499000C9499000C9499000C949900EC
:100030000C9499000C9499000C9499000C949900DC
:100040000C94E30D0C9499000C94E8090C94C209EB
:100050000C9499000C9499000C9499000C949900BC
:100060000C9499000C94990053746174696320692D
:10007000702061646472657373696E6700436F6EAC
:100080006E656374696F6E206661696C65640000FB
:100090000000080002010000030407000000000047
:1000A00000000000000000250028002B00000000D8
:1000B00000240027002A00040404040404040402A9
:1000C00002020202020303030303030102040810F5
:1000D00020408001020408102001020408102000C2
:1000E000871111241FBECFEFD8E0DEBFCDBF12E0D5
:1000F000A0E0B1E0E4ECF4E202C005900D92AE3372
:10010000B107D9F723E0AEE3B2E001C01D92A539F3
:10011000B207E1F710E0C1E7D0E004C02197FE018B
:100120000E943312C037D107C9F70E9404100C9403
:1001300060120C9400000895CF93DF931F92CDB707
:10014000DEB76983DC01ED91FC910280F381E02D43
:1001500041E050E0BE016F5F7F4F09950F90DF9146
:10016000CF910895FC01818D928D0895FC018489C1
:100170009589089520EB31E0FC0131832083FB0158
:100180004089518962897389FC0142835383648366
:1001900075830895DC01ED91FC91008CF18DE02DCB
:1001A0000994FC019485FB018485981303C081E0C8
:1001B000943009F480E0089521E0FC0184858430C6
:1001C00009F420E0822F08950895CF93DF931F92C2
:1001D000CDB7DEB7FC01218D328D232B49F0BE0156
:1001E0006F5F7F4F808D0E94D10E898190E002C0A9
:1001F0008FEF9FEF0F90DF91CF9108950F931F9393
:10020000CF93DF931F92CDB7DEB78C01DC01ED9168
:10021000FC910480F581E02D0995892B51F0BE01F8
:100220006F5F7F4FF80184850E94D10E898190E035
:1002300002C08FEF9FEF0F90DF91CF911F910F9131
:100240000895CF93DF93FC01218D328D2115310567
:1002500019F48FEF9FEF11C0EC014217530708F01C
:10026000A901888D0E94120F1816190694F7298D7E
:100270003A8D281B390B3A8F298FDF91CF91089542
:100280000F931F93CF93DF931F92CDB7DEB7FC017F
:10029000218D328D232B61F08C0141E050E0BE01B5
:1002A0006F5F7F4F808D0E94120F181619061CF089
:1002B0008FEF9FEF08C0F801818D928D0197928F8B
:1002C000818F898190E00F90DF91CF911F910F91E5
:1002D00008950F931F93CF93DF93CDB7DEB7289781
:1002E0000FB6F894DEBF0FBECDBF8C01F801818D33
:1002F000928D892B49F0D801ED91FC910680F78110
:10030000E02DC8010995F2CF808D0E94F00E1816DD
:1003100019065CF548E050E0BE016F5F7F4FD801E1
:1003200058968C910E94120F9C0118161906DCF445
:1003300089819A81AB81BC81F801808B918BA28BE2
:10034000B38B8D8190E0982F88272E81820F911D8D
:10035000958B848B2F8130E0322F22278885280FC0
:10036000311D328F218FC90102C080E090E02896B4
:100370000FB6F894DEBF0FBECDBFDF91CF911F91B6
:100380000F910895AF92BF92CF92DF92FF920F9399
:100390001F93CF93DF938C015B01EA01FC01C688B8
:1003A000D788F08C80E590E00E94B9048F2D0E94E0
:1003B000EA0C8C179D0720F48F2D0E94EA0CEC01AB
:1003C0009E01A501B6018F2D0E94850C0E94B804E4
:1003D000F801868997898C0F9D1F978B868BCE019C
:1003E000DF91CF911F910F91FF90DF90CF90BF9041
:1003F000AF900895CF92DF92EF92FF920F931F93E9
:10040000CF93DF93CDB7DEB7AF970FB6F894DEBFCB
:100410000FBECDBF7C016A0100EB11E01A83098396
:100420001C861B8688EE93E0A0E0B0E08D879E8757
:10043000AF87B88B8EE391E09A878987188F0F8BEF
:10044000198E1A8E1B8E1C8E84E089A31DA30CA30B
:100450001EA21FA218A619A680913A0390913B03F1
:10046000A0913C03B0913D038CA79DA7AEA7BFA769
:100470008B839C83AD83BE8318861F82AE014C5D47
:100480005F4FCE0101960E94C00581309105B1F405
:10049000D701ED91FC910088F189E02D1BA70AA7F7
:1004A0008EA19FA1A8A5B9A58CA79DA7AEA7BFA700
:1004B000A601BE01665D7F4FC7010995AF960FB6D5
:1004C000F894DEBF0FBECDBFDF91CF911F910F918A
:1004D000FF90EF90DF90CF900895CF93DF93EC01E2
:1004E000888D843061F00E94650FE88DF0E0EE0F9A
:1004F000FF1FE25CFD4F1182108284E0888FDF9144
:10050000CF9108959B0190E00496982F8827642F3F
:10051000820F931F0C94AF0E0F931F93CF93DF9313
:100520001F92CDB7DEB790E00496982F88278C01F4
:10053000060F171F0E942F0E8FE00E94490E812F79
:100540000E94490E802F0E94490E80E00E94490EB1
:1005500089830E942D0E89810F90DF91CF911F9189
:100560000F9108951F93CF93DF931F92CDB7DEB7FE
:10057000182F80E590E00E94B90463E070E0812FBD
:100580000E948C0289830E94B80489810F90DF91B8
:10059000CF911F910895EF92FF921F93CF93DF9316
:1005A000FC01208D243011F080E01CC07B01EC01A7
:1005B00010E0812F0E94B202811102C0188F05C085
:1005C0008831E1F31F5F1430A1F7888D843061F327
:1005D000FD86EC861A8E198E20E0A70162E00E944B
:1005E000790F81E0DF91CF911F91FF90EF900895F7
:1005F000CF93FC01C08D80E590E00E94B90460E2D9
:1006000070E08C2F0E940D0C62E070E08C2F0E9435
:100610008C0284FD19C062E070E08C2F0E948C0275
:1006200083FF0BC048E162E070E08C2F0E948202E1
:100630000E94B80480E090E011C00E94B80480E5F8
:1006400090E00E94B904E0CF40E162E070E08C2FBE
:100650000E9482020E94B80481E090E0CF91089548
:10066000CF93DF93C82FD62F472F60E170E00E9411
:1006700082024D2F61E170E08C2FDF91CF910C94BD
:100680008202BF92CF92DF92EF92FF920F931F935D
:10069000CF93DF9300D000D000D0CDB7DEB7FC0100
:1006A000208D243009F053C06A017B018C01B12CEC
:1006B00063E070E08B2D0E948C02811103C0F80171
:1006C000B08E06C08831D9F3B394F4E0BF12F0CFF6
:1006D000F801808D8430D9F196E0E0E1F1E0DE01AF
:1006E000119601900D929A95E1F7F70193819F770A
:1006F0009C8394819D8395819E83B7016E5F7F4F1C
:1007000090E0982F882744E050E0845F9B4F0E9440
:10071000800EB601F801808D0E943003F801808DB3
:1007200090E0982F882746E050E0BE016F5F7F4F32
:100730008A5F9B4F0E94800EF801128E118E20E876
:10074000A60162E0808D0E94790F81E001C080E007
:1007500026960FB6F894DEBF0FBECDBFDF91CF91C6
:100760001F910F91FF90EF90DF90CF90BF90089571
:10077000FF920F931F93CF93DF93FB01DC015796FA
:100780001C921E9256975896FC908281811109C046
:100790008381811106C08481811103C085818823F2
:1007A000F9F041155105E1F08A01EF0180E590E093
:1007B0000E94B904BE016E5F7F4F2F2D30E0922F53
:1007C000882744E050E0845F9B4F0E94800EB80170
:1007D0008F2D0E9430030E94B80481E090E002C097
:1007E00080E090E0DF91CF911F910F91FF900895ED
:1007F000FC018485843011F00C94B20280E00895ED
:10080000CF93DF93FC0124852430D1F0EC010E94CA
:10081000F803843181F0882371F0883161F08C31E4
:1008200061F4E881F9810480F581E02DCE0109951C
:1008300021E0892B19F420E001C021E0822F01C0C2
:1008400080E0DF91CF910895CF92DF92EF92FF92F7
:100850001F93CF93DF93FC0114851430A9F1EC01B1
:1008600080E590E00E94B90468E070E0812F0E946A
:100870000D0C0E94B8040E94D70D6B017C01CE01C3
:100880000E94F8038823B1F061E070E080E090E01E
:100890000E941A0A0E94D70DDC01CB018C199D0918
:1008A000AE09BF09883E9340A105B10540F38C8590
:1008B0000E94650FEC85F0E0EE0FFF1FE25CFD4F3C
:1008C0001182108284E08C87DF91CF911F91FF907D
:1008D000EF90DF90CF900895CF93DF931F92CDB725
:1008E000DEB76983DC01ED91FC910280F381E02D9C
:1008F00041E050E0BE016F5F7F4F09950F90DF919F
:10090000CF910895DC01ED91FC91048CF58DE02DE3
:10091000099591E089270895862F089581E086271B
:100920000895FC0184850C94120FCF93DF931F92DE
:10093000CDB7DEB741E050E0BE016F5F7F4FFC01F5
:1009400084850E94120F181619061CF4898190E004
:1009500002C08FEF9FEF0F90DF91CF910895FC01C0
:100960008485843011F00C94F00E80E090E00895BE
:1009700008958CBD9DBD08958F929F92AF92BF92B6
:10098000CF92DF92EF92FF920F931F93CF936C0160
:100990005B017A01FC01C485C43041F481E090E040
:1009A000F6019383828380E090E04EC08A0141305B
:1009B000584010F000E018E080E590E00E94B90493
:1009C0008C2F0E94EA0C4C0163E070E08C2F0E9497
:1009D0008C02873111F08C3121F48016910660F37E
:1009E00002C000E010E080E590E00E94B9049801A8
:1009F000A50160E070E08C2F0E94850C60E270E041
:100A00008C2F0E940D0C62E070E08C2F0E948C02F3
:100A100084FD10C063E070E08C2F0E948C02811175
:100A200004C08C2F0E94650FB9CF80E590E00E9432
:100A3000B904E9CF40E162E070E08C2F0E948202AD
:100A4000012B09F4ABCFC701CF911F910F91FF90FC
:100A5000EF90DF90CF90BF90AF909F908F900895D0
:100A6000CF92DF92FF920F931F93CF93DF93FC01FE
:100A70002485243009F077C06A01EB018C01F12C48
:100A80008F2D0E94B202811103C0F801F48607C0C5
:100A90008B7F8831D1F3F394F4E0FF12F1CFF801AA
:100AA0008485843009F45FC02091000130910101F8
:100AB0002F5F3F4F11F420E030EC30930101209381
:100AC0000001409100015091010120E061E00E948D
:100AD000790FF801F4848A818F3F51F48B818F3F25
:100AE00091F48C818F3F79F48D818F3F61F438C010
:100AF000811109C08B81811106C08C81811103C0D5
:100B00008D81882369F1C114D10451F180E590E011
:100B10000E94B904BE016E5F7F4F8F2D90E0982F29
:100B2000882744E050E0845F9B4F0E94800EB6010E
:100B30008F2D0E94300364E070E08F2D0E940D0C19
:100B4000C8010E94F803873189F061E070E080E01D
:100B500090E00E941A0AC8010E94F8038111F0CFA8
:100B600084E0F801848780E090E002C081E090E0BA
:100B7000DF91CF911F910F91FF90DF90CF9008955B
:100B80002F923F924F925F926F927F928F929F929D
:100B9000AF92BF92CF92DF92EF92FF920F931F938B
:100BA000CF93DF93CDB7DEB765970FB6F894DEBF6E
:100BB0000FBECDBF7C016B013A01FB0120E080E05C
:100BC00090E06AE03191332309F140ED430F4A3060
:100BD00080F4689FA001699F500D1124CA01C0973D
:100BE000830F911D37FD9A958F3F910559F350F36F
:100BF00013C03E3289F4233079F0D301A20FB11D26
:100C000012968C932F5F80E090E0DCCF233021F4AC
:100C1000F301858381E021C0F70142815381648122
:100C200075818091420390914303A0914403B09158
:100C30004503481759076A077B0709F49EC10E94BC
:100C4000D70D8701085F1F4F6F7077277C5FC80142
:100C50000E94CB02813019F080E090E0F3C180EB7C
:100C600091E09A838983F70182819381A481B58180
:100C70008B839C83AD83BE8345E350E0BE016F5FF1
:100C80007F4FC8010E94B803892B19F4C12CD12CC5
:100C90006FC10E94D70DF701778366837627672798
:100CA00076277A83698342E050E0BE016F5F7F4F11
:100CB000C8010E94C20181E090E09E878D8742E0DA
:100CC00050E0BE01635F7F4FC8010E94C20180E017
:100CD00091E09E878D8742E050E0BE01635F7F4FC9
:100CE000C8010E94C2011E861D8642E050E0BE017E
:100CF000635F7F4FC8010E94C20142E050E0BE0125
:100D0000635F7F4FC8010E94C20142E050E0BE0114
:100D1000635F7F4FC8010E94C2015601F5018081C7
:100D2000882311F1F6015F018191811115C0450100
:100D30008C189D081814190494F48F8641E050E033
:100D4000BE01615F7F4FC8010E94C201A401B601CC
:100D5000C8010E94C20103C08E3229F7E8CF6501A5
:100D6000FFEFCF1ADF0ADACF1F8641E050E0BE0165
:100D7000615F7F4FC8010E94C201C12CDD24D39462
:100D8000DE86CD8642E050E0BE01635F7F4FC80142
:100D90000E94C201DE86CD8642E050E0BE01635F64
:100DA0007F4FC8010E94C201C8010E94F802892B2E
:100DB00009F46CCF63E0A62EB12CF2E06F0E711C2B
:100DC0000E94D70D1B012C01C8010E946901181651
:100DD0001906A4F00E94D70DDC01CB0182199309FA
:100DE000A409B50989389341A105B105D0F462E39E
:100DF00070E080E090E00E941A0AE6CFF70142819D
:100E0000538164817581808D918DA28DB38D48173A
:100E100059076A077B0741F4848D958DC59721F4A6
:100E200006C02FEF3FEF9AC02EEF3FEF97C0F701BC
:100E300081A192A10C970CF4A6C04CE050E0BE0139
:100E40006F5F7F4FC8010E9421018B8190E0982F36
:100E500088272C81822B9A8B898B298130E0322F35
:100E600022274A81242BF7014681578142175307D5
:100E700009F086C097FF84C08F709270892B09F0AB
:100E8000DEC0CF80D12CDC2CCC248885C82AC114AC
:100E9000D10409F4D1C0812C912C8D8190E0982F40
:100EA00088272E81822B8816990608F46FC0812C22
:100EB000912C41E050E0BE016D5E7F4FC8010E9461
:100EC00021018B89982F907C09F093C0811186C0F5
:100ED0008B898111EECF42E050E0BE01615F7F4F10
:100EE000C8010E94210142E050E0BE01635F7F4FD4
:100EF000C8010E942101C8010E944001C8010E944E
:100F00004001C8010E944001C8010E94400142E026
:100F100050E0BE016F5E7F4FC8010E9421018F85A6
:100F200098898115914009F069C02D853E85322749
:100F3000232732272130310509F060C089899A8939
:100F40008115944009F075C044E050E0B301C80138
:100F50002C8B3D8B0E9421012C893D896901F1E098
:100F6000AF1AB10829F02FEFC216D20609F428CF24
:100F7000C8010E946D02C60165C08EEF9FEF62C07E
:100F80002CEF3FEFEBCF2DEF3FEFE8CF41E050E00C
:100F9000BE01635F7F4FC8010E9421018D858111D1
:100FA00013C08D858111F2CFC8010E944001C80194
:100FB0000E944001C8010E944001C8010E944001F6
:100FC000FFEF8F1A9F0A69CF8D859FEF980F9D873E
:100FD000882339F3C8010E944001F6CF8B899FEF27
:100FE000980F9B8B882309F473CFC8010E9440019E
:100FF000F5CFC8010E9440011B8A6ACF412C512CB9
:1010000089899A899827892798274816590638F494
:10101000C8010E9440018FEF481A580AF1CFEFEF44
:101020008E1A9E0A8C149D0409F043CF26EF3FEFE1
:1010300095CF27EF3FEF92CF2AEF3FEF8FCF2BEFE8
:101040003FEF8CCF65960FB6F894DEBF0FBECDBFD5
:10105000DF91CF911F910F91FF90EF90DF90CF9094
:10106000BF90AF909F908F907F906F905F904F90C8
:101070003F902F900895CF92DF92EF92FF920F93BF
:101080001F93CF93DF93CDB7DEB7AF970FB6F8942A
:10109000DEBF0FBECDBF7C016A0100EB11E01A83F9
:1010A00009831C861B8688EE93E0A0E0B0E08D8764
:1010B0009E87AF87B88B8EE391E09A878987188FD8
:1010C0000F8B198E1A8E1B8E1C8E84E089A31DA394
:1010D0000CA31EA21FA218A619A680913A039091F4
:1010E0003B03A0913C03B0913D038CA79DA7AEA705
:1010F000BFA78B839C83AD83BE8318861F82AE01FE
:101100004C5D5F4FCE0101960E94C0058130910574
:10111000B1F4D701ED91FC910484F585E02D1BA776
:101120000AA78EA19FA1A8A5B9A58CA79DA7AEA728
:10113000BFA7A601BE01665D7F4FC7010995AF96A7
:101140000FB6F894DEBF0FBECDBFDF91CF911F91D8
:101150000F91FF90EF90DF90CF900895FC01918D5B
:10116000828D981761F0828DDF01A80FB11D5D9609
:101170008C91928D9F5F9F73928F90E008958FEF77
:101180009FEF0895FC01918D828D981731F0828D2B
:10119000E80FF11D858D90E008958FEF9FEF089582
:1011A000FC01918D228D892F90E0805C9F4F821BE6
:1011B00091098F73992708958BE992E00E94D008D6
:1011C00021E0892B09F420E0822F0895FC01848D11
:1011D000DF01A80FB11DA35ABF4F2C91848D90E061
:1011E00001968F739927848FA689B7892C93A0893C
:1011F000B1898C9180648C93938D848D981306C0F3
:101200000288F389E02D80818F7D80830895EF929D
:10121000FF920F931F93CF93DF93EC0181E0888FB0
:101220009B8D8C8D981305C0E889F989808185FD97
:1012300024C0F62E0B8D10E00F5F1F4F0F73112788
:10124000E02E8C8DE8120CC00FB607FCFACFE889AF
:10125000F989808185FFF5CFCE010E94E608F1CFA4
:101260008B8DFE01E80FF11DE35AFF4FF0820B8FCB
:10127000EA89FB898081806207C0EE89FF896083EB
:10128000E889F98980818064808381E090E0DF9142
:10129000CF911F910F91FF90EF900895CF93DF931F
:1012A000EC01888D8823C9F0EA89FB89808185FD5E
:1012B00005C0A889B9898C9186FD0FC00FB607FCBF
:1012C000F5CF808185FFF2CFA889B9898C9185FF00
:1012D000EDCFCE010E94E608E7CFDF91CF910895D0
:1012E00080E090E0892B29F00E94DC0881110C94A9
:1012F000000008958F929F92AF92BF92CF92DF929B
:10130000EF92FF920F931F93CF93DF937C018B019A
:101310006C0182E0C80ED11C4701E5E08E0E911CE5
:10132000C0E0D0E0F60141916F0150E060E070E074
:101330002AE0C8010E94220D5C016EE2C8010E94F1
:10134000060D8A0D9B1DC80FD91FC814D90451F76B
:10135000F701458150E060E070E02AE0C8010E949A
:10136000220D8C0F9D1FDF91CF911F910F91FF9048
:10137000EF90DF90CF90BF90AF909F908F900895A7
:101380000E9439121F920F920FB60F9211242F93C1
:101390003F934F935F936F937F938F939F93AF93FD
:1013A000BF93EF93FF938BE992E00E94E608FF91D1
:1013B000EF91BF91AF919F918F917F916F915F91CD
:1013C0004F913F912F910F900FBE0F901F90189546
:1013D0001F920F920FB60F9211242F938F939F930A
:1013E000EF93FF93E091AB02F091AC028081E0912A
:1013F000B102F091B20282FD12C090818091B402DC
:101400008F5F8F732091B502821751F0E091B40283
:10141000F0E0E556FD4F958F8093B40201C08081C6
:10142000FF91EF919F918F912F910F900FBE0F9091
:101430001F9018958F929F92AF92BF92CF92DF929A
:10144000EF92FF926B017C010E94B20D4B015C0197
:10145000C114D104E104F104F1F00E94B20DDC01E9
:10146000CB0188199909AA09BB09883E9340A105B7
:10147000B10570F321E0C21AD108E108F10888EE45
:10148000880E83E0981EA11CB11CC114D104E10494
:10149000F10419F7DDCFFF90EF90DF90CF90BF9070
:1014A000AF909F908F900895CF92DF92EF92FF922E
:1014B0000F931F93CF93DF936C017A018B01C0E0F0
:1014C000D0E0CE15DF0589F0D8016D918D01D601F0
:1014D000ED91FC910190F081E02DC6010995892BD9
:1014E00011F47E0102C02196ECCFC701DF91CF91AC
:1014F0001F910F91FF90EF90DF90CF900895CF92C2
:10150000DF92EF92FF920F931F93CF93DF93CDB7AC
:10151000DEB7C254D1090FB6F894DEBF0FBECDBFFF
:10152000FC0182819381A481B58123968CAF9DAF0C
:10153000AEAFBFAF239721E023962FAF239723961B
:101540004CAD5DAD6EAD7FAD23974BAB5CAB6DAB82
:101550007EAB89AF9AAFABAFBCAF8DA79EA7AFA74D
:10156000B8AB28AB4DA55EA56FA578A94FA358A72A
:1015700069A77AA72EAB4BA95CA96DA97EA949A33F
:101580005AA36BA37CA38B8F9C8FAD8FBE8F40EB38
:1015900051E05C8B4B8B3FEF3D8B3E8B3F8B188E2E
:1015A0005E874D872AA7CFA0D8A4E9A4FAA4CF8646
:1015B000D88AE98AFA8A2CA309A11AA12BA13CA1F5
:1015C00009871A872B873C875A8349838B839C839F
:1015D000AD83BE836CE271E080E090E00E941A0A65
:1015E0001FB7F89480918F02811163C081EC90E065
:1015F000FC01249145ED50E0FA01649130E0220FA6
:10160000331F23553F4FF901A591B4912C916223CB
:1016100009F040C0E9E9F0E02491FA014491FC01AD
:1016200094919923B9F1222339F1233091F038F4C0
:101630002130A9F0223001F584B58F7D12C027300A
:1016400091F02830A1F02430B9F4809180008F7D92
:1016500003C0809180008F77809380000DC084B597
:101660008F7784BD09C08091B0008F7703C08091CF
:10167000B0008F7D8093B000E92FF0E0EE0FFF1FE8
:10168000ED55FF4FA591B4918FB7F8949C91492BDC
:101690004C938FBF8AE00E94E50F8CB580618CBDB2
:1016A0008CB580648CBD8DE00E94E50F8BE00E94BC
:1016B000E50F80918F028F5F80938F021FBF229A68
:1016C00080E590E00E94B90460E880E090E00E942C
:1016D000AF0E65E58BE190E00E94AF0E65E58AE113
:1016E00090E00E94AF0E0E94B80480E090E49093D6
:1016F000800280937F0280E090E69093880280933E
:10170000870280E098E4909382028093810280E0D7
:1017100098E690938A028093890280E090E5909306
:1017200084028093830280E090E790938C02809300
:101730008B0280E098E5909386028093850280E09A
:1017400098E790938E0280938D0280E590E00E944E
:10175000B90446E050E066E071E089E090E00E9464
:10176000800E44E050E0BE016D5F7F4F8FE090E05F
:101770000E94800E44E050E0BE01615F7F4F81E037
:1017800090E00E94800E44E050E0BE016B5E7F4F0F
:1017900085E090E00E94800E0E94B80481E08C8772
:1017A00089859A85AB85BC8580933A0390933B03EA
:1017B000A0933C03B0933D03CE5BDF4F0FB6F8948C
:1017C000DEBF0FBECDBFDF91CF911F910F91FF9074
:1017D000EF90DF90CF9008950F931F93CF93DF93F7
:1017E0008C01C0E0D0E0F801EC0FFD1F649166238E
:1017F00071F0E0919B02F0919C020190F081E02D4C
:101800008BE992E00995892B11F02196ECCFCE015E
:10181000DF91CF911F910F910895CF93C82F462F3D
:1018200061E070E00E94820261E070E08C2F0E9413
:101830008C028111F9CFCF9108958F929F92AF9230
:10184000BF92CF92DF92EF92FF920F931F93CF93AD
:10185000DF93B82E4B018A01A22E68E270E00E944D
:101860008C02C82FD0E069E270E08B2D0E948C02C0
:10187000DC2FCC27C82B9E013770CB2CD12CC60176
:10188000880F991FAC0149575D4F6A01FA018081A9
:101890009181820F931FA801420F531F413058407E
:1018A00098F060E078E07B01E21AF30AA701B40146
:1018B0000E94500EA8014E195F09B4016E0D7F1DE4
:1018C000F6018081918102C0A801B4010E94500EEE
:1018D000A1100EC0C00FD11F4D2F68E270E08B2DFC
:1018E0000E9482024C2F69E270E08B2D0E948202DE
:1018F000DF91CF911F910F91FF90EF90DF90CF90EC
:10190000BF90AF909F908F9008959F92AF92BF929B
:10191000CF92DF92EF92FF920F931F93CF93DF93BB
:10192000982E8B015A01690164E270E00E948C02DA
:10193000E82EF12C65E270E0892D0E948C02FE2CCD
:10194000EE24E82AE701C00FD11F9E013770E92C71
:10195000F12CC701880F991FAC0141585D4F7A01E6
:10196000FA0180819181820F931FA9014C0D5D1DA9
:101970004130584090F000E018E0021B130BA80122
:10198000B5010E94800EA601401B510BB501600FEE
:10199000711FF7018081918102C0A601B5010E94EB
:1019A000800ECC0DDD1D4D2F64E270E0892D0E946C
:1019B00082024C2F65E270E0892DDF91CF911F915B
:1019C0000F91FF90EF90DF90CF90BF90AF909F90DE
:1019D0000C948202FF920F931F93CF93DF93F82E04
:1019E000C0E0D0E08F2D0E94310E8C01892B21F0B8
:1019F0008F2D0E94310EEC01C017D10799F7CE014F
:101A0000DF91CF911F910F91FF900895DC01ED912F
:101A1000FC910190F081E02D09946115710579F038
:101A2000FB0101900020E9F73197AF01461B570BEE
:101A3000DC01ED91FC910280F381E02D099480E0BE
:101A400090E008954F925F926F927F92EF92FF9293
:101A50000F931F93CF93DF93CDB7DEB7A1970FB648
:101A6000F894DEBF0FBECDBF7C01FA01CB0119A2F5
:101A7000223008F42AE08E010F5D1F4F422E512CB8
:101A8000612C712CBF01A30192010E943E12F90149
:101A9000CA01015011096A3014F4605D01C0695C2B
:101AA000D8016C93232B242B252B61F7B801C70198
:101AB0000E940D0DA1960FB6F894DEBF0FBECDBFEC
:101AC000DF91CF911F910F91FF90EF907F906F90DA
:101AD0005F904F90089567EC71E00C940D0D0F939B
:101AE0001F93CF93DF93EC01CB01DB01ED91FC91D0
:101AF0000190F081E02DBE0109958C01CE010E947C
:101B00006B0D800F911FDF91CF911F910F91089561
:101B10000F931F93CF93DF93EC010E940D0D8C0167
:101B2000CE010E946B0D800F911FDF91CF911F910D
:101B30000F9108951F93CF93DF93182F66E270E003
:101B40000E948C02C82FD0E067E270E0812F0E94D3
:101B50008C02DC2FCC279E01282BC901DF91CF916D
:101B60001F9108953FB7F894809197029091980241
:101B7000A0919902B0919A0226B5A89B05C02F3F6B
:101B800019F00196A11DB11D3FBFBA2FA92F982FA3
:101B90008827820F911DA11DB11DBC01CD0142E01E
:101BA000660F771F881F991F4A95D1F708952FB7A1
:101BB000F8946091930270919402809195029091B3
:101BC00096022FBF08951F920F920FB60F92112405
:101BD0002F933F938F939F93AF93BF9380919302E3
:101BE00090919402A0919502B09196023091920248
:101BF00023E0230F2D3720F40196A11DB11D05C050
:101C000026E8230F0296A11DB11D20939202809316
:101C1000930290939402A0939502B09396028091C0
:101C2000970290919802A0919902B0919A02019620
:101C3000A11DB11D8093970290939802A0939902E1
:101C4000B0939A02BF91AF919F918F913F912F9145
:101C50000F900FBE0F901F9018952A9A08952A98FA
:101C600008951F93CF93DF93182F60E270E00E94D6
:101C70008C02C82FD0E061E270E0812F0E948C02BC
:101C8000DC2FCC279E01282BC901DF91CF911F911A
:101C900008958EBD00000DB407FEFDCF8EB50895EA
:101CA000CF92DF92EF92FF920F931F93CF93DF9328
:101CB000EC017A018B016C01C40ED51ECC15DD053B
:101CC000A9F00E942F0E8FE00E94490E8D2F0E94D6
:101CD000490E8C2F0E94490E219680E00E94490EE9
:101CE000F80181938F010E942D0EE8CFC701DF918B
:101CF000CF911F910F91FF90EF90DF90CF900895BB
:101D0000CF92DF92EF92FF920F931F93CF93DF93C7
:101D1000EC017A018B016C01C40ED51ECC15DD05DA
:101D2000A1F00E942F0E80EF0E94490E8D2F0E947D
:101D3000490E8C2F0E94490E2196F80181918F0146
:101D40000E94490E0E942D0EE9CFC701DF91CF916D
:101D50001F910F91FF90EF90DF90CF9008951F9308
:101D6000CF93DF9300D0CDB7DEB7182F6A83998366
:101D70000E942F0E80EF0E94490E9981892F0E94A8
:101D8000490E812F0E94490E6A81862F0E94490EBA
:101D90000E942D0E81E00F900F90DF91CF911F9147
:101DA00008951F93CF93DF9300D0CDB7DEB7182FE0
:101DB00080E590E069837A830E94B90421E041E0E4
:101DC00050E069817A81812F0E941D0C0E94B80425
:101DD00081E090E00F900F90DF91CF911F910895D7
:101DE000FF920F931F93CF93DF93F82E80E590E03F
:101DF0000E94B904C0E0D0E08F2D0E949A0D8C01A2
:101E0000892B21F08F2D0E949A0DEC01C017D1076C
:101E100099F70E94B804CE01DF91CF911F910F91E5
:101E2000FF900895AF92BF92CF92DF92EF92FF9210
:101E30001F93CF93DF93182F5B017A0180E590E029
:101E40000E94B904C0E0D0E0812F0E949A0D6C017D
:101E5000892B21F0812F0E949A0DEC01CC15DD0514
:101E600099F7209799F463E070E0812F0E948C022B
:101E70008431F1F08823E1F0C1E0D0E08C3111F43D
:101E8000C0E0D0E0D195C195D10912C0EC16FD0695
:101E90000CF4E7011C161D065CF420E0AE01B50150
:101EA000812F0E941D0C60E470E0812F0E940D0CB8
:101EB0000E94B804CE01DF91CF911F91FF90EF9067
:101EC000DF90CF90BF90AF900895CF93C82F80E55B
:101ED00090E00E94B90460E170E08C2F0E940D0C2C
:101EE0004FEF62E070E08C2F0E948202CF910C9441
:101EF000B804FF920F931F93CF93DF9300D0CDB719
:101F0000DEB7F82E8A012A8369830E94650F80E577
:101F100090E00E94B9042A816981462F422B60E03B
:101F200070E08F2D0E9482020115110551F400917D
:101F30009002109191020F5F1F4F10939102009336
:101F40009002412F64E070E08F2D0E948202402FAA
:101F500065E070E08F2D0E94820261E070E08F2DBD
:101F60000E940D0C0E94B80481E00F900F90DF9149
:101F7000CF911F910F91FF900895EBE9F2E0A089B6
:101F8000B18982E08C93A485B5851C92A685B7851E
:101F90008FEC8C93108EA489B58986E08C93A289EE
:101FA000B3898C9180618C93A289B3898C9188606C
:101FB0008C93A289B3898C9180688C930288F38971
:101FC000E02D80818F7D8083089590E0FC01E553B2
:101FD000FF4F2491FC01E954FF4F8491882399F02D
:101FE00090E0880F991FFC01E355FF4FA591B49134
:101FF000FC01ED55FF4F859194918FB7F894EC91CA
:10200000E22BEC938FBF0895CF93DF9300D000D0E5
:1020100000D0CDB7DEB7789484B5826084BD84B536
:10202000816084BD85B5826085BD85B5816085BDD3
:1020300080916E00816080936E001092810080918B
:102040008100826080938100809181008160809313
:102050008100809180008160809380008091B10038
:1020600084608093B1008091B00081608093B00063
:1020700080917A00846080937A0080917A008260F7
:1020800080937A0080917A00816080937A008091B9
:102090007A00806880937A001092C10010927902D1
:1020A00010927A0210927B0210927C0210924702E8
:1020B000109248021092490210924A0260ED77E0B5
:1020C00080E090E00E941A0A8BE992E090937802F7
:1020D000809377020E94BD0F0E94D70D00914702A6
:1020E000109148022091490230914A02DC01CB0153
:1020F000801B910BA20BB30B84369105A105B10592
:1021000038F463E070E080E090E00E941A0AE4CFC7
:102110000E94D70D60934702709348028093490252
:1021200090934A0268EB71E0809177029091780277
:102130000E940D0D6AE070E080E090E00E941A0AB3
:1021400081E080934B020E94BD0F6AEC71E08BE945
:1021500092E00E94880D88E690E00E94EC0B8BE9EB
:1021600092E00E946B0D00EB11E01A8309838091CD
:102170005B0390915C03A0915D03B0915E038B8340
:102180009C83AD83BE83CE0101960E947F0A61EEDF
:1021900071E08BE992E00E940D0D1A8309831B8286
:1021A0001C821D821E8280E590E00E94B90444E0FA
:1021B00050E0BE016D5F7F4F8FE090E00E94500EB7
:1021C0000E94B804BE016F5F7F4F8BE992E00E94CE
:1021D0006F0D68EE73E080E090E00E941A0A1A83A7
:1021E00009838091020190910301A0910401B091B3
:1021F00005018B839C83AD83BE8348E557E0BE0118
:102200006F5F7F4F86E493E00E943005892B39F1A0
:1022100061EF71E08BE992E00E94880D6DE072E061
:1022200086E493E00E940D0D6AE172E086E493E09B
:102230000E94880D64E272E086E493E00E940D0D36
:1022400063E573E086E493E00E946F0D6BE272E059
:1022500086E493E00E94880D86E493E006C08DE753
:1022600090E00E94EC0B8BE992E00E946B0D86E4FB
:1022700093E00E940004882381F086E493E00E94AA
:10228000AF04892BA1F386E493E00E949504682FA4
:102290008BE992E00E94060DEACF8BE992E00E9462
:1022A0006B0D86E493E00E942404C0907D02D090E0
:1022B0007E02C601019690937E0280937D020D2CD2
:1022C000000CEE08FF08F7FE0EC06DE28BE992E00D
:1022D0000E94060D44275527BA014C195D096E0965
:1022E0007F092AE003C02AE0B701A6018BE992E04A
:1022F0000E94220D8BE992E00E946B0D68EE73E064
:1023000080E090E00E941A0A0E94700968CFEFE511
:10231000F3E080EB91E09183808312821382148238
:102320001582EBE9F2E01382128248EE53E060E09E
:1023300070E0448355836683778324E631E03183FC
:10234000208325EC30E03587248724EC30E0378784
:10235000268720EC30E0318B208B21EC30E0338B72
:10236000228B22EC30E0358B248B26EC30E0378B4F
:10237000268B118E128E138E148EE5E6F3E0918378
:1023800080831282138214821582EBE6F3E091833C
:1023900080831282138214821582E1E7F3E0918335
:1023A00080831282138214821582E7E7F3E091831F
:1023B00080831282138214821582E8E3F3E0918312
:1023C00080831282138214821582E0E4F3E0918309
:1023D00080831282138214821582EDE7F3E09183E9
:1023E00080831282138214821582EFE8F3E09183D6
:1023F00080831282138214821582E9E8F3E09183CC
:10240000808320EC228330E83383148231E03583EB
:10241000E3E8F3E0918380833FEF328333831482D8
:102420001582E9E5F3E091838083228338EA3383E0
:102430001482AAE0A583E3E5F3E0918380832283FD
:10244000338314828BE08583E6E4F3E01382128207
:1024500044835583668377838CE891E091838083FE
:1024600084E084870895EE0FFF1F0590F491E02D1E
:10247000099481E090E0F8940C946012A1E21A2E85
:10248000AA1BBB1BFD010DC0AA1FBB1FEE1FFF1F18
:10249000A217B307E407F50720F0A21BB30BE40B68
:1024A000F50B661F771F881F991F1A9469F76095AF
:1024B0007095809590959B01AC01BD01CF01089569
:0424C000F894FFCFBE
:1024C40000C0C0A8000B18037352069C0100000052
:1024D40001005E00000000000000C009C009C0093E
:1024E400C009C009C009C009C009C009C009C009A0
:1024F400C009C009C009C009C009000000009C004F
:10250400C201B2004001E5009B00CB026D02B8039A
:10251400FA01F80269012101CA00BA00B6004103B8
:10252400000000000709540AD008AE08C2084E098A
:1025340000000000C009540AC009C009C009C0094C
:1025440000000000C009540A000000006C04BC0430
:10255400AF049504FE00E40030053B089104240414
:102564000004DC008E048C04D1008204000000000E
:102574007A0900000000C009564D4450565F317C72
:10258400315F564D4450560D0A0053657474696E9C
:10259400672075702045746865726E65742E2E2EE2
:1025A400004D7920495020616464726573733A2048
:1025B4000047657474696E67206461746120667293
:1025C4006F6D2052617370626572727900504F535F
:1025D40054202F5069636B49540020485454502FA1
:1025E400312E3100486F73743A2000436F6E6E656C
:0E25F4006374696F6E3A20636C6F736500004C
:00000001FF
