:100000000C9463000C948B000C948B000C94720481
:100010000C9472040C9472040C948B000C948B005E
:100020000C948B000C948B000C948B000C948B0024
:100030000C948B000C948B000C948B000C948B0014
:100040000C9428040C948B000C94F6030C94D003AD
:100050000C948B000C948B000C948B000C948B00F4
:100060000C948B000C948B0000000008000201002F
:100070000003040700000000000000000000000072
:10008000250028002B0000000000240027002A0083
:1000900000000000230026002900040404040404D6
:1000A0000404020202020202030303030303010227
:1000B00004081020408001020408102001020408F6
:1000C0001020EC04EE0711241FBECFEFD8E0DEBFF6
:1000D000CDBF11E0A0E0B1E0EEE0F3E102C0059099
:1000E0000D92A23BB107D9F723E0A2EBB1E001C02A
:1000F0001D92A033B207E1F710E0C2E6D0E004C0E1
:100100002197FE010E942008C136D107C9F70E943D
:1001100088060C947A090C940000EAE3F2E0A089C6
:10012000B18982E08C93A485B5851C92A685B7859C
:1001300087E08C93108EA489B58986E08C93A28980
:10014000B3898C9180618C93A289B3898C918860EA
:100150008C93A289B3898C9180688C930288F389EF
:10016000E02D80818F7D80830895CF92DF92EF9282
:10017000FF920F931F93CF93DF936C017A018B0152
:10018000C0E0D0E0CE15DF0589F0D8016D918D017A
:10019000D601ED91FC910190F081E02DC601099509
:1001A000892B11F47E0102C02196ECCFC701DF91AB
:1001B000CF911F910F91FF90EF90DF90CF90089516
:1001C000FC01918D828D981761F0828DDF01A80F5F
:1001D000B11D5D968C91928D9F5F9F73928F90E081
:1001E00008958FEF9FEF0895FC01918D828D9817F0
:1001F00031F0828DE80FF11D858D90E008958FEF2D
:100200009FEF0895FC01918D228D892F90E0805CF5
:100210009F4F821B91098F73992708958AE392E07B
:100220000E94020121E0892B09F420E0822F089529
:10023000FC01848DDF01A80FB11DA35ABF4F2C9183
:10024000848D90E001968F739927848FA689B78952
:100250002C93A089B1898C9180648C93938D848D2B
:10026000981306C00288F389E02D80818F7D8083FA
:100270000895EF92FF920F931F93CF93DF93EC01BA
:1002800081E0888F9B8D8C8D981305C0E889F98952
:10029000808185FD24C0F62E0B8D10E00F5F1F4F6F
:1002A0000F731127E02E8C8DE8120CC00FB607FCDF
:1002B000FACFE889F989808185FFF5CFCE010E94C8
:1002C0001801F1CF8B8DFE01E80FF11DE35AFF4FAE
:1002D000F0820B8FEA89FB898081806207C0EE89FA
:1002E000FF896083E889F98980818064808381E067
:1002F00090E0DF91CF911F910F91FF90EF900895C3
:10030000CF93DF93EC01888D8823C9F0EA89FB89BC
:10031000808185FD05C0A889B9898C9186FD0FC0B3
:100320000FB607FCF5CF808185FFF2CFA889B98988
:100330008C9185FFEDCFCE010E941801E7CFDF91B0
:10034000CF91089580E090E0892B29F00E940E0162
:1003500081110C940000089590E0FC01E859FF4FD2
:100360003491FC01E255FF4F2491FC01E656FF4F0A
:10037000E491EE2309F43BC0332339F1333091F09B
:1003800038F43130A9F0323001F584B58F7D12C0D8
:10039000373091F03830A1F03430B9F480918000DA
:1003A0008F7D03C0809180008F77809380000DC087
:1003B00084B58F7784BD09C08091B0008F7703C06A
:1003C0008091B0008F7D8093B000F0E0EE0FFF1FB2
:1003D000E458FF4FA591B4918FB7F894EC91611157
:1003E00003C020952E2301C02E2B2C938FBF089580
:1003F0003FB7F8948091F3019091F401A091F50139
:10040000B091F60126B5A89B05C02F3F19F00196C3
:10041000A11DB11D3FBFBA2FA92F982F8827820F8A
:10042000911DA11DB11DBC01CD0142E0660F771FDA
:10043000881F991F4A95D1F708958F929F92AF9286
:10044000BF92CF92DF92EF92FF926B017C010E94EC
:10045000F8014B015C01C114D104E104F104F1F095
:100460000E94F801DC01CB0188199909AA09BB098E
:10047000883E9340A105B10570F321E0C21AD1086E
:10048000E108F10888EE880E83E0981EA11CB11CDB
:10049000C114D104E104F10419F7DDCFFF90EF900E
:1004A000DF90CF90BF90AF909F908F900895209154
:1004B0000503309106032817390771F4909103035F
:1004C00080910403981741F0E0910303F0E0EE54AB
:1004D000FE4F808190E008958FEF9FEF089508957B
:1004E0001F93CF93DF93DC015C962D913C915D9738
:1004F0002115310539F481E090E013969C938E9399
:1005000012973DC05196ED91FC91529750969C9157
:100510005097892F80951FB75E964C915E9741FB4F
:10052000772770F941FD6095F8944081772311F0A9
:10053000492B01C048234083E9012197F1F748E0A6
:10054000508160FF02C0592B01C058235083E9013C
:100550002197F1F76695415099F7772321F0908123
:100560008923808303C08081982B90831FBF5C9672
:100570008D919C915D970197F1F721E030E0C901E1
:10058000DF91CF911F9108952091050330910603CB
:100590002817390771F4809104032091030390E038
:1005A000805C9F4F821B910960E470E00E94F80715
:1005B000089580E090E008952091050330910603AE
:1005C00028173907B9F49091030380910403981711
:1005D00089F0E0910303F0E0EE54FE4F808120911A
:1005E000030330E02F5F3F4F2F7333272093030324
:1005F00090E008958FEF9FEF0895E0910503F0914B
:100600000603E817F90769F4A389B4899C918589E1
:10061000809589238C93109206031092050381E044
:10062000089580E008956115710579F0FB0101904E
:100630000020E9F73197AF01461B570BDC01ED9124
:10064000FC910280F381E02D099480E090E0089510
:10065000CF93DF93BC018AE392E00E941303EC0185
:100660006FE371E08AE392E00E9413038C0F9D1FF9
:10067000DF91CF9108954F925F926F927F92EF92A8
:10068000FF920F931F93CF93DF93CDB7DEB7A19760
:100690000FB6F894DEBF0FBECDBF7C01FA01CB01CF
:1006A00019A2223008F42AE08E010F5D1F4F422E5E
:1006B000512C612C712CBF01A30192010E94580999
:1006C000F901CA01015011096A3014F4605D01C0DA
:1006D000695CD8016C93232B242B252B61F7B8017F
:1006E000C7010E941303A1960FB6F894DEBF0FBE98
:1006F000CDBFDF91CF911F910F91FF90EF907F9031
:100700006F905F904F9008958F929F92AF92BF929B
:10071000CF92DF92EF92FF920F931F93CF93DF93CD
:100720007C01EB016C0182E0C80ED11C4701E5E0C1
:100730008E0E911C00E010E0F60141916F0150E037
:1007400060E070E02AE0CE010E943B035C01E8819A
:10075000F9810190F081E02D6EE2CE0109958A0DBC
:100760009B1D080F191FC814D90431F7F7014581E3
:1007700050E060E070E02AE0CE010E943B03800F71
:10078000911FDF91CF911F910F91FF90EF90DF901C
:10079000CF90BF90AF909F908F9008950E94530983
:1007A0001F920F920FB60F9211242F933F934F93E6
:1007B0005F936F937F938F939F93AF93BF93EF93C9
:1007C000FF938AE392E00E941801FF91EF91BF919D
:1007D000AF919F918F917F916F915F914F913F91D9
:1007E0002F910F900FBE0F901F9018951F920F9290
:1007F0000FB60F9211242F938F939F93EF93FF9334
:10080000E0914A02F0914B028081E0915002F09118
:10081000510282FD12C09081809153028F5F8F73CD
:1008200020915402821751F0E0915302F0E0E65C0F
:10083000FD4F958F8093530201C08081FF91EF910E
:100840009F918F912F910F900FBE0F901F90189531
:100850001F920F920FB60F9211242F933F938F93F5
:100860009F93AF93BF938091F7019091F801A0916E
:10087000F901B091FA013091F20123E0230F2D37F5
:1008800020F40196A11DB11D05C026E8230F029694
:10089000A11DB11D2093F2018093F7019093F801FF
:1008A000A093F901B093FA018091F3019091F401C2
:1008B000A091F501B091F6010196A11DB11D8093A3
:1008C000F3019093F401A093F501B093F601BF9169
:1008D000AF919F918F913F912F910F900FBE0F90ED
:1008E0001F9018951F920F920FB60F9211242F93FD
:1008F0003F934F935F936F937F938F939F93AF93A8
:10090000BF93EF93FF93E0910503F09106033097B7
:1009100009F451C0968DA685B785858591FF04C0E1
:100920009C91892329F447C09C91892309F043C0F5
:10093000A389B4899C918589809589238C93868924
:1009400097890197F1F7608D718DA685B7855585DB
:1009500038E020E0CB010197F1F7822F90E09595E8
:100960008795282F4C91452309F02068315091F745
:10097000868D81FD20958091040390E001968F7310
:10098000992730910303381749F0A0910403B0E090
:10099000AE54BE4F2C938093040303C0868D8160B8
:1009A000868F828D938D0197F1F7A389B4899C91ED
:1009B0008589892B8C93FF91EF91BF91AF919F9186
:1009C0008F917F916F915F914F913F912F910F90F8
:1009D0000FBE0F901F901895CF93DF938EE291E09A
:1009E00090933502809334021092360210923702AF
:1009F000109238021092390210923D0210923C027D
:100A000048EE53E060E070E040933E0250933F02B6
:100A100060934002709341022EE031E030933B023C
:100A200020933A0225EC30E03093470220934602AF
:100A300024EC30E0309349022093480220EC30E06F
:100A400030934B0220934A0221EC30E030934D0268
:100A500020934C0222EC30E030934F0220934E0260
:100A600026EC30E030935102209350021092530252
:100A70001092540210925502109256029093D8028E
:100A80008093D7021092D9021092DA021092DB0200
:100A90001092DC029093DE028093DD021092DF025E
:100AA0001092E0021092E1021092E2029093E402AE
:100AB0008093E3021092E5021092E6021092E702A0
:100AC0001092E8029093F2028093F1021092F302E6
:100AD0001092F4021092F5021092F6029093EA023C
:100AE0008093E9021092EB021092EC021092ED0258
:100AF0001092EE029093F8028093F7021092F9029E
:100B00001092FA021092FB021092FC029093FE02E5
:100B10008093FD021092FF021092000310920103D5
:100B200010920203909327038093260310922803C8
:100B30001092290310922A0310922B0310920A0399
:100B40001092090340930B0350930C0360930D0321
:100B500070930E038EE191E0909308038093070356
:100B600010921E0310921D031092200310921F0377
:100B70001092220310922103109224031092230357
:100B8000609125036E7F6D7F60932503669561708C
:100B900081E0682783E00E94AC01E1EBF0E0249162
:100BA000EDE9F0E08491882399F090E0880F991F97
:100BB000FC01EA57FF4FA591B491FC01E458FF4FA7
:100BC000859194918FB7F894EC91E22BEC938FBFC1
:100BD000E1EBF0E0E491E0931703EDE9F0E0E4915C
:100BE000F0E0EE0FFF1FE458FF4F85919491909332
:100BF000190380931803E0EBF0E02491ECE9F0E0B6
:100C000084918823C1F090E0880F991FFC01EA5776
:100C1000FF4FC591D491FC01E458FF4FA591B491C9
:100C20009FB7F8948881E22FE0958E2388838C917A
:100C3000E823EC939FBF8091250381FD04C061E010
:100C400082E00E94AC0182E080931303E0EBF0E0CD
:100C5000E491E0931403ECE9F0E0E491F0E0EE0FAE
:100C6000FF1FE057FF4F8591949190931603809357
:100C700015038DE991E090932403809323032DEBDA
:100C800030E030931E0320931D032BE931E03093B5
:100C9000200320931F032CE231E0309322032093A2
:100CA0002103209168002460209368002DE630E045
:100CB00030931B0320931A0324E020931C03019715
:100CC000F1F7809105039091060323E087309207A6
:100CD000E1F0009711F00E94FD02809125038E7FC4
:100CE00080932503109204031092030387E093E09E
:100CF0009093060380930503E0911A03F0911B0380
:100D0000908180911C03892B8083DF91CF9108957E
:100D1000CF93DF9300D01F92CDB7DEB7789484B520
:100D2000826084BD84B5816084BD85B5826085BDE7
:100D300085B5816085BD80916E00816080936E0075
:100D40001092810080918100826080938100809167
:100D50008100816080938100809180008160809318
:100D600080008091B10084608093B1008091B000D8
:100D700081608093B00080917A00846080937A00D3
:100D800080917A00826080937A0080917A008160FD
:100D900080937A0080917A00806880937A00109224
:100DA000C10010922E0210922F0210923002109267
:100DB00031021092FC011092FD011092FE0110927E
:100DC000FF0160ED77E080E090E00E941D028AE381
:100DD00092E090932D0280932C020E948D002FB7F9
:100DE000F8948091F7019091F801A091F901B091E8
:100DF000FA012FBF4091FC015091FD016091FE016D
:100E00007091FF01841B950BA60BB70B84369105DF
:100E1000A105B10538F463E070E080E090E00E9445
:100E20001D02DDCF2FB7F8948091F7019091F80162
:100E3000A091F901B091FA012FBF8093FC0190932A
:100E4000FD01A093FE01B093FF0160E371E080918A
:100E50002C0290912D020E9413036AE070E080E062
:100E600090E00E941D0281E0809300020E948D00AC
:100E700082E491E00E94280381E3B82E93E0A92E3A
:100E8000992493946E0184E0C80ED11C8AE392E009
:100E90000E9402018C018AE392E00E94E00021E0BE
:100EA00030E08136910511F020E030E00223132379
:100EB000012B09F490C085E591E00E942803B982D6
:100EC000AA829B828E010F5F1F4FF801F1908F0164
:100ED0006F2D87E093E00E9470024F2D50E060E09C
:100EE00070E020E18AE392E00E943B030C151D05AF
:100EF00061F78FE691E00E94280368EE73E080E0DE
:100F000090E00E941D02812C00E010E0E12CF12C09
:100F100087E093E00E94C402892B89F187E093E087
:100F2000E114F10421F40E94DC02882E24C0F1E0D7
:100F3000EF16F10459F40E94DC023C0199270E944B
:100F400026088C01FC018082618215C00E94DC02AF
:100F5000F801EE0DFF1D8083482F50E060E070E047
:100F600020E18AE392E00E943B036FE371E08AE3B1
:100F700092E00E941303FFEFEF1AFF0AC9CF82E845
:100F800091E00E942803109333020093320283E918
:100F900091E00E9428037801F801818190E0970197
:100FA000201B310B2817390794F4F70141917F0179
:100FB00050E060E070E020E18AE392E00E943B03B1
:100FC00061EA71E08AE392E00E941303E5CF83EACD
:100FD00091E00E9428030E94A20158CF8EE191E087
:100FE000909308038093070387E093E00C94FD023D
:100FF00097FB072E16F4009407D077FD09D00E94C6
:101000000C0807FC05D03EF4909581959F4F0895FC
:10101000709561957F4F0895AA1BBB1B51E107C0D6
:10102000AA1FBB1FA617B70710F0A61BB70B881F78
:10103000991F5A95A9F780959095BC01CD01089507
:10104000EE0FFF1F0590F491E02D0994CF93DF93ED
:101050008230910510F482E090E0E0912E03F0914F
:101060002F0320E030E0C0E0D0E0309711F1408164
:10107000518148175907C0F04817590761F4828118
:101080009381209719F09B838A832BC090932F0321
:1010900080932E0326C02115310519F042175307FE
:1010A00018F49A01BE01DF01EF010280F381E02D07
:1010B000DCCF2115310509F1281B390B243031050E
:1010C00090F412968D919C9113976115710521F002
:1010D000FB019383828304C090932F0380932E039C
:1010E000FD01329644C0FD01E20FF31F81939193FD
:1010F000225031092D933C933AC020912C0330911A
:101100002D03232B41F420910201309103013093F0
:101110002D0320932C032091000130910101211512
:10112000310541F42DB73EB74091040150910501BE
:10113000241B350BE0912C03F0912D03E217F307EC
:10114000A0F42E1B3F0B2817390778F0AC014E5F37
:101150005F4F2417350748F04E0F5F1F50932D0344
:1011600040932C038193919302C0E0E0F0E0CF0123
:10117000DF91CF9108950F931F93CF93DF93009743
:1011800009F48CC0FC0132971382128200912E0365
:1011900010912F030115110581F420813181820FF7
:1011A000931F20912C0330912D032817390779F5CF
:1011B000F0932D03E0932C0371C0D80140E050E080
:1011C000AE17BF0750F412962D913C911397AD01C5
:1011D0002115310509F1D901F3CF9D01DA013383DE
:1011E000228360817181860F971F8217930769F4AC
:1011F000EC0128813981260F371F2E5F3F4F318345
:1012000020838A819B8193838283452B29F4F093E9
:101210002F03E0932E0342C01396FC93EE93129794
:10122000ED01499159919E01240F351FE217F307F3
:1012300071F480819181840F951F029611969C9381
:101240008E938281938113969C938E931297E0E004
:10125000F0E0D80112968D919C911397009719F0A8
:10126000F8018C01F6CF8D919C9198012E5F3F4F34
:10127000820F931F20912C0330912D0328173907DB
:1012800069F4309729F410922F0310922E0302C0B4
:101290001382128210932D0300932C03DF91CF91C0
:1012A0001F910F91089581E090E0F8940C947A09D1
:1012B000A1E21A2EAA1BBB1BFD010DC0AA1FBB1F5A
:1012C000EE1FFF1FA217B307E407F50720F0A21BCC
:1012D000B30BE40BF50B661F771F881F991F1A9439
:1012E00069F760957095809590959B01AC01BD0163
:1012F000CF01089510E0C2E6D0E004C0FE010E94D4
:0E13000020082196C336D107C9F7F894FFCF15
:10130E0000003003800001000000000000003901E1
:10131E00B5000201E000F400800100000000700240
:10132E00B500C402DC0257026F0200000000840305
:10133E00564D4450565F317C315F564D4450560DDC
:10134E000A0053657269616C20696E697469616C1B
:10135E00697A656400507265706172696E67207497
:10136E006F2073656E6420646174612E2E2E0044AE
:10137E0061746120686173206265656E2073656EAD
:10138E007400456E64206F662072656365707469C3
:10139E006F6E00537461727420646973706C61793E
:1013AE00002C00456E64206F662072656164696E64
:0213BE006700C6
:00000001FF
